{
  "contractName": "AccountRegistration",
  "abi": [
    {
      "inputs": [],
      "stateMutability": "nonpayable",
      "type": "constructor"
    },
    {
      "inputs": [
        {
          "internalType": "uint256",
          "name": "",
          "type": "uint256"
        }
      ],
      "name": "aadharToUser",
      "outputs": [
        {
          "internalType": "address",
          "name": "",
          "type": "address"
        }
      ],
      "stateMutability": "view",
      "type": "function",
      "constant": true
    },
    {
      "inputs": [],
      "name": "deployer",
      "outputs": [
        {
          "internalType": "address",
          "name": "",
          "type": "address"
        }
      ],
      "stateMutability": "view",
      "type": "function",
      "constant": true
    },
    {
      "inputs": [
        {
          "internalType": "uint256",
          "name": "",
          "type": "uint256"
        }
      ],
      "name": "pendingVerifications",
      "outputs": [
        {
          "internalType": "address",
          "name": "userAddress",
          "type": "address"
        },
        {
          "internalType": "uint256",
          "name": "aadharNumber",
          "type": "uint256"
        }
      ],
      "stateMutability": "view",
      "type": "function",
      "constant": true
    },
    {
      "inputs": [
        {
          "internalType": "uint256",
          "name": "",
          "type": "uint256"
        }
      ],
      "name": "userAccounts",
      "outputs": [
        {
          "internalType": "address",
          "name": "userAddress",
          "type": "address"
        },
        {
          "internalType": "string",
          "name": "username",
          "type": "string"
        },
        {
          "internalType": "bool",
          "name": "isUserVerified",
          "type": "bool"
        },
        {
          "internalType": "uint8",
          "name": "designation",
          "type": "uint8"
        },
        {
          "internalType": "uint256",
          "name": "registrationDate",
          "type": "uint256"
        },
        {
          "internalType": "uint256",
          "name": "aadharNumber",
          "type": "uint256"
        }
      ],
      "stateMutability": "view",
      "type": "function",
      "constant": true
    },
    {
      "inputs": [
        {
          "internalType": "address",
          "name": "",
          "type": "address"
        }
      ],
      "name": "userAccountsMap",
      "outputs": [
        {
          "internalType": "address",
          "name": "userAddress",
          "type": "address"
        },
        {
          "internalType": "string",
          "name": "username",
          "type": "string"
        },
        {
          "internalType": "bool",
          "name": "isUserVerified",
          "type": "bool"
        },
        {
          "internalType": "uint8",
          "name": "designation",
          "type": "uint8"
        },
        {
          "internalType": "uint256",
          "name": "registrationDate",
          "type": "uint256"
        },
        {
          "internalType": "uint256",
          "name": "aadharNumber",
          "type": "uint256"
        }
      ],
      "stateMutability": "view",
      "type": "function",
      "constant": true
    },
    {
      "inputs": [],
      "name": "getPendingVerifications",
      "outputs": [
        {
          "components": [
            {
              "internalType": "address",
              "name": "userAddress",
              "type": "address"
            },
            {
              "internalType": "uint256",
              "name": "aadharNumber",
              "type": "uint256"
            }
          ],
          "internalType": "struct AccountRegistration.PendingVerification[]",
          "name": "",
          "type": "tuple[]"
        }
      ],
      "stateMutability": "view",
      "type": "function",
      "constant": true
    },
    {
      "inputs": [
        {
          "internalType": "uint256",
          "name": "_aadharNumber",
          "type": "uint256"
        }
      ],
      "name": "requestVerification",
      "outputs": [],
      "stateMutability": "nonpayable",
      "type": "function"
    },
    {
      "inputs": [
        {
          "internalType": "uint256",
          "name": "_aadharNumber",
          "type": "uint256"
        }
      ],
      "name": "validateAadhar",
      "outputs": [
        {
          "internalType": "bool",
          "name": "",
          "type": "bool"
        }
      ],
      "stateMutability": "pure",
      "type": "function",
      "constant": true
    },
    {
      "inputs": [
        {
          "internalType": "uint256",
          "name": "_aadharNumber",
          "type": "uint256"
        }
      ],
      "name": "verifyAccount",
      "outputs": [],
      "stateMutability": "nonpayable",
      "type": "function"
    },
    {
      "inputs": [
        {
          "internalType": "string",
          "name": "_username",
          "type": "string"
        },
        {
          "internalType": "uint256",
          "name": "_aadharNumber",
          "type": "uint256"
        }
      ],
      "name": "setUserDetails",
      "outputs": [],
      "stateMutability": "nonpayable",
      "type": "function"
    },
    {
      "inputs": [
        {
          "internalType": "uint256",
          "name": "_aadharNumber",
          "type": "uint256"
        }
      ],
      "name": "getUserDetails",
      "outputs": [
        {
          "internalType": "address",
          "name": "userAddress",
          "type": "address"
        },
        {
          "internalType": "string",
          "name": "username",
          "type": "string"
        },
        {
          "internalType": "bool",
          "name": "isUserVerified",
          "type": "bool"
        },
        {
          "internalType": "uint8",
          "name": "designation",
          "type": "uint8"
        },
        {
          "internalType": "uint256",
          "name": "registrationDate",
          "type": "uint256"
        },
        {
          "internalType": "uint256",
          "name": "aadharNumber",
          "type": "uint256"
        }
      ],
      "stateMutability": "view",
      "type": "function",
      "constant": true
    },
    {
      "inputs": [
        {
          "internalType": "address",
          "name": "_inspector",
          "type": "address"
        },
        {
          "internalType": "string",
          "name": "_username",
          "type": "string"
        },
        {
          "internalType": "uint256",
          "name": "_aadhar",
          "type": "uint256"
        }
      ],
      "name": "addLandInspector",
      "outputs": [],
      "stateMutability": "nonpayable",
      "type": "function"
    },
    {
      "inputs": [
        {
          "internalType": "address",
          "name": "_authority",
          "type": "address"
        },
        {
          "internalType": "string",
          "name": "_username",
          "type": "string"
        },
        {
          "internalType": "uint256",
          "name": "_aadhar",
          "type": "uint256"
        }
      ],
      "name": "addSecondLevelAuthority",
      "outputs": [],
      "stateMutability": "nonpayable",
      "type": "function"
    },
    {
      "inputs": [
        {
          "internalType": "address",
          "name": "_authority",
          "type": "address"
        }
      ],
      "name": "removeSecondLevelAuthority",
      "outputs": [],
      "stateMutability": "nonpayable",
      "type": "function"
    },
    {
      "inputs": [
        {
          "internalType": "address",
          "name": "_inspector",
          "type": "address"
        }
      ],
      "name": "removeLandInspector",
      "outputs": [],
      "stateMutability": "nonpayable",
      "type": "function"
    },
    {
      "inputs": [
        {
          "internalType": "address",
          "name": "_account",
          "type": "address"
        }
      ],
      "name": "checkUserVerified",
      "outputs": [
        {
          "internalType": "bool",
          "name": "",
          "type": "bool"
        }
      ],
      "stateMutability": "view",
      "type": "function",
      "constant": true
    },
    {
      "inputs": [
        {
          "internalType": "address",
          "name": "_account",
          "type": "address"
        }
      ],
      "name": "isLandInspector",
      "outputs": [
        {
          "internalType": "bool",
          "name": "",
          "type": "bool"
        }
      ],
      "stateMutability": "view",
      "type": "function",
      "constant": true
    },
    {
      "inputs": [
        {
          "internalType": "address",
          "name": "_account",
          "type": "address"
        }
      ],
      "name": "isSecondLevelAuthority",
      "outputs": [
        {
          "internalType": "bool",
          "name": "",
          "type": "bool"
        }
      ],
      "stateMutability": "view",
      "type": "function",
      "constant": true
    },
    {
      "inputs": [
        {
          "internalType": "address",
          "name": "_account",
          "type": "address"
        }
      ],
      "name": "isDeployer",
      "outputs": [
        {
          "internalType": "bool",
          "name": "",
          "type": "bool"
        }
      ],
      "stateMutability": "view",
      "type": "function",
      "constant": true
    },
    {
      "inputs": [
        {
          "internalType": "address",
          "name": "_account",
          "type": "address"
        }
      ],
      "name": "grantLandInspectorStatus",
      "outputs": [],
      "stateMutability": "nonpayable",
      "type": "function"
    },
    {
      "inputs": [
        {
          "internalType": "address",
          "name": "_account",
          "type": "address"
        }
      ],
      "name": "grantSecondLevelAuthorityStatus",
      "outputs": [],
      "stateMutability": "nonpayable",
      "type": "function"
    },
    {
      "inputs": [
        {
          "internalType": "address",
          "name": "_account",
          "type": "address"
        }
      ],
      "name": "revokeLandInspectorStatus",
      "outputs": [],
      "stateMutability": "nonpayable",
      "type": "function"
    },
    {
      "inputs": [
        {
          "internalType": "address",
          "name": "_account",
          "type": "address"
        }
      ],
      "name": "revokeSecondLevelAuthorityStatus",
      "outputs": [],
      "stateMutability": "nonpayable",
      "type": "function"
    }
  ],
  "bytecode": "0x60806040523480156200001157600080fd5b50336000806101000a81548173ffffffffffffffffffffffffffffffffffffffff021916908373ffffffffffffffffffffffffffffffffffffffff160217905550620000c360008054906101000a900473ffffffffffffffffffffffffffffffffffffffff166040518060400160405280600881526020017f4465706c6f79657200000000000000000000000000000000000000000000000081525060036001641cbe991a14620000c960201b60201c565b62000a2f565b600073ffffffffffffffffffffffffffffffffffffffff16600360008773ffffffffffffffffffffffffffffffffffffffff1673ffffffffffffffffffffffffffffffffffffffff16815260200190815260200160002060000160009054906101000a900473ffffffffffffffffffffffffffffffffffffffff1673ffffffffffffffffffffffffffffffffffffffff16146200019d576040517f08c379a000000000000000000000000000000000000000000000000000000000815260040162000194906200082a565b60405180910390fd5b620001ae81620005b460201b60201c565b620001f0576040517f08c379a0000000000000000000000000000000000000000000000000000000008152600401620001e7906200084c565b60405180910390fd5b600073ffffffffffffffffffffffffffffffffffffffff166004600083815260200190815260200160002060009054906101000a900473ffffffffffffffffffffffffffffffffffffffff1673ffffffffffffffffffffffffffffffffffffffff161462000295576040517f08c379a00000000000000000000000000000000000000000000000000000000081526004016200028c906200086e565b60405180910390fd5b60016040518060c001604052808773ffffffffffffffffffffffffffffffffffffffff16815260200186815260200184151581526020018560ff16815260200142815260200183815250908060018154018082558091505060019003906000526020600020906005020160009091909190915060008201518160000160006101000a81548173ffffffffffffffffffffffffffffffffffffffff021916908373ffffffffffffffffffffffffffffffffffffffff16021790555060208201518160010190805190602001906200036d9291906200061c565b5060408201518160020160006101000a81548160ff02191690831515021790555060608201518160020160016101000a81548160ff021916908360ff1602179055506080820151816003015560a0820151816004015550506001808080549050620003d99190620008d9565b8154811062000411577f4e487b7100000000000000000000000000000000000000000000000000000000600052603260045260246000fd5b9060005260206000209060050201600360008773ffffffffffffffffffffffffffffffffffffffff1673ffffffffffffffffffffffffffffffffffffffff1681526020019081526020016000206000820160009054906101000a900473ffffffffffffffffffffffffffffffffffffffff168160000160006101000a81548173ffffffffffffffffffffffffffffffffffffffff021916908373ffffffffffffffffffffffffffffffffffffffff1602179055506001820181600101908054620004db906200091e565b620004e8929190620006ad565b506002820160009054906101000a900460ff168160020160006101000a81548160ff0219169083151502179055506002820160019054906101000a900460ff168160020160016101000a81548160ff021916908360ff1602179055506003820154816003015560048201548160040155905050846004600083815260200190815260200160002060006101000a81548173ffffffffffffffffffffffffffffffffffffffff021916908373ffffffffffffffffffffffffffffffffffffffff1602179055505050505050565b6000806000905060008390505b60008114620005f157600a81620005d99190620008a1565b90508180620005e89062000954565b925050620005c1565b600c82148015620006025750606584115b801562000613575064e8d4a5100084105b92505050919050565b8280546200062a906200091e565b90600052602060002090601f0160209004810192826200064e57600085556200069a565b82601f106200066957805160ff19168380011785556200069a565b828001600101855582156200069a579182015b82811115620006995782518255916020019190600101906200067c565b5b509050620006a9919062000745565b5090565b828054620006bb906200091e565b90600052602060002090601f016020900481019282620006df576000855562000732565b82601f10620006f2578054855562000732565b828001600101855582156200073257600052602060002091601f016020900482015b828111156200073157825482559160010191906001019062000714565b5b50905062000741919062000745565b5090565b5b808211156200076057600081600090555060010162000746565b5090565b600062000773601a8362000890565b91507f4164647265737320616c726561647920726567697374657265640000000000006000830152602082019050919050565b6000620007b560158362000890565b91507f496e76616c696420416164686172206e756d62657200000000000000000000006000830152602082019050919050565b6000620007f760208362000890565b91507f416164686172206e756d62657220616c726561647920726567697374657265646000830152602082019050919050565b60006020820190508181036000830152620008458162000764565b9050919050565b600060208201905081810360008301526200086781620007a6565b9050919050565b600060208201905081810360008301526200088981620007e8565b9050919050565b600082825260208201905092915050565b6000620008ae8262000914565b9150620008bb8362000914565b925082620008ce57620008cd620009d1565b5b828204905092915050565b6000620008e68262000914565b9150620008f38362000914565b925082821015620009095762000908620009a2565b5b828203905092915050565b6000819050919050565b600060028204905060018216806200093757607f821691505b602082108114156200094e576200094d62000a00565b5b50919050565b6000620009618262000914565b91507fffffffffffffffffffffffffffffffffffffffffffffffffffffffffffffffff821415620009975762000996620009a2565b5b600182019050919050565b7f4e487b7100000000000000000000000000000000000000000000000000000000600052601160045260246000fd5b7f4e487b7100000000000000000000000000000000000000000000000000000000600052601260045260246000fd5b7f4e487b7100000000000000000000000000000000000000000000000000000000600052602260045260246000fd5b61326b8062000a3f6000396000f3fe608060405234801561001057600080fd5b506004361061014d5760003560e01c806385cfd38c116100c3578063d5f394881161007c578063d5f39488146103c7578063dfdcd54c146103e5578063e165af8714610415578063efa828da14610445578063f60138531461047a578063f869d90d146104965761014d565b806385cfd38c1461030b57806397f471f61461033b578063a2d01ded14610357578063a731374d14610373578063a784cbbb1461038f578063aa068378146103ab5761014d565b806350c358a41161011557806350c358a41461020d57806355e953761461023d57806361045fae1461026e578063616d50581461028a5780637517e00f146102bf5780637c04c29e146102db5761014d565b806308f6f76e146101525780630c020f081461016e5780631c1a9f7b1461018a57806329b1b274146101bf5780633e64f39b146101ef575b600080fd5b61016c600480360381019061016791906125ed565b6104b2565b005b61018860048036038101906101839190612641565b6104c4565b005b6101a4600480360381019061019f9190612641565b610570565b6040516101b696959493929190612c9f565b60405180910390f35b6101d960048036038101906101d49190612641565b61075f565b6040516101e69190612d52565b60405180910390f35b6101f76107bf565b6040516102049190612d30565b60405180910390f35b6102276004803603810190610222919061255d565b61087e565b6040516102349190612d52565b60405180910390f35b61025760048036038101906102529190612641565b6108dc565b604051610265929190612d07565b60405180910390f35b6102886004803603810190610283919061255d565b610930565b005b6102a4600480360381019061029f9190612641565b610ac6565b6040516102b696959493929190612c9f565b60405180910390f35b6102d960048036038101906102d4919061255d565b610bd4565b005b6102f560048036038101906102f0919061255d565b610f14565b6040516103029190612d52565b60405180910390f35b61032560048036038101906103209190612641565b610f6d565b6040516103329190612c84565b60405180910390f35b61035560048036038101906103509190612586565b610fa0565b005b610371600480360381019061036c9190612586565b611049565b005b61038d60048036038101906103889190612641565b6110f1565b005b6103a960048036038101906103a4919061255d565b611536565b005b6103c560048036038101906103c0919061255d565b611874565b005b6103cf611a0c565b6040516103dc9190612c84565b60405180910390f35b6103ff60048036038101906103fa919061255d565b611a30565b60405161040c9190612d52565b60405180910390f35b61042f600480360381019061042a919061255d565b611a8f565b60405161043c9190612d52565b60405180910390f35b61045f600480360381019061045a919061255d565b611aee565b60405161047196959493929190612c9f565b60405180910390f35b610494600480360381019061048f919061255d565b611bec565b005b6104b060048036038101906104ab919061255d565b611d3a565b005b6104c0338360008085611e8a565b5050565b600260405180604001604052803373ffffffffffffffffffffffffffffffffffffffff16815260200183815250908060018154018082558091505060019003906000526020600020906002020160009091909190915060008201518160000160006101000a81548173ffffffffffffffffffffffffffffffffffffffff021916908373ffffffffffffffffffffffffffffffffffffffff16021790555060208201518160010155505050565b6000606060008060008060006004600089815260200190815260200160002060009054906101000a900473ffffffffffffffffffffffffffffffffffffffff169050600073ffffffffffffffffffffffffffffffffffffffff168173ffffffffffffffffffffffffffffffffffffffff161415610622576040517f08c379a000000000000000000000000000000000000000000000000000000000815260040161061990612d6d565b60405180910390fd5b6000600360008373ffffffffffffffffffffffffffffffffffffffff1673ffffffffffffffffffffffffffffffffffffffff16815260200190815260200160002090508060000160009054906101000a900473ffffffffffffffffffffffffffffffffffffffff16816001018260020160009054906101000a900460ff168360020160019054906101000a900460ff16846003015485600401548480546106c8906130bf565b80601f01602080910402602001604051908101604052809291908181526020018280546106f4906130bf565b80156107415780601f1061071657610100808354040283529160200191610741565b820191906000526020600020905b81548152906001019060200180831161072457829003601f168201915b50505050509450975097509750975097509750505091939550919395565b6000806000905060008390505b6000811461079657600a816107819190612fc3565b9050818061078e906130f1565b92505061076c565b600c821480156107a65750606584115b80156107b6575064e8d4a5100084105b92505050919050565b60606002805480602002602001604051908101604052809291908181526020016000905b8282101561087557838290600052602060002090600202016040518060400160405290816000820160009054906101000a900473ffffffffffffffffffffffffffffffffffffffff1673ffffffffffffffffffffffffffffffffffffffff1673ffffffffffffffffffffffffffffffffffffffff168152602001600182015481525050815260200190600101906107e3565b50505050905090565b600060038060008473ffffffffffffffffffffffffffffffffffffffff1673ffffffffffffffffffffffffffffffffffffffff16815260200190815260200160002060020160019054906101000a900460ff1660ff16149050919050565b600281815481106108ec57600080fd5b90600052602060002090600202016000915090508060000160009054906101000a900473ffffffffffffffffffffffffffffffffffffffff16908060010154905082565b60038060003373ffffffffffffffffffffffffffffffffffffffff1673ffffffffffffffffffffffffffffffffffffffff16815260200190815260200160002060020160019054906101000a900460ff1660ff16146109c4576040517f08c379a00000000000000000000000000000000000000000000000000000000081526004016109bb90612e8d565b60405180910390fd5b6109cd81611a30565b610a0c576040517f08c379a0000000000000000000000000000000000000000000000000000000008152600401610a0390612dcd565b60405180910390fd5b6000600360008373ffffffffffffffffffffffffffffffffffffffff1673ffffffffffffffffffffffffffffffffffffffff16815260200190815260200160002060020160006101000a81548160ff0219169083151502179055506000600360008373ffffffffffffffffffffffffffffffffffffffff1673ffffffffffffffffffffffffffffffffffffffff16815260200190815260200160002060020160016101000a81548160ff021916908360ff16021790555050565b60018181548110610ad657600080fd5b90600052602060002090600502016000915090508060000160009054906101000a900473ffffffffffffffffffffffffffffffffffffffff1690806001018054610b1f906130bf565b80601f0160208091040260200160405190810160405280929190818152602001828054610b4b906130bf565b8015610b985780601f10610b6d57610100808354040283529160200191610b98565b820191906000526020600020905b815481529060010190602001808311610b7b57829003601f168201915b5050505050908060020160009054906101000a900460ff16908060020160019054906101000a900460ff16908060030154908060040154905086565b6002600360003373ffffffffffffffffffffffffffffffffffffffff1673ffffffffffffffffffffffffffffffffffffffff16815260200190815260200160002060020160019054906101000a900460ff1660ff161015610c6a576040517f08c379a0000000000000000000000000000000000000000000000000000000008152600401610c6190612ecd565b60405180910390fd5b60008054906101000a900473ffffffffffffffffffffffffffffffffffffffff1673ffffffffffffffffffffffffffffffffffffffff168173ffffffffffffffffffffffffffffffffffffffff161415610cf9576040517f08c379a0000000000000000000000000000000000000000000000000000000008152600401610cf090612d8d565b60405180910390fd5b600073ffffffffffffffffffffffffffffffffffffffff16600360008373ffffffffffffffffffffffffffffffffffffffff1673ffffffffffffffffffffffffffffffffffffffff16815260200190815260200160002060000160009054906101000a900473ffffffffffffffffffffffffffffffffffffffff1673ffffffffffffffffffffffffffffffffffffffff161415610dcb576040517f08c379a0000000000000000000000000000000000000000000000000000000008152600401610dc290612dad565b60405180910390fd5b600060046000600360008573ffffffffffffffffffffffffffffffffffffffff1673ffffffffffffffffffffffffffffffffffffffff16815260200190815260200160002060040154815260200190815260200160002060006101000a81548173ffffffffffffffffffffffffffffffffffffffff021916908373ffffffffffffffffffffffffffffffffffffffff160217905550600360008273ffffffffffffffffffffffffffffffffffffffff1673ffffffffffffffffffffffffffffffffffffffff168152602001908152602001600020600080820160006101000a81549073ffffffffffffffffffffffffffffffffffffffff0219169055600182016000610ed7919061235b565b6002820160006101000a81549060ff02191690556002820160016101000a81549060ff021916905560038201600090556004820160009055505050565b6000600360008373ffffffffffffffffffffffffffffffffffffffff1673ffffffffffffffffffffffffffffffffffffffff16815260200190815260200160002060020160009054906101000a900460ff169050919050565b60046020528060005260406000206000915054906101000a900473ffffffffffffffffffffffffffffffffffffffff1681565b6002600360003373ffffffffffffffffffffffffffffffffffffffff1673ffffffffffffffffffffffffffffffffffffffff16815260200190815260200160002060020160019054906101000a900460ff1660ff161015611036576040517f08c379a000000000000000000000000000000000000000000000000000000000815260040161102d90612ecd565b60405180910390fd5b611044838360018085611e8a565b505050565b60038060003373ffffffffffffffffffffffffffffffffffffffff1673ffffffffffffffffffffffffffffffffffffffff16815260200190815260200160002060020160019054906101000a900460ff1660ff16146110dd576040517f08c379a00000000000000000000000000000000000000000000000000000000081526004016110d490612e8d565b60405180910390fd5b6110ec83836002600185611e8a565b505050565b6001600360003373ffffffffffffffffffffffffffffffffffffffff1673ffffffffffffffffffffffffffffffffffffffff16815260200190815260200160002060020160019054906101000a900460ff1660ff161015611187576040517f08c379a000000000000000000000000000000000000000000000000000000000815260040161117e90612e2d565b60405180910390fd5b60006004600083815260200190815260200160002060009054906101000a900473ffffffffffffffffffffffffffffffffffffffff169050600073ffffffffffffffffffffffffffffffffffffffff168173ffffffffffffffffffffffffffffffffffffffff16141561122f576040517f08c379a000000000000000000000000000000000000000000000000000000000815260040161122690612d6d565b60405180910390fd5b60011515600360008373ffffffffffffffffffffffffffffffffffffffff1673ffffffffffffffffffffffffffffffffffffffff16815260200190815260200160002060020160009054906101000a900460ff16151514156112c6576040517f08c379a00000000000000000000000000000000000000000000000000000000081526004016112bd90612e4d565b60405180910390fd5b6001600360008373ffffffffffffffffffffffffffffffffffffffff1673ffffffffffffffffffffffffffffffffffffffff16815260200190815260200160002060020160006101000a81548160ff02191690831515021790555060005b60028054905081101561153157826002828154811061136c577f4e487b7100000000000000000000000000000000000000000000000000000000600052603260045260246000fd5b906000526020600020906002020160010154141561151e57600260016002805490506113989190612ff4565b815481106113cf577f4e487b7100000000000000000000000000000000000000000000000000000000600052603260045260246000fd5b906000526020600020906002020160028281548110611417577f4e487b7100000000000000000000000000000000000000000000000000000000600052603260045260246000fd5b90600052602060002090600202016000820160009054906101000a900473ffffffffffffffffffffffffffffffffffffffff168160000160006101000a81548173ffffffffffffffffffffffffffffffffffffffff021916908373ffffffffffffffffffffffffffffffffffffffff1602179055506001820154816001015590505060028054806114d1577f4e487b7100000000000000000000000000000000000000000000000000000000600052603160045260246000fd5b6001900381819060005260206000209060020201600080820160006101000a81549073ffffffffffffffffffffffffffffffffffffffff0219169055600182016000905550509055611531565b8080611529906130f1565b915050611324565b505050565b60038060003373ffffffffffffffffffffffffffffffffffffffff1673ffffffffffffffffffffffffffffffffffffffff16815260200190815260200160002060020160019054906101000a900460ff1660ff16146115ca576040517f08c379a00000000000000000000000000000000000000000000000000000000081526004016115c190612e8d565b60405180910390fd5b60008054906101000a900473ffffffffffffffffffffffffffffffffffffffff1673ffffffffffffffffffffffffffffffffffffffff168173ffffffffffffffffffffffffffffffffffffffff161415611659576040517f08c379a000000000000000000000000000000000000000000000000000000000815260040161165090612eed565b60405180910390fd5b600073ffffffffffffffffffffffffffffffffffffffff16600360008373ffffffffffffffffffffffffffffffffffffffff1673ffffffffffffffffffffffffffffffffffffffff16815260200190815260200160002060000160009054906101000a900473ffffffffffffffffffffffffffffffffffffffff1673ffffffffffffffffffffffffffffffffffffffff16141561172b576040517f08c379a000000000000000000000000000000000000000000000000000000000815260040161172290612dad565b60405180910390fd5b600060046000600360008573ffffffffffffffffffffffffffffffffffffffff1673ffffffffffffffffffffffffffffffffffffffff16815260200190815260200160002060040154815260200190815260200160002060006101000a81548173ffffffffffffffffffffffffffffffffffffffff021916908373ffffffffffffffffffffffffffffffffffffffff160217905550600360008273ffffffffffffffffffffffffffffffffffffffff1673ffffffffffffffffffffffffffffffffffffffff168152602001908152602001600020600080820160006101000a81549073ffffffffffffffffffffffffffffffffffffffff0219169055600182016000611837919061235b565b6002820160006101000a81549060ff02191690556002820160016101000a81549060ff021916905560038201600090556004820160009055505050565b6002600360003373ffffffffffffffffffffffffffffffffffffffff1673ffffffffffffffffffffffffffffffffffffffff16815260200190815260200160002060020160019054906101000a900460ff1660ff16101561190a576040517f08c379a000000000000000000000000000000000000000000000000000000000815260040161190190612ecd565b60405180910390fd5b61191381611a8f565b611952576040517f08c379a000000000000000000000000000000000000000000000000000000000815260040161194990612e6d565b60405180910390fd5b6000600360008373ffffffffffffffffffffffffffffffffffffffff1673ffffffffffffffffffffffffffffffffffffffff16815260200190815260200160002060020160006101000a81548160ff0219169083151502179055506000600360008373ffffffffffffffffffffffffffffffffffffffff1673ffffffffffffffffffffffffffffffffffffffff16815260200190815260200160002060020160016101000a81548160ff021916908360ff16021790555050565b60008054906101000a900473ffffffffffffffffffffffffffffffffffffffff1681565b60006002600360008473ffffffffffffffffffffffffffffffffffffffff1673ffffffffffffffffffffffffffffffffffffffff16815260200190815260200160002060020160019054906101000a900460ff1660ff16149050919050565b60006001600360008473ffffffffffffffffffffffffffffffffffffffff1673ffffffffffffffffffffffffffffffffffffffff16815260200190815260200160002060020160019054906101000a900460ff1660ff16149050919050565b60036020528060005260406000206000915090508060000160009054906101000a900473ffffffffffffffffffffffffffffffffffffffff1690806001018054611b37906130bf565b80601f0160208091040260200160405190810160405280929190818152602001828054611b63906130bf565b8015611bb05780601f10611b8557610100808354040283529160200191611bb0565b820191906000526020600020905b815481529060010190602001808311611b9357829003601f168201915b5050505050908060020160009054906101000a900460ff16908060020160019054906101000a900460ff16908060030154908060040154905086565b60038060003373ffffffffffffffffffffffffffffffffffffffff1673ffffffffffffffffffffffffffffffffffffffff16815260200190815260200160002060020160019054906101000a900460ff1660ff1614611c80576040517f08c379a0000000000000000000000000000000000000000000000000000000008152600401611c7790612e8d565b60405180910390fd5b6001600360008373ffffffffffffffffffffffffffffffffffffffff1673ffffffffffffffffffffffffffffffffffffffff16815260200190815260200160002060020160006101000a81548160ff0219169083151502179055506002600360008373ffffffffffffffffffffffffffffffffffffffff1673ffffffffffffffffffffffffffffffffffffffff16815260200190815260200160002060020160016101000a81548160ff021916908360ff16021790555050565b6002600360003373ffffffffffffffffffffffffffffffffffffffff1673ffffffffffffffffffffffffffffffffffffffff16815260200190815260200160002060020160019054906101000a900460ff1660ff161015611dd0576040517f08c379a0000000000000000000000000000000000000000000000000000000008152600401611dc790612ecd565b60405180910390fd5b6001600360008373ffffffffffffffffffffffffffffffffffffffff1673ffffffffffffffffffffffffffffffffffffffff16815260200190815260200160002060020160006101000a81548160ff0219169083151502179055506001600360008373ffffffffffffffffffffffffffffffffffffffff1673ffffffffffffffffffffffffffffffffffffffff16815260200190815260200160002060020160016101000a81548160ff021916908360ff16021790555050565b600073ffffffffffffffffffffffffffffffffffffffff16600360008773ffffffffffffffffffffffffffffffffffffffff1673ffffffffffffffffffffffffffffffffffffffff16815260200190815260200160002060000160009054906101000a900473ffffffffffffffffffffffffffffffffffffffff1673ffffffffffffffffffffffffffffffffffffffff1614611f5b576040517f08c379a0000000000000000000000000000000000000000000000000000000008152600401611f5290612ded565b60405180910390fd5b611f648161075f565b611fa3576040517f08c379a0000000000000000000000000000000000000000000000000000000008152600401611f9a90612e0d565b60405180910390fd5b600073ffffffffffffffffffffffffffffffffffffffff166004600083815260200190815260200160002060009054906101000a900473ffffffffffffffffffffffffffffffffffffffff1673ffffffffffffffffffffffffffffffffffffffff1614612045576040517f08c379a000000000000000000000000000000000000000000000000000000000815260040161203c90612ead565b60405180910390fd5b60016040518060c001604052808773ffffffffffffffffffffffffffffffffffffffff16815260200186815260200184151581526020018560ff16815260200142815260200183815250908060018154018082558091505060019003906000526020600020906005020160009091909190915060008201518160000160006101000a81548173ffffffffffffffffffffffffffffffffffffffff021916908373ffffffffffffffffffffffffffffffffffffffff160217905550602082015181600101908051906020019061211b92919061239b565b5060408201518160020160006101000a81548160ff02191690831515021790555060608201518160020160016101000a81548160ff021916908360ff1602179055506080820151816003015560a08201518160040155505060018080805490506121859190612ff4565b815481106121bc577f4e487b7100000000000000000000000000000000000000000000000000000000600052603260045260246000fd5b9060005260206000209060050201600360008773ffffffffffffffffffffffffffffffffffffffff1673ffffffffffffffffffffffffffffffffffffffff1681526020019081526020016000206000820160009054906101000a900473ffffffffffffffffffffffffffffffffffffffff168160000160006101000a81548173ffffffffffffffffffffffffffffffffffffffff021916908373ffffffffffffffffffffffffffffffffffffffff1602179055506001820181600101908054612284906130bf565b61228f929190612421565b506002820160009054906101000a900460ff168160020160006101000a81548160ff0219169083151502179055506002820160019054906101000a900460ff168160020160016101000a81548160ff021916908360ff1602179055506003820154816003015560048201548160040155905050846004600083815260200190815260200160002060006101000a81548173ffffffffffffffffffffffffffffffffffffffff021916908373ffffffffffffffffffffffffffffffffffffffff1602179055505050505050565b508054612367906130bf565b6000825580601f106123795750612398565b601f01602090049060005260206000209081019061239791906124ae565b5b50565b8280546123a7906130bf565b90600052602060002090601f0160209004810192826123c95760008555612410565b82601f106123e257805160ff1916838001178555612410565b82800160010185558215612410579182015b8281111561240f5782518255916020019190600101906123f4565b5b50905061241d91906124ae565b5090565b82805461242d906130bf565b90600052602060002090601f01602090048101928261244f576000855561249d565b82601f10612460578054855561249d565b8280016001018555821561249d57600052602060002091601f016020900482015b8281111561249c578254825591600101919060010190612481565b5b5090506124aa91906124ae565b5090565b5b808211156124c75760008160009055506001016124af565b5090565b60006124de6124d984612f3e565b612f0d565b9050828152602081018484840111156124f657600080fd5b61250184828561307d565b509392505050565b60008135905061251881613207565b92915050565b600082601f83011261252f57600080fd5b813561253f8482602086016124cb565b91505092915050565b6000813590506125578161321e565b92915050565b60006020828403121561256f57600080fd5b600061257d84828501612509565b91505092915050565b60008060006060848603121561259b57600080fd5b60006125a986828701612509565b935050602084013567ffffffffffffffff8111156125c657600080fd5b6125d28682870161251e565b92505060406125e386828701612548565b9150509250925092565b6000806040838503121561260057600080fd5b600083013567ffffffffffffffff81111561261a57600080fd5b6126268582860161251e565b925050602061263785828601612548565b9150509250929050565b60006020828403121561265357600080fd5b600061266184828501612548565b91505092915050565b60006126768383612c28565b60408301905092915050565b61268b81613028565b82525050565b61269a81613028565b82525050565b60006126ab82612f7e565b6126b58185612fa1565b93506126c083612f6e565b8060005b838110156126f15781516126d8888261266a565b97506126e383612f94565b9250506001810190506126c4565b5085935050505092915050565b6127078161303a565b82525050565b600061271882612f89565b6127228185612fb2565b935061273281856020860161308c565b61273b816131f6565b840191505092915050565b6000612753602c83612fb2565b91507f4e6f207573657220666f756e6420666f72207468652070726f7669646564204160008301527f6164686172206e756d62657200000000000000000000000000000000000000006020830152604082019050919050565b60006127b9603283612fb2565b91507f43616e6e6f742072656d6f7665206465706c6f7965722773204c616e6420496e60008301527f73706563746f722070726976696c6567657300000000000000000000000000006020830152604082019050919050565b600061281f602783612fb2565b91507f55736572206e6f7420666f756e6420666f72207468652070726f76696465642060008301527f61646472657373000000000000000000000000000000000000000000000000006020830152604082019050919050565b6000612885602b83612fb2565b91507f546865206163636f756e74206973206e6f742061205365636f6e642d4c65766560008301527f6c20417574686f726974790000000000000000000000000000000000000000006020830152604082019050919050565b60006128eb601a83612fb2565b91507f4164647265737320616c726561647920726567697374657265640000000000006000830152602082019050919050565b600061292b601583612fb2565b91507f496e76616c696420416164686172206e756d62657200000000000000000000006000830152602082019050919050565b600061296b605483612fb2565b91507f4f6e6c7920746865206465706c6f7965722c207365636f6e642d6c6576656c2060008301527f617574686f726974792c206f72206c616e6420696e73706563746f722063616e60208301527f20706572666f726d207468697320616374696f6e0000000000000000000000006040830152606082019050919050565b60006129f7602083612fb2565b91507f55736572206163636f756e7420697320616c72656164792076657269666965646000830152602082019050919050565b6000612a37602383612fb2565b91507f546865206163636f756e74206973206e6f742061204c616e6420496e7370656360008301527f746f7200000000000000000000000000000000000000000000000000000000006020830152604082019050919050565b6000612a9d602983612fb2565b91507f4f6e6c7920746865206465706c6f7965722063616e20706572666f726d20746860008301527f697320616374696f6e00000000000000000000000000000000000000000000006020830152604082019050919050565b6000612b03602083612fb2565b91507f416164686172206e756d62657220616c726561647920726567697374657265646000830152602082019050919050565b6000612b43604383612fb2565b91507f4f6e6c7920746865206465706c6f796572206f72207365636f6e642d6c65766560008301527f6c20617574686f726974792063616e20706572666f726d20746869732061637460208301527f696f6e00000000000000000000000000000000000000000000000000000000006040830152606082019050919050565b6000612bcf603a83612fb2565b91507f43616e6e6f742072656d6f7665206465706c6f7965722773205365636f6e642d60008301527f6c6576656c20417574686f726974792070726976696c656765730000000000006020830152604082019050919050565b604082016000820151612c3e6000850182612682565b506020820151612c516020850182612c57565b50505050565b612c6081613066565b82525050565b612c6f81613066565b82525050565b612c7e81613070565b82525050565b6000602082019050612c996000830184612691565b92915050565b600060c082019050612cb46000830189612691565b8181036020830152612cc6818861270d565b9050612cd560408301876126fe565b612ce26060830186612c75565b612cef6080830185612c66565b612cfc60a0830184612c66565b979650505050505050565b6000604082019050612d1c6000830185612691565b612d296020830184612c66565b9392505050565b60006020820190508181036000830152612d4a81846126a0565b905092915050565b6000602082019050612d6760008301846126fe565b92915050565b60006020820190508181036000830152612d8681612746565b9050919050565b60006020820190508181036000830152612da6816127ac565b9050919050565b60006020820190508181036000830152612dc681612812565b9050919050565b60006020820190508181036000830152612de681612878565b9050919050565b60006020820190508181036000830152612e06816128de565b9050919050565b60006020820190508181036000830152612e268161291e565b9050919050565b60006020820190508181036000830152612e468161295e565b9050919050565b60006020820190508181036000830152612e66816129ea565b9050919050565b60006020820190508181036000830152612e8681612a2a565b9050919050565b60006020820190508181036000830152612ea681612a90565b9050919050565b60006020820190508181036000830152612ec681612af6565b9050919050565b60006020820190508181036000830152612ee681612b36565b9050919050565b60006020820190508181036000830152612f0681612bc2565b9050919050565b6000604051905081810181811067ffffffffffffffff82111715612f3457612f336131c7565b5b8060405250919050565b600067ffffffffffffffff821115612f5957612f586131c7565b5b601f19601f8301169050602081019050919050565b6000819050602082019050919050565b600081519050919050565b600081519050919050565b6000602082019050919050565b600082825260208201905092915050565b600082825260208201905092915050565b6000612fce82613066565b9150612fd983613066565b925082612fe957612fe8613169565b5b828204905092915050565b6000612fff82613066565b915061300a83613066565b92508282101561301d5761301c61313a565b5b828203905092915050565b600061303382613046565b9050919050565b60008115159050919050565b600073ffffffffffffffffffffffffffffffffffffffff82169050919050565b6000819050919050565b600060ff82169050919050565b82818337600083830152505050565b60005b838110156130aa57808201518184015260208101905061308f565b838111156130b9576000848401525b50505050565b600060028204905060018216806130d757607f821691505b602082108114156130eb576130ea613198565b5b50919050565b60006130fc82613066565b91507fffffffffffffffffffffffffffffffffffffffffffffffffffffffffffffffff82141561312f5761312e61313a565b5b600182019050919050565b7f4e487b7100000000000000000000000000000000000000000000000000000000600052601160045260246000fd5b7f4e487b7100000000000000000000000000000000000000000000000000000000600052601260045260246000fd5b7f4e487b7100000000000000000000000000000000000000000000000000000000600052602260045260246000fd5b7f4e487b7100000000000000000000000000000000000000000000000000000000600052604160045260246000fd5b6000601f19601f8301169050919050565b61321081613028565b811461321b57600080fd5b50565b61322781613066565b811461323257600080fd5b5056fea2646970667358221220ff723ee1bdf4394a7f140e605dd28a0dab2f5fb85cf0eff615dfcbce5b1ee6c064736f6c63430008000033",
  "immutableReferences": {},
  "source": "// SPDX-License-Identifier: UNLICENSED\r\npragma solidity ^0.8.0;\r\n\r\ncontract AccountRegistration {\r\n    address public deployer;\r\n\r\n    struct UserAccount {\r\n        address userAddress;\r\n        string username;\r\n        bool isUserVerified;\r\n        uint8 designation; // 0: no authority, 1: land inspector, 2: second-level authority, 3: deployer\r\n        uint registrationDate; // Registration date as a Unix timestamp\r\n        uint256 aadharNumber;\r\n    }\r\n\r\n    struct PendingVerification {\r\n        address userAddress;\r\n        uint256 aadharNumber;\r\n    }\r\n\r\n    UserAccount[] public userAccounts;\r\n    PendingVerification[] public pendingVerifications;\r\n    \r\n    // Mapping to store user accounts using their Ethereum addresses as keys\r\n    mapping(address => UserAccount) public userAccountsMap;\r\n\r\n    // Mapping to link Aadhar numbers to Ethereum addresses\r\n    mapping(uint256 => address) public aadharToUser;\r\n\r\n    // Constructor to initialize the contract and set the deployer's account\r\n    constructor() {\r\n        deployer = msg.sender;\r\n        addUser(deployer, \"Deployer\", 3, true, 123456789012);\r\n    }\r\n    // Function to view the list of pending verifications\r\n    function getPendingVerifications() public view returns (PendingVerification[] memory) {\r\n        return pendingVerifications;\r\n    }\r\n\r\n    function requestVerification(uint256 _aadharNumber) public {        \r\n        // Add the request to pending verifications\r\n        pendingVerifications.push(PendingVerification(msg.sender, _aadharNumber));\r\n    }\r\n\r\n    /* For Aadhaar validation\r\n    It should have 12 digits.\r\n    It should not start with 0 and 1.\r\n    It should not contain any alphabet and special characters */\r\n    function validateAadhar(uint256 _aadharNumber) public pure returns (bool) {\r\n        uint aadharLength = 0;\r\n        uint aadharCopy = _aadharNumber;\r\n        \r\n        while (aadharCopy != 0) {\r\n            aadharCopy /= 10;\r\n            aadharLength++;\r\n        }\r\n        \r\n        return aadharLength == 12 && _aadharNumber > 101 && _aadharNumber < 1000000000000;\r\n    }\r\n\r\n    // Function to verify an account with an Aadhar number\r\n    function verifyAccount(uint256 _aadharNumber) public onlyDeployerOrSecondLevelAuthorityOrLandInspector {    \r\n        // Find the Ethereum address associated with the given Aadhar number\r\n        address userToVerify = aadharToUser[_aadharNumber];\r\n\r\n        // Ensure that the user exists\r\n        require(userToVerify != address(0), \"No user found for the provided Aadhar number\");\r\n        \r\n        // Check if the user is already verified\r\n        require(userAccountsMap[userToVerify].isUserVerified != true, \"User account is already verified\");\r\n        \r\n        // Set the isUserVerified flag to true for the user\r\n        userAccountsMap[userToVerify].isUserVerified = true;\r\n\r\n        // Remove from pending verifications if account is verified\r\n        for (uint i = 0; i < pendingVerifications.length; i++) {\r\n            if (pendingVerifications[i].aadharNumber == _aadharNumber) {\r\n                // Remove the pending verification entry\r\n                pendingVerifications[i] = pendingVerifications[pendingVerifications.length - 1];\r\n                pendingVerifications.pop();\r\n                break;\r\n            }\r\n        }\r\n    }\r\n\r\n    // Function to add a user\r\n    function addUser(address _user, string memory _username, uint8 _designation, bool isUserVerified, uint256 _aadharNumber) internal {\r\n        require(userAccountsMap[_user].userAddress == address(0), \"Address already registered\");\r\n        require(validateAadhar(_aadharNumber), \"Invalid Aadhar number\");\r\n        require(aadharToUser[_aadharNumber] == address(0), \"Aadhar number already registered\");\r\n\r\n        userAccounts.push(UserAccount(_user, _username, isUserVerified , _designation, block.timestamp, _aadharNumber));\r\n        userAccountsMap[_user] = userAccounts[userAccounts.length - 1];\r\n        aadharToUser[_aadharNumber] = _user;\r\n    }\r\n\r\n    // Function to set user details\r\n    function setUserDetails(string memory _username, uint256 _aadharNumber) public {\r\n        addUser(msg.sender, _username, 0, false, _aadharNumber);\r\n    }\r\n\r\n    // Function to Check User Details\r\n    function getUserDetails(uint256 _aadharNumber) public view returns (address userAddress, string memory username, bool isUserVerified, uint8 designation, uint registrationDate, uint256 aadharNumber) {\r\n        // Find the Ethereum address associated with the given Aadhar number\r\n        address userToRetrieve = aadharToUser[_aadharNumber];\r\n\r\n        // Ensure that the user exists\r\n        require(userToRetrieve != address(0), \"No user found for the provided Aadhar number\");\r\n\r\n        // Retrieve user details using the Ethereum address\r\n        UserAccount storage user = userAccountsMap[userToRetrieve];\r\n        \r\n        return (user.userAddress, user.username, user.isUserVerified, user.designation, user.registrationDate, user.aadharNumber);\r\n    }\r\n\r\n    // Modifier to restrict access to functions for the deployer only\r\n    modifier onlyDeployer() {\r\n        require(userAccountsMap[msg.sender].designation == 3, \"Only the deployer can perform this action\");\r\n        _;\r\n    }\r\n\r\n    // Modifier to restrict access to functions for the deployer and second-level authorities\r\n    modifier onlyDeployerOrSecondLevelAuthority() {\r\n        require(userAccountsMap[msg.sender].designation >= 2, \"Only the deployer or second-level authority can perform this action\");\r\n        _;\r\n    }\r\n\r\n    // Modifier to restrict access to functions for the deployer, second-level authorities, and land inspectors\r\n    modifier onlyDeployerOrSecondLevelAuthorityOrLandInspector() {\r\n        require(userAccountsMap[msg.sender].designation >= 1, \"Only the deployer, second-level authority, or land inspector can perform this action\");\r\n        _;\r\n    }\r\n\r\n   // Function to add a Land Inspector\r\n    function addLandInspector(address _inspector, string memory _username, uint256 _aadhar) public onlyDeployerOrSecondLevelAuthority {\r\n        addUser(_inspector, _username, 1, true, _aadhar);\r\n    }\r\n\r\n    // Function to add a Second-Level Authority\r\n    function addSecondLevelAuthority(address _authority, string memory _username, uint256 _aadhar) public onlyDeployer {\r\n        addUser(_authority, _username, 2, true, _aadhar);\r\n    }\r\n\r\n    // Function to remove a Second-Level Authority\r\n    function removeSecondLevelAuthority(address _authority) public onlyDeployer {\r\n        require(_authority != deployer, \"Cannot remove deployer's Second-level Authority privileges\");\r\n\r\n        // Ensure that the provided address is associated with a user\r\n        require(userAccountsMap[_authority].userAddress != address(0), \"User not found for the provided address\");\r\n\r\n        // Remove the user and update the mapping\r\n        aadharToUser[userAccountsMap[_authority].aadharNumber] = address(0);\r\n        delete userAccountsMap[_authority];\r\n    }\r\n\r\n    // Function to remove a Land Inspector\r\n    function removeLandInspector(address _inspector) public onlyDeployerOrSecondLevelAuthority {\r\n        require(_inspector != deployer, \"Cannot remove deployer's Land Inspector privileges\");\r\n\r\n        // Ensure that the provided address is associated with a user\r\n        require(userAccountsMap[_inspector].userAddress != address(0), \"User not found for the provided address\");\r\n        \r\n        aadharToUser[userAccountsMap[_inspector].aadharNumber] = address(0);\r\n        delete userAccountsMap[_inspector];\r\n    }\r\n\r\n    // Function to check if a user is verified\r\n    function checkUserVerified(address _account) public view returns (bool) {\r\n        return userAccountsMap[_account].isUserVerified;\r\n    }\r\n\r\n    // Function to check if a user is a Land Inspector\r\n    function isLandInspector(address _account) public view returns (bool) {\r\n        return userAccountsMap[_account].designation == 1;\r\n    }\r\n\r\n    // Function to check if a user is a Second-Level Authority\r\n    function isSecondLevelAuthority(address _account) public view returns (bool) {\r\n        return userAccountsMap[_account].designation == 2;\r\n    }\r\n\r\n    // Function to check if a user is a Sdeployer\r\n    function isDeployer(address _account) public view returns (bool) {\r\n        return userAccountsMap[_account].designation == 3;\r\n    }\r\n\r\n    // Function to grant Land Inspector status\r\n    function grantLandInspectorStatus(address _account) public onlyDeployerOrSecondLevelAuthority {\r\n        userAccountsMap[_account].isUserVerified = true;\r\n        userAccountsMap[_account].designation = 1;\r\n    }\r\n\r\n    // Function to grant Second-Level Authority status\r\n    function grantSecondLevelAuthorityStatus(address _account) public onlyDeployer {\r\n        userAccountsMap[_account].isUserVerified = true;\r\n        userAccountsMap[_account].designation = 2;\r\n    }\r\n    // Function to revoke Land Inspector status\r\n    function revokeLandInspectorStatus(address _account) public onlyDeployerOrSecondLevelAuthority {\r\n        require(isLandInspector(_account), \"The account is not a Land Inspector\");\r\n        userAccountsMap[_account].isUserVerified = false;\r\n        userAccountsMap[_account].designation = 0;\r\n    }\r\n\r\n    // Function to revoke Second-Level Authority status\r\n    function revokeSecondLevelAuthorityStatus(address _account) public onlyDeployer {\r\n        require(isSecondLevelAuthority(_account), \"The account is not a Second-Level Authority\");\r\n        userAccountsMap[_account].isUserVerified = false;\r\n        userAccountsMap[_account].designation = 0;\r\n    }\r\n}",
  "sourcePath": "C:\\Users\\DELL\\OneDrive\\Documents\\FYP\\Decentralizsed-Land-Registration\\contracts\\registerAccount-contract.sol",
  "compiler": {
    "name": "solc",
    "version": "0.8.0+commit.c7dfd78e.Emscripten.clang"
  },
  "schemaVersion": "3.4.16",
  "updatedAt": "2023-12-23T15:29:56.765Z",
  "networkType": "ethereum",
  "devdoc": {
    "kind": "dev",
    "methods": {},
    "version": 1
  },
  "userdoc": {
    "kind": "user",
    "methods": {},
    "version": 1
  }
}