{
  "contractName": "AccountRegistration",
  "abi": [
    {
      "inputs": [],
      "stateMutability": "nonpayable",
      "type": "constructor"
    },
    {
      "inputs": [
        {
          "internalType": "uint256",
          "name": "",
          "type": "uint256"
        }
      ],
      "name": "aadharToUser",
      "outputs": [
        {
          "internalType": "address",
          "name": "",
          "type": "address"
        }
      ],
      "stateMutability": "view",
      "type": "function",
      "constant": true
    },
    {
      "inputs": [],
      "name": "deployer",
      "outputs": [
        {
          "internalType": "address",
          "name": "",
          "type": "address"
        }
      ],
      "stateMutability": "view",
      "type": "function",
      "constant": true
    },
    {
      "inputs": [
        {
          "internalType": "uint256",
          "name": "",
          "type": "uint256"
        }
      ],
      "name": "pendingVerifications",
      "outputs": [
        {
          "internalType": "address",
          "name": "userAddress",
          "type": "address"
        },
        {
          "internalType": "uint256",
          "name": "aadharNumber",
          "type": "uint256"
        }
      ],
      "stateMutability": "view",
      "type": "function",
      "constant": true
    },
    {
      "inputs": [
        {
          "internalType": "uint256",
          "name": "",
          "type": "uint256"
        }
      ],
      "name": "userAccounts",
      "outputs": [
        {
          "internalType": "address",
          "name": "userAddress",
          "type": "address"
        },
        {
          "internalType": "string",
          "name": "username",
          "type": "string"
        },
        {
          "internalType": "bool",
          "name": "isUserVerified",
          "type": "bool"
        },
        {
          "internalType": "uint8",
          "name": "designation",
          "type": "uint8"
        },
        {
          "internalType": "uint256",
          "name": "registrationDate",
          "type": "uint256"
        },
        {
          "internalType": "uint256",
          "name": "aadharNumber",
          "type": "uint256"
        }
      ],
      "stateMutability": "view",
      "type": "function",
      "constant": true
    },
    {
      "inputs": [
        {
          "internalType": "address",
          "name": "",
          "type": "address"
        }
      ],
      "name": "userAccountsMap",
      "outputs": [
        {
          "internalType": "address",
          "name": "userAddress",
          "type": "address"
        },
        {
          "internalType": "string",
          "name": "username",
          "type": "string"
        },
        {
          "internalType": "bool",
          "name": "isUserVerified",
          "type": "bool"
        },
        {
          "internalType": "uint8",
          "name": "designation",
          "type": "uint8"
        },
        {
          "internalType": "uint256",
          "name": "registrationDate",
          "type": "uint256"
        },
        {
          "internalType": "uint256",
          "name": "aadharNumber",
          "type": "uint256"
        }
      ],
      "stateMutability": "view",
      "type": "function",
      "constant": true
    },
    {
      "inputs": [],
      "name": "getPendingVerifications",
      "outputs": [
        {
          "components": [
            {
              "internalType": "address",
              "name": "userAddress",
              "type": "address"
            },
            {
              "internalType": "uint256",
              "name": "aadharNumber",
              "type": "uint256"
            }
          ],
          "internalType": "struct AccountRegistration.PendingVerification[]",
          "name": "",
          "type": "tuple[]"
        }
      ],
      "stateMutability": "view",
      "type": "function",
      "constant": true
    },
    {
      "inputs": [
        {
          "internalType": "uint256",
          "name": "_aadharNumber",
          "type": "uint256"
        }
      ],
      "name": "requestVerification",
      "outputs": [],
      "stateMutability": "nonpayable",
      "type": "function"
    },
    {
      "inputs": [
        {
          "internalType": "uint256",
          "name": "_aadharNumber",
          "type": "uint256"
        }
      ],
      "name": "validateAadhar",
      "outputs": [
        {
          "internalType": "bool",
          "name": "",
          "type": "bool"
        }
      ],
      "stateMutability": "pure",
      "type": "function",
      "constant": true
    },
    {
      "inputs": [
        {
          "internalType": "uint256",
          "name": "_aadharNumber",
          "type": "uint256"
        }
      ],
      "name": "verifyAccount",
      "outputs": [],
      "stateMutability": "nonpayable",
      "type": "function"
    },
    {
      "inputs": [
        {
          "internalType": "string",
          "name": "_username",
          "type": "string"
        },
        {
          "internalType": "uint256",
          "name": "_aadharNumber",
          "type": "uint256"
        }
      ],
      "name": "setUserDetails",
      "outputs": [],
      "stateMutability": "nonpayable",
      "type": "function"
    },
    {
      "inputs": [
        {
          "internalType": "address",
          "name": "_userAddress",
          "type": "address"
        }
      ],
      "name": "getUserDetailsByAddress",
      "outputs": [
        {
          "internalType": "string",
          "name": "username",
          "type": "string"
        },
        {
          "internalType": "bool",
          "name": "isUserVerified",
          "type": "bool"
        },
        {
          "internalType": "uint8",
          "name": "designation",
          "type": "uint8"
        },
        {
          "internalType": "uint256",
          "name": "registrationDate",
          "type": "uint256"
        },
        {
          "internalType": "uint256",
          "name": "aadharNumber",
          "type": "uint256"
        }
      ],
      "stateMutability": "view",
      "type": "function",
      "constant": true
    },
    {
      "inputs": [
        {
          "internalType": "address",
          "name": "_inspector",
          "type": "address"
        },
        {
          "internalType": "string",
          "name": "_username",
          "type": "string"
        },
        {
          "internalType": "uint256",
          "name": "_aadhar",
          "type": "uint256"
        }
      ],
      "name": "addLandInspector",
      "outputs": [],
      "stateMutability": "nonpayable",
      "type": "function"
    },
    {
      "inputs": [
        {
          "internalType": "address",
          "name": "_authority",
          "type": "address"
        },
        {
          "internalType": "string",
          "name": "_username",
          "type": "string"
        },
        {
          "internalType": "uint256",
          "name": "_aadhar",
          "type": "uint256"
        }
      ],
      "name": "addSecondLevelAuthority",
      "outputs": [],
      "stateMutability": "nonpayable",
      "type": "function"
    },
    {
      "inputs": [
        {
          "internalType": "address",
          "name": "_authority",
          "type": "address"
        }
      ],
      "name": "removeSecondLevelAuthority",
      "outputs": [],
      "stateMutability": "nonpayable",
      "type": "function"
    },
    {
      "inputs": [
        {
          "internalType": "address",
          "name": "_inspector",
          "type": "address"
        }
      ],
      "name": "removeLandInspector",
      "outputs": [],
      "stateMutability": "nonpayable",
      "type": "function"
    },
    {
      "inputs": [
        {
          "internalType": "address",
          "name": "_account",
          "type": "address"
        }
      ],
      "name": "checkUserVerified",
      "outputs": [
        {
          "internalType": "bool",
          "name": "",
          "type": "bool"
        }
      ],
      "stateMutability": "view",
      "type": "function",
      "constant": true
    },
    {
      "inputs": [
        {
          "internalType": "address",
          "name": "_account",
          "type": "address"
        }
      ],
      "name": "isLandInspector",
      "outputs": [
        {
          "internalType": "bool",
          "name": "",
          "type": "bool"
        }
      ],
      "stateMutability": "view",
      "type": "function",
      "constant": true
    },
    {
      "inputs": [
        {
          "internalType": "address",
          "name": "_account",
          "type": "address"
        }
      ],
      "name": "isSecondLevelAuthority",
      "outputs": [
        {
          "internalType": "bool",
          "name": "",
          "type": "bool"
        }
      ],
      "stateMutability": "view",
      "type": "function",
      "constant": true
    },
    {
      "inputs": [
        {
          "internalType": "address",
          "name": "_account",
          "type": "address"
        }
      ],
      "name": "isDeployer",
      "outputs": [
        {
          "internalType": "bool",
          "name": "",
          "type": "bool"
        }
      ],
      "stateMutability": "view",
      "type": "function",
      "constant": true
    },
    {
      "inputs": [
        {
          "internalType": "address",
          "name": "_account",
          "type": "address"
        }
      ],
      "name": "grantLandInspectorStatus",
      "outputs": [],
      "stateMutability": "nonpayable",
      "type": "function"
    },
    {
      "inputs": [
        {
          "internalType": "address",
          "name": "_account",
          "type": "address"
        }
      ],
      "name": "grantSecondLevelAuthorityStatus",
      "outputs": [],
      "stateMutability": "nonpayable",
      "type": "function"
    },
    {
      "inputs": [
        {
          "internalType": "address",
          "name": "_account",
          "type": "address"
        }
      ],
      "name": "revokeLandInspectorStatus",
      "outputs": [],
      "stateMutability": "nonpayable",
      "type": "function"
    },
    {
      "inputs": [
        {
          "internalType": "address",
          "name": "_account",
          "type": "address"
        }
      ],
      "name": "revokeSecondLevelAuthorityStatus",
      "outputs": [],
      "stateMutability": "nonpayable",
      "type": "function"
    }
  ],
  "bytecode": "0x60806040523480156200001157600080fd5b50336000806101000a81548173ffffffffffffffffffffffffffffffffffffffff021916908373ffffffffffffffffffffffffffffffffffffffff160217905550620000c360008054906101000a900473ffffffffffffffffffffffffffffffffffffffff166040518060400160405280600881526020017f4465706c6f79657200000000000000000000000000000000000000000000000081525060036001641cbe991a14620000c960201b60201c565b62000a2f565b600073ffffffffffffffffffffffffffffffffffffffff16600360008773ffffffffffffffffffffffffffffffffffffffff1673ffffffffffffffffffffffffffffffffffffffff16815260200190815260200160002060000160009054906101000a900473ffffffffffffffffffffffffffffffffffffffff1673ffffffffffffffffffffffffffffffffffffffff16146200019d576040517f08c379a000000000000000000000000000000000000000000000000000000000815260040162000194906200082a565b60405180910390fd5b620001ae81620005b460201b60201c565b620001f0576040517f08c379a0000000000000000000000000000000000000000000000000000000008152600401620001e7906200084c565b60405180910390fd5b600073ffffffffffffffffffffffffffffffffffffffff166004600083815260200190815260200160002060009054906101000a900473ffffffffffffffffffffffffffffffffffffffff1673ffffffffffffffffffffffffffffffffffffffff161462000295576040517f08c379a00000000000000000000000000000000000000000000000000000000081526004016200028c906200086e565b60405180910390fd5b60016040518060c001604052808773ffffffffffffffffffffffffffffffffffffffff16815260200186815260200184151581526020018560ff16815260200142815260200183815250908060018154018082558091505060019003906000526020600020906005020160009091909190915060008201518160000160006101000a81548173ffffffffffffffffffffffffffffffffffffffff021916908373ffffffffffffffffffffffffffffffffffffffff16021790555060208201518160010190805190602001906200036d9291906200061c565b5060408201518160020160006101000a81548160ff02191690831515021790555060608201518160020160016101000a81548160ff021916908360ff1602179055506080820151816003015560a0820151816004015550506001808080549050620003d99190620008d9565b8154811062000411577f4e487b7100000000000000000000000000000000000000000000000000000000600052603260045260246000fd5b9060005260206000209060050201600360008773ffffffffffffffffffffffffffffffffffffffff1673ffffffffffffffffffffffffffffffffffffffff1681526020019081526020016000206000820160009054906101000a900473ffffffffffffffffffffffffffffffffffffffff168160000160006101000a81548173ffffffffffffffffffffffffffffffffffffffff021916908373ffffffffffffffffffffffffffffffffffffffff1602179055506001820181600101908054620004db906200091e565b620004e8929190620006ad565b506002820160009054906101000a900460ff168160020160006101000a81548160ff0219169083151502179055506002820160019054906101000a900460ff168160020160016101000a81548160ff021916908360ff1602179055506003820154816003015560048201548160040155905050846004600083815260200190815260200160002060006101000a81548173ffffffffffffffffffffffffffffffffffffffff021916908373ffffffffffffffffffffffffffffffffffffffff1602179055505050505050565b6000806000905060008390505b60008114620005f157600a81620005d99190620008a1565b90508180620005e89062000954565b925050620005c1565b600c82148015620006025750606584115b801562000613575064e8d4a5100084105b92505050919050565b8280546200062a906200091e565b90600052602060002090601f0160209004810192826200064e57600085556200069a565b82601f106200066957805160ff19168380011785556200069a565b828001600101855582156200069a579182015b82811115620006995782518255916020019190600101906200067c565b5b509050620006a9919062000745565b5090565b828054620006bb906200091e565b90600052602060002090601f016020900481019282620006df576000855562000732565b82601f10620006f2578054855562000732565b828001600101855582156200073257600052602060002091601f016020900482015b828111156200073157825482559160010191906001019062000714565b5b50905062000741919062000745565b5090565b5b808211156200076057600081600090555060010162000746565b5090565b600062000773601a8362000890565b91507f4164647265737320616c726561647920726567697374657265640000000000006000830152602082019050919050565b6000620007b560158362000890565b91507f496e76616c696420416164686172206e756d62657200000000000000000000006000830152602082019050919050565b6000620007f760208362000890565b91507f416164686172206e756d62657220616c726561647920726567697374657265646000830152602082019050919050565b60006020820190508181036000830152620008458162000764565b9050919050565b600060208201905081810360008301526200086781620007a6565b9050919050565b600060208201905081810360008301526200088981620007e8565b9050919050565b600082825260208201905092915050565b6000620008ae8262000914565b9150620008bb8362000914565b925082620008ce57620008cd620009d1565b5b828204905092915050565b6000620008e68262000914565b9150620008f38362000914565b925082821015620009095762000908620009a2565b5b828203905092915050565b6000819050919050565b600060028204905060018216806200093757607f821691505b602082108114156200094e576200094d62000a00565b5b50919050565b6000620009618262000914565b91507fffffffffffffffffffffffffffffffffffffffffffffffffffffffffffffffff821415620009975762000996620009a2565b5b600182019050919050565b7f4e487b7100000000000000000000000000000000000000000000000000000000600052601160045260246000fd5b7f4e487b7100000000000000000000000000000000000000000000000000000000600052601260045260246000fd5b7f4e487b7100000000000000000000000000000000000000000000000000000000600052602260045260246000fd5b6132c28062000a3f6000396000f3fe608060405234801561001057600080fd5b506004361061014d5760003560e01c806385cfd38c116100c3578063d5f394881161007c578063d5f39488146103c6578063dfdcd54c146103e4578063e165af8714610414578063efa828da14610444578063f601385314610479578063f869d90d146104955761014d565b806385cfd38c1461030a57806397f471f61461033a578063a2d01ded14610356578063a731374d14610372578063a784cbbb1461038e578063aa068378146103aa5761014d565b80635393edab116101155780635393edab1461020857806355e953761461023c57806361045fae1461026d578063616d5058146102895780637517e00f146102be5780637c04c29e146102da5761014d565b806308f6f76e146101525780630c020f081461016e57806329b1b2741461018a5780633e64f39b146101ba57806350c358a4146101d8575b600080fd5b61016c6004803603810190610167919061258a565b6104b1565b005b610188600480360381019061018391906125de565b6104c3565b005b6101a4600480360381019061019f91906125de565b61056f565b6040516101b19190612d2f565b60405180910390f35b6101c26105cf565b6040516101cf9190612d0d565b60405180910390f35b6101f260048036038101906101ed91906124fa565b61068e565b6040516101ff9190612d2f565b60405180910390f35b610222600480360381019061021d91906124fa565b6106ec565b604051610233959493929190612d4a565b60405180910390f35b610256600480360381019061025191906125de565b610879565b604051610264929190612ce4565b60405180910390f35b610287600480360381019061028291906124fa565b6108cd565b005b6102a3600480360381019061029e91906125de565b610a63565b6040516102b596959493929190612c7c565b60405180910390f35b6102d860048036038101906102d391906124fa565b610b71565b005b6102f460048036038101906102ef91906124fa565b610eb1565b6040516103019190612d2f565b60405180910390f35b610324600480360381019061031f91906125de565b610f0a565b6040516103319190612c61565b60405180910390f35b610354600480360381019061034f9190612523565b610f3d565b005b610370600480360381019061036b9190612523565b610fe6565b005b61038c600480360381019061038791906125de565b61108e565b005b6103a860048036038101906103a391906124fa565b6114d3565b005b6103c460048036038101906103bf91906124fa565b611811565b005b6103ce6119a9565b6040516103db9190612c61565b60405180910390f35b6103fe60048036038101906103f991906124fa565b6119cd565b60405161040b9190612d2f565b60405180910390f35b61042e600480360381019061042991906124fa565b611a2c565b60405161043b9190612d2f565b60405180910390f35b61045e600480360381019061045991906124fa565b611a8b565b60405161047096959493929190612c7c565b60405180910390f35b610493600480360381019061048e91906124fa565b611b89565b005b6104af60048036038101906104aa91906124fa565b611cd7565b005b6104bf338360008085611e27565b5050565b600260405180604001604052803373ffffffffffffffffffffffffffffffffffffffff16815260200183815250908060018154018082558091505060019003906000526020600020906002020160009091909190915060008201518160000160006101000a81548173ffffffffffffffffffffffffffffffffffffffff021916908373ffffffffffffffffffffffffffffffffffffffff16021790555060208201518160010155505050565b6000806000905060008390505b600081146105a657600a81610591919061301a565b9050818061059e90613148565b92505061057c565b600c821480156105b65750606584115b80156105c6575064e8d4a5100084105b92505050919050565b60606002805480602002602001604051908101604052809291908181526020016000905b8282101561068557838290600052602060002090600202016040518060400160405290816000820160009054906101000a900473ffffffffffffffffffffffffffffffffffffffff1673ffffffffffffffffffffffffffffffffffffffff1673ffffffffffffffffffffffffffffffffffffffff168152602001600182015481525050815260200190600101906105f3565b50505050905090565b600060038060008473ffffffffffffffffffffffffffffffffffffffff1673ffffffffffffffffffffffffffffffffffffffff16815260200190815260200160002060020160019054906101000a900460ff1660ff16149050919050565b6060600080600080600073ffffffffffffffffffffffffffffffffffffffff168673ffffffffffffffffffffffffffffffffffffffff161415610764576040517f08c379a000000000000000000000000000000000000000000000000000000000815260040161075b90612de4565b60405180910390fd5b6000600360008873ffffffffffffffffffffffffffffffffffffffff1673ffffffffffffffffffffffffffffffffffffffff1681526020019081526020016000209050806001018160020160009054906101000a900460ff168260020160019054906101000a900460ff16836003015484600401548480546107e590613116565b80601f016020809104026020016040519081016040528092919081815260200182805461081190613116565b801561085e5780601f106108335761010080835404028352916020019161085e565b820191906000526020600020905b81548152906001019060200180831161084157829003601f168201915b50505050509450955095509550955095505091939590929450565b6002818154811061088957600080fd5b90600052602060002090600202016000915090508060000160009054906101000a900473ffffffffffffffffffffffffffffffffffffffff16908060010154905082565b60038060003373ffffffffffffffffffffffffffffffffffffffff1673ffffffffffffffffffffffffffffffffffffffff16815260200190815260200160002060020160019054906101000a900460ff1660ff1614610961576040517f08c379a000000000000000000000000000000000000000000000000000000000815260040161095890612ee4565b60405180910390fd5b61096a816119cd565b6109a9576040517f08c379a00000000000000000000000000000000000000000000000000000000081526004016109a090612e24565b60405180910390fd5b6000600360008373ffffffffffffffffffffffffffffffffffffffff1673ffffffffffffffffffffffffffffffffffffffff16815260200190815260200160002060020160006101000a81548160ff0219169083151502179055506000600360008373ffffffffffffffffffffffffffffffffffffffff1673ffffffffffffffffffffffffffffffffffffffff16815260200190815260200160002060020160016101000a81548160ff021916908360ff16021790555050565b60018181548110610a7357600080fd5b90600052602060002090600502016000915090508060000160009054906101000a900473ffffffffffffffffffffffffffffffffffffffff1690806001018054610abc90613116565b80601f0160208091040260200160405190810160405280929190818152602001828054610ae890613116565b8015610b355780601f10610b0a57610100808354040283529160200191610b35565b820191906000526020600020905b815481529060010190602001808311610b1857829003601f168201915b5050505050908060020160009054906101000a900460ff16908060020160019054906101000a900460ff16908060030154908060040154905086565b6002600360003373ffffffffffffffffffffffffffffffffffffffff1673ffffffffffffffffffffffffffffffffffffffff16815260200190815260200160002060020160019054906101000a900460ff1660ff161015610c07576040517f08c379a0000000000000000000000000000000000000000000000000000000008152600401610bfe90612f24565b60405180910390fd5b60008054906101000a900473ffffffffffffffffffffffffffffffffffffffff1673ffffffffffffffffffffffffffffffffffffffff168173ffffffffffffffffffffffffffffffffffffffff161415610c96576040517f08c379a0000000000000000000000000000000000000000000000000000000008152600401610c8d90612dc4565b60405180910390fd5b600073ffffffffffffffffffffffffffffffffffffffff16600360008373ffffffffffffffffffffffffffffffffffffffff1673ffffffffffffffffffffffffffffffffffffffff16815260200190815260200160002060000160009054906101000a900473ffffffffffffffffffffffffffffffffffffffff1673ffffffffffffffffffffffffffffffffffffffff161415610d68576040517f08c379a0000000000000000000000000000000000000000000000000000000008152600401610d5f90612e04565b60405180910390fd5b600060046000600360008573ffffffffffffffffffffffffffffffffffffffff1673ffffffffffffffffffffffffffffffffffffffff16815260200190815260200160002060040154815260200190815260200160002060006101000a81548173ffffffffffffffffffffffffffffffffffffffff021916908373ffffffffffffffffffffffffffffffffffffffff160217905550600360008273ffffffffffffffffffffffffffffffffffffffff1673ffffffffffffffffffffffffffffffffffffffff168152602001908152602001600020600080820160006101000a81549073ffffffffffffffffffffffffffffffffffffffff0219169055600182016000610e7491906122f8565b6002820160006101000a81549060ff02191690556002820160016101000a81549060ff021916905560038201600090556004820160009055505050565b6000600360008373ffffffffffffffffffffffffffffffffffffffff1673ffffffffffffffffffffffffffffffffffffffff16815260200190815260200160002060020160009054906101000a900460ff169050919050565b60046020528060005260406000206000915054906101000a900473ffffffffffffffffffffffffffffffffffffffff1681565b6002600360003373ffffffffffffffffffffffffffffffffffffffff1673ffffffffffffffffffffffffffffffffffffffff16815260200190815260200160002060020160019054906101000a900460ff1660ff161015610fd3576040517f08c379a0000000000000000000000000000000000000000000000000000000008152600401610fca90612f24565b60405180910390fd5b610fe1838360018085611e27565b505050565b60038060003373ffffffffffffffffffffffffffffffffffffffff1673ffffffffffffffffffffffffffffffffffffffff16815260200190815260200160002060020160019054906101000a900460ff1660ff161461107a576040517f08c379a000000000000000000000000000000000000000000000000000000000815260040161107190612ee4565b60405180910390fd5b61108983836002600185611e27565b505050565b6001600360003373ffffffffffffffffffffffffffffffffffffffff1673ffffffffffffffffffffffffffffffffffffffff16815260200190815260200160002060020160019054906101000a900460ff1660ff161015611124576040517f08c379a000000000000000000000000000000000000000000000000000000000815260040161111b90612e84565b60405180910390fd5b60006004600083815260200190815260200160002060009054906101000a900473ffffffffffffffffffffffffffffffffffffffff169050600073ffffffffffffffffffffffffffffffffffffffff168173ffffffffffffffffffffffffffffffffffffffff1614156111cc576040517f08c379a00000000000000000000000000000000000000000000000000000000081526004016111c390612da4565b60405180910390fd5b60011515600360008373ffffffffffffffffffffffffffffffffffffffff1673ffffffffffffffffffffffffffffffffffffffff16815260200190815260200160002060020160009054906101000a900460ff1615151415611263576040517f08c379a000000000000000000000000000000000000000000000000000000000815260040161125a90612ea4565b60405180910390fd5b6001600360008373ffffffffffffffffffffffffffffffffffffffff1673ffffffffffffffffffffffffffffffffffffffff16815260200190815260200160002060020160006101000a81548160ff02191690831515021790555060005b6002805490508110156114ce578260028281548110611309577f4e487b7100000000000000000000000000000000000000000000000000000000600052603260045260246000fd5b90600052602060002090600202016001015414156114bb5760026001600280549050611335919061304b565b8154811061136c577f4e487b7100000000000000000000000000000000000000000000000000000000600052603260045260246000fd5b9060005260206000209060020201600282815481106113b4577f4e487b7100000000000000000000000000000000000000000000000000000000600052603260045260246000fd5b90600052602060002090600202016000820160009054906101000a900473ffffffffffffffffffffffffffffffffffffffff168160000160006101000a81548173ffffffffffffffffffffffffffffffffffffffff021916908373ffffffffffffffffffffffffffffffffffffffff16021790555060018201548160010155905050600280548061146e577f4e487b7100000000000000000000000000000000000000000000000000000000600052603160045260246000fd5b6001900381819060005260206000209060020201600080820160006101000a81549073ffffffffffffffffffffffffffffffffffffffff02191690556001820160009055505090556114ce565b80806114c690613148565b9150506112c1565b505050565b60038060003373ffffffffffffffffffffffffffffffffffffffff1673ffffffffffffffffffffffffffffffffffffffff16815260200190815260200160002060020160019054906101000a900460ff1660ff1614611567576040517f08c379a000000000000000000000000000000000000000000000000000000000815260040161155e90612ee4565b60405180910390fd5b60008054906101000a900473ffffffffffffffffffffffffffffffffffffffff1673ffffffffffffffffffffffffffffffffffffffff168173ffffffffffffffffffffffffffffffffffffffff1614156115f6576040517f08c379a00000000000000000000000000000000000000000000000000000000081526004016115ed90612f44565b60405180910390fd5b600073ffffffffffffffffffffffffffffffffffffffff16600360008373ffffffffffffffffffffffffffffffffffffffff1673ffffffffffffffffffffffffffffffffffffffff16815260200190815260200160002060000160009054906101000a900473ffffffffffffffffffffffffffffffffffffffff1673ffffffffffffffffffffffffffffffffffffffff1614156116c8576040517f08c379a00000000000000000000000000000000000000000000000000000000081526004016116bf90612e04565b60405180910390fd5b600060046000600360008573ffffffffffffffffffffffffffffffffffffffff1673ffffffffffffffffffffffffffffffffffffffff16815260200190815260200160002060040154815260200190815260200160002060006101000a81548173ffffffffffffffffffffffffffffffffffffffff021916908373ffffffffffffffffffffffffffffffffffffffff160217905550600360008273ffffffffffffffffffffffffffffffffffffffff1673ffffffffffffffffffffffffffffffffffffffff168152602001908152602001600020600080820160006101000a81549073ffffffffffffffffffffffffffffffffffffffff02191690556001820160006117d491906122f8565b6002820160006101000a81549060ff02191690556002820160016101000a81549060ff021916905560038201600090556004820160009055505050565b6002600360003373ffffffffffffffffffffffffffffffffffffffff1673ffffffffffffffffffffffffffffffffffffffff16815260200190815260200160002060020160019054906101000a900460ff1660ff1610156118a7576040517f08c379a000000000000000000000000000000000000000000000000000000000815260040161189e90612f24565b60405180910390fd5b6118b081611a2c565b6118ef576040517f08c379a00000000000000000000000000000000000000000000000000000000081526004016118e690612ec4565b60405180910390fd5b6000600360008373ffffffffffffffffffffffffffffffffffffffff1673ffffffffffffffffffffffffffffffffffffffff16815260200190815260200160002060020160006101000a81548160ff0219169083151502179055506000600360008373ffffffffffffffffffffffffffffffffffffffff1673ffffffffffffffffffffffffffffffffffffffff16815260200190815260200160002060020160016101000a81548160ff021916908360ff16021790555050565b60008054906101000a900473ffffffffffffffffffffffffffffffffffffffff1681565b60006002600360008473ffffffffffffffffffffffffffffffffffffffff1673ffffffffffffffffffffffffffffffffffffffff16815260200190815260200160002060020160019054906101000a900460ff1660ff16149050919050565b60006001600360008473ffffffffffffffffffffffffffffffffffffffff1673ffffffffffffffffffffffffffffffffffffffff16815260200190815260200160002060020160019054906101000a900460ff1660ff16149050919050565b60036020528060005260406000206000915090508060000160009054906101000a900473ffffffffffffffffffffffffffffffffffffffff1690806001018054611ad490613116565b80601f0160208091040260200160405190810160405280929190818152602001828054611b0090613116565b8015611b4d5780601f10611b2257610100808354040283529160200191611b4d565b820191906000526020600020905b815481529060010190602001808311611b3057829003601f168201915b5050505050908060020160009054906101000a900460ff16908060020160019054906101000a900460ff16908060030154908060040154905086565b60038060003373ffffffffffffffffffffffffffffffffffffffff1673ffffffffffffffffffffffffffffffffffffffff16815260200190815260200160002060020160019054906101000a900460ff1660ff1614611c1d576040517f08c379a0000000000000000000000000000000000000000000000000000000008152600401611c1490612ee4565b60405180910390fd5b6001600360008373ffffffffffffffffffffffffffffffffffffffff1673ffffffffffffffffffffffffffffffffffffffff16815260200190815260200160002060020160006101000a81548160ff0219169083151502179055506002600360008373ffffffffffffffffffffffffffffffffffffffff1673ffffffffffffffffffffffffffffffffffffffff16815260200190815260200160002060020160016101000a81548160ff021916908360ff16021790555050565b6002600360003373ffffffffffffffffffffffffffffffffffffffff1673ffffffffffffffffffffffffffffffffffffffff16815260200190815260200160002060020160019054906101000a900460ff1660ff161015611d6d576040517f08c379a0000000000000000000000000000000000000000000000000000000008152600401611d6490612f24565b60405180910390fd5b6001600360008373ffffffffffffffffffffffffffffffffffffffff1673ffffffffffffffffffffffffffffffffffffffff16815260200190815260200160002060020160006101000a81548160ff0219169083151502179055506001600360008373ffffffffffffffffffffffffffffffffffffffff1673ffffffffffffffffffffffffffffffffffffffff16815260200190815260200160002060020160016101000a81548160ff021916908360ff16021790555050565b600073ffffffffffffffffffffffffffffffffffffffff16600360008773ffffffffffffffffffffffffffffffffffffffff1673ffffffffffffffffffffffffffffffffffffffff16815260200190815260200160002060000160009054906101000a900473ffffffffffffffffffffffffffffffffffffffff1673ffffffffffffffffffffffffffffffffffffffff1614611ef8576040517f08c379a0000000000000000000000000000000000000000000000000000000008152600401611eef90612e44565b60405180910390fd5b611f018161056f565b611f40576040517f08c379a0000000000000000000000000000000000000000000000000000000008152600401611f3790612e64565b60405180910390fd5b600073ffffffffffffffffffffffffffffffffffffffff166004600083815260200190815260200160002060009054906101000a900473ffffffffffffffffffffffffffffffffffffffff1673ffffffffffffffffffffffffffffffffffffffff1614611fe2576040517f08c379a0000000000000000000000000000000000000000000000000000000008152600401611fd990612f04565b60405180910390fd5b60016040518060c001604052808773ffffffffffffffffffffffffffffffffffffffff16815260200186815260200184151581526020018560ff16815260200142815260200183815250908060018154018082558091505060019003906000526020600020906005020160009091909190915060008201518160000160006101000a81548173ffffffffffffffffffffffffffffffffffffffff021916908373ffffffffffffffffffffffffffffffffffffffff16021790555060208201518160010190805190602001906120b8929190612338565b5060408201518160020160006101000a81548160ff02191690831515021790555060608201518160020160016101000a81548160ff021916908360ff1602179055506080820151816003015560a0820151816004015550506001808080549050612122919061304b565b81548110612159577f4e487b7100000000000000000000000000000000000000000000000000000000600052603260045260246000fd5b9060005260206000209060050201600360008773ffffffffffffffffffffffffffffffffffffffff1673ffffffffffffffffffffffffffffffffffffffff1681526020019081526020016000206000820160009054906101000a900473ffffffffffffffffffffffffffffffffffffffff168160000160006101000a81548173ffffffffffffffffffffffffffffffffffffffff021916908373ffffffffffffffffffffffffffffffffffffffff160217905550600182018160010190805461222190613116565b61222c9291906123be565b506002820160009054906101000a900460ff168160020160006101000a81548160ff0219169083151502179055506002820160019054906101000a900460ff168160020160016101000a81548160ff021916908360ff1602179055506003820154816003015560048201548160040155905050846004600083815260200190815260200160002060006101000a81548173ffffffffffffffffffffffffffffffffffffffff021916908373ffffffffffffffffffffffffffffffffffffffff1602179055505050505050565b50805461230490613116565b6000825580601f106123165750612335565b601f016020900490600052602060002090810190612334919061244b565b5b50565b82805461234490613116565b90600052602060002090601f01602090048101928261236657600085556123ad565b82601f1061237f57805160ff19168380011785556123ad565b828001600101855582156123ad579182015b828111156123ac578251825591602001919060010190612391565b5b5090506123ba919061244b565b5090565b8280546123ca90613116565b90600052602060002090601f0160209004810192826123ec576000855561243a565b82601f106123fd578054855561243a565b8280016001018555821561243a57600052602060002091601f016020900482015b8281111561243957825482559160010191906001019061241e565b5b509050612447919061244b565b5090565b5b8082111561246457600081600090555060010161244c565b5090565b600061247b61247684612f95565b612f64565b90508281526020810184848401111561249357600080fd5b61249e8482856130d4565b509392505050565b6000813590506124b58161325e565b92915050565b600082601f8301126124cc57600080fd5b81356124dc848260208601612468565b91505092915050565b6000813590506124f481613275565b92915050565b60006020828403121561250c57600080fd5b600061251a848285016124a6565b91505092915050565b60008060006060848603121561253857600080fd5b6000612546868287016124a6565b935050602084013567ffffffffffffffff81111561256357600080fd5b61256f868287016124bb565b9250506040612580868287016124e5565b9150509250925092565b6000806040838503121561259d57600080fd5b600083013567ffffffffffffffff8111156125b757600080fd5b6125c3858286016124bb565b92505060206125d4858286016124e5565b9150509250929050565b6000602082840312156125f057600080fd5b60006125fe848285016124e5565b91505092915050565b60006126138383612c05565b60408301905092915050565b6126288161307f565b82525050565b6126378161307f565b82525050565b600061264882612fd5565b6126528185612ff8565b935061265d83612fc5565b8060005b8381101561268e5781516126758882612607565b975061268083612feb565b925050600181019050612661565b5085935050505092915050565b6126a481613091565b82525050565b60006126b582612fe0565b6126bf8185613009565b93506126cf8185602086016130e3565b6126d88161324d565b840191505092915050565b60006126f0602c83613009565b91507f4e6f207573657220666f756e6420666f72207468652070726f7669646564204160008301527f6164686172206e756d62657200000000000000000000000000000000000000006020830152604082019050919050565b6000612756603283613009565b91507f43616e6e6f742072656d6f7665206465706c6f7965722773204c616e6420496e60008301527f73706563746f722070726976696c6567657300000000000000000000000000006020830152604082019050919050565b60006127bc601483613009565b91507f496e76616c6964207573657220616464726573730000000000000000000000006000830152602082019050919050565b60006127fc602783613009565b91507f55736572206e6f7420666f756e6420666f72207468652070726f76696465642060008301527f61646472657373000000000000000000000000000000000000000000000000006020830152604082019050919050565b6000612862602b83613009565b91507f546865206163636f756e74206973206e6f742061205365636f6e642d4c65766560008301527f6c20417574686f726974790000000000000000000000000000000000000000006020830152604082019050919050565b60006128c8601a83613009565b91507f4164647265737320616c726561647920726567697374657265640000000000006000830152602082019050919050565b6000612908601583613009565b91507f496e76616c696420416164686172206e756d62657200000000000000000000006000830152602082019050919050565b6000612948605483613009565b91507f4f6e6c7920746865206465706c6f7965722c207365636f6e642d6c6576656c2060008301527f617574686f726974792c206f72206c616e6420696e73706563746f722063616e60208301527f20706572666f726d207468697320616374696f6e0000000000000000000000006040830152606082019050919050565b60006129d4602083613009565b91507f55736572206163636f756e7420697320616c72656164792076657269666965646000830152602082019050919050565b6000612a14602383613009565b91507f546865206163636f756e74206973206e6f742061204c616e6420496e7370656360008301527f746f7200000000000000000000000000000000000000000000000000000000006020830152604082019050919050565b6000612a7a602983613009565b91507f4f6e6c7920746865206465706c6f7965722063616e20706572666f726d20746860008301527f697320616374696f6e00000000000000000000000000000000000000000000006020830152604082019050919050565b6000612ae0602083613009565b91507f416164686172206e756d62657220616c726561647920726567697374657265646000830152602082019050919050565b6000612b20604383613009565b91507f4f6e6c7920746865206465706c6f796572206f72207365636f6e642d6c65766560008301527f6c20617574686f726974792063616e20706572666f726d20746869732061637460208301527f696f6e00000000000000000000000000000000000000000000000000000000006040830152606082019050919050565b6000612bac603a83613009565b91507f43616e6e6f742072656d6f7665206465706c6f7965722773205365636f6e642d60008301527f6c6576656c20417574686f726974792070726976696c656765730000000000006020830152604082019050919050565b604082016000820151612c1b600085018261261f565b506020820151612c2e6020850182612c34565b50505050565b612c3d816130bd565b82525050565b612c4c816130bd565b82525050565b612c5b816130c7565b82525050565b6000602082019050612c76600083018461262e565b92915050565b600060c082019050612c91600083018961262e565b8181036020830152612ca381886126aa565b9050612cb2604083018761269b565b612cbf6060830186612c52565b612ccc6080830185612c43565b612cd960a0830184612c43565b979650505050505050565b6000604082019050612cf9600083018561262e565b612d066020830184612c43565b9392505050565b60006020820190508181036000830152612d27818461263d565b905092915050565b6000602082019050612d44600083018461269b565b92915050565b600060a0820190508181036000830152612d6481886126aa565b9050612d73602083018761269b565b612d806040830186612c52565b612d8d6060830185612c43565b612d9a6080830184612c43565b9695505050505050565b60006020820190508181036000830152612dbd816126e3565b9050919050565b60006020820190508181036000830152612ddd81612749565b9050919050565b60006020820190508181036000830152612dfd816127af565b9050919050565b60006020820190508181036000830152612e1d816127ef565b9050919050565b60006020820190508181036000830152612e3d81612855565b9050919050565b60006020820190508181036000830152612e5d816128bb565b9050919050565b60006020820190508181036000830152612e7d816128fb565b9050919050565b60006020820190508181036000830152612e9d8161293b565b9050919050565b60006020820190508181036000830152612ebd816129c7565b9050919050565b60006020820190508181036000830152612edd81612a07565b9050919050565b60006020820190508181036000830152612efd81612a6d565b9050919050565b60006020820190508181036000830152612f1d81612ad3565b9050919050565b60006020820190508181036000830152612f3d81612b13565b9050919050565b60006020820190508181036000830152612f5d81612b9f565b9050919050565b6000604051905081810181811067ffffffffffffffff82111715612f8b57612f8a61321e565b5b8060405250919050565b600067ffffffffffffffff821115612fb057612faf61321e565b5b601f19601f8301169050602081019050919050565b6000819050602082019050919050565b600081519050919050565b600081519050919050565b6000602082019050919050565b600082825260208201905092915050565b600082825260208201905092915050565b6000613025826130bd565b9150613030836130bd565b9250826130405761303f6131c0565b5b828204905092915050565b6000613056826130bd565b9150613061836130bd565b92508282101561307457613073613191565b5b828203905092915050565b600061308a8261309d565b9050919050565b60008115159050919050565b600073ffffffffffffffffffffffffffffffffffffffff82169050919050565b6000819050919050565b600060ff82169050919050565b82818337600083830152505050565b60005b838110156131015780820151818401526020810190506130e6565b83811115613110576000848401525b50505050565b6000600282049050600182168061312e57607f821691505b60208210811415613142576131416131ef565b5b50919050565b6000613153826130bd565b91507fffffffffffffffffffffffffffffffffffffffffffffffffffffffffffffffff82141561318657613185613191565b5b600182019050919050565b7f4e487b7100000000000000000000000000000000000000000000000000000000600052601160045260246000fd5b7f4e487b7100000000000000000000000000000000000000000000000000000000600052601260045260246000fd5b7f4e487b7100000000000000000000000000000000000000000000000000000000600052602260045260246000fd5b7f4e487b7100000000000000000000000000000000000000000000000000000000600052604160045260246000fd5b6000601f19601f8301169050919050565b6132678161307f565b811461327257600080fd5b50565b61327e816130bd565b811461328957600080fd5b5056fea264697066735822122028c049b72c4131b0e9f4f9a683ae9be9a0acfc760392b7ed45f0ae25c3cb68c364736f6c63430008000033",
  "immutableReferences": {},
  "source": "// SPDX-License-Identifier: UNLICENSED\r\npragma solidity ^0.8.0;\r\n\r\ncontract AccountRegistration {\r\n    address public deployer;\r\n\r\n    struct UserAccount {\r\n        address userAddress;\r\n        string username;\r\n        bool isUserVerified;\r\n        uint8 designation; // 0: no authority, 1: land inspector, 2: second-level authority, 3: deployer\r\n        uint registrationDate; // Registration date as a Unix timestamp\r\n        uint256 aadharNumber;\r\n    }\r\n\r\n    struct PendingVerification {\r\n        address userAddress;\r\n        uint256 aadharNumber;\r\n    }\r\n\r\n    UserAccount[] public userAccounts;\r\n    PendingVerification[] public pendingVerifications;\r\n    \r\n    // Mapping to store user accounts using their Ethereum addresses as keys\r\n    mapping(address => UserAccount) public userAccountsMap;\r\n\r\n    // Mapping to link Aadhar numbers to Ethereum addresses\r\n    mapping(uint256 => address) public aadharToUser;\r\n\r\n    // Constructor to initialize the contract and set the deployer's account\r\n    constructor() {\r\n        deployer = msg.sender;\r\n        addUser(deployer, \"Deployer\", 3, true, 123456789012);\r\n    }\r\n    // Function to view the list of pending verifications\r\n    function getPendingVerifications() public view returns (PendingVerification[] memory) {\r\n        return pendingVerifications;\r\n    }\r\n\r\n    function requestVerification(uint256 _aadharNumber) public {        \r\n        // Add the request to pending verifications\r\n        pendingVerifications.push(PendingVerification(msg.sender, _aadharNumber));\r\n    }\r\n\r\n    /* For Aadhaar validation\r\n    It should have 12 digits.\r\n    It should not start with 0 and 1.\r\n    It should not contain any alphabet and special characters */\r\n    function validateAadhar(uint256 _aadharNumber) public pure returns (bool) {\r\n        uint aadharLength = 0;\r\n        uint aadharCopy = _aadharNumber;\r\n        \r\n        while (aadharCopy != 0) {\r\n            aadharCopy /= 10;\r\n            aadharLength++;\r\n        }\r\n        \r\n        return aadharLength == 12 && _aadharNumber > 101 && _aadharNumber < 1000000000000;\r\n    }\r\n\r\n    // Function to verify an account with an Aadhar number\r\n    function verifyAccount(uint256 _aadharNumber) public onlyDeployerOrSecondLevelAuthorityOrLandInspector {    \r\n        // Find the Ethereum address associated with the given Aadhar number\r\n        address userToVerify = aadharToUser[_aadharNumber];\r\n\r\n        // Ensure that the user exists\r\n        require(userToVerify != address(0), \"No user found for the provided Aadhar number\");\r\n        \r\n        // Check if the user is already verified\r\n        require(userAccountsMap[userToVerify].isUserVerified != true, \"User account is already verified\");\r\n        \r\n        // Set the isUserVerified flag to true for the user\r\n        userAccountsMap[userToVerify].isUserVerified = true;\r\n\r\n        // Remove from pending verifications if account is verified\r\n        for (uint i = 0; i < pendingVerifications.length; i++) {\r\n            if (pendingVerifications[i].aadharNumber == _aadharNumber) {\r\n                // Remove the pending verification entry\r\n                pendingVerifications[i] = pendingVerifications[pendingVerifications.length - 1];\r\n                pendingVerifications.pop();\r\n                break;\r\n            }\r\n        }\r\n    }\r\n\r\n    // Function to add a user\r\n    function addUser(address _user, string memory _username, uint8 _designation, bool isUserVerified, uint256 _aadharNumber) internal {\r\n        require(userAccountsMap[_user].userAddress == address(0), \"Address already registered\");\r\n        require(validateAadhar(_aadharNumber), \"Invalid Aadhar number\");\r\n        require(aadharToUser[_aadharNumber] == address(0), \"Aadhar number already registered\");\r\n\r\n        userAccounts.push(UserAccount(_user, _username, isUserVerified , _designation, block.timestamp, _aadharNumber));\r\n        userAccountsMap[_user] = userAccounts[userAccounts.length - 1];\r\n        aadharToUser[_aadharNumber] = _user;\r\n    }\r\n\r\n    // Function to set user details\r\n    function setUserDetails(string memory _username, uint256 _aadharNumber) public {\r\n        addUser(msg.sender, _username, 0, false, _aadharNumber);\r\n    }\r\n\r\n    // Function to Check User Details\r\n    function getUserDetailsByAddress(address _userAddress) public view returns (string memory username, bool isUserVerified, uint8 designation, uint registrationDate, uint256 aadharNumber) {\r\n        // Ensure that the user exists\r\n        require(_userAddress != address(0), \"Invalid user address\");\r\n\r\n        // Retrieve user details using the Ethereum address\r\n        UserAccount storage user = userAccountsMap[_userAddress];\r\n\r\n        return (user.username, user.isUserVerified, user.designation, user.registrationDate, user.aadharNumber);\r\n    }\r\n\r\n\r\n    // Modifier to restrict access to functions for the deployer only\r\n    modifier onlyDeployer() {\r\n        require(userAccountsMap[msg.sender].designation == 3, \"Only the deployer can perform this action\");\r\n        _;\r\n    }\r\n\r\n    // Modifier to restrict access to functions for the deployer and second-level authorities\r\n    modifier onlyDeployerOrSecondLevelAuthority() {\r\n        require(userAccountsMap[msg.sender].designation >= 2, \"Only the deployer or second-level authority can perform this action\");\r\n        _;\r\n    }\r\n\r\n    // Modifier to restrict access to functions for the deployer, second-level authorities, and land inspectors\r\n    modifier onlyDeployerOrSecondLevelAuthorityOrLandInspector() {\r\n        require(userAccountsMap[msg.sender].designation >= 1, \"Only the deployer, second-level authority, or land inspector can perform this action\");\r\n        _;\r\n    }\r\n\r\n   // Function to add a Land Inspector\r\n    function addLandInspector(address _inspector, string memory _username, uint256 _aadhar) public onlyDeployerOrSecondLevelAuthority {\r\n        addUser(_inspector, _username, 1, true, _aadhar);\r\n    }\r\n\r\n    // Function to add a Second-Level Authority\r\n    function addSecondLevelAuthority(address _authority, string memory _username, uint256 _aadhar) public onlyDeployer {\r\n        addUser(_authority, _username, 2, true, _aadhar);\r\n    }\r\n\r\n    // Function to remove a Second-Level Authority\r\n    function removeSecondLevelAuthority(address _authority) public onlyDeployer {\r\n        require(_authority != deployer, \"Cannot remove deployer's Second-level Authority privileges\");\r\n\r\n        // Ensure that the provided address is associated with a user\r\n        require(userAccountsMap[_authority].userAddress != address(0), \"User not found for the provided address\");\r\n\r\n        // Remove the user and update the mapping\r\n        aadharToUser[userAccountsMap[_authority].aadharNumber] = address(0);\r\n        delete userAccountsMap[_authority];\r\n    }\r\n\r\n    // Function to remove a Land Inspector\r\n    function removeLandInspector(address _inspector) public onlyDeployerOrSecondLevelAuthority {\r\n        require(_inspector != deployer, \"Cannot remove deployer's Land Inspector privileges\");\r\n\r\n        // Ensure that the provided address is associated with a user\r\n        require(userAccountsMap[_inspector].userAddress != address(0), \"User not found for the provided address\");\r\n        \r\n        aadharToUser[userAccountsMap[_inspector].aadharNumber] = address(0);\r\n        delete userAccountsMap[_inspector];\r\n    }\r\n\r\n    // Function to check if a user is verified\r\n    function checkUserVerified(address _account) public view returns (bool) {\r\n        return userAccountsMap[_account].isUserVerified;\r\n    }\r\n\r\n    // Function to check if a user is a Land Inspector\r\n    function isLandInspector(address _account) public view returns (bool) {\r\n        return userAccountsMap[_account].designation == 1;\r\n    }\r\n\r\n    // Function to check if a user is a Second-Level Authority\r\n    function isSecondLevelAuthority(address _account) public view returns (bool) {\r\n        return userAccountsMap[_account].designation == 2;\r\n    }\r\n\r\n    // Function to check if a user is a Sdeployer\r\n    function isDeployer(address _account) public view returns (bool) {\r\n        return userAccountsMap[_account].designation == 3;\r\n    }\r\n\r\n    // Function to grant Land Inspector status\r\n    function grantLandInspectorStatus(address _account) public onlyDeployerOrSecondLevelAuthority {\r\n        userAccountsMap[_account].isUserVerified = true;\r\n        userAccountsMap[_account].designation = 1;\r\n    }\r\n\r\n    // Function to grant Second-Level Authority status\r\n    function grantSecondLevelAuthorityStatus(address _account) public onlyDeployer {\r\n        userAccountsMap[_account].isUserVerified = true;\r\n        userAccountsMap[_account].designation = 2;\r\n    }\r\n    // Function to revoke Land Inspector status\r\n    function revokeLandInspectorStatus(address _account) public onlyDeployerOrSecondLevelAuthority {\r\n        require(isLandInspector(_account), \"The account is not a Land Inspector\");\r\n        userAccountsMap[_account].isUserVerified = false;\r\n        userAccountsMap[_account].designation = 0;\r\n    }\r\n\r\n    // Function to revoke Second-Level Authority status\r\n    function revokeSecondLevelAuthorityStatus(address _account) public onlyDeployer {\r\n        require(isSecondLevelAuthority(_account), \"The account is not a Second-Level Authority\");\r\n        userAccountsMap[_account].isUserVerified = false;\r\n        userAccountsMap[_account].designation = 0;\r\n    }\r\n}",
  "sourcePath": "C:\\Users\\DELL\\OneDrive\\Documents\\FYP\\Decentralizsed-Land-Registration\\contracts\\registerAccount-contract.sol",
  "compiler": {
    "name": "solc",
    "version": "0.8.0+commit.c7dfd78e.Emscripten.clang"
  },
  "schemaVersion": "3.4.16",
  "updatedAt": "2023-12-31T10:18:17.208Z",
  "networkType": "ethereum",
  "devdoc": {
    "kind": "dev",
    "methods": {},
    "version": 1
  },
  "userdoc": {
    "kind": "user",
    "methods": {},
    "version": 1
  }
}