{
  "contractName": "AccountRegistration",
  "abi": [
    {
      "inputs": [],
      "stateMutability": "nonpayable",
      "type": "constructor"
    },
    {
      "inputs": [],
      "name": "deployer",
      "outputs": [
        {
          "internalType": "address",
          "name": "",
          "type": "address"
        }
      ],
      "stateMutability": "view",
      "type": "function",
      "constant": true
    },
    {
      "inputs": [
        {
          "internalType": "uint256",
          "name": "",
          "type": "uint256"
        }
      ],
      "name": "pendingVerifications",
      "outputs": [
        {
          "internalType": "address",
          "name": "userAddress",
          "type": "address"
        },
        {
          "internalType": "uint256",
          "name": "phoneNumber",
          "type": "uint256"
        }
      ],
      "stateMutability": "view",
      "type": "function",
      "constant": true
    },
    {
      "inputs": [
        {
          "internalType": "uint256",
          "name": "",
          "type": "uint256"
        }
      ],
      "name": "phoneToUser",
      "outputs": [
        {
          "internalType": "address",
          "name": "",
          "type": "address"
        }
      ],
      "stateMutability": "view",
      "type": "function",
      "constant": true
    },
    {
      "inputs": [
        {
          "internalType": "uint256",
          "name": "",
          "type": "uint256"
        }
      ],
      "name": "userAccounts",
      "outputs": [
        {
          "internalType": "address",
          "name": "userAddress",
          "type": "address"
        },
        {
          "internalType": "string",
          "name": "username",
          "type": "string"
        },
        {
          "internalType": "bool",
          "name": "isUserVerified",
          "type": "bool"
        },
        {
          "internalType": "uint8",
          "name": "designation",
          "type": "uint8"
        },
        {
          "internalType": "uint256",
          "name": "registrationDate",
          "type": "uint256"
        },
        {
          "internalType": "uint256",
          "name": "phoneNumber",
          "type": "uint256"
        }
      ],
      "stateMutability": "view",
      "type": "function",
      "constant": true
    },
    {
      "inputs": [
        {
          "internalType": "address",
          "name": "",
          "type": "address"
        }
      ],
      "name": "userAccountsMap",
      "outputs": [
        {
          "internalType": "address",
          "name": "userAddress",
          "type": "address"
        },
        {
          "internalType": "string",
          "name": "username",
          "type": "string"
        },
        {
          "internalType": "bool",
          "name": "isUserVerified",
          "type": "bool"
        },
        {
          "internalType": "uint8",
          "name": "designation",
          "type": "uint8"
        },
        {
          "internalType": "uint256",
          "name": "registrationDate",
          "type": "uint256"
        },
        {
          "internalType": "uint256",
          "name": "phoneNumber",
          "type": "uint256"
        }
      ],
      "stateMutability": "view",
      "type": "function",
      "constant": true
    },
    {
      "inputs": [],
      "name": "getPendingVerifications",
      "outputs": [
        {
          "components": [
            {
              "internalType": "address",
              "name": "userAddress",
              "type": "address"
            },
            {
              "internalType": "uint256",
              "name": "phoneNumber",
              "type": "uint256"
            }
          ],
          "internalType": "struct AccountRegistration.PendingVerification[]",
          "name": "",
          "type": "tuple[]"
        }
      ],
      "stateMutability": "view",
      "type": "function",
      "constant": true
    },
    {
      "inputs": [
        {
          "internalType": "uint256",
          "name": "_phoneNumber",
          "type": "uint256"
        }
      ],
      "name": "requestVerification",
      "outputs": [],
      "stateMutability": "nonpayable",
      "type": "function"
    },
    {
      "inputs": [
        {
          "internalType": "uint256",
          "name": "_phoneNumber",
          "type": "uint256"
        }
      ],
      "name": "validatePhone",
      "outputs": [
        {
          "internalType": "bool",
          "name": "",
          "type": "bool"
        }
      ],
      "stateMutability": "pure",
      "type": "function",
      "constant": true
    },
    {
      "inputs": [
        {
          "internalType": "uint256",
          "name": "_phoneNumber",
          "type": "uint256"
        }
      ],
      "name": "verifyAccount",
      "outputs": [],
      "stateMutability": "nonpayable",
      "type": "function"
    },
    {
      "inputs": [
        {
          "internalType": "string",
          "name": "_username",
          "type": "string"
        },
        {
          "internalType": "uint256",
          "name": "_phoneNumber",
          "type": "uint256"
        }
      ],
      "name": "setUserDetails",
      "outputs": [],
      "stateMutability": "nonpayable",
      "type": "function"
    },
    {
      "inputs": [
        {
          "internalType": "address",
          "name": "_userAddress",
          "type": "address"
        }
      ],
      "name": "getUserDetailsByAddress",
      "outputs": [
        {
          "internalType": "string",
          "name": "username",
          "type": "string"
        },
        {
          "internalType": "bool",
          "name": "isUserVerified",
          "type": "bool"
        },
        {
          "internalType": "uint8",
          "name": "designation",
          "type": "uint8"
        },
        {
          "internalType": "uint256",
          "name": "registrationDate",
          "type": "uint256"
        },
        {
          "internalType": "uint256",
          "name": "phoneNumber",
          "type": "uint256"
        },
        {
          "internalType": "address",
          "name": "userAddress",
          "type": "address"
        }
      ],
      "stateMutability": "view",
      "type": "function",
      "constant": true
    },
    {
      "inputs": [
        {
          "internalType": "address",
          "name": "_inspector",
          "type": "address"
        },
        {
          "internalType": "string",
          "name": "_username",
          "type": "string"
        },
        {
          "internalType": "uint256",
          "name": "_phone",
          "type": "uint256"
        }
      ],
      "name": "addLandInspector",
      "outputs": [],
      "stateMutability": "nonpayable",
      "type": "function"
    },
    {
      "inputs": [
        {
          "internalType": "address",
          "name": "_authority",
          "type": "address"
        },
        {
          "internalType": "string",
          "name": "_username",
          "type": "string"
        },
        {
          "internalType": "uint256",
          "name": "_phone",
          "type": "uint256"
        }
      ],
      "name": "addSecondLevelAuthority",
      "outputs": [],
      "stateMutability": "nonpayable",
      "type": "function"
    },
    {
      "inputs": [
        {
          "internalType": "address",
          "name": "_authority",
          "type": "address"
        }
      ],
      "name": "removeSecondLevelAuthority",
      "outputs": [],
      "stateMutability": "nonpayable",
      "type": "function"
    },
    {
      "inputs": [
        {
          "internalType": "address",
          "name": "_inspector",
          "type": "address"
        }
      ],
      "name": "removeLandInspector",
      "outputs": [],
      "stateMutability": "nonpayable",
      "type": "function"
    },
    {
      "inputs": [
        {
          "internalType": "address",
          "name": "_account",
          "type": "address"
        }
      ],
      "name": "checkUserVerified",
      "outputs": [
        {
          "internalType": "bool",
          "name": "",
          "type": "bool"
        }
      ],
      "stateMutability": "view",
      "type": "function",
      "constant": true
    },
    {
      "inputs": [
        {
          "internalType": "address",
          "name": "_account",
          "type": "address"
        }
      ],
      "name": "isLandInspector",
      "outputs": [
        {
          "internalType": "bool",
          "name": "",
          "type": "bool"
        }
      ],
      "stateMutability": "view",
      "type": "function",
      "constant": true
    },
    {
      "inputs": [
        {
          "internalType": "address",
          "name": "_account",
          "type": "address"
        }
      ],
      "name": "isSecondLevelAuthority",
      "outputs": [
        {
          "internalType": "bool",
          "name": "",
          "type": "bool"
        }
      ],
      "stateMutability": "view",
      "type": "function",
      "constant": true
    },
    {
      "inputs": [
        {
          "internalType": "address",
          "name": "_account",
          "type": "address"
        }
      ],
      "name": "isDeployer",
      "outputs": [
        {
          "internalType": "bool",
          "name": "",
          "type": "bool"
        }
      ],
      "stateMutability": "view",
      "type": "function",
      "constant": true
    },
    {
      "inputs": [
        {
          "internalType": "address",
          "name": "_account",
          "type": "address"
        }
      ],
      "name": "grantLandInspectorStatus",
      "outputs": [],
      "stateMutability": "nonpayable",
      "type": "function"
    },
    {
      "inputs": [
        {
          "internalType": "address",
          "name": "_account",
          "type": "address"
        }
      ],
      "name": "grantSecondLevelAuthorityStatus",
      "outputs": [],
      "stateMutability": "nonpayable",
      "type": "function"
    },
    {
      "inputs": [
        {
          "internalType": "address",
          "name": "_account",
          "type": "address"
        }
      ],
      "name": "revokeLandInspectorStatus",
      "outputs": [],
      "stateMutability": "nonpayable",
      "type": "function"
    },
    {
      "inputs": [
        {
          "internalType": "address",
          "name": "_account",
          "type": "address"
        }
      ],
      "name": "revokeSecondLevelAuthorityStatus",
      "outputs": [],
      "stateMutability": "nonpayable",
      "type": "function"
    }
  ],
  "bytecode": "0x60806040523480156200001157600080fd5b50600080546001600160a01b0319163317908190556040805180820190915260088152672232b83637bcb2b960c11b602082015262000064916001600160a01b03169060036001640211f03aeb6200006a565b620007a7565b6001600160a01b038581166000908152600360205260409020541615620000ae5760405162461bcd60e51b8152600401620000a590620004f1565b60405180910390fd5b620000b9816200032e565b620000d85760405162461bcd60e51b8152600401620000a5906200055f565b6000818152600460205260409020546001600160a01b031615620001105760405162461bcd60e51b8152600401620000a59062000528565b6040805160c0810182526001600160a01b03878116825260208083018881528615159484019490945260ff8716606084015242608084015260a0830185905260018054808201825560009190915283517fb10e2d527612073b26eecdfd717e6a320cf44b4afac2b0732d9fcbe2b7fa0cf6600590920291820180546001600160a01b031916919094161783559351805193949293620001d7937fb10e2d527612073b26eecdfd717e6a320cf44b4afac2b0732d9fcbe2b7fa0cf701929190910190620003c7565b506040820151600282018054606085015160ff166101000261ff001993151560ff1990921691909117929092169190911790556080820151600382015560a0909101516004909101556001805462000231908290620006ef565b815481106200025057634e487b7160e01b600052603260045260246000fd5b600091825260208083206001600160a01b03808a168552600390925260409093206005909202909201805482546001600160a01b03191693169290921781556001808301805491830191620002a59062000709565b620002b292919062000456565b5060028281018054918301805460ff938416151560ff199091161780825591546101009081900490931690920261ff0019909116179055600380830154908201556004918201549082015560009182526020526040902080546001600160a01b039095166001600160a01b031990951694909417909355505050565b600080825b80156200035e5762000347600a8262000596565b905081620003558162000746565b92505062000333565b6000600a6200036f600185620006ef565b6200037c90600a620005fa565b62000388908762000596565b62000394919062000764565b905082600a148015620003be57508060071480620003b25750806008145b80620003be5750806009145b95945050505050565b828054620003d59062000709565b90600052602060002090601f016020900481019282620003f9576000855562000444565b82601f106200041457805160ff191683800117855562000444565b8280016001018555821562000444579182015b828111156200044457825182559160200191906001019062000427565b5062000452929150620004da565b5090565b828054620004649062000709565b90600052602060002090601f01602090048101928262000488576000855562000444565b82601f106200049b578054855562000444565b828001600101855582156200044457600052602060002091601f016020900482015b8281111562000444578254825591600101919060010190620004bd565b5b80821115620004525760008155600101620004db565b6020808252601a908201527f4164647265737320616c72656164792072656769737465726564000000000000604082015260600190565b6020808252601f908201527f70686f6e65206e756d62657220616c7265616479207265676973746572656400604082015260600190565b60208082526014908201527f496e76616c69642070686f6e65206e756d626572000000000000000000000000604082015260600190565b600082620005a857620005a862000791565b500490565b80825b6001808611620005c15750620005f1565b818704821115620005d657620005d66200077b565b80861615620005e457918102915b9490941c938002620005b0565b94509492505050565b60006200060b600019848462000612565b9392505050565b60008262000623575060016200060b565b8162000632575060006200060b565b81600181146200064b576002811462000656576200068a565b60019150506200060b565b60ff8411156200066a576200066a6200077b565b6001841b9150848211156200068357620006836200077b565b506200060b565b5060208310610133831016604e8410600b8410161715620006c2575081810a83811115620006bc57620006bc6200077b565b6200060b565b620006d18484846001620005ad565b808604821115620006e657620006e66200077b565b02949350505050565b6000828210156200070457620007046200077b565b500390565b6002810460018216806200071e57607f821691505b602082108114156200074057634e487b7160e01b600052602260045260246000fd5b50919050565b60006000198214156200075d576200075d6200077b565b5060010190565b60008262000776576200077662000791565b500690565b634e487b7160e01b600052601160045260246000fd5b634e487b7160e01b600052601260045260246000fd5b611afc80620007b76000396000f3fe608060405234801561001057600080fd5b506004361061014d5760003560e01c80637c04c29e116100c3578063d5f394881161007c578063d5f39488146102ee578063dfdcd54c146102f6578063e165af8714610309578063efa828da1461031c578063f60138531461032f578063f869d90d146103425761014d565b80637c04c29e1461027c57806397f471f61461028f578063a2d01ded146102a2578063a731374d146102b5578063a784cbbb146102c8578063aa068378146102db5761014d565b806350c358a41161011557806350c358a4146101d85780635393edab146101eb57806355e953761461021057806361045fae14610231578063616d5058146102445780637517e00f146102695761014d565b806308f6f76e1461015257806309c461fc146101675780630b8a0e26146101905780630c020f08146101b05780633e64f39b146101c3575b600080fd5b610165610160366004611317565b610355565b005b61017a61017536600461135a565b610367565b60405161018791906113bd565b60405180910390f35b6101a361019e36600461135a565b610382565b604051610187919061148e565b6101656101be36600461135a565b61040c565b6101cb61049f565b6040516101879190611436565b6101a36101e63660046112a1565b610514565b6101fe6101f93660046112a1565b61053e565b60405161018796959493929190611499565b61022361021e36600461135a565b610660565b60405161018792919061141d565b61016561023f3660046112a1565b610698565b61025761025236600461135a565b61071d565b604051610187969594939291906113d1565b6101656102773660046112a1565b6107fe565b6101a361028a3660046112a1565b610911565b61016561029d3660046112c2565b610932565b6101656102b03660046112c2565b610980565b6101656102c336600461135a565b6109ca565b6101656102d63660046112a1565b610bde565b6101656102e93660046112a1565b610c47565b61017a610ca7565b6101a36103043660046112a1565b610cb6565b6101a36103173660046112a1565b610cdf565b61025761032a3660046112a1565b610d09565b61016561033d3660046112a1565b610d35565b6101656103503660046112a1565b610da2565b610363338360008085610e0f565b5050565b6004602052600090815260409020546001600160a01b031681565b600080825b80156103ac57610398600a826118db565b9050816103a481611a55565b925050610387565b6000600a6103bb600185611a03565b6103c690600a611935565b6103d090876118db565b6103da9190611a70565b905082600a148015610401575080600714806103f65750806008145b806104015750806009145b93505050505b919050565b604080518082019091523381526020810191825260028054600181018255600082905291517f405787fa12a823e0f2b7631cc41b3ba8828b3321ca811111fa75cd3aa3bb5ace9290910291820180546001600160a01b0319166001600160a01b0390921691909117905590517f405787fa12a823e0f2b7631cc41b3ba8828b3321ca811111fa75cd3aa3bb5acf90910155565b60606002805480602002602001604051908101604052809291908181526020016000905b8282101561050b576000848152602090819020604080518082019091526002850290910180546001600160a01b031682526001908101548284015290835290920191016104c3565b50505050905090565b6001600160a01b0316600090815260036020819052604090912060020154610100900460ff161490565b60606000808080806001600160a01b0387166105755760405162461bcd60e51b815260040161056c90611533565b60405180910390fd5b6001600160a01b038088166000908152600360208190526040909120600281015491810154600482015482546001840180549496909560ff80821696610100909204169493929091169086906105ca90611a1a565b80601f01602080910402602001604051908101604052809291908181526020018280546105f690611a1a565b80156106435780601f1061061857610100808354040283529160200191610643565b820191906000526020600020905b81548152906001019060200180831161062657829003601f168201915b505050505095509650965096509650965096505091939550919395565b6002818154811061067057600080fd5b6000918252602090912060029091020180546001909101546001600160a01b03909116915082565b33600090815260036020819052604090912060020154610100900460ff16146106d35760405162461bcd60e51b815260040161056c9061179e565b6106dc81610cb6565b6106f85760405162461bcd60e51b815260040161056c906115a8565b6001600160a01b03166000908152600360205260409020600201805461ffff19169055565b6001818154811061072d57600080fd5b6000918252602090912060059091020180546001820180546001600160a01b0390921693509061075c90611a1a565b80601f016020809104026020016040519081016040528092919081815260200182805461078890611a1a565b80156107d55780601f106107aa576101008083540402835291602001916107d5565b820191906000526020600020905b8154815290600101906020018083116107b857829003601f168201915b50505060028401546003850154600490950154939460ff80831695610100909304169350915086565b336000908152600360205260409020600290810154610100900460ff1610156108395760405162461bcd60e51b815260040161056c90611815565b6000546001600160a01b03828116911614156108675760405162461bcd60e51b815260040161056c906114e1565b6001600160a01b038181166000908152600360205260409020541661089e5760405162461bcd60e51b815260040161056c90611561565b6001600160a01b03811660008181526003602081815260408084206004818101548652835290842080546001600160a01b0319908116909155948452919052805490921682556108f160018301826110b6565b5060028101805461ffff1916905560006003820181905560049091015550565b6001600160a01b031660009081526003602052604090206002015460ff1690565b336000908152600360205260409020600290810154610100900460ff16101561096d5760405162461bcd60e51b815260040161056c90611815565b61097b838360018085610e0f565b505050565b33600090815260036020819052604090912060020154610100900460ff16146109bb5760405162461bcd60e51b815260040161056c9061179e565b61097b83836002600185610e0f565b33600090815260036020526040902060020154600161010090910460ff161015610a065760405162461bcd60e51b815260040161056c9061162a565b6000818152600460205260409020546001600160a01b031680610a3b5760405162461bcd60e51b815260040161056c90611710565b6001600160a01b03811660009081526003602052604090206002015460ff16151560011415610a7c5760405162461bcd60e51b815260040161056c906116a4565b6001600160a01b0381166000908152600360205260408120600201805460ff191660011790555b60025481101561097b578260028281548110610acf57634e487b7160e01b600052603260045260246000fd5b9060005260206000209060020201600101541415610bcc5760028054610af790600190611a03565b81548110610b1557634e487b7160e01b600052603260045260246000fd5b906000526020600020906002020160028281548110610b4457634e487b7160e01b600052603260045260246000fd5b600091825260209091208254600292830290910180546001600160a01b0319166001600160a01b03909216919091178155600192830154920191909155805480610b9e57634e487b7160e01b600052603160045260246000fd5b60008281526020812060026000199093019283020180546001600160a01b031916815560010155905561097b565b80610bd681611a55565b915050610aa3565b33600090815260036020819052604090912060020154610100900460ff1614610c195760405162461bcd60e51b815260040161056c9061179e565b6000546001600160a01b03828116911614156108675760405162461bcd60e51b815260040161056c9061187e565b336000908152600360205260409020600290810154610100900460ff161015610c825760405162461bcd60e51b815260040161056c90611815565b610c8b81610cdf565b6106f85760405162461bcd60e51b815260040161056c9061175b565b6000546001600160a01b031681565b6001600160a01b03166000908152600360205260409020600290810154610100900460ff161490565b6001600160a01b0316600090815260036020526040902060020154600161010090910460ff161490565b600360205260009081526040902080546001820180546001600160a01b03909216929161075c90611a1a565b33600090815260036020819052604090912060020154610100900460ff1614610d705760405162461bcd60e51b815260040161056c9061179e565b6001600160a01b031660009081526003602052604090206002018054600160ff199091161761ff001916610200179055565b336000908152600360205260409020600290810154610100900460ff161015610ddd5760405162461bcd60e51b815260040161056c90611815565b6001600160a01b03166000908152600360205260409020600201805461ff001960ff1990911660011716610100179055565b6001600160a01b038581166000908152600360205260409020541615610e475760405162461bcd60e51b815260040161056c906115f3565b610e5081610382565b610e6c5760405162461bcd60e51b815260040161056c906117e7565b6000818152600460205260409020546001600160a01b031615610ea15760405162461bcd60e51b815260040161056c906116d9565b6040805160c0810182526001600160a01b03878116825260208083018881528615159484019490945260ff8716606084015242608084015260a0830185905260018054808201825560009190915283517fb10e2d527612073b26eecdfd717e6a320cf44b4afac2b0732d9fcbe2b7fa0cf6600590920291820180546001600160a01b031916919094161783559351805193949293610f66937fb10e2d527612073b26eecdfd717e6a320cf44b4afac2b0732d9fcbe2b7fa0cf7019291909101906110f5565b506040820151600282018054606085015160ff166101000261ff001993151560ff1990921691909117929092169190911790556080820151600382015560a09091015160049091015560018054610fbe908290611a03565b81548110610fdc57634e487b7160e01b600052603260045260246000fd5b600091825260208083206001600160a01b03808a168552600390925260409093206005909202909201805482546001600160a01b0319169316929092178155600180830180549183019161102f90611a1a565b61103a929190611179565b5060028281018054918301805460ff938416151560ff199091161780825591546101009081900490931690920261ff0019909116179055600380830154908201556004918201549082015560009182526020526040902080546001600160a01b039095166001600160a01b031990951694909417909355505050565b5080546110c290611a1a565b6000825580601f106110d457506110f2565b601f0160209004906000526020600020908101906110f291906111f4565b50565b82805461110190611a1a565b90600052602060002090601f0160209004810192826111235760008555611169565b82601f1061113c57805160ff1916838001178555611169565b82800160010185558215611169579182015b8281111561116957825182559160200191906001019061114e565b506111759291506111f4565b5090565b82805461118590611a1a565b90600052602060002090601f0160209004810192826111a75760008555611169565b82601f106111b85780548555611169565b8280016001018555821561116957600052602060002091601f016020900482015b828111156111695782548255916001019190600101906111d9565b5b8082111561117557600081556001016111f5565b80356001600160a01b038116811461040757600080fd5b600082601f830112611230578081fd5b813567ffffffffffffffff8082111561124b5761124b611ab0565b604051601f8301601f19168101602001828111828210171561126f5761126f611ab0565b604052828152848301602001861015611286578384fd5b82602086016020830137918201602001929092529392505050565b6000602082840312156112b2578081fd5b6112bb82611209565b9392505050565b6000806000606084860312156112d6578182fd5b6112df84611209565b9250602084013567ffffffffffffffff8111156112fa578283fd5b61130686828701611220565b925050604084013590509250925092565b60008060408385031215611329578182fd5b823567ffffffffffffffff81111561133f578283fd5b61134b85828601611220565b95602094909401359450505050565b60006020828403121561136b578081fd5b5035919050565b60008151808452815b818110156113975760208185018101518683018201520161137b565b818111156113a85782602083870101525b50601f01601f19169290920160200192915050565b6001600160a01b0391909116815260200190565b6001600160a01b038716815260c0602082018190526000906113f590830188611372565b95151560408301525060ff939093166060840152608083019190915260a09091015292915050565b6001600160a01b03929092168252602082015260400190565b602080825282518282018190526000919060409081850190868401855b8281101561148157815180516001600160a01b03168552860151868501529284019290850190600101611453565b5091979650505050505050565b901515815260200190565b600060c082526114ac60c0830189611372565b96151560208301525060ff949094166040850152606084019290925260808301526001600160a01b031660a090910152919050565b60208082526032908201527f43616e6e6f742072656d6f7665206465706c6f7965722773204c616e6420496e60408201527173706563746f722070726976696c6567657360701b606082015260800190565b602080825260149082015273496e76616c69642075736572206164647265737360601b604082015260600190565b60208082526027908201527f55736572206e6f7420666f756e6420666f72207468652070726f7669646564206040820152666164647265737360c81b606082015260800190565b6020808252602b908201527f546865206163636f756e74206973206e6f742061205365636f6e642d4c65766560408201526a6c20417574686f7269747960a81b606082015260800190565b6020808252601a908201527f4164647265737320616c72656164792072656769737465726564000000000000604082015260600190565b60208082526054908201527f4f6e6c7920746865206465706c6f7965722c207365636f6e642d6c6576656c2060408201527f617574686f726974792c206f72206c616e6420696e73706563746f722063616e606082015273103832b93337b936903a3434b99030b1ba34b7b760611b608082015260a00190565b6020808252818101527f55736572206163636f756e7420697320616c7265616479207665726966696564604082015260600190565b6020808252601f908201527f70686f6e65206e756d62657220616c7265616479207265676973746572656400604082015260600190565b6020808252602b908201527f4e6f207573657220666f756e6420666f72207468652070726f7669646564207060408201526a3437b73290373ab6b132b960a91b606082015260800190565b60208082526023908201527f546865206163636f756e74206973206e6f742061204c616e6420496e737065636040820152623a37b960e91b606082015260800190565b60208082526029908201527f4f6e6c7920746865206465706c6f7965722063616e20706572666f726d20746860408201526834b99030b1ba34b7b760b91b606082015260800190565b60208082526014908201527324b73b30b634b210383437b73290373ab6b132b960611b604082015260600190565b60208082526043908201527f4f6e6c7920746865206465706c6f796572206f72207365636f6e642d6c65766560408201527f6c20617574686f726974792063616e20706572666f726d20746869732061637460608201526234b7b760e91b608082015260a00190565b6020808252603a908201527f43616e6e6f742072656d6f7665206465706c6f7965722773205365636f6e642d60408201527f6c6576656c20417574686f726974792070726976696c65676573000000000000606082015260800190565b6000826118ea576118ea611a9a565b500490565b80825b6001808611611901575061192c565b81870482111561191357611913611a84565b8086161561192057918102915b9490941c9380026118f2565b94509492505050565b60006112bb600019848460008261194e575060016112bb565b8161195b575060006112bb565b8160018114611971576002811461197b576119a8565b60019150506112bb565b60ff84111561198c5761198c611a84565b6001841b9150848211156119a2576119a2611a84565b506112bb565b5060208310610133831016604e8410600b84101617156119db575081810a838111156119d6576119d6611a84565b6112bb565b6119e884848460016118ef565b8086048211156119fa576119fa611a84565b02949350505050565b600082821015611a1557611a15611a84565b500390565b600281046001821680611a2e57607f821691505b60208210811415611a4f57634e487b7160e01b600052602260045260246000fd5b50919050565b6000600019821415611a6957611a69611a84565b5060010190565b600082611a7f57611a7f611a9a565b500690565b634e487b7160e01b600052601160045260246000fd5b634e487b7160e01b600052601260045260246000fd5b634e487b7160e01b600052604160045260246000fdfea264697066735822122088e9afa7f7c2d69f1702d6bc0852071838e33b7e6c8b1a2189f059590156400d64736f6c63430008000033",
  "immutableReferences": {},
  "source": "// SPDX-License-Identifier: UNLICENSED\r\npragma solidity ^0.8.0;\r\n\r\ncontract AccountRegistration {\r\n    address public deployer;\r\n\r\n    struct UserAccount {\r\n        address userAddress;\r\n        string username;\r\n        bool isUserVerified;\r\n        uint8 designation; // 0: no authority, 1: land inspector, 2: second-level authority, 3: deployer\r\n        uint registrationDate; // Registration date as a Unix timestamp\r\n        uint256 phoneNumber;\r\n    }\r\n\r\n    struct PendingVerification {\r\n        address userAddress;\r\n        uint256 phoneNumber;\r\n    }\r\n\r\n    UserAccount[] public userAccounts;\r\n    PendingVerification[] public pendingVerifications;\r\n\r\n    // Mapping to store user accounts using their Ethereum addresses as keys\r\n    mapping(address => UserAccount) public userAccountsMap;\r\n\r\n    // Mapping to link phone numbers to Ethereum addresses\r\n    mapping(uint256 => address) public phoneToUser;\r\n\r\n    // Constructor to initialize the contract and set the deployer's account\r\n    constructor() {\r\n        deployer = msg.sender;\r\n        addUser(deployer, \"Deployer\", 3, true, 8890890987);\r\n    }\r\n\r\n    // Function to view the list of pending verifications\r\n    function getPendingVerifications()\r\n        public\r\n        view\r\n        returns (PendingVerification[] memory)\r\n    {\r\n        return pendingVerifications;\r\n    }\r\n\r\n    function requestVerification(uint256 _phoneNumber) public {\r\n        // Add the request to pending verifications\r\n        pendingVerifications.push(\r\n            PendingVerification(msg.sender, _phoneNumber)\r\n        );\r\n    }\r\n\r\n    function validatePhone(uint256 _phoneNumber) public pure returns (bool) {\r\n        uint phoneLength = 0;\r\n        uint phoneCopy = _phoneNumber;\r\n\r\n        // Count the number of digits in the phone number\r\n        while (phoneCopy != 0) {\r\n            phoneCopy /= 10;\r\n            phoneLength++;\r\n        }\r\n\r\n        // Check if the phone number is 10 digits and starts with 7, 8, or 9\r\n        uint firstDigit = (_phoneNumber / 10 ** (phoneLength - 1)) % 10;\r\n\r\n        return\r\n            phoneLength == 10 &&\r\n            (firstDigit == 7 || firstDigit == 8 || firstDigit == 9);\r\n    }\r\n\r\n    // Function to verify an account with an phone number\r\n    function verifyAccount(\r\n        uint256 _phoneNumber\r\n    ) public onlyDeployerOrSecondLevelAuthorityOrLandInspector {\r\n        // Find the Ethereum address associated with the given phone number\r\n        address userToVerify = phoneToUser[_phoneNumber];\r\n\r\n        // Ensure that the user exists\r\n        require(\r\n            userToVerify != address(0),\r\n            \"No user found for the provided phone number\"\r\n        );\r\n\r\n        // Check if the user is already verified\r\n        require(\r\n            userAccountsMap[userToVerify].isUserVerified != true,\r\n            \"User account is already verified\"\r\n        );\r\n\r\n        // Set the isUserVerified flag to true for the user\r\n        userAccountsMap[userToVerify].isUserVerified = true;\r\n\r\n        // Remove from pending verifications if account is verified\r\n        for (uint i = 0; i < pendingVerifications.length; i++) {\r\n            if (pendingVerifications[i].phoneNumber == _phoneNumber) {\r\n                // Remove the pending verification entry\r\n                pendingVerifications[i] = pendingVerifications[\r\n                    pendingVerifications.length - 1\r\n                ];\r\n                pendingVerifications.pop();\r\n                break;\r\n            }\r\n        }\r\n    }\r\n\r\n    // Function to add a user\r\n    function addUser(\r\n        address _user,\r\n        string memory _username,\r\n        uint8 _designation,\r\n        bool isUserVerified,\r\n        uint256 _phoneNumber\r\n    ) internal {\r\n        require(\r\n            userAccountsMap[_user].userAddress == address(0),\r\n            \"Address already registered\"\r\n        );\r\n        require(validatePhone(_phoneNumber), \"Invalid phone number\");\r\n        require(\r\n            phoneToUser[_phoneNumber] == address(0),\r\n            \"phone number already registered\"\r\n        );\r\n\r\n        userAccounts.push(\r\n            UserAccount(\r\n                _user,\r\n                _username,\r\n                isUserVerified,\r\n                _designation,\r\n                block.timestamp,\r\n                _phoneNumber\r\n            )\r\n        );\r\n        userAccountsMap[_user] = userAccounts[userAccounts.length - 1];\r\n        phoneToUser[_phoneNumber] = _user;\r\n    }\r\n\r\n    // Function to set user details\r\n    function setUserDetails(\r\n        string memory _username,\r\n        uint256 _phoneNumber\r\n    ) public {\r\n        addUser(msg.sender, _username, 0, false, _phoneNumber);\r\n    }\r\n\r\n    // Function to Check User Details\r\n    function getUserDetailsByAddress(\r\n        address _userAddress\r\n    )\r\n        public\r\n        view\r\n        returns (\r\n            string memory username,\r\n            bool isUserVerified,\r\n            uint8 designation,\r\n            uint registrationDate,\r\n            uint256 phoneNumber,\r\n            address userAddress\r\n        )\r\n    {\r\n        // Ensure that the user exists\r\n        require(_userAddress != address(0), \"Invalid user address\");\r\n\r\n        // Retrieve user details using the Ethereum address\r\n        UserAccount storage user = userAccountsMap[_userAddress];\r\n\r\n        return (\r\n            user.username,\r\n            user.isUserVerified,\r\n            user.designation,\r\n            user.registrationDate,\r\n            user.phoneNumber,\r\n            user.userAddress\r\n        );\r\n    }\r\n\r\n    // Modifier to restrict access to functions for the deployer only\r\n    modifier onlyDeployer() {\r\n        require(\r\n            userAccountsMap[msg.sender].designation == 3,\r\n            \"Only the deployer can perform this action\"\r\n        );\r\n        _;\r\n    }\r\n\r\n    // Modifier to restrict access to functions for the deployer and second-level authorities\r\n    modifier onlyDeployerOrSecondLevelAuthority() {\r\n        require(\r\n            userAccountsMap[msg.sender].designation >= 2,\r\n            \"Only the deployer or second-level authority can perform this action\"\r\n        );\r\n        _;\r\n    }\r\n\r\n    // Modifier to restrict access to functions for the deployer, second-level authorities, and land inspectors\r\n    modifier onlyDeployerOrSecondLevelAuthorityOrLandInspector() {\r\n        require(\r\n            userAccountsMap[msg.sender].designation >= 1,\r\n            \"Only the deployer, second-level authority, or land inspector can perform this action\"\r\n        );\r\n        _;\r\n    }\r\n\r\n    // Function to add a Land Inspector\r\n    function addLandInspector(\r\n        address _inspector,\r\n        string memory _username,\r\n        uint256 _phone\r\n    ) public onlyDeployerOrSecondLevelAuthority {\r\n        addUser(_inspector, _username, 1, true, _phone);\r\n    }\r\n\r\n    // Function to add a Second-Level Authority\r\n    function addSecondLevelAuthority(\r\n        address _authority,\r\n        string memory _username,\r\n        uint256 _phone\r\n    ) public onlyDeployer {\r\n        addUser(_authority, _username, 2, true, _phone);\r\n    }\r\n\r\n    // Function to remove a Second-Level Authority\r\n    function removeSecondLevelAuthority(\r\n        address _authority\r\n    ) public onlyDeployer {\r\n        require(\r\n            _authority != deployer,\r\n            \"Cannot remove deployer's Second-level Authority privileges\"\r\n        );\r\n\r\n        // Ensure that the provided address is associated with a user\r\n        require(\r\n            userAccountsMap[_authority].userAddress != address(0),\r\n            \"User not found for the provided address\"\r\n        );\r\n\r\n        // Remove the user and update the mapping\r\n        phoneToUser[userAccountsMap[_authority].phoneNumber] = address(0);\r\n        delete userAccountsMap[_authority];\r\n    }\r\n\r\n    // Function to remove a Land Inspector\r\n    function removeLandInspector(\r\n        address _inspector\r\n    ) public onlyDeployerOrSecondLevelAuthority {\r\n        require(\r\n            _inspector != deployer,\r\n            \"Cannot remove deployer's Land Inspector privileges\"\r\n        );\r\n\r\n        // Ensure that the provided address is associated with a user\r\n        require(\r\n            userAccountsMap[_inspector].userAddress != address(0),\r\n            \"User not found for the provided address\"\r\n        );\r\n\r\n        phoneToUser[userAccountsMap[_inspector].phoneNumber] = address(0);\r\n        delete userAccountsMap[_inspector];\r\n    }\r\n\r\n    // Function to check if a user is verified\r\n    function checkUserVerified(address _account) public view returns (bool) {\r\n        return userAccountsMap[_account].isUserVerified;\r\n    }\r\n\r\n    // Function to check if a user is a Land Inspector\r\n    function isLandInspector(address _account) public view returns (bool) {\r\n        return userAccountsMap[_account].designation == 1;\r\n    }\r\n\r\n    // Function to check if a user is a Second-Level Authority\r\n    function isSecondLevelAuthority(\r\n        address _account\r\n    ) public view returns (bool) {\r\n        return userAccountsMap[_account].designation == 2;\r\n    }\r\n\r\n    // Function to check if a user is a Sdeployer\r\n    function isDeployer(address _account) public view returns (bool) {\r\n        return userAccountsMap[_account].designation == 3;\r\n    }\r\n\r\n    // Function to grant Land Inspector status\r\n    function grantLandInspectorStatus(\r\n        address _account\r\n    ) public onlyDeployerOrSecondLevelAuthority {\r\n        userAccountsMap[_account].isUserVerified = true;\r\n        userAccountsMap[_account].designation = 1;\r\n    }\r\n\r\n    // Function to grant Second-Level Authority status\r\n    function grantSecondLevelAuthorityStatus(\r\n        address _account\r\n    ) public onlyDeployer {\r\n        userAccountsMap[_account].isUserVerified = true;\r\n        userAccountsMap[_account].designation = 2;\r\n    }\r\n\r\n    // Function to revoke Land Inspector status\r\n    function revokeLandInspectorStatus(\r\n        address _account\r\n    ) public onlyDeployerOrSecondLevelAuthority {\r\n        require(\r\n            isLandInspector(_account),\r\n            \"The account is not a Land Inspector\"\r\n        );\r\n        userAccountsMap[_account].isUserVerified = false;\r\n        userAccountsMap[_account].designation = 0;\r\n    }\r\n\r\n    // Function to revoke Second-Level Authority status\r\n    function revokeSecondLevelAuthorityStatus(\r\n        address _account\r\n    ) public onlyDeployer {\r\n        require(\r\n            isSecondLevelAuthority(_account),\r\n            \"The account is not a Second-Level Authority\"\r\n        );\r\n        userAccountsMap[_account].isUserVerified = false;\r\n        userAccountsMap[_account].designation = 0;\r\n    }\r\n}\r\n",
  "sourcePath": "E:\\Mohit\\7th_sem\\FYP\\Decentralizsed-Land-Registration\\contracts\\registerAccount-contract.sol",
  "compiler": {
    "name": "solc",
    "version": "0.8.0+commit.c7dfd78e.Emscripten.clang"
  },
  "schemaVersion": "3.4.16",
  "updatedAt": "2024-01-29T16:47:12.937Z",
  "networkType": "ethereum",
  "devdoc": {
    "kind": "dev",
    "methods": {},
    "version": 1
  },
  "userdoc": {
    "kind": "user",
    "methods": {},
    "version": 1
  }
}