{
  "contractName": "AccountRegistration",
  "abi": [
    {
      "inputs": [],
      "stateMutability": "nonpayable",
      "type": "constructor"
    },
    {
      "inputs": [
        {
          "internalType": "uint256",
          "name": "",
          "type": "uint256"
        }
      ],
      "name": "aadharToUser",
      "outputs": [
        {
          "internalType": "address",
          "name": "",
          "type": "address"
        }
      ],
      "stateMutability": "view",
      "type": "function",
      "constant": true
    },
    {
      "inputs": [],
      "name": "deployer",
      "outputs": [
        {
          "internalType": "address",
          "name": "",
          "type": "address"
        }
      ],
      "stateMutability": "view",
      "type": "function",
      "constant": true
    },
    {
      "inputs": [
        {
          "internalType": "uint256",
          "name": "",
          "type": "uint256"
        }
      ],
      "name": "pendingVerifications",
      "outputs": [
        {
          "internalType": "address",
          "name": "userAddress",
          "type": "address"
        },
        {
          "internalType": "uint256",
          "name": "aadharNumber",
          "type": "uint256"
        }
      ],
      "stateMutability": "view",
      "type": "function",
      "constant": true
    },
    {
      "inputs": [
        {
          "internalType": "uint256",
          "name": "",
          "type": "uint256"
        }
      ],
      "name": "userAccounts",
      "outputs": [
        {
          "internalType": "address",
          "name": "userAddress",
          "type": "address"
        },
        {
          "internalType": "string",
          "name": "username",
          "type": "string"
        },
        {
          "internalType": "bool",
          "name": "isUserVerified",
          "type": "bool"
        },
        {
          "internalType": "uint8",
          "name": "designation",
          "type": "uint8"
        },
        {
          "internalType": "uint256",
          "name": "registrationDate",
          "type": "uint256"
        },
        {
          "internalType": "uint256",
          "name": "aadharNumber",
          "type": "uint256"
        }
      ],
      "stateMutability": "view",
      "type": "function",
      "constant": true
    },
    {
      "inputs": [
        {
          "internalType": "address",
          "name": "",
          "type": "address"
        }
      ],
      "name": "userAccountsMap",
      "outputs": [
        {
          "internalType": "address",
          "name": "userAddress",
          "type": "address"
        },
        {
          "internalType": "string",
          "name": "username",
          "type": "string"
        },
        {
          "internalType": "bool",
          "name": "isUserVerified",
          "type": "bool"
        },
        {
          "internalType": "uint8",
          "name": "designation",
          "type": "uint8"
        },
        {
          "internalType": "uint256",
          "name": "registrationDate",
          "type": "uint256"
        },
        {
          "internalType": "uint256",
          "name": "aadharNumber",
          "type": "uint256"
        }
      ],
      "stateMutability": "view",
      "type": "function",
      "constant": true
    },
    {
      "inputs": [],
      "name": "getPendingVerifications",
      "outputs": [
        {
          "components": [
            {
              "internalType": "address",
              "name": "userAddress",
              "type": "address"
            },
            {
              "internalType": "uint256",
              "name": "aadharNumber",
              "type": "uint256"
            }
          ],
          "internalType": "struct AccountRegistration.PendingVerification[]",
          "name": "",
          "type": "tuple[]"
        }
      ],
      "stateMutability": "view",
      "type": "function",
      "constant": true
    },
    {
      "inputs": [
        {
          "internalType": "uint256",
          "name": "_aadharNumber",
          "type": "uint256"
        }
      ],
      "name": "requestVerification",
      "outputs": [],
      "stateMutability": "nonpayable",
      "type": "function"
    },
    {
      "inputs": [
        {
          "internalType": "uint256",
          "name": "_aadharNumber",
          "type": "uint256"
        }
      ],
      "name": "validateAadhar",
      "outputs": [
        {
          "internalType": "bool",
          "name": "",
          "type": "bool"
        }
      ],
      "stateMutability": "pure",
      "type": "function",
      "constant": true
    },
    {
      "inputs": [
        {
          "internalType": "uint256",
          "name": "_aadharNumber",
          "type": "uint256"
        }
      ],
      "name": "verifyAccount",
      "outputs": [],
      "stateMutability": "nonpayable",
      "type": "function"
    },
    {
      "inputs": [
        {
          "internalType": "string",
          "name": "_username",
          "type": "string"
        },
        {
          "internalType": "uint256",
          "name": "_aadharNumber",
          "type": "uint256"
        }
      ],
      "name": "setUserDetails",
      "outputs": [],
      "stateMutability": "nonpayable",
      "type": "function"
    },
    {
      "inputs": [
        {
          "internalType": "address",
          "name": "_userAddress",
          "type": "address"
        }
      ],
      "name": "getUserDetailsByAddress",
      "outputs": [
        {
          "internalType": "string",
          "name": "username",
          "type": "string"
        },
        {
          "internalType": "bool",
          "name": "isUserVerified",
          "type": "bool"
        },
        {
          "internalType": "uint8",
          "name": "designation",
          "type": "uint8"
        },
        {
          "internalType": "uint256",
          "name": "registrationDate",
          "type": "uint256"
        },
        {
          "internalType": "uint256",
          "name": "aadharNumber",
          "type": "uint256"
        },
        {
          "internalType": "address",
          "name": "userAddress",
          "type": "address"
        }
      ],
      "stateMutability": "view",
      "type": "function",
      "constant": true
    },
    {
      "inputs": [
        {
          "internalType": "address",
          "name": "_inspector",
          "type": "address"
        },
        {
          "internalType": "string",
          "name": "_username",
          "type": "string"
        },
        {
          "internalType": "uint256",
          "name": "_aadhar",
          "type": "uint256"
        }
      ],
      "name": "addLandInspector",
      "outputs": [],
      "stateMutability": "nonpayable",
      "type": "function"
    },
    {
      "inputs": [
        {
          "internalType": "address",
          "name": "_authority",
          "type": "address"
        },
        {
          "internalType": "string",
          "name": "_username",
          "type": "string"
        },
        {
          "internalType": "uint256",
          "name": "_aadhar",
          "type": "uint256"
        }
      ],
      "name": "addSecondLevelAuthority",
      "outputs": [],
      "stateMutability": "nonpayable",
      "type": "function"
    },
    {
      "inputs": [
        {
          "internalType": "address",
          "name": "_authority",
          "type": "address"
        }
      ],
      "name": "removeSecondLevelAuthority",
      "outputs": [],
      "stateMutability": "nonpayable",
      "type": "function"
    },
    {
      "inputs": [
        {
          "internalType": "address",
          "name": "_inspector",
          "type": "address"
        }
      ],
      "name": "removeLandInspector",
      "outputs": [],
      "stateMutability": "nonpayable",
      "type": "function"
    },
    {
      "inputs": [
        {
          "internalType": "address",
          "name": "_account",
          "type": "address"
        }
      ],
      "name": "checkUserVerified",
      "outputs": [
        {
          "internalType": "bool",
          "name": "",
          "type": "bool"
        }
      ],
      "stateMutability": "view",
      "type": "function",
      "constant": true
    },
    {
      "inputs": [
        {
          "internalType": "address",
          "name": "_account",
          "type": "address"
        }
      ],
      "name": "isLandInspector",
      "outputs": [
        {
          "internalType": "bool",
          "name": "",
          "type": "bool"
        }
      ],
      "stateMutability": "view",
      "type": "function",
      "constant": true
    },
    {
      "inputs": [
        {
          "internalType": "address",
          "name": "_account",
          "type": "address"
        }
      ],
      "name": "isSecondLevelAuthority",
      "outputs": [
        {
          "internalType": "bool",
          "name": "",
          "type": "bool"
        }
      ],
      "stateMutability": "view",
      "type": "function",
      "constant": true
    },
    {
      "inputs": [
        {
          "internalType": "address",
          "name": "_account",
          "type": "address"
        }
      ],
      "name": "isDeployer",
      "outputs": [
        {
          "internalType": "bool",
          "name": "",
          "type": "bool"
        }
      ],
      "stateMutability": "view",
      "type": "function",
      "constant": true
    },
    {
      "inputs": [
        {
          "internalType": "address",
          "name": "_account",
          "type": "address"
        }
      ],
      "name": "grantLandInspectorStatus",
      "outputs": [],
      "stateMutability": "nonpayable",
      "type": "function"
    },
    {
      "inputs": [
        {
          "internalType": "address",
          "name": "_account",
          "type": "address"
        }
      ],
      "name": "grantSecondLevelAuthorityStatus",
      "outputs": [],
      "stateMutability": "nonpayable",
      "type": "function"
    },
    {
      "inputs": [
        {
          "internalType": "address",
          "name": "_account",
          "type": "address"
        }
      ],
      "name": "revokeLandInspectorStatus",
      "outputs": [],
      "stateMutability": "nonpayable",
      "type": "function"
    },
    {
      "inputs": [
        {
          "internalType": "address",
          "name": "_account",
          "type": "address"
        }
      ],
      "name": "revokeSecondLevelAuthorityStatus",
      "outputs": [],
      "stateMutability": "nonpayable",
      "type": "function"
    }
  ],
  "bytecode": "0x60806040523480156200001157600080fd5b50336000806101000a81548173ffffffffffffffffffffffffffffffffffffffff021916908373ffffffffffffffffffffffffffffffffffffffff160217905550620000c360008054906101000a900473ffffffffffffffffffffffffffffffffffffffff166040518060400160405280600881526020017f4465706c6f79657200000000000000000000000000000000000000000000000081525060036001641cbe991a14620000c960201b60201c565b62000a2f565b600073ffffffffffffffffffffffffffffffffffffffff16600360008773ffffffffffffffffffffffffffffffffffffffff1673ffffffffffffffffffffffffffffffffffffffff16815260200190815260200160002060000160009054906101000a900473ffffffffffffffffffffffffffffffffffffffff1673ffffffffffffffffffffffffffffffffffffffff16146200019d576040517f08c379a000000000000000000000000000000000000000000000000000000000815260040162000194906200082a565b60405180910390fd5b620001ae81620005b460201b60201c565b620001f0576040517f08c379a0000000000000000000000000000000000000000000000000000000008152600401620001e7906200084c565b60405180910390fd5b600073ffffffffffffffffffffffffffffffffffffffff166004600083815260200190815260200160002060009054906101000a900473ffffffffffffffffffffffffffffffffffffffff1673ffffffffffffffffffffffffffffffffffffffff161462000295576040517f08c379a00000000000000000000000000000000000000000000000000000000081526004016200028c906200086e565b60405180910390fd5b60016040518060c001604052808773ffffffffffffffffffffffffffffffffffffffff16815260200186815260200184151581526020018560ff16815260200142815260200183815250908060018154018082558091505060019003906000526020600020906005020160009091909190915060008201518160000160006101000a81548173ffffffffffffffffffffffffffffffffffffffff021916908373ffffffffffffffffffffffffffffffffffffffff16021790555060208201518160010190805190602001906200036d9291906200061c565b5060408201518160020160006101000a81548160ff02191690831515021790555060608201518160020160016101000a81548160ff021916908360ff1602179055506080820151816003015560a0820151816004015550506001808080549050620003d99190620008d9565b8154811062000411577f4e487b7100000000000000000000000000000000000000000000000000000000600052603260045260246000fd5b9060005260206000209060050201600360008773ffffffffffffffffffffffffffffffffffffffff1673ffffffffffffffffffffffffffffffffffffffff1681526020019081526020016000206000820160009054906101000a900473ffffffffffffffffffffffffffffffffffffffff168160000160006101000a81548173ffffffffffffffffffffffffffffffffffffffff021916908373ffffffffffffffffffffffffffffffffffffffff1602179055506001820181600101908054620004db906200091e565b620004e8929190620006ad565b506002820160009054906101000a900460ff168160020160006101000a81548160ff0219169083151502179055506002820160019054906101000a900460ff168160020160016101000a81548160ff021916908360ff1602179055506003820154816003015560048201548160040155905050846004600083815260200190815260200160002060006101000a81548173ffffffffffffffffffffffffffffffffffffffff021916908373ffffffffffffffffffffffffffffffffffffffff1602179055505050505050565b6000806000905060008390505b60008114620005f157600a81620005d99190620008a1565b90508180620005e89062000954565b925050620005c1565b600c82148015620006025750606584115b801562000613575064e8d4a5100084105b92505050919050565b8280546200062a906200091e565b90600052602060002090601f0160209004810192826200064e57600085556200069a565b82601f106200066957805160ff19168380011785556200069a565b828001600101855582156200069a579182015b82811115620006995782518255916020019190600101906200067c565b5b509050620006a9919062000745565b5090565b828054620006bb906200091e565b90600052602060002090601f016020900481019282620006df576000855562000732565b82601f10620006f2578054855562000732565b828001600101855582156200073257600052602060002091601f016020900482015b828111156200073157825482559160010191906001019062000714565b5b50905062000741919062000745565b5090565b5b808211156200076057600081600090555060010162000746565b5090565b600062000773601a8362000890565b91507f4164647265737320616c726561647920726567697374657265640000000000006000830152602082019050919050565b6000620007b560158362000890565b91507f496e76616c696420416164686172206e756d62657200000000000000000000006000830152602082019050919050565b6000620007f760208362000890565b91507f416164686172206e756d62657220616c726561647920726567697374657265646000830152602082019050919050565b60006020820190508181036000830152620008458162000764565b9050919050565b600060208201905081810360008301526200086781620007a6565b9050919050565b600060208201905081810360008301526200088981620007e8565b9050919050565b600082825260208201905092915050565b6000620008ae8262000914565b9150620008bb8362000914565b925082620008ce57620008cd620009d1565b5b828204905092915050565b6000620008e68262000914565b9150620008f38362000914565b925082821015620009095762000908620009a2565b5b828203905092915050565b6000819050919050565b600060028204905060018216806200093757607f821691505b602082108114156200094e576200094d62000a00565b5b50919050565b6000620009618262000914565b91507fffffffffffffffffffffffffffffffffffffffffffffffffffffffffffffffff821415620009975762000996620009a2565b5b600182019050919050565b7f4e487b7100000000000000000000000000000000000000000000000000000000600052601160045260246000fd5b7f4e487b7100000000000000000000000000000000000000000000000000000000600052601260045260246000fd5b7f4e487b7100000000000000000000000000000000000000000000000000000000600052602260045260246000fd5b6132f98062000a3f6000396000f3fe608060405234801561001057600080fd5b506004361061014d5760003560e01c806385cfd38c116100c3578063d5f394881161007c578063d5f39488146103c7578063dfdcd54c146103e5578063e165af8714610415578063efa828da14610445578063f60138531461047a578063f869d90d146104965761014d565b806385cfd38c1461030b57806397f471f61461033b578063a2d01ded14610357578063a731374d14610373578063a784cbbb1461038f578063aa068378146103ab5761014d565b80635393edab116101155780635393edab1461020857806355e953761461023d57806361045fae1461026e578063616d50581461028a5780637517e00f146102bf5780637c04c29e146102db5761014d565b806308f6f76e146101525780630c020f081461016e57806329b1b2741461018a5780633e64f39b146101ba57806350c358a4146101d8575b600080fd5b61016c600480360381019061016791906125b3565b6104b2565b005b61018860048036038101906101839190612607565b6104c4565b005b6101a4600480360381019061019f9190612607565b610570565b6040516101b19190612d58565b60405180910390f35b6101c26105d0565b6040516101cf9190612d36565b60405180910390f35b6101f260048036038101906101ed9190612523565b61068f565b6040516101ff9190612d58565b60405180910390f35b610222600480360381019061021d9190612523565b6106ed565b60405161023496959493929190612d73565b60405180910390f35b61025760048036038101906102529190612607565b6108a2565b604051610265929190612d0d565b60405180910390f35b61028860048036038101906102839190612523565b6108f6565b005b6102a4600480360381019061029f9190612607565b610a8c565b6040516102b696959493929190612ca5565b60405180910390f35b6102d960048036038101906102d49190612523565b610b9a565b005b6102f560048036038101906102f09190612523565b610eda565b6040516103029190612d58565b60405180910390f35b61032560048036038101906103209190612607565b610f33565b6040516103329190612c8a565b60405180910390f35b6103556004803603810190610350919061254c565b610f66565b005b610371600480360381019061036c919061254c565b61100f565b005b61038d60048036038101906103889190612607565b6110b7565b005b6103a960048036038101906103a49190612523565b6114fc565b005b6103c560048036038101906103c09190612523565b61183a565b005b6103cf6119d2565b6040516103dc9190612c8a565b60405180910390f35b6103ff60048036038101906103fa9190612523565b6119f6565b60405161040c9190612d58565b60405180910390f35b61042f600480360381019061042a9190612523565b611a55565b60405161043c9190612d58565b60405180910390f35b61045f600480360381019061045a9190612523565b611ab4565b60405161047196959493929190612ca5565b60405180910390f35b610494600480360381019061048f9190612523565b611bb2565b005b6104b060048036038101906104ab9190612523565b611d00565b005b6104c0338360008085611e50565b5050565b600260405180604001604052803373ffffffffffffffffffffffffffffffffffffffff16815260200183815250908060018154018082558091505060019003906000526020600020906002020160009091909190915060008201518160000160006101000a81548173ffffffffffffffffffffffffffffffffffffffff021916908373ffffffffffffffffffffffffffffffffffffffff16021790555060208201518160010155505050565b6000806000905060008390505b600081146105a757600a816105929190613051565b9050818061059f9061317f565b92505061057d565b600c821480156105b75750606584115b80156105c7575064e8d4a5100084105b92505050919050565b60606002805480602002602001604051908101604052809291908181526020016000905b8282101561068657838290600052602060002090600202016040518060400160405290816000820160009054906101000a900473ffffffffffffffffffffffffffffffffffffffff1673ffffffffffffffffffffffffffffffffffffffff1673ffffffffffffffffffffffffffffffffffffffff168152602001600182015481525050815260200190600101906105f4565b50505050905090565b600060038060008473ffffffffffffffffffffffffffffffffffffffff1673ffffffffffffffffffffffffffffffffffffffff16815260200190815260200160002060020160019054906101000a900460ff1660ff16149050919050565b606060008060008060008073ffffffffffffffffffffffffffffffffffffffff168773ffffffffffffffffffffffffffffffffffffffff161415610766576040517f08c379a000000000000000000000000000000000000000000000000000000000815260040161075d90612e1b565b60405180910390fd5b6000600360008973ffffffffffffffffffffffffffffffffffffffff1673ffffffffffffffffffffffffffffffffffffffff1681526020019081526020016000209050806001018160020160009054906101000a900460ff168260020160019054906101000a900460ff16836003015484600401548560000160009054906101000a900473ffffffffffffffffffffffffffffffffffffffff1685805461080c9061314d565b80601f01602080910402602001604051908101604052809291908181526020018280546108389061314d565b80156108855780601f1061085a57610100808354040283529160200191610885565b820191906000526020600020905b81548152906001019060200180831161086857829003601f168201915b505050505095509650965096509650965096505091939550919395565b600281815481106108b257600080fd5b90600052602060002090600202016000915090508060000160009054906101000a900473ffffffffffffffffffffffffffffffffffffffff16908060010154905082565b60038060003373ffffffffffffffffffffffffffffffffffffffff1673ffffffffffffffffffffffffffffffffffffffff16815260200190815260200160002060020160019054906101000a900460ff1660ff161461098a576040517f08c379a000000000000000000000000000000000000000000000000000000000815260040161098190612f1b565b60405180910390fd5b610993816119f6565b6109d2576040517f08c379a00000000000000000000000000000000000000000000000000000000081526004016109c990612e5b565b60405180910390fd5b6000600360008373ffffffffffffffffffffffffffffffffffffffff1673ffffffffffffffffffffffffffffffffffffffff16815260200190815260200160002060020160006101000a81548160ff0219169083151502179055506000600360008373ffffffffffffffffffffffffffffffffffffffff1673ffffffffffffffffffffffffffffffffffffffff16815260200190815260200160002060020160016101000a81548160ff021916908360ff16021790555050565b60018181548110610a9c57600080fd5b90600052602060002090600502016000915090508060000160009054906101000a900473ffffffffffffffffffffffffffffffffffffffff1690806001018054610ae59061314d565b80601f0160208091040260200160405190810160405280929190818152602001828054610b119061314d565b8015610b5e5780601f10610b3357610100808354040283529160200191610b5e565b820191906000526020600020905b815481529060010190602001808311610b4157829003601f168201915b5050505050908060020160009054906101000a900460ff16908060020160019054906101000a900460ff16908060030154908060040154905086565b6002600360003373ffffffffffffffffffffffffffffffffffffffff1673ffffffffffffffffffffffffffffffffffffffff16815260200190815260200160002060020160019054906101000a900460ff1660ff161015610c30576040517f08c379a0000000000000000000000000000000000000000000000000000000008152600401610c2790612f5b565b60405180910390fd5b60008054906101000a900473ffffffffffffffffffffffffffffffffffffffff1673ffffffffffffffffffffffffffffffffffffffff168173ffffffffffffffffffffffffffffffffffffffff161415610cbf576040517f08c379a0000000000000000000000000000000000000000000000000000000008152600401610cb690612dfb565b60405180910390fd5b600073ffffffffffffffffffffffffffffffffffffffff16600360008373ffffffffffffffffffffffffffffffffffffffff1673ffffffffffffffffffffffffffffffffffffffff16815260200190815260200160002060000160009054906101000a900473ffffffffffffffffffffffffffffffffffffffff1673ffffffffffffffffffffffffffffffffffffffff161415610d91576040517f08c379a0000000000000000000000000000000000000000000000000000000008152600401610d8890612e3b565b60405180910390fd5b600060046000600360008573ffffffffffffffffffffffffffffffffffffffff1673ffffffffffffffffffffffffffffffffffffffff16815260200190815260200160002060040154815260200190815260200160002060006101000a81548173ffffffffffffffffffffffffffffffffffffffff021916908373ffffffffffffffffffffffffffffffffffffffff160217905550600360008273ffffffffffffffffffffffffffffffffffffffff1673ffffffffffffffffffffffffffffffffffffffff168152602001908152602001600020600080820160006101000a81549073ffffffffffffffffffffffffffffffffffffffff0219169055600182016000610e9d9190612321565b6002820160006101000a81549060ff02191690556002820160016101000a81549060ff021916905560038201600090556004820160009055505050565b6000600360008373ffffffffffffffffffffffffffffffffffffffff1673ffffffffffffffffffffffffffffffffffffffff16815260200190815260200160002060020160009054906101000a900460ff169050919050565b60046020528060005260406000206000915054906101000a900473ffffffffffffffffffffffffffffffffffffffff1681565b6002600360003373ffffffffffffffffffffffffffffffffffffffff1673ffffffffffffffffffffffffffffffffffffffff16815260200190815260200160002060020160019054906101000a900460ff1660ff161015610ffc576040517f08c379a0000000000000000000000000000000000000000000000000000000008152600401610ff390612f5b565b60405180910390fd5b61100a838360018085611e50565b505050565b60038060003373ffffffffffffffffffffffffffffffffffffffff1673ffffffffffffffffffffffffffffffffffffffff16815260200190815260200160002060020160019054906101000a900460ff1660ff16146110a3576040517f08c379a000000000000000000000000000000000000000000000000000000000815260040161109a90612f1b565b60405180910390fd5b6110b283836002600185611e50565b505050565b6001600360003373ffffffffffffffffffffffffffffffffffffffff1673ffffffffffffffffffffffffffffffffffffffff16815260200190815260200160002060020160019054906101000a900460ff1660ff16101561114d576040517f08c379a000000000000000000000000000000000000000000000000000000000815260040161114490612ebb565b60405180910390fd5b60006004600083815260200190815260200160002060009054906101000a900473ffffffffffffffffffffffffffffffffffffffff169050600073ffffffffffffffffffffffffffffffffffffffff168173ffffffffffffffffffffffffffffffffffffffff1614156111f5576040517f08c379a00000000000000000000000000000000000000000000000000000000081526004016111ec90612ddb565b60405180910390fd5b60011515600360008373ffffffffffffffffffffffffffffffffffffffff1673ffffffffffffffffffffffffffffffffffffffff16815260200190815260200160002060020160009054906101000a900460ff161515141561128c576040517f08c379a000000000000000000000000000000000000000000000000000000000815260040161128390612edb565b60405180910390fd5b6001600360008373ffffffffffffffffffffffffffffffffffffffff1673ffffffffffffffffffffffffffffffffffffffff16815260200190815260200160002060020160006101000a81548160ff02191690831515021790555060005b6002805490508110156114f7578260028281548110611332577f4e487b7100000000000000000000000000000000000000000000000000000000600052603260045260246000fd5b90600052602060002090600202016001015414156114e4576002600160028054905061135e9190613082565b81548110611395577f4e487b7100000000000000000000000000000000000000000000000000000000600052603260045260246000fd5b9060005260206000209060020201600282815481106113dd577f4e487b7100000000000000000000000000000000000000000000000000000000600052603260045260246000fd5b90600052602060002090600202016000820160009054906101000a900473ffffffffffffffffffffffffffffffffffffffff168160000160006101000a81548173ffffffffffffffffffffffffffffffffffffffff021916908373ffffffffffffffffffffffffffffffffffffffff160217905550600182015481600101559050506002805480611497577f4e487b7100000000000000000000000000000000000000000000000000000000600052603160045260246000fd5b6001900381819060005260206000209060020201600080820160006101000a81549073ffffffffffffffffffffffffffffffffffffffff02191690556001820160009055505090556114f7565b80806114ef9061317f565b9150506112ea565b505050565b60038060003373ffffffffffffffffffffffffffffffffffffffff1673ffffffffffffffffffffffffffffffffffffffff16815260200190815260200160002060020160019054906101000a900460ff1660ff1614611590576040517f08c379a000000000000000000000000000000000000000000000000000000000815260040161158790612f1b565b60405180910390fd5b60008054906101000a900473ffffffffffffffffffffffffffffffffffffffff1673ffffffffffffffffffffffffffffffffffffffff168173ffffffffffffffffffffffffffffffffffffffff16141561161f576040517f08c379a000000000000000000000000000000000000000000000000000000000815260040161161690612f7b565b60405180910390fd5b600073ffffffffffffffffffffffffffffffffffffffff16600360008373ffffffffffffffffffffffffffffffffffffffff1673ffffffffffffffffffffffffffffffffffffffff16815260200190815260200160002060000160009054906101000a900473ffffffffffffffffffffffffffffffffffffffff1673ffffffffffffffffffffffffffffffffffffffff1614156116f1576040517f08c379a00000000000000000000000000000000000000000000000000000000081526004016116e890612e3b565b60405180910390fd5b600060046000600360008573ffffffffffffffffffffffffffffffffffffffff1673ffffffffffffffffffffffffffffffffffffffff16815260200190815260200160002060040154815260200190815260200160002060006101000a81548173ffffffffffffffffffffffffffffffffffffffff021916908373ffffffffffffffffffffffffffffffffffffffff160217905550600360008273ffffffffffffffffffffffffffffffffffffffff1673ffffffffffffffffffffffffffffffffffffffff168152602001908152602001600020600080820160006101000a81549073ffffffffffffffffffffffffffffffffffffffff02191690556001820160006117fd9190612321565b6002820160006101000a81549060ff02191690556002820160016101000a81549060ff021916905560038201600090556004820160009055505050565b6002600360003373ffffffffffffffffffffffffffffffffffffffff1673ffffffffffffffffffffffffffffffffffffffff16815260200190815260200160002060020160019054906101000a900460ff1660ff1610156118d0576040517f08c379a00000000000000000000000000000000000000000000000000000000081526004016118c790612f5b565b60405180910390fd5b6118d981611a55565b611918576040517f08c379a000000000000000000000000000000000000000000000000000000000815260040161190f90612efb565b60405180910390fd5b6000600360008373ffffffffffffffffffffffffffffffffffffffff1673ffffffffffffffffffffffffffffffffffffffff16815260200190815260200160002060020160006101000a81548160ff0219169083151502179055506000600360008373ffffffffffffffffffffffffffffffffffffffff1673ffffffffffffffffffffffffffffffffffffffff16815260200190815260200160002060020160016101000a81548160ff021916908360ff16021790555050565b60008054906101000a900473ffffffffffffffffffffffffffffffffffffffff1681565b60006002600360008473ffffffffffffffffffffffffffffffffffffffff1673ffffffffffffffffffffffffffffffffffffffff16815260200190815260200160002060020160019054906101000a900460ff1660ff16149050919050565b60006001600360008473ffffffffffffffffffffffffffffffffffffffff1673ffffffffffffffffffffffffffffffffffffffff16815260200190815260200160002060020160019054906101000a900460ff1660ff16149050919050565b60036020528060005260406000206000915090508060000160009054906101000a900473ffffffffffffffffffffffffffffffffffffffff1690806001018054611afd9061314d565b80601f0160208091040260200160405190810160405280929190818152602001828054611b299061314d565b8015611b765780601f10611b4b57610100808354040283529160200191611b76565b820191906000526020600020905b815481529060010190602001808311611b5957829003601f168201915b5050505050908060020160009054906101000a900460ff16908060020160019054906101000a900460ff16908060030154908060040154905086565b60038060003373ffffffffffffffffffffffffffffffffffffffff1673ffffffffffffffffffffffffffffffffffffffff16815260200190815260200160002060020160019054906101000a900460ff1660ff1614611c46576040517f08c379a0000000000000000000000000000000000000000000000000000000008152600401611c3d90612f1b565b60405180910390fd5b6001600360008373ffffffffffffffffffffffffffffffffffffffff1673ffffffffffffffffffffffffffffffffffffffff16815260200190815260200160002060020160006101000a81548160ff0219169083151502179055506002600360008373ffffffffffffffffffffffffffffffffffffffff1673ffffffffffffffffffffffffffffffffffffffff16815260200190815260200160002060020160016101000a81548160ff021916908360ff16021790555050565b6002600360003373ffffffffffffffffffffffffffffffffffffffff1673ffffffffffffffffffffffffffffffffffffffff16815260200190815260200160002060020160019054906101000a900460ff1660ff161015611d96576040517f08c379a0000000000000000000000000000000000000000000000000000000008152600401611d8d90612f5b565b60405180910390fd5b6001600360008373ffffffffffffffffffffffffffffffffffffffff1673ffffffffffffffffffffffffffffffffffffffff16815260200190815260200160002060020160006101000a81548160ff0219169083151502179055506001600360008373ffffffffffffffffffffffffffffffffffffffff1673ffffffffffffffffffffffffffffffffffffffff16815260200190815260200160002060020160016101000a81548160ff021916908360ff16021790555050565b600073ffffffffffffffffffffffffffffffffffffffff16600360008773ffffffffffffffffffffffffffffffffffffffff1673ffffffffffffffffffffffffffffffffffffffff16815260200190815260200160002060000160009054906101000a900473ffffffffffffffffffffffffffffffffffffffff1673ffffffffffffffffffffffffffffffffffffffff1614611f21576040517f08c379a0000000000000000000000000000000000000000000000000000000008152600401611f1890612e7b565b60405180910390fd5b611f2a81610570565b611f69576040517f08c379a0000000000000000000000000000000000000000000000000000000008152600401611f6090612e9b565b60405180910390fd5b600073ffffffffffffffffffffffffffffffffffffffff166004600083815260200190815260200160002060009054906101000a900473ffffffffffffffffffffffffffffffffffffffff1673ffffffffffffffffffffffffffffffffffffffff161461200b576040517f08c379a000000000000000000000000000000000000000000000000000000000815260040161200290612f3b565b60405180910390fd5b60016040518060c001604052808773ffffffffffffffffffffffffffffffffffffffff16815260200186815260200184151581526020018560ff16815260200142815260200183815250908060018154018082558091505060019003906000526020600020906005020160009091909190915060008201518160000160006101000a81548173ffffffffffffffffffffffffffffffffffffffff021916908373ffffffffffffffffffffffffffffffffffffffff16021790555060208201518160010190805190602001906120e1929190612361565b5060408201518160020160006101000a81548160ff02191690831515021790555060608201518160020160016101000a81548160ff021916908360ff1602179055506080820151816003015560a082015181600401555050600180808054905061214b9190613082565b81548110612182577f4e487b7100000000000000000000000000000000000000000000000000000000600052603260045260246000fd5b9060005260206000209060050201600360008773ffffffffffffffffffffffffffffffffffffffff1673ffffffffffffffffffffffffffffffffffffffff1681526020019081526020016000206000820160009054906101000a900473ffffffffffffffffffffffffffffffffffffffff168160000160006101000a81548173ffffffffffffffffffffffffffffffffffffffff021916908373ffffffffffffffffffffffffffffffffffffffff160217905550600182018160010190805461224a9061314d565b6122559291906123e7565b506002820160009054906101000a900460ff168160020160006101000a81548160ff0219169083151502179055506002820160019054906101000a900460ff168160020160016101000a81548160ff021916908360ff1602179055506003820154816003015560048201548160040155905050846004600083815260200190815260200160002060006101000a81548173ffffffffffffffffffffffffffffffffffffffff021916908373ffffffffffffffffffffffffffffffffffffffff1602179055505050505050565b50805461232d9061314d565b6000825580601f1061233f575061235e565b601f01602090049060005260206000209081019061235d9190612474565b5b50565b82805461236d9061314d565b90600052602060002090601f01602090048101928261238f57600085556123d6565b82601f106123a857805160ff19168380011785556123d6565b828001600101855582156123d6579182015b828111156123d55782518255916020019190600101906123ba565b5b5090506123e39190612474565b5090565b8280546123f39061314d565b90600052602060002090601f0160209004810192826124155760008555612463565b82601f106124265780548555612463565b8280016001018555821561246357600052602060002091601f016020900482015b82811115612462578254825591600101919060010190612447565b5b5090506124709190612474565b5090565b5b8082111561248d576000816000905550600101612475565b5090565b60006124a461249f84612fcc565b612f9b565b9050828152602081018484840111156124bc57600080fd5b6124c784828561310b565b509392505050565b6000813590506124de81613295565b92915050565b600082601f8301126124f557600080fd5b8135612505848260208601612491565b91505092915050565b60008135905061251d816132ac565b92915050565b60006020828403121561253557600080fd5b6000612543848285016124cf565b91505092915050565b60008060006060848603121561256157600080fd5b600061256f868287016124cf565b935050602084013567ffffffffffffffff81111561258c57600080fd5b612598868287016124e4565b92505060406125a98682870161250e565b9150509250925092565b600080604083850312156125c657600080fd5b600083013567ffffffffffffffff8111156125e057600080fd5b6125ec858286016124e4565b92505060206125fd8582860161250e565b9150509250929050565b60006020828403121561261957600080fd5b60006126278482850161250e565b91505092915050565b600061263c8383612c2e565b60408301905092915050565b612651816130b6565b82525050565b612660816130b6565b82525050565b60006126718261300c565b61267b818561302f565b935061268683612ffc565b8060005b838110156126b757815161269e8882612630565b97506126a983613022565b92505060018101905061268a565b5085935050505092915050565b6126cd816130c8565b82525050565b60006126de82613017565b6126e88185613040565b93506126f881856020860161311a565b61270181613284565b840191505092915050565b6000612719602c83613040565b91507f4e6f207573657220666f756e6420666f72207468652070726f7669646564204160008301527f6164686172206e756d62657200000000000000000000000000000000000000006020830152604082019050919050565b600061277f603283613040565b91507f43616e6e6f742072656d6f7665206465706c6f7965722773204c616e6420496e60008301527f73706563746f722070726976696c6567657300000000000000000000000000006020830152604082019050919050565b60006127e5601483613040565b91507f496e76616c6964207573657220616464726573730000000000000000000000006000830152602082019050919050565b6000612825602783613040565b91507f55736572206e6f7420666f756e6420666f72207468652070726f76696465642060008301527f61646472657373000000000000000000000000000000000000000000000000006020830152604082019050919050565b600061288b602b83613040565b91507f546865206163636f756e74206973206e6f742061205365636f6e642d4c65766560008301527f6c20417574686f726974790000000000000000000000000000000000000000006020830152604082019050919050565b60006128f1601a83613040565b91507f4164647265737320616c726561647920726567697374657265640000000000006000830152602082019050919050565b6000612931601583613040565b91507f496e76616c696420416164686172206e756d62657200000000000000000000006000830152602082019050919050565b6000612971605483613040565b91507f4f6e6c7920746865206465706c6f7965722c207365636f6e642d6c6576656c2060008301527f617574686f726974792c206f72206c616e6420696e73706563746f722063616e60208301527f20706572666f726d207468697320616374696f6e0000000000000000000000006040830152606082019050919050565b60006129fd602083613040565b91507f55736572206163636f756e7420697320616c72656164792076657269666965646000830152602082019050919050565b6000612a3d602383613040565b91507f546865206163636f756e74206973206e6f742061204c616e6420496e7370656360008301527f746f7200000000000000000000000000000000000000000000000000000000006020830152604082019050919050565b6000612aa3602983613040565b91507f4f6e6c7920746865206465706c6f7965722063616e20706572666f726d20746860008301527f697320616374696f6e00000000000000000000000000000000000000000000006020830152604082019050919050565b6000612b09602083613040565b91507f416164686172206e756d62657220616c726561647920726567697374657265646000830152602082019050919050565b6000612b49604383613040565b91507f4f6e6c7920746865206465706c6f796572206f72207365636f6e642d6c65766560008301527f6c20617574686f726974792063616e20706572666f726d20746869732061637460208301527f696f6e00000000000000000000000000000000000000000000000000000000006040830152606082019050919050565b6000612bd5603a83613040565b91507f43616e6e6f742072656d6f7665206465706c6f7965722773205365636f6e642d60008301527f6c6576656c20417574686f726974792070726976696c656765730000000000006020830152604082019050919050565b604082016000820151612c446000850182612648565b506020820151612c576020850182612c5d565b50505050565b612c66816130f4565b82525050565b612c75816130f4565b82525050565b612c84816130fe565b82525050565b6000602082019050612c9f6000830184612657565b92915050565b600060c082019050612cba6000830189612657565b8181036020830152612ccc81886126d3565b9050612cdb60408301876126c4565b612ce86060830186612c7b565b612cf56080830185612c6c565b612d0260a0830184612c6c565b979650505050505050565b6000604082019050612d226000830185612657565b612d2f6020830184612c6c565b9392505050565b60006020820190508181036000830152612d508184612666565b905092915050565b6000602082019050612d6d60008301846126c4565b92915050565b600060c0820190508181036000830152612d8d81896126d3565b9050612d9c60208301886126c4565b612da96040830187612c7b565b612db66060830186612c6c565b612dc36080830185612c6c565b612dd060a0830184612657565b979650505050505050565b60006020820190508181036000830152612df48161270c565b9050919050565b60006020820190508181036000830152612e1481612772565b9050919050565b60006020820190508181036000830152612e34816127d8565b9050919050565b60006020820190508181036000830152612e5481612818565b9050919050565b60006020820190508181036000830152612e748161287e565b9050919050565b60006020820190508181036000830152612e94816128e4565b9050919050565b60006020820190508181036000830152612eb481612924565b9050919050565b60006020820190508181036000830152612ed481612964565b9050919050565b60006020820190508181036000830152612ef4816129f0565b9050919050565b60006020820190508181036000830152612f1481612a30565b9050919050565b60006020820190508181036000830152612f3481612a96565b9050919050565b60006020820190508181036000830152612f5481612afc565b9050919050565b60006020820190508181036000830152612f7481612b3c565b9050919050565b60006020820190508181036000830152612f9481612bc8565b9050919050565b6000604051905081810181811067ffffffffffffffff82111715612fc257612fc1613255565b5b8060405250919050565b600067ffffffffffffffff821115612fe757612fe6613255565b5b601f19601f8301169050602081019050919050565b6000819050602082019050919050565b600081519050919050565b600081519050919050565b6000602082019050919050565b600082825260208201905092915050565b600082825260208201905092915050565b600061305c826130f4565b9150613067836130f4565b925082613077576130766131f7565b5b828204905092915050565b600061308d826130f4565b9150613098836130f4565b9250828210156130ab576130aa6131c8565b5b828203905092915050565b60006130c1826130d4565b9050919050565b60008115159050919050565b600073ffffffffffffffffffffffffffffffffffffffff82169050919050565b6000819050919050565b600060ff82169050919050565b82818337600083830152505050565b60005b8381101561313857808201518184015260208101905061311d565b83811115613147576000848401525b50505050565b6000600282049050600182168061316557607f821691505b6020821081141561317957613178613226565b5b50919050565b600061318a826130f4565b91507fffffffffffffffffffffffffffffffffffffffffffffffffffffffffffffffff8214156131bd576131bc6131c8565b5b600182019050919050565b7f4e487b7100000000000000000000000000000000000000000000000000000000600052601160045260246000fd5b7f4e487b7100000000000000000000000000000000000000000000000000000000600052601260045260246000fd5b7f4e487b7100000000000000000000000000000000000000000000000000000000600052602260045260246000fd5b7f4e487b7100000000000000000000000000000000000000000000000000000000600052604160045260246000fd5b6000601f19601f8301169050919050565b61329e816130b6565b81146132a957600080fd5b50565b6132b5816130f4565b81146132c057600080fd5b5056fea264697066735822122089ed7ecbe931144cb0380bf2f3bea63faa183fd3076483ca432e09cd095f8d8a64736f6c63430008000033",
  "immutableReferences": {},
  "source": "// SPDX-License-Identifier: UNLICENSED\r\npragma solidity ^0.8.0;\r\n\r\ncontract AccountRegistration {\r\n    address public deployer;\r\n\r\n    struct UserAccount {\r\n        address userAddress;\r\n        string username;\r\n        bool isUserVerified;\r\n        uint8 designation; // 0: no authority, 1: land inspector, 2: second-level authority, 3: deployer\r\n        uint registrationDate; // Registration date as a Unix timestamp\r\n        uint256 aadharNumber;\r\n    }\r\n\r\n    struct PendingVerification {\r\n        address userAddress;\r\n        uint256 aadharNumber;\r\n    }\r\n\r\n    UserAccount[] public userAccounts;\r\n    PendingVerification[] public pendingVerifications;\r\n    \r\n    // Mapping to store user accounts using their Ethereum addresses as keys\r\n    mapping(address => UserAccount) public userAccountsMap;\r\n\r\n    // Mapping to link Aadhar numbers to Ethereum addresses\r\n    mapping(uint256 => address) public aadharToUser;\r\n\r\n    // Constructor to initialize the contract and set the deployer's account\r\n    constructor() {\r\n        deployer = msg.sender;\r\n        addUser(deployer, \"Deployer\", 3, true, 123456789012);\r\n    }\r\n    // Function to view the list of pending verifications\r\n    function getPendingVerifications() public view returns (PendingVerification[] memory) {\r\n        return pendingVerifications;\r\n    }\r\n\r\n    function requestVerification(uint256 _aadharNumber) public {        \r\n        // Add the request to pending verifications\r\n        pendingVerifications.push(PendingVerification(msg.sender, _aadharNumber));\r\n    }\r\n\r\n    /* For Aadhaar validation\r\n    It should have 12 digits.\r\n    It should not start with 0 and 1.\r\n    It should not contain any alphabet and special characters */\r\n    function validateAadhar(uint256 _aadharNumber) public pure returns (bool) {\r\n        uint aadharLength = 0;\r\n        uint aadharCopy = _aadharNumber;\r\n        \r\n        while (aadharCopy != 0) {\r\n            aadharCopy /= 10;\r\n            aadharLength++;\r\n        }\r\n        \r\n        return aadharLength == 12 && _aadharNumber > 101 && _aadharNumber < 1000000000000;\r\n    }\r\n\r\n    // Function to verify an account with an Aadhar number\r\n    function verifyAccount(uint256 _aadharNumber) public onlyDeployerOrSecondLevelAuthorityOrLandInspector {    \r\n        // Find the Ethereum address associated with the given Aadhar number\r\n        address userToVerify = aadharToUser[_aadharNumber];\r\n\r\n        // Ensure that the user exists\r\n        require(userToVerify != address(0), \"No user found for the provided Aadhar number\");\r\n        \r\n        // Check if the user is already verified\r\n        require(userAccountsMap[userToVerify].isUserVerified != true, \"User account is already verified\");\r\n        \r\n        // Set the isUserVerified flag to true for the user\r\n        userAccountsMap[userToVerify].isUserVerified = true;\r\n\r\n        // Remove from pending verifications if account is verified\r\n        for (uint i = 0; i < pendingVerifications.length; i++) {\r\n            if (pendingVerifications[i].aadharNumber == _aadharNumber) {\r\n                // Remove the pending verification entry\r\n                pendingVerifications[i] = pendingVerifications[pendingVerifications.length - 1];\r\n                pendingVerifications.pop();\r\n                break;\r\n            }\r\n        }\r\n    }\r\n\r\n    // Function to add a user\r\n    function addUser(address _user, string memory _username, uint8 _designation, bool isUserVerified, uint256 _aadharNumber) internal {\r\n        require(userAccountsMap[_user].userAddress == address(0), \"Address already registered\");\r\n        require(validateAadhar(_aadharNumber), \"Invalid Aadhar number\");\r\n        require(aadharToUser[_aadharNumber] == address(0), \"Aadhar number already registered\");\r\n\r\n        userAccounts.push(UserAccount(_user, _username, isUserVerified , _designation, block.timestamp, _aadharNumber));\r\n        userAccountsMap[_user] = userAccounts[userAccounts.length - 1];\r\n        aadharToUser[_aadharNumber] = _user;\r\n    }\r\n\r\n    // Function to set user details\r\n    function setUserDetails(string memory _username, uint256 _aadharNumber) public {\r\n        addUser(msg.sender, _username, 0, false, _aadharNumber);\r\n    }\r\n\r\n    // Function to Check User Details\r\n    function getUserDetailsByAddress(address _userAddress) public view returns (string memory username, bool isUserVerified, uint8 designation, uint registrationDate, uint256 aadharNumber, address userAddress) {\r\n        // Ensure that the user exists\r\n        require(_userAddress != address(0), \"Invalid user address\");\r\n\r\n        // Retrieve user details using the Ethereum address\r\n        UserAccount storage user = userAccountsMap[_userAddress];\r\n\r\n        return (user.username, user.isUserVerified, user.designation, user.registrationDate, user.aadharNumber, user.userAddress);\r\n    }\r\n\r\n\r\n    // Modifier to restrict access to functions for the deployer only\r\n    modifier onlyDeployer() {\r\n        require(userAccountsMap[msg.sender].designation == 3, \"Only the deployer can perform this action\");\r\n        _;\r\n    }\r\n\r\n    // Modifier to restrict access to functions for the deployer and second-level authorities\r\n    modifier onlyDeployerOrSecondLevelAuthority() {\r\n        require(userAccountsMap[msg.sender].designation >= 2, \"Only the deployer or second-level authority can perform this action\");\r\n        _;\r\n    }\r\n\r\n    // Modifier to restrict access to functions for the deployer, second-level authorities, and land inspectors\r\n    modifier onlyDeployerOrSecondLevelAuthorityOrLandInspector() {\r\n        require(userAccountsMap[msg.sender].designation >= 1, \"Only the deployer, second-level authority, or land inspector can perform this action\");\r\n        _;\r\n    }\r\n\r\n   // Function to add a Land Inspector\r\n    function addLandInspector(address _inspector, string memory _username, uint256 _aadhar) public onlyDeployerOrSecondLevelAuthority {\r\n        addUser(_inspector, _username, 1, true, _aadhar);\r\n    }\r\n\r\n    // Function to add a Second-Level Authority\r\n    function addSecondLevelAuthority(address _authority, string memory _username, uint256 _aadhar) public onlyDeployer {\r\n        addUser(_authority, _username, 2, true, _aadhar);\r\n    }\r\n\r\n    // Function to remove a Second-Level Authority\r\n    function removeSecondLevelAuthority(address _authority) public onlyDeployer {\r\n        require(_authority != deployer, \"Cannot remove deployer's Second-level Authority privileges\");\r\n\r\n        // Ensure that the provided address is associated with a user\r\n        require(userAccountsMap[_authority].userAddress != address(0), \"User not found for the provided address\");\r\n\r\n        // Remove the user and update the mapping\r\n        aadharToUser[userAccountsMap[_authority].aadharNumber] = address(0);\r\n        delete userAccountsMap[_authority];\r\n    }\r\n\r\n    // Function to remove a Land Inspector\r\n    function removeLandInspector(address _inspector) public onlyDeployerOrSecondLevelAuthority {\r\n        require(_inspector != deployer, \"Cannot remove deployer's Land Inspector privileges\");\r\n\r\n        // Ensure that the provided address is associated with a user\r\n        require(userAccountsMap[_inspector].userAddress != address(0), \"User not found for the provided address\");\r\n        \r\n        aadharToUser[userAccountsMap[_inspector].aadharNumber] = address(0);\r\n        delete userAccountsMap[_inspector];\r\n    }\r\n\r\n    // Function to check if a user is verified\r\n    function checkUserVerified(address _account) public view returns (bool) {\r\n        return userAccountsMap[_account].isUserVerified;\r\n    }\r\n\r\n    // Function to check if a user is a Land Inspector\r\n    function isLandInspector(address _account) public view returns (bool) {\r\n        return userAccountsMap[_account].designation == 1;\r\n    }\r\n\r\n    // Function to check if a user is a Second-Level Authority\r\n    function isSecondLevelAuthority(address _account) public view returns (bool) {\r\n        return userAccountsMap[_account].designation == 2;\r\n    }\r\n\r\n    // Function to check if a user is a Sdeployer\r\n    function isDeployer(address _account) public view returns (bool) {\r\n        return userAccountsMap[_account].designation == 3;\r\n    }\r\n\r\n    // Function to grant Land Inspector status\r\n    function grantLandInspectorStatus(address _account) public onlyDeployerOrSecondLevelAuthority {\r\n        userAccountsMap[_account].isUserVerified = true;\r\n        userAccountsMap[_account].designation = 1;\r\n    }\r\n\r\n    // Function to grant Second-Level Authority status\r\n    function grantSecondLevelAuthorityStatus(address _account) public onlyDeployer {\r\n        userAccountsMap[_account].isUserVerified = true;\r\n        userAccountsMap[_account].designation = 2;\r\n    }\r\n    // Function to revoke Land Inspector status\r\n    function revokeLandInspectorStatus(address _account) public onlyDeployerOrSecondLevelAuthority {\r\n        require(isLandInspector(_account), \"The account is not a Land Inspector\");\r\n        userAccountsMap[_account].isUserVerified = false;\r\n        userAccountsMap[_account].designation = 0;\r\n    }\r\n\r\n    // Function to revoke Second-Level Authority status\r\n    function revokeSecondLevelAuthorityStatus(address _account) public onlyDeployer {\r\n        require(isSecondLevelAuthority(_account), \"The account is not a Second-Level Authority\");\r\n        userAccountsMap[_account].isUserVerified = false;\r\n        userAccountsMap[_account].designation = 0;\r\n    }\r\n}",
  "sourcePath": "C:\\Users\\Aaryan\\Desktop\\FYP LATEST\\Decentralizsed-Land-Registration\\contracts\\registerAccount-contract.sol",
  "compiler": {
    "name": "solc",
    "version": "0.8.0+commit.c7dfd78e.Emscripten.clang"
  },
  "schemaVersion": "3.4.16",
  "updatedAt": "2024-01-24T09:38:43.516Z",
  "networkType": "ethereum",
  "devdoc": {
    "kind": "dev",
    "methods": {},
    "version": 1
  },
  "userdoc": {
    "kind": "user",
    "methods": {},
    "version": 1
  }
}