{
  "contractName": "AccountRegistration",
  "abi": [
    {
      "inputs": [],
      "stateMutability": "nonpayable",
      "type": "constructor"
    },
    {
      "inputs": [],
      "name": "deployer",
      "outputs": [
        {
          "internalType": "address",
          "name": "",
          "type": "address"
        }
      ],
      "stateMutability": "view",
      "type": "function",
      "constant": true
    },
    {
      "inputs": [
        {
          "internalType": "uint256",
          "name": "",
          "type": "uint256"
        }
      ],
      "name": "pendingVerifications",
      "outputs": [
        {
          "internalType": "address",
          "name": "userAddress",
          "type": "address"
        },
        {
          "internalType": "uint256",
          "name": "phoneNumber",
          "type": "uint256"
        }
      ],
      "stateMutability": "view",
      "type": "function",
      "constant": true
    },
    {
      "inputs": [
        {
          "internalType": "uint256",
          "name": "",
          "type": "uint256"
        }
      ],
      "name": "phoneToUser",
      "outputs": [
        {
          "internalType": "address",
          "name": "",
          "type": "address"
        }
      ],
      "stateMutability": "view",
      "type": "function",
      "constant": true
    },
    {
      "inputs": [
        {
          "internalType": "uint256",
          "name": "",
          "type": "uint256"
        }
      ],
      "name": "userAccounts",
      "outputs": [
        {
          "internalType": "address",
          "name": "userAddress",
          "type": "address"
        },
        {
          "internalType": "string",
          "name": "username",
          "type": "string"
        },
        {
          "internalType": "bool",
          "name": "isUserVerified",
          "type": "bool"
        },
        {
          "internalType": "uint8",
          "name": "designation",
          "type": "uint8"
        },
        {
          "internalType": "uint256",
          "name": "registrationDate",
          "type": "uint256"
        },
        {
          "internalType": "uint256",
          "name": "phoneNumber",
          "type": "uint256"
        }
      ],
      "stateMutability": "view",
      "type": "function",
      "constant": true
    },
    {
      "inputs": [
        {
          "internalType": "address",
          "name": "",
          "type": "address"
        }
      ],
      "name": "userAccountsMap",
      "outputs": [
        {
          "internalType": "address",
          "name": "userAddress",
          "type": "address"
        },
        {
          "internalType": "string",
          "name": "username",
          "type": "string"
        },
        {
          "internalType": "bool",
          "name": "isUserVerified",
          "type": "bool"
        },
        {
          "internalType": "uint8",
          "name": "designation",
          "type": "uint8"
        },
        {
          "internalType": "uint256",
          "name": "registrationDate",
          "type": "uint256"
        },
        {
          "internalType": "uint256",
          "name": "phoneNumber",
          "type": "uint256"
        }
      ],
      "stateMutability": "view",
      "type": "function",
      "constant": true
    },
    {
      "inputs": [],
      "name": "getPendingVerifications",
      "outputs": [
        {
          "components": [
            {
              "internalType": "address",
              "name": "userAddress",
              "type": "address"
            },
            {
              "internalType": "uint256",
              "name": "phoneNumber",
              "type": "uint256"
            }
          ],
          "internalType": "struct AccountRegistration.PendingVerification[]",
          "name": "",
          "type": "tuple[]"
        }
      ],
      "stateMutability": "view",
      "type": "function",
      "constant": true
    },
    {
      "inputs": [
        {
          "internalType": "uint256",
          "name": "_phoneNumber",
          "type": "uint256"
        }
      ],
      "name": "requestVerification",
      "outputs": [],
      "stateMutability": "nonpayable",
      "type": "function"
    },
    {
      "inputs": [
        {
          "internalType": "uint256",
          "name": "_phoneNumber",
          "type": "uint256"
        }
      ],
      "name": "validatePhone",
      "outputs": [
        {
          "internalType": "bool",
          "name": "",
          "type": "bool"
        }
      ],
      "stateMutability": "pure",
      "type": "function",
      "constant": true
    },
    {
      "inputs": [
        {
          "internalType": "uint256",
          "name": "_phoneNumber",
          "type": "uint256"
        }
      ],
      "name": "verifyAccount",
      "outputs": [],
      "stateMutability": "nonpayable",
      "type": "function"
    },
    {
      "inputs": [
        {
          "internalType": "string",
          "name": "_username",
          "type": "string"
        },
        {
          "internalType": "uint256",
          "name": "_phoneNumber",
          "type": "uint256"
        }
      ],
      "name": "setUserDetails",
      "outputs": [],
      "stateMutability": "nonpayable",
      "type": "function"
    },
    {
      "inputs": [
        {
          "internalType": "address",
          "name": "_userAddress",
          "type": "address"
        }
      ],
      "name": "getUserDetailsByAddress",
      "outputs": [
        {
          "internalType": "string",
          "name": "username",
          "type": "string"
        },
        {
          "internalType": "bool",
          "name": "isUserVerified",
          "type": "bool"
        },
        {
          "internalType": "uint8",
          "name": "designation",
          "type": "uint8"
        },
        {
          "internalType": "uint256",
          "name": "registrationDate",
          "type": "uint256"
        },
        {
          "internalType": "uint256",
          "name": "phoneNumber",
          "type": "uint256"
        },
        {
          "internalType": "address",
          "name": "userAddress",
          "type": "address"
        }
      ],
      "stateMutability": "view",
      "type": "function",
      "constant": true
    },
    {
      "inputs": [
        {
          "internalType": "address",
          "name": "_inspector",
          "type": "address"
        },
        {
          "internalType": "string",
          "name": "_username",
          "type": "string"
        },
        {
          "internalType": "uint256",
          "name": "_phone",
          "type": "uint256"
        }
      ],
      "name": "addLandInspector",
      "outputs": [],
      "stateMutability": "nonpayable",
      "type": "function"
    },
    {
      "inputs": [
        {
          "internalType": "address",
          "name": "_authority",
          "type": "address"
        },
        {
          "internalType": "string",
          "name": "_username",
          "type": "string"
        },
        {
          "internalType": "uint256",
          "name": "_phone",
          "type": "uint256"
        }
      ],
      "name": "addSecondLevelAuthority",
      "outputs": [],
      "stateMutability": "nonpayable",
      "type": "function"
    },
    {
      "inputs": [
        {
          "internalType": "address",
          "name": "_authority",
          "type": "address"
        }
      ],
      "name": "removeSecondLevelAuthority",
      "outputs": [],
      "stateMutability": "nonpayable",
      "type": "function"
    },
    {
      "inputs": [
        {
          "internalType": "address",
          "name": "_inspector",
          "type": "address"
        }
      ],
      "name": "removeLandInspector",
      "outputs": [],
      "stateMutability": "nonpayable",
      "type": "function"
    },
    {
      "inputs": [
        {
          "internalType": "address",
          "name": "_account",
          "type": "address"
        }
      ],
      "name": "checkUserVerified",
      "outputs": [
        {
          "internalType": "bool",
          "name": "",
          "type": "bool"
        }
      ],
      "stateMutability": "view",
      "type": "function",
      "constant": true
    },
    {
      "inputs": [
        {
          "internalType": "address",
          "name": "_account",
          "type": "address"
        }
      ],
      "name": "isLandInspector",
      "outputs": [
        {
          "internalType": "bool",
          "name": "",
          "type": "bool"
        }
      ],
      "stateMutability": "view",
      "type": "function",
      "constant": true
    },
    {
      "inputs": [
        {
          "internalType": "address",
          "name": "_account",
          "type": "address"
        }
      ],
      "name": "isSecondLevelAuthority",
      "outputs": [
        {
          "internalType": "bool",
          "name": "",
          "type": "bool"
        }
      ],
      "stateMutability": "view",
      "type": "function",
      "constant": true
    },
    {
      "inputs": [
        {
          "internalType": "address",
          "name": "_account",
          "type": "address"
        }
      ],
      "name": "isDeployer",
      "outputs": [
        {
          "internalType": "bool",
          "name": "",
          "type": "bool"
        }
      ],
      "stateMutability": "view",
      "type": "function",
      "constant": true
    },
    {
      "inputs": [
        {
          "internalType": "address",
          "name": "_account",
          "type": "address"
        }
      ],
      "name": "grantLandInspectorStatus",
      "outputs": [],
      "stateMutability": "nonpayable",
      "type": "function"
    },
    {
      "inputs": [
        {
          "internalType": "address",
          "name": "_account",
          "type": "address"
        }
      ],
      "name": "grantSecondLevelAuthorityStatus",
      "outputs": [],
      "stateMutability": "nonpayable",
      "type": "function"
    },
    {
      "inputs": [
        {
          "internalType": "address",
          "name": "_account",
          "type": "address"
        }
      ],
      "name": "revokeLandInspectorStatus",
      "outputs": [],
      "stateMutability": "nonpayable",
      "type": "function"
    },
    {
      "inputs": [
        {
          "internalType": "address",
          "name": "_account",
          "type": "address"
        }
      ],
      "name": "revokeSecondLevelAuthorityStatus",
      "outputs": [],
      "stateMutability": "nonpayable",
      "type": "function"
    }
  ],
  "bytecode": "0x60806040523480156200001157600080fd5b50336000806101000a81548173ffffffffffffffffffffffffffffffffffffffff021916908373ffffffffffffffffffffffffffffffffffffffff160217905550620000c360008054906101000a900473ffffffffffffffffffffffffffffffffffffffff166040518060400160405280600881526020017f4465706c6f79657200000000000000000000000000000000000000000000000081525060036001640211f03aeb620000c960201b60201c565b62000c50565b600073ffffffffffffffffffffffffffffffffffffffff16600360008773ffffffffffffffffffffffffffffffffffffffff1673ffffffffffffffffffffffffffffffffffffffff16815260200190815260200160002060000160009054906101000a900473ffffffffffffffffffffffffffffffffffffffff1673ffffffffffffffffffffffffffffffffffffffff16146200019d576040517f08c379a000000000000000000000000000000000000000000000000000000000815260040162000194906200086e565b60405180910390fd5b620001ae81620005b460201b60201c565b620001f0576040517f08c379a0000000000000000000000000000000000000000000000000000000008152600401620001e790620008b2565b60405180910390fd5b600073ffffffffffffffffffffffffffffffffffffffff166004600083815260200190815260200160002060009054906101000a900473ffffffffffffffffffffffffffffffffffffffff1673ffffffffffffffffffffffffffffffffffffffff161462000295576040517f08c379a00000000000000000000000000000000000000000000000000000000081526004016200028c9062000890565b60405180910390fd5b60016040518060c001604052808773ffffffffffffffffffffffffffffffffffffffff16815260200186815260200184151581526020018560ff16815260200142815260200183815250908060018154018082558091505060019003906000526020600020906005020160009091909190915060008201518160000160006101000a81548173ffffffffffffffffffffffffffffffffffffffff021916908373ffffffffffffffffffffffffffffffffffffffff16021790555060208201518160010190805190602001906200036d92919062000660565b5060408201518160020160006101000a81548160ff02191690831515021790555060608201518160020160016101000a81548160ff021916908360ff1602179055506080820151816003015560a0820151816004015550506001808080549050620003d9919062000ab5565b8154811062000411577f4e487b7100000000000000000000000000000000000000000000000000000000600052603260045260246000fd5b9060005260206000209060050201600360008773ffffffffffffffffffffffffffffffffffffffff1673ffffffffffffffffffffffffffffffffffffffff1681526020019081526020016000206000820160009054906101000a900473ffffffffffffffffffffffffffffffffffffffff168160000160006101000a81548173ffffffffffffffffffffffffffffffffffffffff021916908373ffffffffffffffffffffffffffffffffffffffff1602179055506001820181600101908054620004db9062000afa565b620004e8929190620006f1565b506002820160009054906101000a900460ff168160020160006101000a81548160ff0219169083151502179055506002820160019054906101000a900460ff168160020160016101000a81548160ff021916908360ff1602179055506003820154816003015560048201548160040155905050846004600083815260200190815260200160002060006101000a81548173ffffffffffffffffffffffffffffffffffffffff021916908373ffffffffffffffffffffffffffffffffffffffff1602179055505050505050565b6000806000905060008390505b60008114620005f157600a81620005d99190620008e5565b90508180620005e89062000b30565b925050620005c1565b6000600a60018462000604919062000ab5565b600a62000612919062000978565b866200061f9190620008e5565b6200062b919062000b7e565b9050600a831480156200065657506007811480620006495750600881145b80620006555750600981145b5b9350505050919050565b8280546200066e9062000afa565b90600052602060002090601f016020900481019282620006925760008555620006de565b82601f10620006ad57805160ff1916838001178555620006de565b82800160010185558215620006de579182015b82811115620006dd578251825591602001919060010190620006c0565b5b509050620006ed919062000789565b5090565b828054620006ff9062000afa565b90600052602060002090601f01602090048101928262000723576000855562000776565b82601f1062000736578054855562000776565b828001600101855582156200077657600052602060002091601f016020900482015b828111156200077557825482559160010191906001019062000758565b5b50905062000785919062000789565b5090565b5b80821115620007a45760008160009055506001016200078a565b5090565b6000620007b7601a83620008d4565b91507f4164647265737320616c726561647920726567697374657265640000000000006000830152602082019050919050565b6000620007f9601f83620008d4565b91507f70686f6e65206e756d62657220616c72656164792072656769737465726564006000830152602082019050919050565b60006200083b601483620008d4565b91507f496e76616c69642070686f6e65206e756d6265720000000000000000000000006000830152602082019050919050565b600060208201905081810360008301526200088981620007a8565b9050919050565b60006020820190508181036000830152620008ab81620007ea565b9050919050565b60006020820190508181036000830152620008cd816200082c565b9050919050565b600082825260208201905092915050565b6000620008f28262000af0565b9150620008ff8362000af0565b92508262000912576200091162000be5565b5b828204905092915050565b6000808291508390505b60018511156200096f5780860481111562000947576200094662000bb6565b5b6001851615620009575780820291505b8081029050620009678562000c43565b945062000927565b94509492505050565b6000620009858262000af0565b9150620009928362000af0565b9250620009c17fffffffffffffffffffffffffffffffffffffffffffffffffffffffffffffffff8484620009c9565b905092915050565b600082620009db576001905062000aae565b81620009eb576000905062000aae565b816001811462000a04576002811462000a0f5762000a45565b600191505062000aae565b60ff84111562000a245762000a2362000bb6565b5b8360020a91508482111562000a3e5762000a3d62000bb6565b5b5062000aae565b5060208310610133831016604e8410600b841016171562000a7f5782820a90508381111562000a795762000a7862000bb6565b5b62000aae565b62000a8e84848460016200091d565b9250905081840481111562000aa85762000aa762000bb6565b5b81810290505b9392505050565b600062000ac28262000af0565b915062000acf8362000af0565b92508282101562000ae55762000ae462000bb6565b5b828203905092915050565b6000819050919050565b6000600282049050600182168062000b1357607f821691505b6020821081141562000b2a5762000b2962000c14565b5b50919050565b600062000b3d8262000af0565b91507fffffffffffffffffffffffffffffffffffffffffffffffffffffffffffffffff82141562000b735762000b7262000bb6565b5b600182019050919050565b600062000b8b8262000af0565b915062000b988362000af0565b92508262000bab5762000baa62000be5565b5b828206905092915050565b7f4e487b7100000000000000000000000000000000000000000000000000000000600052601160045260246000fd5b7f4e487b7100000000000000000000000000000000000000000000000000000000600052601260045260246000fd5b7f4e487b7100000000000000000000000000000000000000000000000000000000600052602260045260246000fd5b60008160011c9050919050565b6134e38062000c606000396000f3fe608060405234801561001057600080fd5b506004361061014d5760003560e01c80637c04c29e116100c3578063d5f394881161007c578063d5f39488146103c7578063dfdcd54c146103e5578063e165af8714610415578063efa828da14610445578063f60138531461047a578063f869d90d146104965761014d565b80637c04c29e1461030b57806397f471f61461033b578063a2d01ded14610357578063a731374d14610373578063a784cbbb1461038f578063aa068378146103ab5761014d565b806350c358a41161011557806350c358a4146102085780635393edab1461023857806355e953761461026d57806361045fae1461029e578063616d5058146102ba5780637517e00f146102ef5761014d565b806308f6f76e1461015257806309c461fc1461016e5780630b8a0e261461019e5780630c020f08146101ce5780633e64f39b146101ea575b600080fd5b61016c600480360381019061016791906125ee565b6104b2565b005b61018860048036038101906101839190612642565b6104c4565b6040516101959190612cc5565b60405180910390f35b6101b860048036038101906101b39190612642565b6104f7565b6040516101c59190612d93565b60405180910390f35b6101e860048036038101906101e39190612642565b610592565b005b6101f261063e565b6040516101ff9190612d71565b60405180910390f35b610222600480360381019061021d919061255e565b6106fd565b60405161022f9190612d93565b60405180910390f35b610252600480360381019061024d919061255e565b61075b565b60405161026496959493929190612dae565b60405180910390f35b61028760048036038101906102829190612642565b610910565b604051610295929190612d48565b60405180910390f35b6102b860048036038101906102b3919061255e565b610964565b005b6102d460048036038101906102cf9190612642565b610afa565b6040516102e696959493929190612ce0565b60405180910390f35b6103096004803603810190610304919061255e565b610c08565b005b6103256004803603810190610320919061255e565b610f48565b6040516103329190612d93565b60405180910390f35b61035560048036038101906103509190612587565b610fa1565b005b610371600480360381019061036c9190612587565b61104a565b005b61038d60048036038101906103889190612642565b6110f2565b005b6103a960048036038101906103a4919061255e565b611537565b005b6103c560048036038101906103c0919061255e565b611875565b005b6103cf611a0d565b6040516103dc9190612cc5565b60405180910390f35b6103ff60048036038101906103fa919061255e565b611a31565b60405161040c9190612d93565b60405180910390f35b61042f600480360381019061042a919061255e565b611a90565b60405161043c9190612d93565b60405180910390f35b61045f600480360381019061045a919061255e565b611aef565b60405161047196959493929190612ce0565b60405180910390f35b610494600480360381019061048f919061255e565b611bed565b005b6104b060048036038101906104ab919061255e565b611d3b565b005b6104c0338360008085611e8b565b5050565b60046020528060005260406000206000915054906101000a900473ffffffffffffffffffffffffffffffffffffffff1681565b6000806000905060008390505b6000811461052e57600a81610519919061308c565b905081806105269061332b565b925050610504565b6000600a60018461053f919061322e565b600a61054b9190613110565b86610556919061308c565b6105609190613374565b9050600a831480156105885750600781148061057c5750600881145b806105875750600981145b5b9350505050919050565b600260405180604001604052803373ffffffffffffffffffffffffffffffffffffffff16815260200183815250908060018154018082558091505060019003906000526020600020906002020160009091909190915060008201518160000160006101000a81548173ffffffffffffffffffffffffffffffffffffffff021916908373ffffffffffffffffffffffffffffffffffffffff16021790555060208201518160010155505050565b60606002805480602002602001604051908101604052809291908181526020016000905b828210156106f457838290600052602060002090600202016040518060400160405290816000820160009054906101000a900473ffffffffffffffffffffffffffffffffffffffff1673ffffffffffffffffffffffffffffffffffffffff1673ffffffffffffffffffffffffffffffffffffffff16815260200160018201548152505081526020019060010190610662565b50505050905090565b600060038060008473ffffffffffffffffffffffffffffffffffffffff1673ffffffffffffffffffffffffffffffffffffffff16815260200190815260200160002060020160019054906101000a900460ff1660ff16149050919050565b606060008060008060008073ffffffffffffffffffffffffffffffffffffffff168773ffffffffffffffffffffffffffffffffffffffff1614156107d4576040517f08c379a00000000000000000000000000000000000000000000000000000000081526004016107cb90612e36565b60405180910390fd5b6000600360008973ffffffffffffffffffffffffffffffffffffffff1673ffffffffffffffffffffffffffffffffffffffff1681526020019081526020016000209050806001018160020160009054906101000a900460ff168260020160019054906101000a900460ff16836003015484600401548560000160009054906101000a900473ffffffffffffffffffffffffffffffffffffffff1685805461087a906132f9565b80601f01602080910402602001604051908101604052809291908181526020018280546108a6906132f9565b80156108f35780601f106108c8576101008083540402835291602001916108f3565b820191906000526020600020905b8154815290600101906020018083116108d657829003601f168201915b505050505095509650965096509650965096505091939550919395565b6002818154811061092057600080fd5b90600052602060002090600202016000915090508060000160009054906101000a900473ffffffffffffffffffffffffffffffffffffffff16908060010154905082565b60038060003373ffffffffffffffffffffffffffffffffffffffff1673ffffffffffffffffffffffffffffffffffffffff16815260200190815260200160002060020160019054906101000a900460ff1660ff16146109f8576040517f08c379a00000000000000000000000000000000000000000000000000000000081526004016109ef90612f56565b60405180910390fd5b610a0181611a31565b610a40576040517f08c379a0000000000000000000000000000000000000000000000000000000008152600401610a3790612e76565b60405180910390fd5b6000600360008373ffffffffffffffffffffffffffffffffffffffff1673ffffffffffffffffffffffffffffffffffffffff16815260200190815260200160002060020160006101000a81548160ff0219169083151502179055506000600360008373ffffffffffffffffffffffffffffffffffffffff1673ffffffffffffffffffffffffffffffffffffffff16815260200190815260200160002060020160016101000a81548160ff021916908360ff16021790555050565b60018181548110610b0a57600080fd5b90600052602060002090600502016000915090508060000160009054906101000a900473ffffffffffffffffffffffffffffffffffffffff1690806001018054610b53906132f9565b80601f0160208091040260200160405190810160405280929190818152602001828054610b7f906132f9565b8015610bcc5780601f10610ba157610100808354040283529160200191610bcc565b820191906000526020600020905b815481529060010190602001808311610baf57829003601f168201915b5050505050908060020160009054906101000a900460ff16908060020160019054906101000a900460ff16908060030154908060040154905086565b6002600360003373ffffffffffffffffffffffffffffffffffffffff1673ffffffffffffffffffffffffffffffffffffffff16815260200190815260200160002060020160019054906101000a900460ff1660ff161015610c9e576040517f08c379a0000000000000000000000000000000000000000000000000000000008152600401610c9590612f96565b60405180910390fd5b60008054906101000a900473ffffffffffffffffffffffffffffffffffffffff1673ffffffffffffffffffffffffffffffffffffffff168173ffffffffffffffffffffffffffffffffffffffff161415610d2d576040517f08c379a0000000000000000000000000000000000000000000000000000000008152600401610d2490612e16565b60405180910390fd5b600073ffffffffffffffffffffffffffffffffffffffff16600360008373ffffffffffffffffffffffffffffffffffffffff1673ffffffffffffffffffffffffffffffffffffffff16815260200190815260200160002060000160009054906101000a900473ffffffffffffffffffffffffffffffffffffffff1673ffffffffffffffffffffffffffffffffffffffff161415610dff576040517f08c379a0000000000000000000000000000000000000000000000000000000008152600401610df690612e56565b60405180910390fd5b600060046000600360008573ffffffffffffffffffffffffffffffffffffffff1673ffffffffffffffffffffffffffffffffffffffff16815260200190815260200160002060040154815260200190815260200160002060006101000a81548173ffffffffffffffffffffffffffffffffffffffff021916908373ffffffffffffffffffffffffffffffffffffffff160217905550600360008273ffffffffffffffffffffffffffffffffffffffff1673ffffffffffffffffffffffffffffffffffffffff168152602001908152602001600020600080820160006101000a81549073ffffffffffffffffffffffffffffffffffffffff0219169055600182016000610f0b919061235c565b6002820160006101000a81549060ff02191690556002820160016101000a81549060ff021916905560038201600090556004820160009055505050565b6000600360008373ffffffffffffffffffffffffffffffffffffffff1673ffffffffffffffffffffffffffffffffffffffff16815260200190815260200160002060020160009054906101000a900460ff169050919050565b6002600360003373ffffffffffffffffffffffffffffffffffffffff1673ffffffffffffffffffffffffffffffffffffffff16815260200190815260200160002060020160019054906101000a900460ff1660ff161015611037576040517f08c379a000000000000000000000000000000000000000000000000000000000815260040161102e90612f96565b60405180910390fd5b611045838360018085611e8b565b505050565b60038060003373ffffffffffffffffffffffffffffffffffffffff1673ffffffffffffffffffffffffffffffffffffffff16815260200190815260200160002060020160019054906101000a900460ff1660ff16146110de576040517f08c379a00000000000000000000000000000000000000000000000000000000081526004016110d590612f56565b60405180910390fd5b6110ed83836002600185611e8b565b505050565b6001600360003373ffffffffffffffffffffffffffffffffffffffff1673ffffffffffffffffffffffffffffffffffffffff16815260200190815260200160002060020160019054906101000a900460ff1660ff161015611188576040517f08c379a000000000000000000000000000000000000000000000000000000000815260040161117f90612eb6565b60405180910390fd5b60006004600083815260200190815260200160002060009054906101000a900473ffffffffffffffffffffffffffffffffffffffff169050600073ffffffffffffffffffffffffffffffffffffffff168173ffffffffffffffffffffffffffffffffffffffff161415611230576040517f08c379a000000000000000000000000000000000000000000000000000000000815260040161122790612f16565b60405180910390fd5b60011515600360008373ffffffffffffffffffffffffffffffffffffffff1673ffffffffffffffffffffffffffffffffffffffff16815260200190815260200160002060020160009054906101000a900460ff16151514156112c7576040517f08c379a00000000000000000000000000000000000000000000000000000000081526004016112be90612ed6565b60405180910390fd5b6001600360008373ffffffffffffffffffffffffffffffffffffffff1673ffffffffffffffffffffffffffffffffffffffff16815260200190815260200160002060020160006101000a81548160ff02191690831515021790555060005b60028054905081101561153257826002828154811061136d577f4e487b7100000000000000000000000000000000000000000000000000000000600052603260045260246000fd5b906000526020600020906002020160010154141561151f5760026001600280549050611399919061322e565b815481106113d0577f4e487b7100000000000000000000000000000000000000000000000000000000600052603260045260246000fd5b906000526020600020906002020160028281548110611418577f4e487b7100000000000000000000000000000000000000000000000000000000600052603260045260246000fd5b90600052602060002090600202016000820160009054906101000a900473ffffffffffffffffffffffffffffffffffffffff168160000160006101000a81548173ffffffffffffffffffffffffffffffffffffffff021916908373ffffffffffffffffffffffffffffffffffffffff1602179055506001820154816001015590505060028054806114d2577f4e487b7100000000000000000000000000000000000000000000000000000000600052603160045260246000fd5b6001900381819060005260206000209060020201600080820160006101000a81549073ffffffffffffffffffffffffffffffffffffffff0219169055600182016000905550509055611532565b808061152a9061332b565b915050611325565b505050565b60038060003373ffffffffffffffffffffffffffffffffffffffff1673ffffffffffffffffffffffffffffffffffffffff16815260200190815260200160002060020160019054906101000a900460ff1660ff16146115cb576040517f08c379a00000000000000000000000000000000000000000000000000000000081526004016115c290612f56565b60405180910390fd5b60008054906101000a900473ffffffffffffffffffffffffffffffffffffffff1673ffffffffffffffffffffffffffffffffffffffff168173ffffffffffffffffffffffffffffffffffffffff16141561165a576040517f08c379a000000000000000000000000000000000000000000000000000000000815260040161165190612fb6565b60405180910390fd5b600073ffffffffffffffffffffffffffffffffffffffff16600360008373ffffffffffffffffffffffffffffffffffffffff1673ffffffffffffffffffffffffffffffffffffffff16815260200190815260200160002060000160009054906101000a900473ffffffffffffffffffffffffffffffffffffffff1673ffffffffffffffffffffffffffffffffffffffff16141561172c576040517f08c379a000000000000000000000000000000000000000000000000000000000815260040161172390612e56565b60405180910390fd5b600060046000600360008573ffffffffffffffffffffffffffffffffffffffff1673ffffffffffffffffffffffffffffffffffffffff16815260200190815260200160002060040154815260200190815260200160002060006101000a81548173ffffffffffffffffffffffffffffffffffffffff021916908373ffffffffffffffffffffffffffffffffffffffff160217905550600360008273ffffffffffffffffffffffffffffffffffffffff1673ffffffffffffffffffffffffffffffffffffffff168152602001908152602001600020600080820160006101000a81549073ffffffffffffffffffffffffffffffffffffffff0219169055600182016000611838919061235c565b6002820160006101000a81549060ff02191690556002820160016101000a81549060ff021916905560038201600090556004820160009055505050565b6002600360003373ffffffffffffffffffffffffffffffffffffffff1673ffffffffffffffffffffffffffffffffffffffff16815260200190815260200160002060020160019054906101000a900460ff1660ff16101561190b576040517f08c379a000000000000000000000000000000000000000000000000000000000815260040161190290612f96565b60405180910390fd5b61191481611a90565b611953576040517f08c379a000000000000000000000000000000000000000000000000000000000815260040161194a90612f36565b60405180910390fd5b6000600360008373ffffffffffffffffffffffffffffffffffffffff1673ffffffffffffffffffffffffffffffffffffffff16815260200190815260200160002060020160006101000a81548160ff0219169083151502179055506000600360008373ffffffffffffffffffffffffffffffffffffffff1673ffffffffffffffffffffffffffffffffffffffff16815260200190815260200160002060020160016101000a81548160ff021916908360ff16021790555050565b60008054906101000a900473ffffffffffffffffffffffffffffffffffffffff1681565b60006002600360008473ffffffffffffffffffffffffffffffffffffffff1673ffffffffffffffffffffffffffffffffffffffff16815260200190815260200160002060020160019054906101000a900460ff1660ff16149050919050565b60006001600360008473ffffffffffffffffffffffffffffffffffffffff1673ffffffffffffffffffffffffffffffffffffffff16815260200190815260200160002060020160019054906101000a900460ff1660ff16149050919050565b60036020528060005260406000206000915090508060000160009054906101000a900473ffffffffffffffffffffffffffffffffffffffff1690806001018054611b38906132f9565b80601f0160208091040260200160405190810160405280929190818152602001828054611b64906132f9565b8015611bb15780601f10611b8657610100808354040283529160200191611bb1565b820191906000526020600020905b815481529060010190602001808311611b9457829003601f168201915b5050505050908060020160009054906101000a900460ff16908060020160019054906101000a900460ff16908060030154908060040154905086565b60038060003373ffffffffffffffffffffffffffffffffffffffff1673ffffffffffffffffffffffffffffffffffffffff16815260200190815260200160002060020160019054906101000a900460ff1660ff1614611c81576040517f08c379a0000000000000000000000000000000000000000000000000000000008152600401611c7890612f56565b60405180910390fd5b6001600360008373ffffffffffffffffffffffffffffffffffffffff1673ffffffffffffffffffffffffffffffffffffffff16815260200190815260200160002060020160006101000a81548160ff0219169083151502179055506002600360008373ffffffffffffffffffffffffffffffffffffffff1673ffffffffffffffffffffffffffffffffffffffff16815260200190815260200160002060020160016101000a81548160ff021916908360ff16021790555050565b6002600360003373ffffffffffffffffffffffffffffffffffffffff1673ffffffffffffffffffffffffffffffffffffffff16815260200190815260200160002060020160019054906101000a900460ff1660ff161015611dd1576040517f08c379a0000000000000000000000000000000000000000000000000000000008152600401611dc890612f96565b60405180910390fd5b6001600360008373ffffffffffffffffffffffffffffffffffffffff1673ffffffffffffffffffffffffffffffffffffffff16815260200190815260200160002060020160006101000a81548160ff0219169083151502179055506001600360008373ffffffffffffffffffffffffffffffffffffffff1673ffffffffffffffffffffffffffffffffffffffff16815260200190815260200160002060020160016101000a81548160ff021916908360ff16021790555050565b600073ffffffffffffffffffffffffffffffffffffffff16600360008773ffffffffffffffffffffffffffffffffffffffff1673ffffffffffffffffffffffffffffffffffffffff16815260200190815260200160002060000160009054906101000a900473ffffffffffffffffffffffffffffffffffffffff1673ffffffffffffffffffffffffffffffffffffffff1614611f5c576040517f08c379a0000000000000000000000000000000000000000000000000000000008152600401611f5390612e96565b60405180910390fd5b611f65816104f7565b611fa4576040517f08c379a0000000000000000000000000000000000000000000000000000000008152600401611f9b90612f76565b60405180910390fd5b600073ffffffffffffffffffffffffffffffffffffffff166004600083815260200190815260200160002060009054906101000a900473ffffffffffffffffffffffffffffffffffffffff1673ffffffffffffffffffffffffffffffffffffffff1614612046576040517f08c379a000000000000000000000000000000000000000000000000000000000815260040161203d90612ef6565b60405180910390fd5b60016040518060c001604052808773ffffffffffffffffffffffffffffffffffffffff16815260200186815260200184151581526020018560ff16815260200142815260200183815250908060018154018082558091505060019003906000526020600020906005020160009091909190915060008201518160000160006101000a81548173ffffffffffffffffffffffffffffffffffffffff021916908373ffffffffffffffffffffffffffffffffffffffff160217905550602082015181600101908051906020019061211c92919061239c565b5060408201518160020160006101000a81548160ff02191690831515021790555060608201518160020160016101000a81548160ff021916908360ff1602179055506080820151816003015560a0820151816004015550506001808080549050612186919061322e565b815481106121bd577f4e487b7100000000000000000000000000000000000000000000000000000000600052603260045260246000fd5b9060005260206000209060050201600360008773ffffffffffffffffffffffffffffffffffffffff1673ffffffffffffffffffffffffffffffffffffffff1681526020019081526020016000206000820160009054906101000a900473ffffffffffffffffffffffffffffffffffffffff168160000160006101000a81548173ffffffffffffffffffffffffffffffffffffffff021916908373ffffffffffffffffffffffffffffffffffffffff1602179055506001820181600101908054612285906132f9565b612290929190612422565b506002820160009054906101000a900460ff168160020160006101000a81548160ff0219169083151502179055506002820160019054906101000a900460ff168160020160016101000a81548160ff021916908360ff1602179055506003820154816003015560048201548160040155905050846004600083815260200190815260200160002060006101000a81548173ffffffffffffffffffffffffffffffffffffffff021916908373ffffffffffffffffffffffffffffffffffffffff1602179055505050505050565b508054612368906132f9565b6000825580601f1061237a5750612399565b601f01602090049060005260206000209081019061239891906124af565b5b50565b8280546123a8906132f9565b90600052602060002090601f0160209004810192826123ca5760008555612411565b82601f106123e357805160ff1916838001178555612411565b82800160010185558215612411579182015b828111156124105782518255916020019190600101906123f5565b5b50905061241e91906124af565b5090565b82805461242e906132f9565b90600052602060002090601f016020900481019282612450576000855561249e565b82601f10612461578054855561249e565b8280016001018555821561249e57600052602060002091601f016020900482015b8281111561249d578254825591600101919060010190612482565b5b5090506124ab91906124af565b5090565b5b808211156124c85760008160009055506001016124b0565b5090565b60006124df6124da84613007565b612fd6565b9050828152602081018484840111156124f757600080fd5b6125028482856132b7565b509392505050565b6000813590506125198161347f565b92915050565b600082601f83011261253057600080fd5b81356125408482602086016124cc565b91505092915050565b60008135905061255881613496565b92915050565b60006020828403121561257057600080fd5b600061257e8482850161250a565b91505092915050565b60008060006060848603121561259c57600080fd5b60006125aa8682870161250a565b935050602084013567ffffffffffffffff8111156125c757600080fd5b6125d38682870161251f565b92505060406125e486828701612549565b9150509250925092565b6000806040838503121561260157600080fd5b600083013567ffffffffffffffff81111561261b57600080fd5b6126278582860161251f565b925050602061263885828601612549565b9150509250929050565b60006020828403121561265457600080fd5b600061266284828501612549565b91505092915050565b60006126778383612c69565b60408301905092915050565b61268c81613262565b82525050565b61269b81613262565b82525050565b60006126ac82613047565b6126b6818561306a565b93506126c183613037565b8060005b838110156126f25781516126d9888261266b565b97506126e48361305d565b9250506001810190506126c5565b5085935050505092915050565b61270881613274565b82525050565b600061271982613052565b612723818561307b565b93506127338185602086016132c6565b61273c81613461565b840191505092915050565b600061275460328361307b565b91507f43616e6e6f742072656d6f7665206465706c6f7965722773204c616e6420496e60008301527f73706563746f722070726976696c6567657300000000000000000000000000006020830152604082019050919050565b60006127ba60148361307b565b91507f496e76616c6964207573657220616464726573730000000000000000000000006000830152602082019050919050565b60006127fa60278361307b565b91507f55736572206e6f7420666f756e6420666f72207468652070726f76696465642060008301527f61646472657373000000000000000000000000000000000000000000000000006020830152604082019050919050565b6000612860602b8361307b565b91507f546865206163636f756e74206973206e6f742061205365636f6e642d4c65766560008301527f6c20417574686f726974790000000000000000000000000000000000000000006020830152604082019050919050565b60006128c6601a8361307b565b91507f4164647265737320616c726561647920726567697374657265640000000000006000830152602082019050919050565b600061290660548361307b565b91507f4f6e6c7920746865206465706c6f7965722c207365636f6e642d6c6576656c2060008301527f617574686f726974792c206f72206c616e6420696e73706563746f722063616e60208301527f20706572666f726d207468697320616374696f6e0000000000000000000000006040830152606082019050919050565b600061299260208361307b565b91507f55736572206163636f756e7420697320616c72656164792076657269666965646000830152602082019050919050565b60006129d2601f8361307b565b91507f70686f6e65206e756d62657220616c72656164792072656769737465726564006000830152602082019050919050565b6000612a12602b8361307b565b91507f4e6f207573657220666f756e6420666f72207468652070726f7669646564207060008301527f686f6e65206e756d6265720000000000000000000000000000000000000000006020830152604082019050919050565b6000612a7860238361307b565b91507f546865206163636f756e74206973206e6f742061204c616e6420496e7370656360008301527f746f7200000000000000000000000000000000000000000000000000000000006020830152604082019050919050565b6000612ade60298361307b565b91507f4f6e6c7920746865206465706c6f7965722063616e20706572666f726d20746860008301527f697320616374696f6e00000000000000000000000000000000000000000000006020830152604082019050919050565b6000612b4460148361307b565b91507f496e76616c69642070686f6e65206e756d6265720000000000000000000000006000830152602082019050919050565b6000612b8460438361307b565b91507f4f6e6c7920746865206465706c6f796572206f72207365636f6e642d6c65766560008301527f6c20617574686f726974792063616e20706572666f726d20746869732061637460208301527f696f6e00000000000000000000000000000000000000000000000000000000006040830152606082019050919050565b6000612c10603a8361307b565b91507f43616e6e6f742072656d6f7665206465706c6f7965722773205365636f6e642d60008301527f6c6576656c20417574686f726974792070726976696c656765730000000000006020830152604082019050919050565b604082016000820151612c7f6000850182612683565b506020820151612c926020850182612c98565b50505050565b612ca1816132a0565b82525050565b612cb0816132a0565b82525050565b612cbf816132aa565b82525050565b6000602082019050612cda6000830184612692565b92915050565b600060c082019050612cf56000830189612692565b8181036020830152612d07818861270e565b9050612d1660408301876126ff565b612d236060830186612cb6565b612d306080830185612ca7565b612d3d60a0830184612ca7565b979650505050505050565b6000604082019050612d5d6000830185612692565b612d6a6020830184612ca7565b9392505050565b60006020820190508181036000830152612d8b81846126a1565b905092915050565b6000602082019050612da860008301846126ff565b92915050565b600060c0820190508181036000830152612dc8818961270e565b9050612dd760208301886126ff565b612de46040830187612cb6565b612df16060830186612ca7565b612dfe6080830185612ca7565b612e0b60a0830184612692565b979650505050505050565b60006020820190508181036000830152612e2f81612747565b9050919050565b60006020820190508181036000830152612e4f816127ad565b9050919050565b60006020820190508181036000830152612e6f816127ed565b9050919050565b60006020820190508181036000830152612e8f81612853565b9050919050565b60006020820190508181036000830152612eaf816128b9565b9050919050565b60006020820190508181036000830152612ecf816128f9565b9050919050565b60006020820190508181036000830152612eef81612985565b9050919050565b60006020820190508181036000830152612f0f816129c5565b9050919050565b60006020820190508181036000830152612f2f81612a05565b9050919050565b60006020820190508181036000830152612f4f81612a6b565b9050919050565b60006020820190508181036000830152612f6f81612ad1565b9050919050565b60006020820190508181036000830152612f8f81612b37565b9050919050565b60006020820190508181036000830152612faf81612b77565b9050919050565b60006020820190508181036000830152612fcf81612c03565b9050919050565b6000604051905081810181811067ffffffffffffffff82111715612ffd57612ffc613432565b5b8060405250919050565b600067ffffffffffffffff82111561302257613021613432565b5b601f19601f8301169050602081019050919050565b6000819050602082019050919050565b600081519050919050565b600081519050919050565b6000602082019050919050565b600082825260208201905092915050565b600082825260208201905092915050565b6000613097826132a0565b91506130a2836132a0565b9250826130b2576130b16133d4565b5b828204905092915050565b6000808291508390505b6001851115613107578086048111156130e3576130e26133a5565b5b60018516156130f25780820291505b808102905061310085613472565b94506130c7565b94509492505050565b600061311b826132a0565b9150613126836132a0565b92506131537fffffffffffffffffffffffffffffffffffffffffffffffffffffffffffffffff848461315b565b905092915050565b60008261316b5760019050613227565b816131795760009050613227565b816001811461318f5760028114613199576131c8565b6001915050613227565b60ff8411156131ab576131aa6133a5565b5b8360020a9150848211156131c2576131c16133a5565b5b50613227565b5060208310610133831016604e8410600b84101617156131fd5782820a9050838111156131f8576131f76133a5565b5b613227565b61320a84848460016130bd565b92509050818404811115613221576132206133a5565b5b81810290505b9392505050565b6000613239826132a0565b9150613244836132a0565b925082821015613257576132566133a5565b5b828203905092915050565b600061326d82613280565b9050919050565b60008115159050919050565b600073ffffffffffffffffffffffffffffffffffffffff82169050919050565b6000819050919050565b600060ff82169050919050565b82818337600083830152505050565b60005b838110156132e45780820151818401526020810190506132c9565b838111156132f3576000848401525b50505050565b6000600282049050600182168061331157607f821691505b6020821081141561332557613324613403565b5b50919050565b6000613336826132a0565b91507fffffffffffffffffffffffffffffffffffffffffffffffffffffffffffffffff821415613369576133686133a5565b5b600182019050919050565b600061337f826132a0565b915061338a836132a0565b92508261339a576133996133d4565b5b828206905092915050565b7f4e487b7100000000000000000000000000000000000000000000000000000000600052601160045260246000fd5b7f4e487b7100000000000000000000000000000000000000000000000000000000600052601260045260246000fd5b7f4e487b7100000000000000000000000000000000000000000000000000000000600052602260045260246000fd5b7f4e487b7100000000000000000000000000000000000000000000000000000000600052604160045260246000fd5b6000601f19601f8301169050919050565b60008160011c9050919050565b61348881613262565b811461349357600080fd5b50565b61349f816132a0565b81146134aa57600080fd5b5056fea2646970667358221220ec6adf47643069943ef6f2361bd213fbe9bd6f2d63b15e72929ed33692091fb564736f6c63430008000033",
  "immutableReferences": {},
  "source": "// SPDX-License-Identifier: UNLICENSED\r\npragma solidity ^0.8.0;\r\n\r\ncontract AccountRegistration {\r\n    address public deployer;\r\n\r\n    struct UserAccount {\r\n        address userAddress;\r\n        string username;\r\n        bool isUserVerified;\r\n        uint8 designation; // 0: no authority, 1: land inspector, 2: second-level authority, 3: deployer\r\n        uint registrationDate; // Registration date as a Unix timestamp\r\n        uint256 phoneNumber;\r\n    }\r\n\r\n    struct PendingVerification {\r\n        address userAddress;\r\n        uint256 phoneNumber;\r\n    }\r\n\r\n    UserAccount[] public userAccounts;\r\n    PendingVerification[] public pendingVerifications;\r\n\r\n    // Mapping to store user accounts using their Ethereum addresses as keys\r\n    mapping(address => UserAccount) public userAccountsMap;\r\n\r\n    // Mapping to link phone numbers to Ethereum addresses\r\n    mapping(uint256 => address) public phoneToUser;\r\n\r\n    // Constructor to initialize the contract and set the deployer's account\r\n    constructor() {\r\n        deployer = msg.sender;\r\n        addUser(deployer, \"Deployer\", 3, true, 8890890987);\r\n    }\r\n\r\n    // Function to view the list of pending verifications\r\n    function getPendingVerifications()\r\n        public\r\n        view\r\n        returns (PendingVerification[] memory)\r\n    {\r\n        return pendingVerifications;\r\n    }\r\n\r\n    function requestVerification(uint256 _phoneNumber) public {\r\n        // Add the request to pending verifications\r\n        pendingVerifications.push(\r\n            PendingVerification(msg.sender, _phoneNumber)\r\n        );\r\n    }\r\n\r\n    function validatePhone(uint256 _phoneNumber) public pure returns (bool) {\r\n        uint phoneLength = 0;\r\n        uint phoneCopy = _phoneNumber;\r\n\r\n        // Count the number of digits in the phone number\r\n        while (phoneCopy != 0) {\r\n            phoneCopy /= 10;\r\n            phoneLength++;\r\n        }\r\n\r\n        // Check if the phone number is 10 digits and starts with 7, 8, or 9\r\n        uint firstDigit = (_phoneNumber / 10 ** (phoneLength - 1)) % 10;\r\n\r\n        return\r\n            phoneLength == 10 &&\r\n            (firstDigit == 7 || firstDigit == 8 || firstDigit == 9);\r\n    }\r\n\r\n    // Function to verify an account with an phone number\r\n    function verifyAccount(\r\n        uint256 _phoneNumber\r\n    ) public onlyDeployerOrSecondLevelAuthorityOrLandInspector {\r\n        // Find the Ethereum address associated with the given phone number\r\n        address userToVerify = phoneToUser[_phoneNumber];\r\n\r\n        // Ensure that the user exists\r\n        require(\r\n            userToVerify != address(0),\r\n            \"No user found for the provided phone number\"\r\n        );\r\n\r\n        // Check if the user is already verified\r\n        require(\r\n            userAccountsMap[userToVerify].isUserVerified != true,\r\n            \"User account is already verified\"\r\n        );\r\n\r\n        // Set the isUserVerified flag to true for the user\r\n        userAccountsMap[userToVerify].isUserVerified = true;\r\n\r\n        // Remove from pending verifications if account is verified\r\n        for (uint i = 0; i < pendingVerifications.length; i++) {\r\n            if (pendingVerifications[i].phoneNumber == _phoneNumber) {\r\n                // Remove the pending verification entry\r\n                pendingVerifications[i] = pendingVerifications[\r\n                    pendingVerifications.length - 1\r\n                ];\r\n                pendingVerifications.pop();\r\n                break;\r\n            }\r\n        }\r\n    }\r\n\r\n    // Function to add a user\r\n    function addUser(\r\n        address _user,\r\n        string memory _username,\r\n        uint8 _designation,\r\n        bool isUserVerified,\r\n        uint256 _phoneNumber\r\n    ) internal {\r\n        require(\r\n            userAccountsMap[_user].userAddress == address(0),\r\n            \"Address already registered\"\r\n        );\r\n        require(validatePhone(_phoneNumber), \"Invalid phone number\");\r\n        require(\r\n            phoneToUser[_phoneNumber] == address(0),\r\n            \"phone number already registered\"\r\n        );\r\n\r\n        userAccounts.push(\r\n            UserAccount(\r\n                _user,\r\n                _username,\r\n                isUserVerified,\r\n                _designation,\r\n                block.timestamp,\r\n                _phoneNumber\r\n            )\r\n        );\r\n        userAccountsMap[_user] = userAccounts[userAccounts.length - 1];\r\n        phoneToUser[_phoneNumber] = _user;\r\n    }\r\n\r\n    // Function to set user details\r\n    function setUserDetails(\r\n        string memory _username,\r\n        uint256 _phoneNumber\r\n    ) public {\r\n        addUser(msg.sender, _username, 0, false, _phoneNumber);\r\n    }\r\n\r\n    // Function to Check User Details\r\n    function getUserDetailsByAddress(\r\n        address _userAddress\r\n    )\r\n        public\r\n        view\r\n        returns (\r\n            string memory username,\r\n            bool isUserVerified,\r\n            uint8 designation,\r\n            uint registrationDate,\r\n            uint256 phoneNumber,\r\n            address userAddress\r\n        )\r\n    {\r\n        // Ensure that the user exists\r\n        require(_userAddress != address(0), \"Invalid user address\");\r\n\r\n        // Retrieve user details using the Ethereum address\r\n        UserAccount storage user = userAccountsMap[_userAddress];\r\n\r\n        return (\r\n            user.username,\r\n            user.isUserVerified,\r\n            user.designation,\r\n            user.registrationDate,\r\n            user.phoneNumber,\r\n            user.userAddress\r\n        );\r\n    }\r\n\r\n    // Modifier to restrict access to functions for the deployer only\r\n    modifier onlyDeployer() {\r\n        require(\r\n            userAccountsMap[msg.sender].designation == 3,\r\n            \"Only the deployer can perform this action\"\r\n        );\r\n        _;\r\n    }\r\n\r\n    // Modifier to restrict access to functions for the deployer and second-level authorities\r\n    modifier onlyDeployerOrSecondLevelAuthority() {\r\n        require(\r\n            userAccountsMap[msg.sender].designation >= 2,\r\n            \"Only the deployer or second-level authority can perform this action\"\r\n        );\r\n        _;\r\n    }\r\n\r\n    // Modifier to restrict access to functions for the deployer, second-level authorities, and land inspectors\r\n    modifier onlyDeployerOrSecondLevelAuthorityOrLandInspector() {\r\n        require(\r\n            userAccountsMap[msg.sender].designation >= 1,\r\n            \"Only the deployer, second-level authority, or land inspector can perform this action\"\r\n        );\r\n        _;\r\n    }\r\n\r\n    // Function to add a Land Inspector\r\n    function addLandInspector(\r\n        address _inspector,\r\n        string memory _username,\r\n        uint256 _phone\r\n    ) public onlyDeployerOrSecondLevelAuthority {\r\n        addUser(_inspector, _username, 1, true, _phone);\r\n    }\r\n\r\n    // Function to add a Second-Level Authority\r\n    function addSecondLevelAuthority(\r\n        address _authority,\r\n        string memory _username,\r\n        uint256 _phone\r\n    ) public onlyDeployer {\r\n        addUser(_authority, _username, 2, true, _phone);\r\n    }\r\n\r\n    // Function to remove a Second-Level Authority\r\n    function removeSecondLevelAuthority(\r\n        address _authority\r\n    ) public onlyDeployer {\r\n        require(\r\n            _authority != deployer,\r\n            \"Cannot remove deployer's Second-level Authority privileges\"\r\n        );\r\n\r\n        // Ensure that the provided address is associated with a user\r\n        require(\r\n            userAccountsMap[_authority].userAddress != address(0),\r\n            \"User not found for the provided address\"\r\n        );\r\n\r\n        // Remove the user and update the mapping\r\n        phoneToUser[userAccountsMap[_authority].phoneNumber] = address(0);\r\n        delete userAccountsMap[_authority];\r\n    }\r\n\r\n    // Function to remove a Land Inspector\r\n    function removeLandInspector(\r\n        address _inspector\r\n    ) public onlyDeployerOrSecondLevelAuthority {\r\n        require(\r\n            _inspector != deployer,\r\n            \"Cannot remove deployer's Land Inspector privileges\"\r\n        );\r\n\r\n        // Ensure that the provided address is associated with a user\r\n        require(\r\n            userAccountsMap[_inspector].userAddress != address(0),\r\n            \"User not found for the provided address\"\r\n        );\r\n\r\n        phoneToUser[userAccountsMap[_inspector].phoneNumber] = address(0);\r\n        delete userAccountsMap[_inspector];\r\n    }\r\n\r\n    // Function to check if a user is verified\r\n    function checkUserVerified(address _account) public view returns (bool) {\r\n        return userAccountsMap[_account].isUserVerified;\r\n    }\r\n\r\n    // Function to check if a user is a Land Inspector\r\n    function isLandInspector(address _account) public view returns (bool) {\r\n        return userAccountsMap[_account].designation == 1;\r\n    }\r\n\r\n    // Function to check if a user is a Second-Level Authority\r\n    function isSecondLevelAuthority(\r\n        address _account\r\n    ) public view returns (bool) {\r\n        return userAccountsMap[_account].designation == 2;\r\n    }\r\n\r\n    // Function to check if a user is a Sdeployer\r\n    function isDeployer(address _account) public view returns (bool) {\r\n        return userAccountsMap[_account].designation == 3;\r\n    }\r\n\r\n    // Function to grant Land Inspector status\r\n    function grantLandInspectorStatus(\r\n        address _account\r\n    ) public onlyDeployerOrSecondLevelAuthority {\r\n        userAccountsMap[_account].isUserVerified = true;\r\n        userAccountsMap[_account].designation = 1;\r\n    }\r\n\r\n    // Function to grant Second-Level Authority status\r\n    function grantSecondLevelAuthorityStatus(\r\n        address _account\r\n    ) public onlyDeployer {\r\n        userAccountsMap[_account].isUserVerified = true;\r\n        userAccountsMap[_account].designation = 2;\r\n    }\r\n\r\n    // Function to revoke Land Inspector status\r\n    function revokeLandInspectorStatus(\r\n        address _account\r\n    ) public onlyDeployerOrSecondLevelAuthority {\r\n        require(\r\n            isLandInspector(_account),\r\n            \"The account is not a Land Inspector\"\r\n        );\r\n        userAccountsMap[_account].isUserVerified = false;\r\n        userAccountsMap[_account].designation = 0;\r\n    }\r\n\r\n    // Function to revoke Second-Level Authority status\r\n    function revokeSecondLevelAuthorityStatus(\r\n        address _account\r\n    ) public onlyDeployer {\r\n        require(\r\n            isSecondLevelAuthority(_account),\r\n            \"The account is not a Second-Level Authority\"\r\n        );\r\n        userAccountsMap[_account].isUserVerified = false;\r\n        userAccountsMap[_account].designation = 0;\r\n    }\r\n}\r\n",
  "sourcePath": "C:\\Users\\DELL\\OneDrive\\Documents\\FYP\\Decentralizsed-Land-Registration\\contracts\\registerAccount-contract.sol",
  "compiler": {
    "name": "solc",
    "version": "0.8.0+commit.c7dfd78e.Emscripten.clang"
  },
  "schemaVersion": "3.4.16",
  "updatedAt": "2024-01-25T15:40:55.113Z",
  "networkType": "ethereum",
  "devdoc": {
    "kind": "dev",
    "methods": {},
    "version": 1
  },
  "userdoc": {
    "kind": "user",
    "methods": {},
    "version": 1
  }
}