{
  "contractName": "LandRegistration",
  "abi": [
    {
      "inputs": [
        {
          "internalType": "address",
          "name": "_accountRegistrationContract",
          "type": "address"
        }
      ],
      "stateMutability": "nonpayable",
      "type": "constructor"
    },
    {
      "anonymous": false,
      "inputs": [
        {
          "indexed": false,
          "internalType": "uint256",
          "name": "landId",
          "type": "uint256"
        }
      ],
      "name": "LandListedForSale",
      "type": "event"
    },
    {
      "anonymous": false,
      "inputs": [
        {
          "indexed": false,
          "internalType": "uint256",
          "name": "landId",
          "type": "uint256"
        },
        {
          "indexed": false,
          "internalType": "address",
          "name": "oldOwner",
          "type": "address"
        },
        {
          "indexed": false,
          "internalType": "address",
          "name": "newOwner",
          "type": "address"
        }
      ],
      "name": "LandOwnershipTransferred",
      "type": "event"
    },
    {
      "anonymous": false,
      "inputs": [
        {
          "indexed": false,
          "internalType": "uint256",
          "name": "landId",
          "type": "uint256"
        }
      ],
      "name": "LandRecordAdded",
      "type": "event"
    },
    {
      "anonymous": false,
      "inputs": [
        {
          "indexed": false,
          "internalType": "uint256",
          "name": "landId",
          "type": "uint256"
        }
      ],
      "name": "LandRecordExists",
      "type": "event"
    },
    {
      "anonymous": false,
      "inputs": [
        {
          "indexed": false,
          "internalType": "uint256",
          "name": "requestId",
          "type": "uint256"
        }
      ],
      "name": "LandRequestCancelled",
      "type": "event"
    },
    {
      "anonymous": false,
      "inputs": [
        {
          "indexed": false,
          "internalType": "uint256",
          "name": "requestId",
          "type": "uint256"
        },
        {
          "indexed": false,
          "internalType": "address",
          "name": "landOwner",
          "type": "address"
        },
        {
          "indexed": false,
          "internalType": "address",
          "name": "buyer",
          "type": "address"
        },
        {
          "indexed": false,
          "internalType": "uint256",
          "name": "landId",
          "type": "uint256"
        },
        {
          "indexed": false,
          "internalType": "enum LandRegistration.reqStatus",
          "name": "status",
          "type": "uint8"
        },
        {
          "indexed": false,
          "internalType": "bool",
          "name": "someFlag",
          "type": "bool"
        }
      ],
      "name": "LandRequests",
      "type": "event"
    },
    {
      "anonymous": false,
      "inputs": [
        {
          "indexed": false,
          "internalType": "uint256",
          "name": "requestId",
          "type": "uint256"
        },
        {
          "indexed": false,
          "internalType": "uint256",
          "name": "landId",
          "type": "uint256"
        }
      ],
      "name": "PaymentMarkedAsDone",
      "type": "event"
    },
    {
      "inputs": [
        {
          "internalType": "uint256",
          "name": "",
          "type": "uint256"
        }
      ],
      "name": "LandRequestMapping",
      "outputs": [
        {
          "internalType": "uint256",
          "name": "reqId",
          "type": "uint256"
        },
        {
          "internalType": "address",
          "name": "sellerId",
          "type": "address"
        },
        {
          "internalType": "address",
          "name": "buyerId",
          "type": "address"
        },
        {
          "internalType": "uint256",
          "name": "landId",
          "type": "uint256"
        },
        {
          "internalType": "enum LandRegistration.reqStatus",
          "name": "requestStatus",
          "type": "uint8"
        },
        {
          "internalType": "bool",
          "name": "isPaymentDone",
          "type": "bool"
        }
      ],
      "stateMutability": "view",
      "type": "function",
      "constant": true
    },
    {
      "inputs": [],
      "name": "accountRegistrationContract",
      "outputs": [
        {
          "internalType": "address",
          "name": "",
          "type": "address"
        }
      ],
      "stateMutability": "view",
      "type": "function",
      "constant": true
    },
    {
      "inputs": [],
      "name": "deployer",
      "outputs": [
        {
          "internalType": "address",
          "name": "",
          "type": "address"
        }
      ],
      "stateMutability": "view",
      "type": "function",
      "constant": true
    },
    {
      "inputs": [
        {
          "internalType": "uint256",
          "name": "",
          "type": "uint256"
        }
      ],
      "name": "landMapping",
      "outputs": [
        {
          "internalType": "uint256",
          "name": "landId",
          "type": "uint256"
        },
        {
          "internalType": "address",
          "name": "owner",
          "type": "address"
        },
        {
          "components": [
            {
              "internalType": "string",
              "name": "state",
              "type": "string"
            },
            {
              "internalType": "string",
              "name": "division",
              "type": "string"
            },
            {
              "internalType": "string",
              "name": "district",
              "type": "string"
            },
            {
              "internalType": "string",
              "name": "taluka",
              "type": "string"
            },
            {
              "internalType": "string",
              "name": "village",
              "type": "string"
            },
            {
              "internalType": "uint256",
              "name": "surveyNumber",
              "type": "uint256"
            },
            {
              "internalType": "string",
              "name": "subdivision",
              "type": "string"
            }
          ],
          "internalType": "struct LandRegistration.LandIdentifier",
          "name": "identifier",
          "type": "tuple"
        },
        {
          "internalType": "uint256",
          "name": "area",
          "type": "uint256"
        },
        {
          "internalType": "uint256",
          "name": "purchaseDate",
          "type": "uint256"
        },
        {
          "internalType": "uint256",
          "name": "purchasePrice",
          "type": "uint256"
        },
        {
          "internalType": "uint256",
          "name": "landValueAtPurchase",
          "type": "uint256"
        },
        {
          "internalType": "bool",
          "name": "isVerified",
          "type": "bool"
        },
        {
          "internalType": "bool",
          "name": "isForSale",
          "type": "bool"
        }
      ],
      "stateMutability": "view",
      "type": "function",
      "constant": true
    },
    {
      "inputs": [],
      "name": "landRecordsCount",
      "outputs": [
        {
          "internalType": "uint256",
          "name": "",
          "type": "uint256"
        }
      ],
      "stateMutability": "view",
      "type": "function",
      "constant": true
    },
    {
      "inputs": [
        {
          "internalType": "uint256",
          "name": "",
          "type": "uint256"
        },
        {
          "internalType": "address",
          "name": "",
          "type": "address"
        }
      ],
      "name": "landToBuyerToRequest",
      "outputs": [
        {
          "internalType": "uint256",
          "name": "",
          "type": "uint256"
        }
      ],
      "stateMutability": "view",
      "type": "function",
      "constant": true
    },
    {
      "inputs": [
        {
          "internalType": "uint256",
          "name": "_landId",
          "type": "uint256"
        }
      ],
      "name": "landVerificationRequest",
      "outputs": [],
      "stateMutability": "nonpayable",
      "type": "function"
    },
    {
      "inputs": [
        {
          "components": [
            {
              "internalType": "uint256",
              "name": "landId",
              "type": "uint256"
            },
            {
              "internalType": "address",
              "name": "owner",
              "type": "address"
            },
            {
              "components": [
                {
                  "internalType": "string",
                  "name": "state",
                  "type": "string"
                },
                {
                  "internalType": "string",
                  "name": "division",
                  "type": "string"
                },
                {
                  "internalType": "string",
                  "name": "district",
                  "type": "string"
                },
                {
                  "internalType": "string",
                  "name": "taluka",
                  "type": "string"
                },
                {
                  "internalType": "string",
                  "name": "village",
                  "type": "string"
                },
                {
                  "internalType": "uint256",
                  "name": "surveyNumber",
                  "type": "uint256"
                },
                {
                  "internalType": "string",
                  "name": "subdivision",
                  "type": "string"
                }
              ],
              "internalType": "struct LandRegistration.LandIdentifier",
              "name": "identifier",
              "type": "tuple"
            },
            {
              "internalType": "uint256",
              "name": "area",
              "type": "uint256"
            },
            {
              "internalType": "uint256",
              "name": "purchaseDate",
              "type": "uint256"
            },
            {
              "internalType": "uint256",
              "name": "purchasePrice",
              "type": "uint256"
            },
            {
              "internalType": "uint256",
              "name": "landValueAtPurchase",
              "type": "uint256"
            },
            {
              "internalType": "address[]",
              "name": "previousOwners",
              "type": "address[]"
            },
            {
              "internalType": "bool",
              "name": "isVerified",
              "type": "bool"
            },
            {
              "internalType": "bool",
              "name": "isForSale",
              "type": "bool"
            }
          ],
          "internalType": "struct LandRegistration.LandRecord",
          "name": "_record",
          "type": "tuple"
        }
      ],
      "name": "addLandRecord",
      "outputs": [
        {
          "internalType": "uint256",
          "name": "",
          "type": "uint256"
        }
      ],
      "stateMutability": "nonpayable",
      "type": "function"
    },
    {
      "inputs": [
        {
          "components": [
            {
              "internalType": "string",
              "name": "state",
              "type": "string"
            },
            {
              "internalType": "string",
              "name": "division",
              "type": "string"
            },
            {
              "internalType": "string",
              "name": "district",
              "type": "string"
            },
            {
              "internalType": "string",
              "name": "taluka",
              "type": "string"
            },
            {
              "internalType": "string",
              "name": "village",
              "type": "string"
            },
            {
              "internalType": "uint256",
              "name": "surveyNumber",
              "type": "uint256"
            },
            {
              "internalType": "string",
              "name": "subdivision",
              "type": "string"
            }
          ],
          "internalType": "struct LandRegistration.LandIdentifier",
          "name": "_identifier",
          "type": "tuple"
        }
      ],
      "name": "getLandId",
      "outputs": [
        {
          "internalType": "uint256",
          "name": "",
          "type": "uint256"
        }
      ],
      "stateMutability": "view",
      "type": "function",
      "constant": true
    },
    {
      "inputs": [
        {
          "internalType": "uint256",
          "name": "_landId",
          "type": "uint256"
        }
      ],
      "name": "verifyLand",
      "outputs": [],
      "stateMutability": "nonpayable",
      "type": "function"
    },
    {
      "inputs": [
        {
          "internalType": "uint256",
          "name": "_landId",
          "type": "uint256"
        }
      ],
      "name": "listLandForSale",
      "outputs": [],
      "stateMutability": "nonpayable",
      "type": "function"
    },
    {
      "inputs": [
        {
          "internalType": "uint256",
          "name": "_landId",
          "type": "uint256"
        }
      ],
      "name": "requestForBuy",
      "outputs": [],
      "stateMutability": "nonpayable",
      "type": "function"
    },
    {
      "inputs": [
        {
          "internalType": "uint256",
          "name": "_landId",
          "type": "uint256"
        }
      ],
      "name": "cancelBuyerRequest",
      "outputs": [],
      "stateMutability": "nonpayable",
      "type": "function"
    },
    {
      "inputs": [
        {
          "internalType": "uint256",
          "name": "_landId",
          "type": "uint256"
        }
      ],
      "name": "receivedLandRequests",
      "outputs": [
        {
          "internalType": "uint256[]",
          "name": "",
          "type": "uint256[]"
        }
      ],
      "stateMutability": "view",
      "type": "function",
      "constant": true
    },
    {
      "inputs": [],
      "name": "sentLandRequests",
      "outputs": [
        {
          "internalType": "uint256[]",
          "name": "",
          "type": "uint256[]"
        }
      ],
      "stateMutability": "view",
      "type": "function",
      "constant": true
    },
    {
      "inputs": [
        {
          "internalType": "uint256",
          "name": "_requestId",
          "type": "uint256"
        }
      ],
      "name": "getLandIdForRequest",
      "outputs": [
        {
          "internalType": "uint256",
          "name": "",
          "type": "uint256"
        }
      ],
      "stateMutability": "view",
      "type": "function",
      "constant": true
    },
    {
      "inputs": [
        {
          "internalType": "uint256",
          "name": "_requestId",
          "type": "uint256"
        }
      ],
      "name": "acceptRequest",
      "outputs": [],
      "stateMutability": "nonpayable",
      "type": "function"
    },
    {
      "inputs": [
        {
          "internalType": "uint256",
          "name": "_requestId",
          "type": "uint256"
        }
      ],
      "name": "rejectRequest",
      "outputs": [],
      "stateMutability": "nonpayable",
      "type": "function"
    },
    {
      "inputs": [
        {
          "internalType": "uint256",
          "name": "_requestId",
          "type": "uint256"
        },
        {
          "internalType": "uint256",
          "name": "_landId",
          "type": "uint256"
        }
      ],
      "name": "markPaymentAsDone",
      "outputs": [],
      "stateMutability": "nonpayable",
      "type": "function"
    },
    {
      "inputs": [
        {
          "internalType": "uint256",
          "name": "requestId",
          "type": "uint256"
        }
      ],
      "name": "requestStatus",
      "outputs": [
        {
          "internalType": "bool",
          "name": "",
          "type": "bool"
        }
      ],
      "stateMutability": "view",
      "type": "function",
      "constant": true
    },
    {
      "inputs": [
        {
          "internalType": "uint256",
          "name": "_landId",
          "type": "uint256"
        }
      ],
      "name": "getOwnerAddress",
      "outputs": [
        {
          "internalType": "address",
          "name": "",
          "type": "address"
        }
      ],
      "stateMutability": "view",
      "type": "function",
      "constant": true
    },
    {
      "inputs": [
        {
          "internalType": "uint256",
          "name": "_requestId",
          "type": "uint256"
        }
      ],
      "name": "transferLandOwnership",
      "outputs": [],
      "stateMutability": "nonpayable",
      "type": "function"
    },
    {
      "inputs": [],
      "name": "getLandsForSale",
      "outputs": [
        {
          "components": [
            {
              "internalType": "uint256",
              "name": "landId",
              "type": "uint256"
            },
            {
              "internalType": "address",
              "name": "owner",
              "type": "address"
            },
            {
              "components": [
                {
                  "internalType": "string",
                  "name": "state",
                  "type": "string"
                },
                {
                  "internalType": "string",
                  "name": "division",
                  "type": "string"
                },
                {
                  "internalType": "string",
                  "name": "district",
                  "type": "string"
                },
                {
                  "internalType": "string",
                  "name": "taluka",
                  "type": "string"
                },
                {
                  "internalType": "string",
                  "name": "village",
                  "type": "string"
                },
                {
                  "internalType": "uint256",
                  "name": "surveyNumber",
                  "type": "uint256"
                },
                {
                  "internalType": "string",
                  "name": "subdivision",
                  "type": "string"
                }
              ],
              "internalType": "struct LandRegistration.LandIdentifier",
              "name": "identifier",
              "type": "tuple"
            },
            {
              "internalType": "uint256",
              "name": "area",
              "type": "uint256"
            },
            {
              "internalType": "uint256",
              "name": "purchaseDate",
              "type": "uint256"
            },
            {
              "internalType": "uint256",
              "name": "purchasePrice",
              "type": "uint256"
            },
            {
              "internalType": "uint256",
              "name": "landValueAtPurchase",
              "type": "uint256"
            },
            {
              "internalType": "address[]",
              "name": "previousOwners",
              "type": "address[]"
            },
            {
              "internalType": "bool",
              "name": "isVerified",
              "type": "bool"
            },
            {
              "internalType": "bool",
              "name": "isForSale",
              "type": "bool"
            }
          ],
          "internalType": "struct LandRegistration.LandRecord[]",
          "name": "",
          "type": "tuple[]"
        }
      ],
      "stateMutability": "view",
      "type": "function",
      "constant": true
    },
    {
      "inputs": [
        {
          "internalType": "address",
          "name": "owner",
          "type": "address"
        }
      ],
      "name": "myLandsList",
      "outputs": [
        {
          "internalType": "uint256[]",
          "name": "",
          "type": "uint256[]"
        }
      ],
      "stateMutability": "view",
      "type": "function",
      "constant": true
    },
    {
      "inputs": [],
      "name": "getMyLands",
      "outputs": [
        {
          "components": [
            {
              "internalType": "uint256",
              "name": "landId",
              "type": "uint256"
            },
            {
              "internalType": "address",
              "name": "owner",
              "type": "address"
            },
            {
              "components": [
                {
                  "internalType": "string",
                  "name": "state",
                  "type": "string"
                },
                {
                  "internalType": "string",
                  "name": "division",
                  "type": "string"
                },
                {
                  "internalType": "string",
                  "name": "district",
                  "type": "string"
                },
                {
                  "internalType": "string",
                  "name": "taluka",
                  "type": "string"
                },
                {
                  "internalType": "string",
                  "name": "village",
                  "type": "string"
                },
                {
                  "internalType": "uint256",
                  "name": "surveyNumber",
                  "type": "uint256"
                },
                {
                  "internalType": "string",
                  "name": "subdivision",
                  "type": "string"
                }
              ],
              "internalType": "struct LandRegistration.LandIdentifier",
              "name": "identifier",
              "type": "tuple"
            },
            {
              "internalType": "uint256",
              "name": "area",
              "type": "uint256"
            },
            {
              "internalType": "uint256",
              "name": "purchaseDate",
              "type": "uint256"
            },
            {
              "internalType": "uint256",
              "name": "purchasePrice",
              "type": "uint256"
            },
            {
              "internalType": "uint256",
              "name": "landValueAtPurchase",
              "type": "uint256"
            },
            {
              "internalType": "address[]",
              "name": "previousOwners",
              "type": "address[]"
            },
            {
              "internalType": "bool",
              "name": "isVerified",
              "type": "bool"
            },
            {
              "internalType": "bool",
              "name": "isForSale",
              "type": "bool"
            }
          ],
          "internalType": "struct LandRegistration.LandRecord[]",
          "name": "",
          "type": "tuple[]"
        }
      ],
      "stateMutability": "view",
      "type": "function",
      "constant": true
    },
    {
      "inputs": [],
      "name": "ReturnAllLandList",
      "outputs": [
        {
          "internalType": "uint256[]",
          "name": "",
          "type": "uint256[]"
        }
      ],
      "stateMutability": "view",
      "type": "function",
      "constant": true
    }
  ],
  "bytecode": "0x608060405260016009553480156200001657600080fd5b5060405162005b5838038062005b5883398181016040528101906200003c9190620000db565b336000806101000a81548173ffffffffffffffffffffffffffffffffffffffff021916908373ffffffffffffffffffffffffffffffffffffffff16021790555080600160006101000a81548173ffffffffffffffffffffffffffffffffffffffff021916908373ffffffffffffffffffffffffffffffffffffffff1602179055505062000155565b600081519050620000d5816200013b565b92915050565b600060208284031215620000ee57600080fd5b6000620000fe84828501620000c4565b91505092915050565b600062000114826200011b565b9050919050565b600073ffffffffffffffffffffffffffffffffffffffff82169050919050565b620001468162000107565b81146200015257600080fd5b50565b6159f380620001656000396000f3fe608060405234801561001057600080fd5b506004361061018e5760003560e01c806373930e7e116100de578063d5f3948811610097578063e3df3cf811610071578063e3df3cf8146104c6578063e88bed1a146104f6578063f6c1b99214610514578063f9c43bdf146105325761018e565b8063d5f3948814610440578063dd5509581461045e578063e01ae68b1461048e5761018e565b806373930e7e146103415780639b2cfdeb1461035d578063b10a30ed1461038d578063b694845f146103c2578063bd63026c146103f2578063d14dfce6146104225761018e565b806323393d771161014b5780634f1de0e7116101255780634f1de0e7146102bb5780635112824f146102d75780636163f8ec1461030757806366746a71146103235761018e565b806323393d77146102655780632d7788db146102835780634ba1f0981461029f5761018e565b806304888243146101935780630695b9c3146101af5780630ee0ed58146101cd57806317194702146101e95780631a313202146102195780631f7bdad614610249575b600080fd5b6101ad60048036038101906101a8919061485c565b61054e565b005b6101b76106a9565b6040516101c4919061523a565b60405180910390f35b6101e760048036038101906101e2919061485c565b610d8d565b005b61020360048036038101906101fe919061485c565b6111d2565b6040516102109190615459565b60405180910390f35b610233600480360381019061022e919061485c565b6111f2565b604051610240919061527e565b60405180910390f35b610263600480360381019061025e91906148c1565b61121f565b005b61026d61159d565b60405161027a919061525c565b60405180910390f35b61029d6004803603810190610298919061485c565b6115f5565b005b6102b960048036038101906102b4919061485c565b611a60565b005b6102d560048036038101906102d0919061485c565b611d34565b005b6102f160048036038101906102ec9190614788565b6122a8565b6040516102fe919061525c565b60405180910390f35b610321600480360381019061031c919061485c565b61233f565b005b61032b612916565b604051610338919061525c565b60405180910390f35b61035b6004803603810190610356919061485c565b6129ab565b005b610377600480360381019061037291906147da565b612a7d565b6040516103849190615459565b60405180910390f35b6103a760048036038101906103a2919061485c565b612b5e565b6040516103b9969594939291906154ab565b60405180910390f35b6103dc60048036038101906103d7919061485c565b612bf4565b6040516103e9919061525c565b60405180910390f35b61040c60048036038101906104079190614885565b612d2f565b6040516104199190615459565b60405180910390f35b61042a612d54565b604051610437919061521f565b60405180910390f35b610448612d7a565b604051610455919061521f565b60405180910390f35b6104786004803603810190610473919061485c565b612d9e565b604051610485919061521f565b60405180910390f35b6104a860048036038101906104a3919061485c565b612e36565b6040516104bd9998979695949392919061550c565b60405180910390f35b6104e060048036038101906104db919061481b565b61323e565b6040516104ed9190615459565b60405180910390f35b6104fe61366a565b60405161050b9190615459565b60405180910390f35b61051c613670565b604051610529919061523a565b60405180910390f35b61054c6004803603810190610547919061485c565b613e38565b005b80600b600082815260200190815260200160002060010160009054906101000a900473ffffffffffffffffffffffffffffffffffffffff1673ffffffffffffffffffffffffffffffffffffffff163373ffffffffffffffffffffffffffffffffffffffff16146105f3576040517f08c379a00000000000000000000000000000000000000000000000000000000081526004016105ea906152d9565b60405180910390fd5b6000600b6000848152602001908152602001600020600001541161061657600080fd5b6001600b6000848152602001908152602001600020600e0160016101000a81548160ff021916908315150217905550600c8290806001815401808255809150506001900390600052602060002001600090919091909150557fbd627619b9f2a20ce2c4498f2185c68bc4236be92480ede53e43f4da545ea9c58260405161069d9190615459565b60405180910390a15050565b60606000600560003373ffffffffffffffffffffffffffffffffffffffff1673ffffffffffffffffffffffffffffffffffffffff1681526020019081526020016000208054905067ffffffffffffffff81111561072f577f4e487b7100000000000000000000000000000000000000000000000000000000600052604160045260246000fd5b60405190808252806020026020018201604052801561076857816020015b6107556141f7565b81526020019060019003908161074d5790505b50905060005b600560003373ffffffffffffffffffffffffffffffffffffffff1673ffffffffffffffffffffffffffffffffffffffff16815260200190815260200160002080549050811015610d8557600b6000600560003373ffffffffffffffffffffffffffffffffffffffff1673ffffffffffffffffffffffffffffffffffffffff1681526020019081526020016000208381548110610833577f4e487b7100000000000000000000000000000000000000000000000000000000600052603260045260246000fd5b9060005260206000200154815260200190815260200160002060405180610140016040529081600082015481526020016001820160009054906101000a900473ffffffffffffffffffffffffffffffffffffffff1673ffffffffffffffffffffffffffffffffffffffff1673ffffffffffffffffffffffffffffffffffffffff168152602001600282016040518060e00160405290816000820180546108d89061581c565b80601f01602080910402602001604051908101604052809291908181526020018280546109049061581c565b80156109515780601f1061092657610100808354040283529160200191610951565b820191906000526020600020905b81548152906001019060200180831161093457829003601f168201915b5050505050815260200160018201805461096a9061581c565b80601f01602080910402602001604051908101604052809291908181526020018280546109969061581c565b80156109e35780601f106109b8576101008083540402835291602001916109e3565b820191906000526020600020905b8154815290600101906020018083116109c657829003601f168201915b505050505081526020016002820180546109fc9061581c565b80601f0160208091040260200160405190810160405280929190818152602001828054610a289061581c565b8015610a755780601f10610a4a57610100808354040283529160200191610a75565b820191906000526020600020905b815481529060010190602001808311610a5857829003601f168201915b50505050508152602001600382018054610a8e9061581c565b80601f0160208091040260200160405190810160405280929190818152602001828054610aba9061581c565b8015610b075780601f10610adc57610100808354040283529160200191610b07565b820191906000526020600020905b815481529060010190602001808311610aea57829003601f168201915b50505050508152602001600482018054610b209061581c565b80601f0160208091040260200160405190810160405280929190818152602001828054610b4c9061581c565b8015610b995780601f10610b6e57610100808354040283529160200191610b99565b820191906000526020600020905b815481529060010190602001808311610b7c57829003601f168201915b5050505050815260200160058201548152602001600682018054610bbc9061581c565b80601f0160208091040260200160405190810160405280929190818152602001828054610be89061581c565b8015610c355780601f10610c0a57610100808354040283529160200191610c35565b820191906000526020600020905b815481529060010190602001808311610c1857829003601f168201915b505050505081525050815260200160098201548152602001600a8201548152602001600b8201548152602001600c8201548152602001600d8201805480602002602001604051908101604052809291908181526020018280548015610cef57602002820191906000526020600020905b8160009054906101000a900473ffffffffffffffffffffffffffffffffffffffff1673ffffffffffffffffffffffffffffffffffffffff1681526020019060010190808311610ca5575b50505050508152602001600e820160009054906101000a900460ff16151515158152602001600e820160019054906101000a900460ff161515151581525050828281518110610d67577f4e487b7100000000000000000000000000000000000000000000000000000000600052603260045260246000fd5b60200260200101819052508080610d7d9061584e565b91505061076e565b508091505090565b6000600160009054906101000a900473ffffffffffffffffffffffffffffffffffffffff1673ffffffffffffffffffffffffffffffffffffffff16637c04c29e336040518263ffffffff1660e01b8152600401610dea919061521f565b602060405180830381600087803b158015610e0457600080fd5b505af1158015610e18573d6000803e3d6000fd5b505050506040513d601f19601f82011682018060405250810190610e3c91906147b1565b905080610e7e576040517f08c379a0000000000000000000000000000000000000000000000000000000008152600401610e7590615439565b60405180910390fd5b600b6000838152602001908152602001600020600e0160019054906101000a900460ff16610ee1576040517f08c379a0000000000000000000000000000000000000000000000000000000008152600401610ed890615299565b60405180910390fd5b60006006600084815260200190815260200160002060003373ffffffffffffffffffffffffffffffffffffffff1673ffffffffffffffffffffffffffffffffffffffff16815260200190815260200160002054905060008111610f79576040517f08c379a0000000000000000000000000000000000000000000000000000000008152600401610f7090615339565b60405180910390fd5b60006004811115610fb3577f4e487b7100000000000000000000000000000000000000000000000000000000600052602160045260246000fd5b6002600083815260200190815260200160002060040160009054906101000a900460ff16600481111561100f577f4e487b7100000000000000000000000000000000000000000000000000000000600052602160045260246000fd5b1461104f576040517f08c379a0000000000000000000000000000000000000000000000000000000008152600401611046906153b9565b60405180910390fd5b6110cd60036000600b600087815260200190815260200160002060010160009054906101000a900473ffffffffffffffffffffffffffffffffffffffff1673ffffffffffffffffffffffffffffffffffffffff1673ffffffffffffffffffffffffffffffffffffffff16815260200190815260200160002082613f5c565b611115600460003373ffffffffffffffffffffffffffffffffffffffff1673ffffffffffffffffffffffffffffffffffffffff16815260200190815260200160002082613f5c565b6006600084815260200190815260200160002060003373ffffffffffffffffffffffffffffffffffffffff1673ffffffffffffffffffffffffffffffffffffffff16815260200190815260200160002060009055600280600083815260200190815260200160002060040160006101000a81548160ff021916908360048111156111c8577f4e487b7100000000000000000000000000000000000000000000000000000000600052602160045260246000fd5b0217905550505050565b600060026000838152602001908152602001600020600301549050919050565b60006002600083815260200190815260200160002060040160019054906101000a900460ff169050919050565b6000600160009054906101000a900473ffffffffffffffffffffffffffffffffffffffff1673ffffffffffffffffffffffffffffffffffffffff16637c04c29e336040518263ffffffff1660e01b815260040161127c919061521f565b602060405180830381600087803b15801561129657600080fd5b505af11580156112aa573d6000803e3d6000fd5b505050506040513d601f19601f820116820180604052508101906112ce91906147b1565b905080611310576040517f08c379a000000000000000000000000000000000000000000000000000000000815260040161130790615439565b60405180910390fd5b3373ffffffffffffffffffffffffffffffffffffffff166002600085815260200190815260200160002060010160009054906101000a900473ffffffffffffffffffffffffffffffffffffffff1673ffffffffffffffffffffffffffffffffffffffff16146113b4576040517f08c379a00000000000000000000000000000000000000000000000000000000081526004016113ab90615419565b60405180910390fd5b600b6000838152602001908152602001600020600e0160019054906101000a900460ff16611417576040517f08c379a000000000000000000000000000000000000000000000000000000000815260040161140e90615299565b60405180910390fd5b6000831161145a576040517f08c379a000000000000000000000000000000000000000000000000000000000815260040161145190615359565b60405180910390fd5b60016004811115611494577f4e487b7100000000000000000000000000000000000000000000000000000000600052602160045260246000fd5b6002600085815260200190815260200160002060040160009054906101000a900460ff1660048111156114f0577f4e487b7100000000000000000000000000000000000000000000000000000000600052602160045260246000fd5b14611530576040517f08c379a0000000000000000000000000000000000000000000000000000000008152600401611527906152b9565b60405180910390fd5b60016002600085815260200190815260200160002060040160016101000a81548160ff0219169083151502179055507fd6d83468051a65604726ddfd0317813b6fce5a48a9451a78e1949c219571ec6383836040516115909291906155a0565b60405180910390a1505050565b606060078054806020026020016040519081016040528092919081815260200182805480156115eb57602002820191906000526020600020905b8154815260200190600101908083116115d7575b5050505050905090565b6000600160009054906101000a900473ffffffffffffffffffffffffffffffffffffffff1673ffffffffffffffffffffffffffffffffffffffff16637c04c29e336040518263ffffffff1660e01b8152600401611652919061521f565b602060405180830381600087803b15801561166c57600080fd5b505af1158015611680573d6000803e3d6000fd5b505050506040513d601f19601f820116820180604052508101906116a491906147b1565b9050806116e6576040517f08c379a00000000000000000000000000000000000000000000000000000000081526004016116dd90615439565b60405180910390fd5b3373ffffffffffffffffffffffffffffffffffffffff166002600084815260200190815260200160002060010160009054906101000a900473ffffffffffffffffffffffffffffffffffffffff1673ffffffffffffffffffffffffffffffffffffffff161461178a576040517f08c379a000000000000000000000000000000000000000000000000000000000815260040161178190615419565b60405180910390fd5b600060048111156117c4577f4e487b7100000000000000000000000000000000000000000000000000000000600052602160045260246000fd5b6002600084815260200190815260200160002060040160009054906101000a900460ff166004811115611820577f4e487b7100000000000000000000000000000000000000000000000000000000600052602160045260246000fd5b14611860576040517f08c379a0000000000000000000000000000000000000000000000000000000008152600401611857906152f9565b60405180910390fd5b600280600084815260200190815260200160002060040160006101000a81548160ff021916908360048111156118bf577f4e487b7100000000000000000000000000000000000000000000000000000000600052602160045260246000fd5b0217905550611942600360006002600086815260200190815260200160002060010160009054906101000a900473ffffffffffffffffffffffffffffffffffffffff1673ffffffffffffffffffffffffffffffffffffffff1673ffffffffffffffffffffffffffffffffffffffff16815260200190815260200160002083613f5c565b6119c0600460006002600086815260200190815260200160002060020160009054906101000a900473ffffffffffffffffffffffffffffffffffffffff1673ffffffffffffffffffffffffffffffffffffffff1673ffffffffffffffffffffffffffffffffffffffff16815260200190815260200160002083613f5c565b600260008381526020019081526020016000206000808201600090556001820160006101000a81549073ffffffffffffffffffffffffffffffffffffffff02191690556002820160006101000a81549073ffffffffffffffffffffffffffffffffffffffff021916905560038201600090556004820160006101000a81549060ff02191690556004820160016101000a81549060ff021916905550505050565b6000600160009054906101000a900473ffffffffffffffffffffffffffffffffffffffff1673ffffffffffffffffffffffffffffffffffffffff16637c04c29e336040518263ffffffff1660e01b8152600401611abd919061521f565b602060405180830381600087803b158015611ad757600080fd5b505af1158015611aeb573d6000803e3d6000fd5b505050506040513d601f19601f82011682018060405250810190611b0f91906147b1565b905080611b51576040517f08c379a0000000000000000000000000000000000000000000000000000000008152600401611b4890615439565b60405180910390fd5b3373ffffffffffffffffffffffffffffffffffffffff166002600084815260200190815260200160002060010160009054906101000a900473ffffffffffffffffffffffffffffffffffffffff1673ffffffffffffffffffffffffffffffffffffffff1614611bf5576040517f08c379a0000000000000000000000000000000000000000000000000000000008152600401611bec90615419565b60405180910390fd5b60006004811115611c2f577f4e487b7100000000000000000000000000000000000000000000000000000000600052602160045260246000fd5b6002600084815260200190815260200160002060040160009054906101000a900460ff166004811115611c8b577f4e487b7100000000000000000000000000000000000000000000000000000000600052602160045260246000fd5b14611ccb576040517f08c379a0000000000000000000000000000000000000000000000000000000008152600401611cc2906152f9565b60405180910390fd5b60016002600084815260200190815260200160002060040160006101000a81548160ff02191690836004811115611d2b577f4e487b7100000000000000000000000000000000000000000000000000000000600052602160045260246000fd5b02179055505050565b6000600160009054906101000a900473ffffffffffffffffffffffffffffffffffffffff1673ffffffffffffffffffffffffffffffffffffffff1663e165af87336040518263ffffffff1660e01b8152600401611d91919061521f565b602060405180830381600087803b158015611dab57600080fd5b505af1158015611dbf573d6000803e3d6000fd5b505050506040513d601f19601f82011682018060405250810190611de391906147b1565b905080611e25576040517f08c379a0000000000000000000000000000000000000000000000000000000008152600401611e1c906153f9565b60405180910390fd5b60016004811115611e5f577f4e487b7100000000000000000000000000000000000000000000000000000000600052602160045260246000fd5b6002600084815260200190815260200160002060040160009054906101000a900460ff166004811115611ebb577f4e487b7100000000000000000000000000000000000000000000000000000000600052602160045260246000fd5b14611efb576040517f08c379a0000000000000000000000000000000000000000000000000000000008152600401611ef2906152b9565b60405180910390fd5b600115156002600084815260200190815260200160002060040160019054906101000a900460ff16151514611f65576040517f08c379a0000000000000000000000000000000000000000000000000000000008152600401611f5c90615399565b60405180910390fd5b6000600260008481526020019081526020016000206003015490506000600b600083815260200190815260200160002060010160009054906101000a900473ffffffffffffffffffffffffffffffffffffffff16905060006002600086815260200190815260200160002060020160009054906101000a900473ffffffffffffffffffffffffffffffffffffffff16905080600b600085815260200190815260200160002060010160006101000a81548173ffffffffffffffffffffffffffffffffffffffff021916908373ffffffffffffffffffffffffffffffffffffffff1602179055506000600b6000858152602001908152602001600020600e0160016101000a81548160ff0219169083151502179055506006600084815260200190815260200160002060008273ffffffffffffffffffffffffffffffffffffffff1673ffffffffffffffffffffffffffffffffffffffff1681526020019081526020016000206000905561214c600360006002600089815260200190815260200160002060010160009054906101000a900473ffffffffffffffffffffffffffffffffffffffff1673ffffffffffffffffffffffffffffffffffffffff1673ffffffffffffffffffffffffffffffffffffffff16815260200190815260200160002086613f5c565b6121ca600460006002600089815260200190815260200160002060020160009054906101000a900473ffffffffffffffffffffffffffffffffffffffff1673ffffffffffffffffffffffffffffffffffffffff1673ffffffffffffffffffffffffffffffffffffffff16815260200190815260200160002086613f5c565b600260008681526020019081526020016000206000808201600090556001820160006101000a81549073ffffffffffffffffffffffffffffffffffffffff02191690556002820160006101000a81549073ffffffffffffffffffffffffffffffffffffffff021916905560038201600090556004820160006101000a81549060ff02191690556004820160016101000a81549060ff021916905550507fa3b0b9020f88aba79dc7d52f5e1da8502bcea42c242b02d2144b71b2de7f049583838360405161229993929190615474565b60405180910390a15050505050565b6060600560008373ffffffffffffffffffffffffffffffffffffffff1673ffffffffffffffffffffffffffffffffffffffff16815260200190815260200160002080548060200260200160405190810160405280929190818152602001828054801561233357602002820191906000526020600020905b81548152602001906001019080831161231f575b50505050509050919050565b6000600160009054906101000a900473ffffffffffffffffffffffffffffffffffffffff1673ffffffffffffffffffffffffffffffffffffffff16637c04c29e336040518263ffffffff1660e01b815260040161239c919061521f565b602060405180830381600087803b1580156123b657600080fd5b505af11580156123ca573d6000803e3d6000fd5b505050506040513d601f19601f820116820180604052508101906123ee91906147b1565b905080612430576040517f08c379a000000000000000000000000000000000000000000000000000000000815260040161242790615439565b60405180910390fd5b600b6000838152602001908152602001600020600e0160019054906101000a900460ff16612493576040517f08c379a000000000000000000000000000000000000000000000000000000000815260040161248a90615299565b60405180910390fd5b60006006600084815260200190815260200160002060003373ffffffffffffffffffffffffffffffffffffffff1673ffffffffffffffffffffffffffffffffffffffff1681526020019081526020016000205414612526576040517f08c379a000000000000000000000000000000000000000000000000000000000815260040161251d90615319565b60405180910390fd5b600860008154809291906125399061584e565b91905055506040518060c001604052806008548152602001600b600085815260200190815260200160002060010160009054906101000a900473ffffffffffffffffffffffffffffffffffffffff1673ffffffffffffffffffffffffffffffffffffffff1681526020013373ffffffffffffffffffffffffffffffffffffffff168152602001838152602001600060048111156125ff577f4e487b7100000000000000000000000000000000000000000000000000000000600052602160045260246000fd5b8152602001600015158152506002600060085481526020019081526020016000206000820151816000015560208201518160010160006101000a81548173ffffffffffffffffffffffffffffffffffffffff021916908373ffffffffffffffffffffffffffffffffffffffff16021790555060408201518160020160006101000a81548173ffffffffffffffffffffffffffffffffffffffff021916908373ffffffffffffffffffffffffffffffffffffffff1602179055506060820151816003015560808201518160040160006101000a81548160ff02191690836004811115612713577f4e487b7100000000000000000000000000000000000000000000000000000000600052602160045260246000fd5b021790555060a08201518160040160016101000a81548160ff02191690831515021790555090505060036000600b600085815260200190815260200160002060010160009054906101000a900473ffffffffffffffffffffffffffffffffffffffff1673ffffffffffffffffffffffffffffffffffffffff1673ffffffffffffffffffffffffffffffffffffffff1681526020019081526020016000206008549080600181540180825580915050600190039060005260206000200160009091909190915055600460003373ffffffffffffffffffffffffffffffffffffffff1673ffffffffffffffffffffffffffffffffffffffff16815260200190815260200160002060085490806001815401808255809150506001900390600052602060002001600090919091909150556008546006600084815260200190815260200160002060003373ffffffffffffffffffffffffffffffffffffffff1673ffffffffffffffffffffffffffffffffffffffff168152602001908152602001600020819055507f7825bbe590a72ccf4f413305c96c01a18426a6df8b5fa22a5715f07510badaf7600854600b600085815260200190815260200160002060010160009054906101000a900473ffffffffffffffffffffffffffffffffffffffff16338560008060405161290a969594939291906154ab565b60405180910390a15050565b6060600460003373ffffffffffffffffffffffffffffffffffffffff1673ffffffffffffffffffffffffffffffffffffffff1681526020019081526020016000208054806020026020016040519081016040528092919081815260200182805480156129a157602002820191906000526020600020905b81548152602001906001019080831161298d575b5050505050905090565b80600b600082815260200190815260200160002060010160009054906101000a900473ffffffffffffffffffffffffffffffffffffffff1673ffffffffffffffffffffffffffffffffffffffff163373ffffffffffffffffffffffffffffffffffffffff1614612a50576040517f08c379a0000000000000000000000000000000000000000000000000000000008152600401612a47906152d9565b60405180910390fd5b600d8290806001815401808255809150506001900390600052602060002001600090919091909150555050565b6000600a8260000151604051612a939190615208565b90815260200160405180910390208260200151604051612ab39190615208565b90815260200160405180910390208260400151604051612ad39190615208565b90815260200160405180910390208260600151604051612af39190615208565b90815260200160405180910390208260800151604051612b139190615208565b908152602001604051809103902060008360a0015181526020019081526020016000208260c00151604051612b489190615208565b9081526020016040518091039020549050919050565b60026020528060005260406000206000915090508060000154908060010160009054906101000a900473ffffffffffffffffffffffffffffffffffffffff16908060020160009054906101000a900473ffffffffffffffffffffffffffffffffffffffff16908060030154908060040160009054906101000a900460ff16908060040160019054906101000a900460ff16905086565b60603373ffffffffffffffffffffffffffffffffffffffff16600b600084815260200190815260200160002060010160009054906101000a900473ffffffffffffffffffffffffffffffffffffffff1673ffffffffffffffffffffffffffffffffffffffff1614612c9a576040517f08c379a0000000000000000000000000000000000000000000000000000000008152600401612c9190615379565b60405180910390fd5b600360003373ffffffffffffffffffffffffffffffffffffffff1673ffffffffffffffffffffffffffffffffffffffff168152602001908152602001600020805480602002602001604051908101604052809291908181526020018280548015612d2357602002820191906000526020600020905b815481526020019060010190808311612d0f575b50505050509050919050565b6006602052816000526040600020602052806000526040600020600091509150505481565b600160009054906101000a900473ffffffffffffffffffffffffffffffffffffffff1681565b60008054906101000a900473ffffffffffffffffffffffffffffffffffffffff1681565b600080600b60008481526020019081526020016000206000015411612df8576040517f08c379a0000000000000000000000000000000000000000000000000000000008152600401612def906153d9565b60405180910390fd5b600b600083815260200190815260200160002060010160009054906101000a900473ffffffffffffffffffffffffffffffffffffffff169050919050565b600b6020528060005260406000206000915090508060000154908060010160009054906101000a900473ffffffffffffffffffffffffffffffffffffffff1690806002016040518060e0016040529081600082018054612e959061581c565b80601f0160208091040260200160405190810160405280929190818152602001828054612ec19061581c565b8015612f0e5780601f10612ee357610100808354040283529160200191612f0e565b820191906000526020600020905b815481529060010190602001808311612ef157829003601f168201915b50505050508152602001600182018054612f279061581c565b80601f0160208091040260200160405190810160405280929190818152602001828054612f539061581c565b8015612fa05780601f10612f7557610100808354040283529160200191612fa0565b820191906000526020600020905b815481529060010190602001808311612f8357829003601f168201915b50505050508152602001600282018054612fb99061581c565b80601f0160208091040260200160405190810160405280929190818152602001828054612fe59061581c565b80156130325780601f1061300757610100808354040283529160200191613032565b820191906000526020600020905b81548152906001019060200180831161301557829003601f168201915b5050505050815260200160038201805461304b9061581c565b80601f01602080910402602001604051908101604052809291908181526020018280546130779061581c565b80156130c45780601f10613099576101008083540402835291602001916130c4565b820191906000526020600020905b8154815290600101906020018083116130a757829003601f168201915b505050505081526020016004820180546130dd9061581c565b80601f01602080910402602001604051908101604052809291908181526020018280546131099061581c565b80156131565780601f1061312b57610100808354040283529160200191613156565b820191906000526020600020905b81548152906001019060200180831161313957829003601f168201915b50505050508152602001600582015481526020016006820180546131799061581c565b80601f01602080910402602001604051908101604052809291908181526020018280546131a59061581c565b80156131f25780601f106131c7576101008083540402835291602001916131f2565b820191906000526020600020905b8154815290600101906020018083116131d557829003601f168201915b5050505050815250509080600901549080600a01549080600b01549080600c01549080600e0160009054906101000a900460ff169080600e0160019054906101000a900460ff16905089565b600080600061325084604001516140f4565b91509150811561329b577faaf337ed6c27044ac7adfac9210c03e982f61dd5534d00cefa9baedc9e415028816040516132899190615459565b60405180910390a18092505050613665565b60095484600001818152505060008461010001901515908115158152505060008461012001901515908115158152505083600b600060095481526020019081526020016000206000820151816000015560208201518160010160006101000a81548173ffffffffffffffffffffffffffffffffffffffff021916908373ffffffffffffffffffffffffffffffffffffffff160217905550604082015181600201600082015181600001908051906020019061335792919061426a565b50602082015181600101908051906020019061337492919061426a565b50604082015181600201908051906020019061339192919061426a565b5060608201518160030190805190602001906133ae92919061426a565b5060808201518160040190805190602001906133cb92919061426a565b5060a0820151816005015560c08201518160060190805190602001906133f292919061426a565b50505060608201518160090155608082015181600a015560a082015181600b015560c082015181600c015560e082015181600d0190805190602001906134399291906142f0565b5061010082015181600e0160006101000a81548160ff02191690831515021790555061012082015181600e0160016101000a81548160ff021916908315150217905550905050600954600a85604001516000015160405161349a9190615208565b90815260200160405180910390208560400151602001516040516134be9190615208565b90815260200160405180910390208560400151604001516040516134e29190615208565b90815260200160405180910390208560400151606001516040516135069190615208565b908152602001604051809103902085604001516080015160405161352a9190615208565b90815260200160405180910390206000866040015160a001518152602001908152602001600020856040015160c001516040516135679190615208565b908152602001604051809103902081905550600060095490506007819080600181540180825580915050600190039060005260206000200160009091909190915055600960008154809291906135bc9061584e565b9190505550600560003373ffffffffffffffffffffffffffffffffffffffff1673ffffffffffffffffffffffffffffffffffffffff1681526020019081526020016000208190806001815401808255809150506001900390600052602060002001600090919091909150557fd6ba237a8c7a642ccbcdec4a0f3d08561b3ec6045c9f144ead69305210d11b52816040516136569190615459565b60405180910390a18093505050505b919050565b60095481565b60606000805b600c80549050811015613752573373ffffffffffffffffffffffffffffffffffffffff16600b6000600c84815481106136d8577f4e487b7100000000000000000000000000000000000000000000000000000000600052603260045260246000fd5b9060005260206000200154815260200190815260200160002060010160009054906101000a900473ffffffffffffffffffffffffffffffffffffffff1673ffffffffffffffffffffffffffffffffffffffff161461373f57818061373b9061584e565b9250505b808061374a9061584e565b915050613676565b5060008167ffffffffffffffff811115613795577f4e487b7100000000000000000000000000000000000000000000000000000000600052604160045260246000fd5b6040519080825280602002602001820160405280156137ce57816020015b6137bb6141f7565b8152602001906001900390816137b35790505b5090506000805b600c80549050811015613e2e573373ffffffffffffffffffffffffffffffffffffffff16600b6000600c8481548110613837577f4e487b7100000000000000000000000000000000000000000000000000000000600052603260045260246000fd5b9060005260206000200154815260200190815260200160002060010160009054906101000a900473ffffffffffffffffffffffffffffffffffffffff1673ffffffffffffffffffffffffffffffffffffffff1614613e1b57600b6000600c83815481106138cd577f4e487b7100000000000000000000000000000000000000000000000000000000600052603260045260246000fd5b9060005260206000200154815260200190815260200160002060405180610140016040529081600082015481526020016001820160009054906101000a900473ffffffffffffffffffffffffffffffffffffffff1673ffffffffffffffffffffffffffffffffffffffff1673ffffffffffffffffffffffffffffffffffffffff168152602001600282016040518060e00160405290816000820180546139729061581c565b80601f016020809104026020016040519081016040528092919081815260200182805461399e9061581c565b80156139eb5780601f106139c0576101008083540402835291602001916139eb565b820191906000526020600020905b8154815290600101906020018083116139ce57829003601f168201915b50505050508152602001600182018054613a049061581c565b80601f0160208091040260200160405190810160405280929190818152602001828054613a309061581c565b8015613a7d5780601f10613a5257610100808354040283529160200191613a7d565b820191906000526020600020905b815481529060010190602001808311613a6057829003601f168201915b50505050508152602001600282018054613a969061581c565b80601f0160208091040260200160405190810160405280929190818152602001828054613ac29061581c565b8015613b0f5780601f10613ae457610100808354040283529160200191613b0f565b820191906000526020600020905b815481529060010190602001808311613af257829003601f168201915b50505050508152602001600382018054613b289061581c565b80601f0160208091040260200160405190810160405280929190818152602001828054613b549061581c565b8015613ba15780601f10613b7657610100808354040283529160200191613ba1565b820191906000526020600020905b815481529060010190602001808311613b8457829003601f168201915b50505050508152602001600482018054613bba9061581c565b80601f0160208091040260200160405190810160405280929190818152602001828054613be69061581c565b8015613c335780601f10613c0857610100808354040283529160200191613c33565b820191906000526020600020905b815481529060010190602001808311613c1657829003601f168201915b5050505050815260200160058201548152602001600682018054613c569061581c565b80601f0160208091040260200160405190810160405280929190818152602001828054613c829061581c565b8015613ccf5780601f10613ca457610100808354040283529160200191613ccf565b820191906000526020600020905b815481529060010190602001808311613cb257829003601f168201915b505050505081525050815260200160098201548152602001600a8201548152602001600b8201548152602001600c8201548152602001600d8201805480602002602001604051908101604052809291908181526020018280548015613d8957602002820191906000526020600020905b8160009054906101000a900473ffffffffffffffffffffffffffffffffffffffff1673ffffffffffffffffffffffffffffffffffffffff1681526020019060010190808311613d3f575b50505050508152602001600e820160009054906101000a900460ff16151515158152602001600e820160019054906101000a900460ff161515151581525050838381518110613e01577f4e487b7100000000000000000000000000000000000000000000000000000000600052603260045260246000fd5b60200260200101819052508180613e179061584e565b9250505b8080613e269061584e565b9150506137d5565b5081935050505090565b6000600160009054906101000a900473ffffffffffffffffffffffffffffffffffffffff1673ffffffffffffffffffffffffffffffffffffffff1663e165af87336040518263ffffffff1660e01b8152600401613e95919061521f565b602060405180830381600087803b158015613eaf57600080fd5b505af1158015613ec3573d6000803e3d6000fd5b505050506040513d601f19601f82011682018060405250810190613ee791906147b1565b905080613f29576040517f08c379a0000000000000000000000000000000000000000000000000000000008152600401613f20906153f9565b60405180910390fd5b6001600b6000848152602001908152602001600020600e0160006101000a81548160ff0219169083151502179055505050565b60008280549050905060005b818110156140b75782848281548110613faa577f4e487b7100000000000000000000000000000000000000000000000000000000600052603260045260246000fd5b906000526020600020015414156140a45783600183613fc99190615739565b81548110614000577f4e487b7100000000000000000000000000000000000000000000000000000000600052603260045260246000fd5b9060005260206000200154848281548110614044577f4e487b7100000000000000000000000000000000000000000000000000000000600052603260045260246000fd5b906000526020600020018190555083805480614089577f4e487b7100000000000000000000000000000000000000000000000000000000600052603160045260246000fd5b600190038181906000526020600020016000905590556140b7565b80806140af9061584e565b915050613f68565b507f4123b8593921204d03aef906a5c03ba57573a7047a66d722874a923b6e0e4b7d826040516140e79190615459565b60405180910390a1505050565b6000806000600a846000015160405161410d9190615208565b9081526020016040518091039020846020015160405161412d9190615208565b9081526020016040518091039020846040015160405161414d9190615208565b9081526020016040518091039020846060015160405161416d9190615208565b9081526020016040518091039020846080015160405161418d9190615208565b908152602001604051809103902060008560a0015181526020019081526020016000208460c001516040516141c29190615208565b908152602001604051809103902054905060008114156141e95760008092509250506141f2565b60018192509250505b915091565b60405180610140016040528060008152602001600073ffffffffffffffffffffffffffffffffffffffff16815260200161422f61437a565b815260200160008152602001600081526020016000815260200160008152602001606081526020016000151581526020016000151581525090565b8280546142769061581c565b90600052602060002090601f01602090048101928261429857600085556142df565b82601f106142b157805160ff19168380011785556142df565b828001600101855582156142df579182015b828111156142de5782518255916020019190600101906142c3565b5b5090506142ec91906143b7565b5090565b828054828255906000526020600020908101928215614369579160200282015b828111156143685782518260006101000a81548173ffffffffffffffffffffffffffffffffffffffff021916908373ffffffffffffffffffffffffffffffffffffffff16021790555091602001919060010190614310565b5b50905061437691906143b7565b5090565b6040518060e00160405280606081526020016060815260200160608152602001606081526020016060815260200160008152602001606081525090565b5b808211156143d05760008160009055506001016143b8565b5090565b60006143e76143e2846155fa565b6155c9565b9050808382526020820190508285602086028201111561440657600080fd5b60005b85811015614436578161441c888261447e565b845260208401935060208301925050600181019050614409565b5050509392505050565b600061445361444e84615626565b6155c9565b90508281526020810184848401111561446b57600080fd5b6144768482856157da565b509392505050565b60008135905061448d81615978565b92915050565b600082601f8301126144a457600080fd5b81356144b48482602086016143d4565b91505092915050565b6000813590506144cc8161598f565b92915050565b6000815190506144e18161598f565b92915050565b600082601f8301126144f857600080fd5b8135614508848260208601614440565b91505092915050565b600060e0828403121561452357600080fd5b61452d60e06155c9565b9050600082013567ffffffffffffffff81111561454957600080fd5b614555848285016144e7565b600083015250602082013567ffffffffffffffff81111561457557600080fd5b614581848285016144e7565b602083015250604082013567ffffffffffffffff8111156145a157600080fd5b6145ad848285016144e7565b604083015250606082013567ffffffffffffffff8111156145cd57600080fd5b6145d9848285016144e7565b606083015250608082013567ffffffffffffffff8111156145f957600080fd5b614605848285016144e7565b60808301525060a061461984828501614773565b60a08301525060c082013567ffffffffffffffff81111561463957600080fd5b614645848285016144e7565b60c08301525092915050565b6000610140828403121561466457600080fd5b61466f6101406155c9565b9050600061467f84828501614773565b60008301525060206146938482850161447e565b602083015250604082013567ffffffffffffffff8111156146b357600080fd5b6146bf84828501614511565b60408301525060606146d384828501614773565b60608301525060806146e784828501614773565b60808301525060a06146fb84828501614773565b60a08301525060c061470f84828501614773565b60c08301525060e082013567ffffffffffffffff81111561472f57600080fd5b61473b84828501614493565b60e083015250610100614750848285016144bd565b61010083015250610120614766848285016144bd565b6101208301525092915050565b600081359050614782816159a6565b92915050565b60006020828403121561479a57600080fd5b60006147a88482850161447e565b91505092915050565b6000602082840312156147c357600080fd5b60006147d1848285016144d2565b91505092915050565b6000602082840312156147ec57600080fd5b600082013567ffffffffffffffff81111561480657600080fd5b61481284828501614511565b91505092915050565b60006020828403121561482d57600080fd5b600082013567ffffffffffffffff81111561484757600080fd5b61485384828501614651565b91505092915050565b60006020828403121561486e57600080fd5b600061487c84828501614773565b91505092915050565b6000806040838503121561489857600080fd5b60006148a685828601614773565b92505060206148b78582860161447e565b9150509250929050565b600080604083850312156148d457600080fd5b60006148e285828601614773565b92505060206148f385828601614773565b9150509250929050565b60006149098383614941565b60208301905092915050565b60006149218383615109565b905092915050565b600061493583836151ea565b60208301905092915050565b61494a8161576d565b82525050565b6149598161576d565b82525050565b600061496a82615686565b61497481856156d9565b935061497f83615656565b8060005b838110156149b057815161499788826148fd565b97506149a2836156b2565b925050600181019050614983565b5085935050505092915050565b60006149c882615691565b6149d281856156ea565b9350836020820285016149e485615666565b8060005b85811015614a205784840389528151614a018582614915565b9450614a0c836156bf565b925060208a019950506001810190506149e8565b50829750879550505050505092915050565b6000614a3d8261569c565b614a4781856156fb565b9350614a5283615676565b8060005b83811015614a83578151614a6a8882614929565b9750614a75836156cc565b925050600181019050614a56565b5085935050505092915050565b614a998161577f565b82525050565b614aa88161577f565b82525050565b614ab7816157c8565b82525050565b6000614ac8826156a7565b614ad2818561570c565b9350614ae28185602086016157e9565b614aeb81615953565b840191505092915050565b6000614b01826156a7565b614b0b818561572e565b9350614b1b8185602086016157e9565b80840191505092915050565b6000614b3460148361571d565b91507f4c616e64206973206e6f7420666f722073616c650000000000000000000000006000830152602082019050919050565b6000614b7460148361571d565b91507f52657175657374206e6f742061636365707465640000000000000000000000006000830152602082019050919050565b6000614bb460268361571d565b91507f4f6e6c79206f776e65722063616e20706572666f726d2074686973206f70657260008301527f6174696f6e2e00000000000000000000000000000000000000000000000000006020830152604082019050919050565b6000614c1a60168361571d565b91507f496e76616c6964207265717565737420737461747573000000000000000000006000830152602082019050919050565b6000614c5a601f8361571d565b91507f416c72656164792072657175657374656420666f722074686973206c616e64006000830152602082019050919050565b6000614c9a60288361571d565b91507f4e6f207265717565737420666f756e6420666f722074686973206c616e64206160008301527f6e642062757965720000000000000000000000000000000000000000000000006020830152604082019050919050565b6000614d0060118361571d565b91507f496e76616c6964207265717565737449640000000000000000000000000000006000830152602082019050919050565b6000614d4060228361571d565b91507f596f7520617265206e6f7420746865206f776e6572206f662074686973206c6160008301527f6e640000000000000000000000000000000000000000000000000000000000006020830152604082019050919050565b6000614da660148361571d565b91507f5061796d656e74206973206e6f742061646f6e650000000000000000000000006000830152602082019050919050565b6000614de660338361571d565b91507f43616e6e6f742063616e63656c2e2052657175657374206973206e6f7420696e60008301527f20277265717565737465642720737461747573000000000000000000000000006020830152604082019050919050565b6000614e4c600e8361571d565b91507f4c616e64206e6f7420666f756e640000000000000000000000000000000000006000830152602082019050919050565b6000614e8c60278361571d565b91507f4f6e6c7920696e73706563746f722063616e20706572666f726d20746869732060008301527f616374696f6e2e000000000000000000000000000000000000000000000000006020830152604082019050919050565b6000614ef2601b8361571d565b91507f4e6f74207468652073656c6c6572206f662074686973206c616e6400000000006000830152602082019050919050565b6000614f32602d8361571d565b91507f4f6e6c79207265676973746572656420757365722063616e20706572666f726d60008301527f207468697320616374696f6e2e000000000000000000000000000000000000006020830152604082019050919050565b600060e0830160008301518482036000860152614fa88282614abd565b91505060208301518482036020860152614fc28282614abd565b91505060408301518482036040860152614fdc8282614abd565b91505060608301518482036060860152614ff68282614abd565b915050608083015184820360808601526150108282614abd565b91505060a083015161502560a08601826151ea565b5060c083015184820360c086015261503d8282614abd565b9150508091505092915050565b600060e08301600083015184820360008601526150678282614abd565b915050602083015184820360208601526150818282614abd565b9150506040830151848203604086015261509b8282614abd565b915050606083015184820360608601526150b58282614abd565b915050608083015184820360808601526150cf8282614abd565b91505060a08301516150e460a08601826151ea565b5060c083015184820360c08601526150fc8282614abd565b9150508091505092915050565b60006101408301600083015161512260008601826151ea565b5060208301516151356020860182614941565b506040830151848203604086015261514d8282614f8b565b915050606083015161516260608601826151ea565b50608083015161517560808601826151ea565b5060a083015161518860a08601826151ea565b5060c083015161519b60c08601826151ea565b5060e083015184820360e08601526151b3828261495f565b9150506101008301516151ca610100860182614a90565b506101208301516151df610120860182614a90565b508091505092915050565b6151f3816157be565b82525050565b615202816157be565b82525050565b60006152148284614af6565b915081905092915050565b60006020820190506152346000830184614950565b92915050565b6000602082019050818103600083015261525481846149bd565b905092915050565b600060208201905081810360008301526152768184614a32565b905092915050565b60006020820190506152936000830184614a9f565b92915050565b600060208201905081810360008301526152b281614b27565b9050919050565b600060208201905081810360008301526152d281614b67565b9050919050565b600060208201905081810360008301526152f281614ba7565b9050919050565b6000602082019050818103600083015261531281614c0d565b9050919050565b6000602082019050818103600083015261533281614c4d565b9050919050565b6000602082019050818103600083015261535281614c8d565b9050919050565b6000602082019050818103600083015261537281614cf3565b9050919050565b6000602082019050818103600083015261539281614d33565b9050919050565b600060208201905081810360008301526153b281614d99565b9050919050565b600060208201905081810360008301526153d281614dd9565b9050919050565b600060208201905081810360008301526153f281614e3f565b9050919050565b6000602082019050818103600083015261541281614e7f565b9050919050565b6000602082019050818103600083015261543281614ee5565b9050919050565b6000602082019050818103600083015261545281614f25565b9050919050565b600060208201905061546e60008301846151f9565b92915050565b600060608201905061548960008301866151f9565b6154966020830185614950565b6154a36040830184614950565b949350505050565b600060c0820190506154c060008301896151f9565b6154cd6020830188614950565b6154da6040830187614950565b6154e760608301866151f9565b6154f46080830185614aae565b61550160a0830184614a9f565b979650505050505050565b600061012082019050615522600083018c6151f9565b61552f602083018b614950565b8181036040830152615541818a61504a565b905061555060608301896151f9565b61555d60808301886151f9565b61556a60a08301876151f9565b61557760c08301866151f9565b61558460e0830185614a9f565b615592610100830184614a9f565b9a9950505050505050505050565b60006040820190506155b560008301856151f9565b6155c260208301846151f9565b9392505050565b6000604051905081810181811067ffffffffffffffff821117156155f0576155ef615924565b5b8060405250919050565b600067ffffffffffffffff82111561561557615614615924565b5b602082029050602081019050919050565b600067ffffffffffffffff82111561564157615640615924565b5b601f19601f8301169050602081019050919050565b6000819050602082019050919050565b6000819050602082019050919050565b6000819050602082019050919050565b600081519050919050565b600081519050919050565b600081519050919050565b600081519050919050565b6000602082019050919050565b6000602082019050919050565b6000602082019050919050565b600082825260208201905092915050565b600082825260208201905092915050565b600082825260208201905092915050565b600082825260208201905092915050565b600082825260208201905092915050565b600081905092915050565b6000615744826157be565b915061574f836157be565b92508282101561576257615761615897565b5b828203905092915050565b60006157788261579e565b9050919050565b60008115159050919050565b600081905061579982615964565b919050565b600073ffffffffffffffffffffffffffffffffffffffff82169050919050565b6000819050919050565b60006157d38261578b565b9050919050565b82818337600083830152505050565b60005b838110156158075780820151818401526020810190506157ec565b83811115615816576000848401525b50505050565b6000600282049050600182168061583457607f821691505b60208210811415615848576158476158f5565b5b50919050565b6000615859826157be565b91507fffffffffffffffffffffffffffffffffffffffffffffffffffffffffffffffff82141561588c5761588b615897565b5b600182019050919050565b7f4e487b7100000000000000000000000000000000000000000000000000000000600052601160045260246000fd5b7f4e487b7100000000000000000000000000000000000000000000000000000000600052602160045260246000fd5b7f4e487b7100000000000000000000000000000000000000000000000000000000600052602260045260246000fd5b7f4e487b7100000000000000000000000000000000000000000000000000000000600052604160045260246000fd5b6000601f19601f8301169050919050565b60058110615975576159746158c6565b5b50565b6159818161576d565b811461598c57600080fd5b50565b6159988161577f565b81146159a357600080fd5b50565b6159af816157be565b81146159ba57600080fd5b5056fea2646970667358221220859aa1ccf481d7e48293d0cbf6fead6e0cb1df0da27084807eedbbacae82b74b64736f6c63430008000033",
  "immutableReferences": {},
  "source": "// SPDX-License-Identifier: UNLICENSED\r\n\r\npragma solidity ^0.8.0;\r\n\r\nimport \"./registerAccount-contract.sol\";\r\n\r\ninterface IAccountRegistration {\r\n    function checkUserVerified(address _account) external returns (bool);\r\n    function isLandInspector(address _account) external returns (bool);\r\n}\r\n\r\ncontract LandRegistration {\r\n\r\n    //Address which deployed this smart contract\r\n    address public deployer;\r\n    //AccountRegistration Contract\r\n    address public accountRegistrationContract;\r\n\r\n    constructor(address _accountRegistrationContract) {\r\n        deployer = msg.sender;\r\n        accountRegistrationContract = _accountRegistrationContract;\r\n    }\r\n\r\n    struct LandIdentifier {\r\n        /*\r\n            Fields needed to identify the piece of land\r\n            A state has divisions.\r\n            Each division has districts.\r\n            Each district has talukas.\r\n            Each taluka has villages.\r\n            A land parcel under this hierarchy is identified using\r\n            a survey number.\r\n            Shall this land be divided at a later point, its sub-divisions\r\n            are represented using a sub-division number.\r\n            All divisions in Maharashtra can be found in the link below:\r\n            http://www.landsofmaharashtra.com/divisionsofmaharashtra.html \r\n        */\r\n        string state;\r\n        string division;\r\n        string district;\r\n        string taluka;\r\n        string village;\r\n        uint surveyNumber;\r\n        string subdivision;\r\n    }\r\n\r\n    struct LandRecord {\r\n        uint landId;\r\n        //Address of the account(person) that owns this piece of land\r\n        /* \r\n            Note: There can be multiple owners of a single piece of land.\r\n            This is being ignored for now.\r\n        */\r\n        address owner;\r\n\r\n        LandIdentifier identifier;\r\n\r\n        uint area;\r\n\r\n        //Represented as UNIX Time\r\n        uint purchaseDate;\r\n        //Price at which the land was purchased.\r\n        uint purchasePrice;\r\n        //Estimated value of land at the time of purchase\r\n        uint landValueAtPurchase;\r\n\r\n        //A list of the previous owners of this piece of land. \r\n        address[] previousOwners;\r\n\r\n        /*\r\n            If a piece of land is entering the system for the first time,\r\n            it must be verified by an inspector.\r\n        */\r\n        bool isVerified;\r\n        bool isForSale;\r\n    }\r\n\r\n    //Event to be emitted after adding a land record\r\n    event LandRecordAdded(uint landId);\r\n    //Event to be emitted if the land record already exists\r\n    event LandRecordExists(uint landId);\r\n    //Event to be emitted when land is listed for sale\r\n    event LandListedForSale(uint landId);\r\n\r\n    event LandRequests(uint requestId, address landOwner, address buyer, uint landId, reqStatus status, bool someFlag);\r\n    event LandRequestCancelled(uint requestId);\r\n    event PaymentMarkedAsDone(uint requestId, uint landId);\r\n    event LandOwnershipTransferred(uint landId, address oldOwner, address newOwner);\r\n\r\n//A structure that represents the Land requests made by buyer to seller along with the status of the request\r\n     struct LandRequest {\r\n        uint reqId;\r\n        address sellerId;\r\n        address buyerId;\r\n        uint landId;\r\n        reqStatus requestStatus;\r\n        bool isPaymentDone;\r\n    }\r\n\r\n    //An enumeration that shows different stages of the request\r\n    enum reqStatus {requested,accepted,rejected,paymentdone,completed}\r\n\r\n\r\n//Mapping to different lists and LandRequest\r\n    mapping(uint => LandRequest) public LandRequestMapping;\r\n    mapping(address => uint[])  MyReceivedLandRequests;\r\n    mapping(address => uint[])  MySentLandRequests;\r\n    mapping(address => uint[])  MyLands;\r\n\r\n// A mapping between land ID, buyer address, and request ID\r\n    mapping(uint => mapping(address => uint)) public landToBuyerToRequest;\r\n    \r\n    //List containing all the lands that are added\r\n    uint[] allLandList;\r\n\r\n    \r\n\r\n    uint256 requestCount;\r\n\r\n\r\n    uint public landRecordsCount = 1;\r\n\r\n    modifier onlyOwner(uint _landId) {\r\n        require(\r\n            msg.sender == landMapping[_landId].owner,\r\n            \"Only owner can perform this operation.\"\r\n        );\r\n        _;\r\n    }\r\n\r\n    modifier onlylInspector() {\r\n        //Call the isInspector function from the accountRegistration contract\r\n        bool isInspector = IAccountRegistration(\r\n            accountRegistrationContract\r\n        ).isLandInspector(msg.sender);\r\n\r\n        require(isInspector, \"Only inspector can perform this action.\");\r\n        _;\r\n    }\r\n\r\n    modifier onlyRegisteredUser() {\r\n        //Call the isVerified function from the accountRegistration contract\r\n        bool isRegisteredUser = IAccountRegistration(\r\n            accountRegistrationContract\r\n        ).checkUserVerified(msg.sender);\r\n\r\n        require(isRegisteredUser, \"Only registered user can perform this action.\");\r\n        _;\r\n    }\r\n\r\n    modifier onlyVerifiedLand(uint _landId) {\r\n        require(\r\n            landMapping[_landId].isVerified == true,\r\n            \"Only verified lands can be put up for sale.\"\r\n        );\r\n        _;\r\n    }\r\n\r\n    /*\r\n        Mapping of land records by hierarchy. Mapping is as follows:\r\n        state => {\r\n            division => {\r\n                district => {\r\n                    taluka => {\r\n                        village => {\r\n                            survery number => {\r\n                                subdivision => id\r\n                            }\r\n                        }\r\n                    }\r\n                }\r\n            }\r\n        }\r\n        This mapping will be useful for efficient retrieval of land id.\r\n     */\r\n    \r\n    mapping(\r\n        string => mapping(\r\n            string => mapping(\r\n                string => mapping(\r\n                    string => mapping(\r\n                        string => mapping(\r\n                            uint => mapping(\r\n                                string => uint\r\n                            )\r\n                        )\r\n                    )\r\n                )\r\n            )\r\n        )\r\n    )landMapToId;\r\n\r\n    //Mapping of land ids to land records.\r\n    mapping(uint => LandRecord) public landMapping;\r\n\r\n    //A list of land ids which have been marked for sale\r\n    uint[] landsForSale;\r\n\r\n    //A list of lands which are to be verified by an inspector\r\n    uint[] verificationRequired;\r\n\r\n    //Function to submit a land verification request\r\n    function landVerificationRequest(uint _landId) public onlyOwner(_landId) {\r\n        verificationRequired.push(_landId);\r\n    }\r\n\r\n    function landRecordExists(LandIdentifier memory _record) \r\n                                private view returns (bool, uint) {\r\n        uint landId = landMapToId[_record.state][_record.division]\r\n                                [_record.district][_record.taluka]\r\n                                [_record.village][_record.surveyNumber][_record.subdivision];\r\n        if (landId == 0) {\r\n            return (false, 0);\r\n        }\r\n        return (true, landId);\r\n    }\r\n\r\n    //This function is used to add a land record\r\n    function addLandRecord  (LandRecord memory _record) public \r\n                             returns (uint) {\r\n\r\n        (bool recordExists, uint landId) = landRecordExists(_record.identifier);\r\n\r\n        //If land record already exists, return the land id\r\n        if (recordExists) {\r\n            emit LandRecordExists(landId);\r\n            return landId;\r\n        }\r\n\r\n        _record.landId = landRecordsCount;\r\n        _record.isVerified = false;\r\n        _record.isForSale = false;\r\n        //If the land record doesn't already exist, add it to the mapping\r\n        //and return land id\r\n        landMapping[landRecordsCount] = _record;\r\n\r\n        //Also add it to the landMapToId mapping\r\n        landMapToId[_record.identifier.state][_record.identifier.division]\r\n        [_record.identifier.district][_record.identifier.taluka]\r\n        [_record.identifier.village][_record.identifier.surveyNumber]\r\n        [_record.identifier.subdivision] = landRecordsCount;\r\n\r\n        uint addedLandId = landRecordsCount;\r\n        allLandList.push(addedLandId);\r\n        landRecordsCount++;\r\n\r\n        //Add to the accounts list of lands\r\n        MyLands[msg.sender].push(addedLandId);\r\n        emit LandRecordAdded(addedLandId);\r\n        return addedLandId;\r\n    }\r\n\r\n    //Get land id\r\n    function getLandId(LandIdentifier memory _identifier) public view returns (uint){\r\n        return landMapToId[_identifier.state][_identifier.division]\r\n        [_identifier.district][_identifier.taluka][_identifier.village]\r\n        [_identifier.surveyNumber][_identifier.subdivision];\r\n    }\r\n\r\n    //Function to approve a land verification request\r\n    function verifyLand(uint _landId) public onlylInspector {\r\n        landMapping[_landId].isVerified = true;\r\n    }\r\n\r\n    //List land for sale\r\n    function listLandForSale(uint _landId) public onlyOwner(_landId) {\r\n        //Check if land actually exists\r\n        //Mapping in solidity always exists and maps to a zero value\r\n        //Hence, this check is needed.\r\n        require(landMapping[_landId].landId > 0);\r\n\r\n        //Mark the land for Sale\r\n        landMapping[_landId].isForSale = true;\r\n\r\n        //Add the land to the landsForSale list\r\n        landsForSale.push(_landId);\r\n\r\n        emit LandListedForSale(_landId);\r\n    }\r\n\r\n // Function where a buyer can request and show interest in buying a land\r\n    function requestForBuy(uint _landId) public onlyRegisteredUser {\r\n        require(landMapping[_landId].isForSale, \"Land is not for sale\");\r\n\r\n        // Check if the buyer has not already requested for this land\r\n        require(landToBuyerToRequest[_landId][msg.sender] == 0, \"Already requested for this land\");\r\n\r\n        requestCount++;\r\n        LandRequestMapping[requestCount] = LandRequest(requestCount, landMapping[_landId].owner, msg.sender, _landId, reqStatus.requested, false);\r\n        MyReceivedLandRequests[landMapping[_landId].owner].push(requestCount);\r\n        MySentLandRequests[msg.sender].push(requestCount);\r\n\r\n        // Update the mapping between land ID, buyer address, and request ID\r\n        landToBuyerToRequest[_landId][msg.sender] = requestCount;\r\n\r\n        // Emit the LandRequest event\r\n        emit LandRequests(requestCount, landMapping[_landId].owner, msg.sender, _landId, reqStatus.requested, false);\r\n    }\r\n\r\n    // Function to cancel a buyer's request for a land\r\nfunction cancelBuyerRequest(uint _landId) public onlyRegisteredUser {\r\n    require(landMapping[_landId].isForSale, \"Land is not for sale\");\r\n\r\n    // Check if the buyer has requested for this land\r\n    uint requestId = landToBuyerToRequest[_landId][msg.sender];\r\n    require(requestId > 0, \"No request found for this land and buyer\");\r\n\r\n    // Check if the request is still in the 'requested' status\r\n    require(LandRequestMapping[requestId].requestStatus == reqStatus.requested, \"Cannot cancel. Request is not in 'requested' status\");\r\n\r\n    // Remove the request from MyReceivedLandRequests and MySentLandRequests lists\r\n    removeRequestFromList(MyReceivedLandRequests[landMapping[_landId].owner], requestId);\r\n    removeRequestFromList(MySentLandRequests[msg.sender], requestId);\r\n\r\n    // Update the mapping between land ID, buyer address, and request ID\r\n    delete landToBuyerToRequest[_landId][msg.sender];\r\n\r\n    // Update the request status to 'rejected' (canceled by the buyer)\r\n    LandRequestMapping[requestId].requestStatus = reqStatus.rejected;\r\n}\r\n\r\n// Internal function to remove a request ID from a list\r\nfunction removeRequestFromList(uint[] storage requestList, uint requestId) internal {\r\n    uint len = requestList.length;\r\n    for (uint i = 0; i < len; i++) {\r\n        if (requestList[i] == requestId) {\r\n            requestList[i] = requestList[len - 1];\r\n            requestList.pop();\r\n            break;\r\n        }\r\n    }\r\n\r\n    // Emit the LandRequestCancelled event\r\n        emit LandRequestCancelled(requestId);\r\n}\r\n\r\n// Function that will return a list of received land requests buyers interested for a particular land\r\nfunction receivedLandRequests(uint _landId) public view returns (uint[] memory) {\r\n    require(landMapping[_landId].owner == msg.sender, \"You are not the owner of this land\");\r\n    \r\n    return MyReceivedLandRequests[msg.sender];\r\n}\r\n//Function that will return a list of buyers interested for a particular land and have sent requests\r\nfunction sentLandRequests() public view returns(uint[] memory)\r\n{\r\n    return MySentLandRequests[msg.sender];\r\n}\r\n\r\n// Add a new function to get land ID for a given request ID\r\nfunction getLandIdForRequest(uint _requestId) public view returns (uint) {\r\n    return LandRequestMapping[_requestId].landId;\r\n}\r\n\r\n// Function where seller accepts the request of the buyer\r\n    function acceptRequest(uint _requestId) public onlyRegisteredUser {\r\n        require(LandRequestMapping[_requestId].sellerId == msg.sender, \"Not the seller of this land\");\r\n        require(LandRequestMapping[_requestId].requestStatus == reqStatus.requested, \"Invalid request status\");\r\n\r\n        // Update the request status\r\n        LandRequestMapping[_requestId].requestStatus = reqStatus.accepted;\r\n\r\n        \r\n   \r\n    }\r\n\r\n//Function where seller rejects the request of the buyer\r\n    function rejectRequest(uint _requestId) public onlyRegisteredUser\r\n    {\r\n        require(LandRequestMapping[_requestId].sellerId == msg.sender, \"Not the seller of this land\");\r\n        require(LandRequestMapping[_requestId].requestStatus == reqStatus.requested, \"Invalid request status\");\r\n\r\n        LandRequestMapping[_requestId].requestStatus=reqStatus.rejected;\r\n\r\n\r\n    // Remove the request from MyReceivedLandRequests and MySentLandRequests lists\r\n    removeRequestFromList(MyReceivedLandRequests[LandRequestMapping[_requestId].sellerId ], _requestId);\r\n    removeRequestFromList(MySentLandRequests[LandRequestMapping[_requestId].buyerId], _requestId);\r\n\r\n     // Delete the request entry\r\n        delete LandRequestMapping[_requestId];\r\n    }\r\n\r\n//Function to mark payment as done\r\nfunction markPaymentAsDone(uint _requestId, uint _landId) public onlyRegisteredUser {\r\n    require(LandRequestMapping[_requestId].sellerId == msg.sender, \"Not the seller of this land\");\r\n    require(landMapping[_landId].isForSale, \"Land is not for sale\");\r\n\r\n    // Ensure the provided requestId is valid\r\n    require(_requestId > 0, \"Invalid requestId\");\r\n\r\n    // Ensure the request is in the 'accepted' status\r\n    require(LandRequestMapping[_requestId].requestStatus == reqStatus.accepted, \"Request not accepted\");\r\n\r\n    // Mark payment as done\r\n    LandRequestMapping[_requestId].isPaymentDone = true;\r\n\r\n    // Emit the PaymentMarkedAsDone event\r\n    emit PaymentMarkedAsDone(_requestId, _landId);\r\n}\r\n//Function to check the status of payment\r\n    function requestStatus(uint requestId) public view returns(bool)\r\n    {\r\n        return LandRequestMapping[requestId].isPaymentDone;\r\n    }\r\n\r\n// Function to get the owner's address for a given land ID\r\nfunction getOwnerAddress(uint _landId) public view returns (address) {\r\n    require(landMapping[_landId].landId > 0, \"Land not found\");\r\n    return landMapping[_landId].owner;\r\n}\r\n\r\n\r\n// Function to transfer land ownership\r\nfunction transferLandOwnership(uint _requestId) public onlylInspector {\r\n    require(LandRequestMapping[_requestId].requestStatus == reqStatus.accepted, \"Request not accepted\");\r\n    require(LandRequestMapping[_requestId].isPaymentDone == true, \"Payment is not adone\");\r\n    \r\n    uint landId = LandRequestMapping[_requestId].landId;\r\n    address oldOwner = landMapping[landId].owner;\r\n    address newOwner = LandRequestMapping[_requestId].buyerId;\r\n\r\n    // Update the owner of the land\r\n    landMapping[landId].owner = newOwner;\r\n\r\n    // Remove the land from landsForSale list\r\n    landMapping[landId].isForSale = false;\r\n\r\n    // Remove the mapping when the land ownership is transferred\r\n        delete landToBuyerToRequest[landId][newOwner];\r\n\r\n    // Remove the request from MyReceivedLandRequests and MySentLandRequests lists\r\n    removeRequestFromList(MyReceivedLandRequests[LandRequestMapping[_requestId].sellerId ], _requestId);\r\n    removeRequestFromList(MySentLandRequests[LandRequestMapping[_requestId].buyerId], _requestId);\r\n\r\n      // Delete the request entry\r\n    delete LandRequestMapping[_requestId];\r\n\r\n\r\n    // Emit the LandOwnershipTransferred event\r\n    emit LandOwnershipTransferred(landId, oldOwner, newOwner);\r\n}\r\n\r\n\r\n    //Get all land ids which have been listed for sale\r\n    //except the lands listed for sale by the caller\r\n    function getLandsForSale() public view returns (LandRecord[] memory) {\r\n        uint count = 0;\r\n        for(uint i = 0; i < landsForSale.length; i++) {\r\n            if(landMapping[landsForSale[i]].owner != msg.sender) {\r\n                count++;\r\n            }\r\n        }\r\n\r\n        LandRecord[] memory result = new LandRecord[](count);\r\n\r\n        uint resultIndex = 0;\r\n\r\n        for(uint i = 0; i < landsForSale.length; i++) {\r\n            if(landMapping[landsForSale[i]].owner != msg.sender) {\r\n                result[resultIndex] = landMapping[landsForSale[i]];\r\n                resultIndex++;\r\n            }\r\n        }\r\n        return result;\r\n    }\r\n\r\n//Function to view the list of lands of a particular owner\r\n    function myLandsList(address owner) public view returns( uint[] memory){\r\n        return MyLands[owner];\r\n    }\r\n\r\n    function getMyLands() public view returns(LandRecord[] memory) {\r\n        LandRecord[] memory result = new LandRecord[](MyLands[msg.sender].length);\r\n\r\n        for(uint i = 0; i < MyLands[msg.sender].length; i++) {\r\n            result[i] = landMapping[MyLands[msg.sender][i]];\r\n        }\r\n        return result;\r\n    }\r\n\r\n//Function that returns a list of all lands\r\n    function ReturnAllLandList() public view returns(uint[] memory)\r\n    {\r\n        return allLandList;\r\n    }\r\n}\r\n\r\n\r\n",
  "sourcePath": "E:\\Mohit\\7th_sem\\FYP\\Decentralizsed-Land-Registration\\contracts\\land-contract.sol",
  "compiler": {
    "name": "solc",
    "version": "0.8.0+commit.c7dfd78e.Emscripten.clang"
  },
  "schemaVersion": "3.4.16",
  "updatedAt": "2024-01-19T16:19:37.891Z",
  "networkType": "ethereum",
  "devdoc": {
    "kind": "dev",
    "methods": {},
    "version": 1
  },
  "userdoc": {
    "kind": "user",
    "methods": {},
    "version": 1
  }
}