{
  "contractName": "LandRegistration",
  "abi": [
    {
      "inputs": [
        {
          "internalType": "address",
          "name": "_accountRegistrationContract",
          "type": "address"
        }
      ],
      "stateMutability": "nonpayable",
      "type": "constructor"
    },
    {
      "anonymous": false,
      "inputs": [
        {
          "indexed": false,
          "internalType": "uint256",
          "name": "requestId",
          "type": "uint256"
        },
        {
          "indexed": false,
          "internalType": "address",
          "name": "seller",
          "type": "address"
        },
        {
          "indexed": false,
          "internalType": "address",
          "name": "buyer",
          "type": "address"
        },
        {
          "indexed": false,
          "internalType": "uint256",
          "name": "landId",
          "type": "uint256"
        }
      ],
      "name": "BuyerRequestCancelled",
      "type": "event"
    },
    {
      "anonymous": false,
      "inputs": [
        {
          "indexed": false,
          "internalType": "uint256",
          "name": "requestId",
          "type": "uint256"
        },
        {
          "indexed": false,
          "internalType": "address",
          "name": "seller",
          "type": "address"
        },
        {
          "indexed": false,
          "internalType": "address",
          "name": "buyer",
          "type": "address"
        }
      ],
      "name": "DuplicateAcceptanceAttempt",
      "type": "event"
    },
    {
      "anonymous": false,
      "inputs": [
        {
          "indexed": false,
          "internalType": "address",
          "name": "buyer",
          "type": "address"
        },
        {
          "indexed": false,
          "internalType": "uint256",
          "name": "landId",
          "type": "uint256"
        }
      ],
      "name": "DuplicateCancellationAttempt",
      "type": "event"
    },
    {
      "anonymous": false,
      "inputs": [
        {
          "indexed": false,
          "internalType": "uint256",
          "name": "landId",
          "type": "uint256"
        },
        {
          "indexed": false,
          "internalType": "address",
          "name": "buyer",
          "type": "address"
        }
      ],
      "name": "DuplicateLandRequest",
      "type": "event"
    },
    {
      "anonymous": false,
      "inputs": [
        {
          "indexed": false,
          "internalType": "uint256",
          "name": "landId",
          "type": "uint256"
        }
      ],
      "name": "LandAlreadyVerified",
      "type": "event"
    },
    {
      "anonymous": false,
      "inputs": [
        {
          "indexed": false,
          "internalType": "uint256",
          "name": "landId",
          "type": "uint256"
        }
      ],
      "name": "LandListedForSale",
      "type": "event"
    },
    {
      "anonymous": false,
      "inputs": [
        {
          "indexed": false,
          "internalType": "uint256",
          "name": "landId",
          "type": "uint256"
        },
        {
          "indexed": false,
          "internalType": "address",
          "name": "oldOwner",
          "type": "address"
        },
        {
          "indexed": false,
          "internalType": "address",
          "name": "newOwner",
          "type": "address"
        }
      ],
      "name": "LandOwnershipTransferred",
      "type": "event"
    },
    {
      "anonymous": false,
      "inputs": [
        {
          "indexed": false,
          "internalType": "uint256",
          "name": "landId",
          "type": "uint256"
        }
      ],
      "name": "LandRecordAdded",
      "type": "event"
    },
    {
      "anonymous": false,
      "inputs": [
        {
          "indexed": false,
          "internalType": "uint256",
          "name": "landId",
          "type": "uint256"
        }
      ],
      "name": "LandRecordExists",
      "type": "event"
    },
    {
      "anonymous": false,
      "inputs": [
        {
          "indexed": false,
          "internalType": "uint256",
          "name": "requestId",
          "type": "uint256"
        }
      ],
      "name": "LandRequestCancelled",
      "type": "event"
    },
    {
      "anonymous": false,
      "inputs": [
        {
          "indexed": false,
          "internalType": "uint256",
          "name": "requestId",
          "type": "uint256"
        },
        {
          "indexed": false,
          "internalType": "address",
          "name": "landOwner",
          "type": "address"
        },
        {
          "indexed": false,
          "internalType": "address",
          "name": "buyer",
          "type": "address"
        },
        {
          "indexed": false,
          "internalType": "uint256",
          "name": "landId",
          "type": "uint256"
        },
        {
          "indexed": false,
          "internalType": "enum LandRegistration.reqStatus",
          "name": "status",
          "type": "uint8"
        },
        {
          "indexed": false,
          "internalType": "bool",
          "name": "someFlag",
          "type": "bool"
        }
      ],
      "name": "LandRequests",
      "type": "event"
    },
    {
      "anonymous": false,
      "inputs": [
        {
          "indexed": false,
          "internalType": "uint256",
          "name": "landId",
          "type": "uint256"
        }
      ],
      "name": "LandVerificationRequestExists",
      "type": "event"
    },
    {
      "anonymous": false,
      "inputs": [
        {
          "indexed": false,
          "internalType": "uint256",
          "name": "landId",
          "type": "uint256"
        }
      ],
      "name": "LandVerificationRequestSubmitted",
      "type": "event"
    },
    {
      "anonymous": false,
      "inputs": [
        {
          "indexed": false,
          "internalType": "uint256",
          "name": "landId",
          "type": "uint256"
        }
      ],
      "name": "LandVerified",
      "type": "event"
    },
    {
      "anonymous": false,
      "inputs": [
        {
          "indexed": false,
          "internalType": "uint256",
          "name": "requestId",
          "type": "uint256"
        },
        {
          "indexed": false,
          "internalType": "uint256",
          "name": "landId",
          "type": "uint256"
        }
      ],
      "name": "PaymentMarkedAsDone",
      "type": "event"
    },
    {
      "anonymous": false,
      "inputs": [
        {
          "indexed": true,
          "internalType": "uint256",
          "name": "requestId",
          "type": "uint256"
        },
        {
          "indexed": true,
          "internalType": "uint256",
          "name": "landId",
          "type": "uint256"
        },
        {
          "indexed": true,
          "internalType": "address",
          "name": "seller",
          "type": "address"
        },
        {
          "indexed": false,
          "internalType": "address",
          "name": "buyer",
          "type": "address"
        }
      ],
      "name": "PendingTransferRequest",
      "type": "event"
    },
    {
      "anonymous": false,
      "inputs": [
        {
          "indexed": true,
          "internalType": "uint256",
          "name": "requestId",
          "type": "uint256"
        },
        {
          "indexed": true,
          "internalType": "address",
          "name": "seller",
          "type": "address"
        },
        {
          "indexed": true,
          "internalType": "address",
          "name": "buyer",
          "type": "address"
        }
      ],
      "name": "RequestAccepted",
      "type": "event"
    },
    {
      "anonymous": false,
      "inputs": [
        {
          "indexed": true,
          "internalType": "uint256",
          "name": "requestId",
          "type": "uint256"
        },
        {
          "indexed": true,
          "internalType": "address",
          "name": "seller",
          "type": "address"
        },
        {
          "indexed": true,
          "internalType": "address",
          "name": "buyer",
          "type": "address"
        }
      ],
      "name": "RequestRejected",
      "type": "event"
    },
    {
      "inputs": [
        {
          "internalType": "uint256",
          "name": "",
          "type": "uint256"
        }
      ],
      "name": "LandRequestMapping",
      "outputs": [
        {
          "internalType": "uint256",
          "name": "reqId",
          "type": "uint256"
        },
        {
          "internalType": "address",
          "name": "sellerId",
          "type": "address"
        },
        {
          "internalType": "address",
          "name": "buyerId",
          "type": "address"
        },
        {
          "internalType": "uint256",
          "name": "landId",
          "type": "uint256"
        },
        {
          "internalType": "enum LandRegistration.reqStatus",
          "name": "requestStatus",
          "type": "uint8"
        },
        {
          "internalType": "bool",
          "name": "isPaymentDone",
          "type": "bool"
        }
      ],
      "stateMutability": "view",
      "type": "function",
      "constant": true
    },
    {
      "inputs": [],
      "name": "accountRegistrationContract",
      "outputs": [
        {
          "internalType": "address",
          "name": "",
          "type": "address"
        }
      ],
      "stateMutability": "view",
      "type": "function",
      "constant": true
    },
    {
      "inputs": [],
      "name": "deployer",
      "outputs": [
        {
          "internalType": "address",
          "name": "",
          "type": "address"
        }
      ],
      "stateMutability": "view",
      "type": "function",
      "constant": true
    },
    {
      "inputs": [
        {
          "internalType": "uint256",
          "name": "",
          "type": "uint256"
        }
      ],
      "name": "isLandIdAccepted",
      "outputs": [
        {
          "internalType": "bool",
          "name": "",
          "type": "bool"
        }
      ],
      "stateMutability": "view",
      "type": "function",
      "constant": true
    },
    {
      "inputs": [
        {
          "internalType": "uint256",
          "name": "",
          "type": "uint256"
        }
      ],
      "name": "landMapping",
      "outputs": [
        {
          "internalType": "uint256",
          "name": "landId",
          "type": "uint256"
        },
        {
          "internalType": "address",
          "name": "owner",
          "type": "address"
        },
        {
          "components": [
            {
              "internalType": "string",
              "name": "state",
              "type": "string"
            },
            {
              "internalType": "string",
              "name": "division",
              "type": "string"
            },
            {
              "internalType": "string",
              "name": "district",
              "type": "string"
            },
            {
              "internalType": "string",
              "name": "taluka",
              "type": "string"
            },
            {
              "internalType": "string",
              "name": "village",
              "type": "string"
            },
            {
              "internalType": "uint256",
              "name": "surveyNumber",
              "type": "uint256"
            },
            {
              "internalType": "string",
              "name": "subdivision",
              "type": "string"
            }
          ],
          "internalType": "struct LandRegistration.LandIdentifier",
          "name": "identifier",
          "type": "tuple"
        },
        {
          "internalType": "uint256",
          "name": "area",
          "type": "uint256"
        },
        {
          "internalType": "uint256",
          "name": "purchaseDate",
          "type": "uint256"
        },
        {
          "internalType": "uint256",
          "name": "purchasePrice",
          "type": "uint256"
        },
        {
          "internalType": "uint256",
          "name": "landValueAtPurchase",
          "type": "uint256"
        },
        {
          "internalType": "bool",
          "name": "isVerified",
          "type": "bool"
        },
        {
          "internalType": "bool",
          "name": "isForSale",
          "type": "bool"
        }
      ],
      "stateMutability": "view",
      "type": "function",
      "constant": true
    },
    {
      "inputs": [],
      "name": "landRecordsCount",
      "outputs": [
        {
          "internalType": "uint256",
          "name": "",
          "type": "uint256"
        }
      ],
      "stateMutability": "view",
      "type": "function",
      "constant": true
    },
    {
      "inputs": [
        {
          "internalType": "uint256",
          "name": "",
          "type": "uint256"
        },
        {
          "internalType": "address",
          "name": "",
          "type": "address"
        }
      ],
      "name": "landToBuyerToRequest",
      "outputs": [
        {
          "internalType": "uint256",
          "name": "",
          "type": "uint256"
        }
      ],
      "stateMutability": "view",
      "type": "function",
      "constant": true
    },
    {
      "inputs": [
        {
          "internalType": "uint256",
          "name": "",
          "type": "uint256"
        }
      ],
      "name": "pendingTransferRequests",
      "outputs": [
        {
          "internalType": "uint256",
          "name": "",
          "type": "uint256"
        }
      ],
      "stateMutability": "view",
      "type": "function",
      "constant": true
    },
    {
      "inputs": [
        {
          "internalType": "uint256",
          "name": "_landId",
          "type": "uint256"
        }
      ],
      "name": "landVerificationRequest",
      "outputs": [],
      "stateMutability": "nonpayable",
      "type": "function"
    },
    {
      "inputs": [],
      "name": "getPendingLandVerificationRequests",
      "outputs": [
        {
          "internalType": "uint256[]",
          "name": "",
          "type": "uint256[]"
        }
      ],
      "stateMutability": "view",
      "type": "function",
      "constant": true
    },
    {
      "inputs": [
        {
          "components": [
            {
              "internalType": "uint256",
              "name": "landId",
              "type": "uint256"
            },
            {
              "internalType": "address",
              "name": "owner",
              "type": "address"
            },
            {
              "components": [
                {
                  "internalType": "string",
                  "name": "state",
                  "type": "string"
                },
                {
                  "internalType": "string",
                  "name": "division",
                  "type": "string"
                },
                {
                  "internalType": "string",
                  "name": "district",
                  "type": "string"
                },
                {
                  "internalType": "string",
                  "name": "taluka",
                  "type": "string"
                },
                {
                  "internalType": "string",
                  "name": "village",
                  "type": "string"
                },
                {
                  "internalType": "uint256",
                  "name": "surveyNumber",
                  "type": "uint256"
                },
                {
                  "internalType": "string",
                  "name": "subdivision",
                  "type": "string"
                }
              ],
              "internalType": "struct LandRegistration.LandIdentifier",
              "name": "identifier",
              "type": "tuple"
            },
            {
              "internalType": "uint256",
              "name": "area",
              "type": "uint256"
            },
            {
              "internalType": "uint256",
              "name": "purchaseDate",
              "type": "uint256"
            },
            {
              "internalType": "uint256",
              "name": "purchasePrice",
              "type": "uint256"
            },
            {
              "internalType": "uint256",
              "name": "landValueAtPurchase",
              "type": "uint256"
            },
            {
              "internalType": "address[]",
              "name": "previousOwners",
              "type": "address[]"
            },
            {
              "internalType": "bool",
              "name": "isVerified",
              "type": "bool"
            },
            {
              "internalType": "bool",
              "name": "isForSale",
              "type": "bool"
            }
          ],
          "internalType": "struct LandRegistration.LandRecord",
          "name": "_record",
          "type": "tuple"
        }
      ],
      "name": "addLandRecord",
      "outputs": [
        {
          "internalType": "uint256",
          "name": "",
          "type": "uint256"
        }
      ],
      "stateMutability": "nonpayable",
      "type": "function"
    },
    {
      "inputs": [
        {
          "internalType": "uint256",
          "name": "landId",
          "type": "uint256"
        }
      ],
      "name": "removeLand",
      "outputs": [],
      "stateMutability": "nonpayable",
      "type": "function"
    },
    {
      "inputs": [
        {
          "components": [
            {
              "internalType": "string",
              "name": "state",
              "type": "string"
            },
            {
              "internalType": "string",
              "name": "division",
              "type": "string"
            },
            {
              "internalType": "string",
              "name": "district",
              "type": "string"
            },
            {
              "internalType": "string",
              "name": "taluka",
              "type": "string"
            },
            {
              "internalType": "string",
              "name": "village",
              "type": "string"
            },
            {
              "internalType": "uint256",
              "name": "surveyNumber",
              "type": "uint256"
            },
            {
              "internalType": "string",
              "name": "subdivision",
              "type": "string"
            }
          ],
          "internalType": "struct LandRegistration.LandIdentifier",
          "name": "_identifier",
          "type": "tuple"
        }
      ],
      "name": "getLandId",
      "outputs": [
        {
          "internalType": "uint256",
          "name": "",
          "type": "uint256"
        }
      ],
      "stateMutability": "view",
      "type": "function",
      "constant": true
    },
    {
      "inputs": [
        {
          "internalType": "uint256",
          "name": "_landId",
          "type": "uint256"
        }
      ],
      "name": "verifyLand",
      "outputs": [],
      "stateMutability": "nonpayable",
      "type": "function"
    },
    {
      "inputs": [
        {
          "internalType": "uint256",
          "name": "_landId",
          "type": "uint256"
        }
      ],
      "name": "listLandForSale",
      "outputs": [],
      "stateMutability": "nonpayable",
      "type": "function"
    },
    {
      "inputs": [
        {
          "internalType": "uint256",
          "name": "_landId",
          "type": "uint256"
        }
      ],
      "name": "requestForBuy",
      "outputs": [],
      "stateMutability": "nonpayable",
      "type": "function"
    },
    {
      "inputs": [
        {
          "internalType": "uint256",
          "name": "_landId",
          "type": "uint256"
        }
      ],
      "name": "cancelBuyerRequest",
      "outputs": [],
      "stateMutability": "nonpayable",
      "type": "function"
    },
    {
      "inputs": [
        {
          "internalType": "uint256",
          "name": "_landId",
          "type": "uint256"
        },
        {
          "internalType": "address",
          "name": "_buyer",
          "type": "address"
        }
      ],
      "name": "getLandRequestStatus",
      "outputs": [
        {
          "internalType": "enum LandRegistration.reqStatus",
          "name": "",
          "type": "uint8"
        }
      ],
      "stateMutability": "view",
      "type": "function",
      "constant": true
    },
    {
      "inputs": [],
      "name": "receivedLandRequests",
      "outputs": [
        {
          "internalType": "uint256[]",
          "name": "",
          "type": "uint256[]"
        }
      ],
      "stateMutability": "view",
      "type": "function",
      "constant": true
    },
    {
      "inputs": [],
      "name": "sentLandRequests",
      "outputs": [
        {
          "internalType": "uint256[]",
          "name": "",
          "type": "uint256[]"
        }
      ],
      "stateMutability": "view",
      "type": "function",
      "constant": true
    },
    {
      "inputs": [
        {
          "internalType": "uint256",
          "name": "_requestId",
          "type": "uint256"
        }
      ],
      "name": "getLandIdForRequest",
      "outputs": [
        {
          "internalType": "uint256",
          "name": "",
          "type": "uint256"
        }
      ],
      "stateMutability": "view",
      "type": "function",
      "constant": true
    },
    {
      "inputs": [
        {
          "internalType": "uint256",
          "name": "_requestId",
          "type": "uint256"
        }
      ],
      "name": "getBuyerAddressForRequest",
      "outputs": [
        {
          "internalType": "address",
          "name": "",
          "type": "address"
        }
      ],
      "stateMutability": "view",
      "type": "function",
      "constant": true
    },
    {
      "inputs": [
        {
          "internalType": "uint256",
          "name": "_requestId",
          "type": "uint256"
        }
      ],
      "name": "acceptRequest",
      "outputs": [],
      "stateMutability": "nonpayable",
      "type": "function"
    },
    {
      "inputs": [
        {
          "internalType": "uint256",
          "name": "_requestId",
          "type": "uint256"
        }
      ],
      "name": "rejectRequest",
      "outputs": [],
      "stateMutability": "nonpayable",
      "type": "function"
    },
    {
      "inputs": [
        {
          "internalType": "uint256",
          "name": "_landId",
          "type": "uint256"
        },
        {
          "internalType": "address",
          "name": "_buyer",
          "type": "address"
        }
      ],
      "name": "getRequestForLandId",
      "outputs": [
        {
          "internalType": "uint256",
          "name": "",
          "type": "uint256"
        }
      ],
      "stateMutability": "view",
      "type": "function",
      "constant": true
    },
    {
      "inputs": [
        {
          "internalType": "uint256",
          "name": "_requestId",
          "type": "uint256"
        },
        {
          "internalType": "uint256",
          "name": "_landId",
          "type": "uint256"
        }
      ],
      "name": "markPaymentAsDone",
      "outputs": [],
      "stateMutability": "nonpayable",
      "type": "function"
    },
    {
      "inputs": [
        {
          "internalType": "uint256",
          "name": "requestId",
          "type": "uint256"
        }
      ],
      "name": "requestStatus",
      "outputs": [
        {
          "internalType": "bool",
          "name": "",
          "type": "bool"
        }
      ],
      "stateMutability": "view",
      "type": "function",
      "constant": true
    },
    {
      "inputs": [
        {
          "internalType": "uint256",
          "name": "_landId",
          "type": "uint256"
        }
      ],
      "name": "getOwnerAddress",
      "outputs": [
        {
          "internalType": "address",
          "name": "",
          "type": "address"
        }
      ],
      "stateMutability": "view",
      "type": "function",
      "constant": true
    },
    {
      "inputs": [
        {
          "internalType": "uint256",
          "name": "_landId",
          "type": "uint256"
        }
      ],
      "name": "removeLandFromSale",
      "outputs": [],
      "stateMutability": "nonpayable",
      "type": "function"
    },
    {
      "inputs": [],
      "name": "getPendingTransferRequests",
      "outputs": [
        {
          "internalType": "uint256[]",
          "name": "",
          "type": "uint256[]"
        }
      ],
      "stateMutability": "view",
      "type": "function",
      "constant": true
    },
    {
      "inputs": [
        {
          "internalType": "uint256",
          "name": "_requestId",
          "type": "uint256"
        }
      ],
      "name": "transferLandOwnership",
      "outputs": [],
      "stateMutability": "nonpayable",
      "type": "function"
    },
    {
      "inputs": [
        {
          "internalType": "uint256",
          "name": "_landId",
          "type": "uint256"
        }
      ],
      "name": "getPreviousOwners",
      "outputs": [
        {
          "internalType": "address[]",
          "name": "",
          "type": "address[]"
        }
      ],
      "stateMutability": "view",
      "type": "function",
      "constant": true
    },
    {
      "inputs": [],
      "name": "getLandsForSale",
      "outputs": [
        {
          "components": [
            {
              "internalType": "uint256",
              "name": "landId",
              "type": "uint256"
            },
            {
              "internalType": "address",
              "name": "owner",
              "type": "address"
            },
            {
              "components": [
                {
                  "internalType": "string",
                  "name": "state",
                  "type": "string"
                },
                {
                  "internalType": "string",
                  "name": "division",
                  "type": "string"
                },
                {
                  "internalType": "string",
                  "name": "district",
                  "type": "string"
                },
                {
                  "internalType": "string",
                  "name": "taluka",
                  "type": "string"
                },
                {
                  "internalType": "string",
                  "name": "village",
                  "type": "string"
                },
                {
                  "internalType": "uint256",
                  "name": "surveyNumber",
                  "type": "uint256"
                },
                {
                  "internalType": "string",
                  "name": "subdivision",
                  "type": "string"
                }
              ],
              "internalType": "struct LandRegistration.LandIdentifier",
              "name": "identifier",
              "type": "tuple"
            },
            {
              "internalType": "uint256",
              "name": "area",
              "type": "uint256"
            },
            {
              "internalType": "uint256",
              "name": "purchaseDate",
              "type": "uint256"
            },
            {
              "internalType": "uint256",
              "name": "purchasePrice",
              "type": "uint256"
            },
            {
              "internalType": "uint256",
              "name": "landValueAtPurchase",
              "type": "uint256"
            },
            {
              "internalType": "address[]",
              "name": "previousOwners",
              "type": "address[]"
            },
            {
              "internalType": "bool",
              "name": "isVerified",
              "type": "bool"
            },
            {
              "internalType": "bool",
              "name": "isForSale",
              "type": "bool"
            }
          ],
          "internalType": "struct LandRegistration.LandRecord[]",
          "name": "",
          "type": "tuple[]"
        }
      ],
      "stateMutability": "view",
      "type": "function",
      "constant": true
    },
    {
      "inputs": [],
      "name": "getMyLands",
      "outputs": [
        {
          "components": [
            {
              "internalType": "uint256",
              "name": "landId",
              "type": "uint256"
            },
            {
              "internalType": "address",
              "name": "owner",
              "type": "address"
            },
            {
              "components": [
                {
                  "internalType": "string",
                  "name": "state",
                  "type": "string"
                },
                {
                  "internalType": "string",
                  "name": "division",
                  "type": "string"
                },
                {
                  "internalType": "string",
                  "name": "district",
                  "type": "string"
                },
                {
                  "internalType": "string",
                  "name": "taluka",
                  "type": "string"
                },
                {
                  "internalType": "string",
                  "name": "village",
                  "type": "string"
                },
                {
                  "internalType": "uint256",
                  "name": "surveyNumber",
                  "type": "uint256"
                },
                {
                  "internalType": "string",
                  "name": "subdivision",
                  "type": "string"
                }
              ],
              "internalType": "struct LandRegistration.LandIdentifier",
              "name": "identifier",
              "type": "tuple"
            },
            {
              "internalType": "uint256",
              "name": "area",
              "type": "uint256"
            },
            {
              "internalType": "uint256",
              "name": "purchaseDate",
              "type": "uint256"
            },
            {
              "internalType": "uint256",
              "name": "purchasePrice",
              "type": "uint256"
            },
            {
              "internalType": "uint256",
              "name": "landValueAtPurchase",
              "type": "uint256"
            },
            {
              "internalType": "address[]",
              "name": "previousOwners",
              "type": "address[]"
            },
            {
              "internalType": "bool",
              "name": "isVerified",
              "type": "bool"
            },
            {
              "internalType": "bool",
              "name": "isForSale",
              "type": "bool"
            }
          ],
          "internalType": "struct LandRegistration.LandRecord[]",
          "name": "",
          "type": "tuple[]"
        }
      ],
      "stateMutability": "view",
      "type": "function",
      "constant": true
    },
    {
      "inputs": [],
      "name": "ReturnAllLandList",
      "outputs": [
        {
          "internalType": "uint256[]",
          "name": "",
          "type": "uint256[]"
        }
      ],
      "stateMutability": "view",
      "type": "function",
      "constant": true
    }
  ],
  "bytecode": "0x608060405260016009553480156200001657600080fd5b506040516200464b3803806200464b83398101604081905262000039916200006d565b60008054336001600160a01b031991821617909155600180549091166001600160a01b03929092169190911790556200009d565b6000602082840312156200007f578081fd5b81516001600160a01b038116811462000096578182fd5b9392505050565b61459e80620000ad6000396000f3fe608060405234801561001057600080fd5b50600436106102115760003560e01c806390f136d611610125578063d493c2fe116100ad578063e3df3cf81161007c578063e3df3cf814610478578063e88bed1a1461048b578063f1a0995c14610493578063f6c1b992146104b3578063f9c43bdf146104bb57610211565b8063d493c2fe14610422578063d5f3948814610435578063dd5509581461043d578063e01ae68b1461045057610211565b8063b10a30ed116100f4578063b10a30ed146103af578063bd63026c146103d4578063bf2543fb146103e7578063ce17185814610407578063d14dfce61461041a57610211565b806390f136d61461036157806395bd28d014610369578063979efea6146103895780639b2cfdeb1461039c57610211565b80632d7788db116101a857806366746a711161017757806366746a71146103185780636fff0f401461032057806373930e7e1461033357806377d90c66146103465780638714cfee1461035957610211565b80632d7788db146102cc5780634ba1f098146102df5780634f1de0e7146102f25780636163f8ec1461030557610211565b8063173418d7116101e4578063173418d71461027c5780631a313202146102915780631f7bdad6146102b157806323393d77146102c457610211565b806304888243146102165780630695b9c31461022b5780630ee0ed5814610249578063171947021461025c575b600080fd5b610229610224366004613cc5565b6104ce565b005b610233610692565b6040516102409190613eb9565b60405180910390f35b610229610257366004613cc5565b610c11565b61026f61026a366004613cc5565b610e61565b604051610240919061434f565b610284610e79565b6040516102409190613fb0565b6102a461029f366004613cc5565b610ed1565b6040516102409190613ff4565b6102296102bf366004613d08565b610eee565b610284611147565b6102296102da366004613cc5565b61119d565b6102296102ed366004613cc5565b6113aa565b610229610300366004613cc5565b6115db565b610229610313366004613cc5565b611924565b610284611c0d565b61026f61032e366004613cdd565b611c6c565b610229610341366004613cc5565b611ca8565b610229610354366004613cc5565b611ed5565b610284611fd3565b610284612032565b61037c610377366004613cc5565b612088565b6040516102409190613e92565b61026f610397366004613cc5565b6120d7565b61026f6103aa366004613b8b565b6120f8565b6103c26103bd366004613cc5565b6121d4565b604051610240969594939291906143b3565b61026f6103e2366004613cdd565b61221b565b6103fa6103f5366004613cdd565b612238565b6040516102409190613fff565b610229610415366004613cc5565b61227d565b61037c6123bd565b6102a4610430366004613cc5565b6123cc565b61037c6123e1565b61037c61044b366004613cc5565b6123f0565b61046361045e366004613cc5565b61243a565b604051610240999897969594939291906143f8565b61026f610486366004613bc6565b612814565b61026f612c36565b6104a66104a1366004613cc5565b612c3c565b6040516102409190613ea6565b610233612cd7565b6102296104c9366004613cc5565b613324565b600154604051633e02614f60e11b81526000916001600160a01b031690637c04c29e906104ff903390600401613e92565b602060405180830381600087803b15801561051957600080fd5b505af115801561052d573d6000803e3d6000fd5b505050506040513d601f19601f820116820180604052508101906105519190613b68565b9050806105795760405162461bcd60e51b8152600401610570906142d6565b60405180910390fd5b6000828152600b60205260409020600e0154829060ff1615156001146105b15760405162461bcd60e51b8152600401610570906140c6565b6000838152600b602052604090206001015483906001600160a01b031633146105ec5760405162461bcd60e51b815260040161057090614080565b6000848152600b602052604090205461060457600080fd5b6000848152600b6020526040808220600e01805461ff001916610100179055600c805460018101825592527fdf6966c971051c3d54ec59162606531493a51404a002842f56009d7e5cf4a8c7909101859055517fbd627619b9f2a20ce2c4498f2185c68bc4236be92480ede53e43f4da545ea9c59061068490869061434f565b60405180910390a150505050565b336000908152600560205260408120546060919067ffffffffffffffff8111156106cc57634e487b7160e01b600052604160045260246000fd5b60405190808252806020026020018201604052801561070557816020015b6106f26137be565b8152602001906001900390816106ea5790505b50905060005b33600090815260056020526040902054811015610c0b573360009081526005602052604081208054600b9291908490811061075657634e487b7160e01b600052603260045260246000fd5b6000918252602080832090910154835282810193909352604091820190208151610140810183528154815260018201546001600160a01b031693810193909352815160e0810183526002820180549293850192829082906107b6906144db565b80601f01602080910402602001604051908101604052809291908181526020018280546107e2906144db565b801561082f5780601f106108045761010080835404028352916020019161082f565b820191906000526020600020905b81548152906001019060200180831161081257829003601f168201915b50505050508152602001600182018054610848906144db565b80601f0160208091040260200160405190810160405280929190818152602001828054610874906144db565b80156108c15780601f10610896576101008083540402835291602001916108c1565b820191906000526020600020905b8154815290600101906020018083116108a457829003601f168201915b505050505081526020016002820180546108da906144db565b80601f0160208091040260200160405190810160405280929190818152602001828054610906906144db565b80156109535780601f1061092857610100808354040283529160200191610953565b820191906000526020600020905b81548152906001019060200180831161093657829003601f168201915b5050505050815260200160038201805461096c906144db565b80601f0160208091040260200160405190810160405280929190818152602001828054610998906144db565b80156109e55780601f106109ba576101008083540402835291602001916109e5565b820191906000526020600020905b8154815290600101906020018083116109c857829003601f168201915b505050505081526020016004820180546109fe906144db565b80601f0160208091040260200160405190810160405280929190818152602001828054610a2a906144db565b8015610a775780601f10610a4c57610100808354040283529160200191610a77565b820191906000526020600020905b815481529060010190602001808311610a5a57829003601f168201915b5050505050815260200160058201548152602001600682018054610a9a906144db565b80601f0160208091040260200160405190810160405280929190818152602001828054610ac6906144db565b8015610b135780601f10610ae857610100808354040283529160200191610b13565b820191906000526020600020905b815481529060010190602001808311610af657829003601f168201915b505050505081525050815260200160098201548152602001600a8201548152602001600b8201548152602001600c8201548152602001600d8201805480602002602001604051908101604052809291908181526020018280548015610ba157602002820191906000526020600020905b81546001600160a01b03168152600190910190602001808311610b83575b5050509183525050600e919091015460ff808216151560208401526101009091041615156040909101528251839083908110610bed57634e487b7160e01b600052603260045260246000fd5b60200260200101819052508080610c0390614510565b91505061070b565b50905090565b600154604051633e02614f60e11b81526000916001600160a01b031690637c04c29e90610c42903390600401613e92565b602060405180830381600087803b158015610c5c57600080fd5b505af1158015610c70573d6000803e3d6000fd5b505050506040513d601f19601f82011682018060405250810190610c949190613b68565b905080610cb35760405162461bcd60e51b8152600401610570906142d6565b6000828152600b60205260409020600e0154610100900460ff16610ce95760405162461bcd60e51b81526004016105709061400d565b610cf38233613502565b15610e5d57600082815260066020908152604080832033845290915281205490600082815260026020526040902060049081015460ff1690811115610d4857634e487b7160e01b600052602160045260246000fd5b14610d655760405162461bcd60e51b8152600401610570906141dd565b6002600082815260026020526040902060049081015460ff1690811115610d9c57634e487b7160e01b600052602160045260246000fd5b50506000838152600b60209081526040808320600101546001600160a01b0316835260039091529020610dcf908261352c565b336000908152600460205260409020610de8908261352c565b600083815260066020908152604080832033808552908352818420849055868452600b909252918290206001015491517fe5a136da2c5b558a579c90c61087262e76ddf5c78d27083c096876462651a43792610e539285926001600160a01b0390921691889061438e565b60405180910390a1505b5050565b6000818152600260205260409020600301545b919050565b6060600f805480602002602001604051908101604052809291908181526020018280548015610ec757602002820191906000526020600020905b815481526020019060010190808311610eb3575b5050505050905090565b600090815260026020526040902060040154610100900460ff1690565b600154604051633e02614f60e11b81526000916001600160a01b031690637c04c29e90610f1f903390600401613e92565b602060405180830381600087803b158015610f3957600080fd5b505af1158015610f4d573d6000803e3d6000fd5b505050506040513d601f19601f82011682018060405250810190610f719190613b68565b905080610f905760405162461bcd60e51b8152600401610570906142d6565b6000838152600260205260409020600101546001600160a01b03163314610fc95760405162461bcd60e51b81526004016105709061429f565b6001600084815260026020526040902060049081015460ff169081111561100057634e487b7160e01b600052602160045260246000fd5b1461101d5760405162461bcd60e51b815260040161057090614111565b6000828152600b60205260409020600e0154610100900460ff166110535760405162461bcd60e51b81526004016105709061400d565b600083116110735760405162461bcd60e51b8152600401610570906141b2565b600083815260026020819052604091829020600481018054600361ff00199091166101001760ff1916179055600f8054600181019091557f8d1108e10bcb7c27dddfc02ed9d693a074039d026cf4ea4240b40f7d581ac80201869055015490513391849186917f3f998a509f6ddadd86811844ffe495a634e3125bacec8ae83e91e65bed7d80aa9161110e916001600160a01b031690613e92565b60405180910390a47fd6d83468051a65604726ddfd0317813b6fce5a48a9451a78e1949c219571ec638383604051610e5392919061445c565b60606007805480602002602001604051908101604052809291908181526020018280548015610ec75760200282019190600052602060002090815481526020019060010190808311610eb3575050505050905090565b600154604051633e02614f60e11b81526000916001600160a01b031690637c04c29e906111ce903390600401613e92565b602060405180830381600087803b1580156111e857600080fd5b505af11580156111fc573d6000803e3d6000fd5b505050506040513d601f19601f820116820180604052508101906112209190613b68565b90508061123f5760405162461bcd60e51b8152600401610570906142d6565b6000828152600260205260409020600101546001600160a01b031633146112785760405162461bcd60e51b81526004016105709061429f565b600082815260026020526040812060049081015460ff16908111156112ad57634e487b7160e01b600052602160045260246000fd5b146112ca5760405162461bcd60e51b815260040161057090614111565b600082815260026020818152604080842060048101805460ff19169094179093556001909201546001600160a01b0316835260039052902061130c908361352c565b6000828152600260208181526040808420909201546001600160a01b0316835260049052902061133c908361352c565b50600081815260026020818152604080842060038101805486526006845282862082860180546001600160a01b03168852908552928620869055958552929091528282556001820180546001600160a01b031990811690915581541690559155600401805461ffff19169055565b600154604051633e02614f60e11b81526000916001600160a01b031690637c04c29e906113db903390600401613e92565b602060405180830381600087803b1580156113f557600080fd5b505af1158015611409573d6000803e3d6000fd5b505050506040513d601f19601f8201168201806040525081019061142d9190613b68565b90508061144c5760405162461bcd60e51b8152600401610570906142d6565b6000828152600260205260409020600101546001600160a01b031633146114855760405162461bcd60e51b81526004016105709061429f565b600082815260026020526040812060049081015460ff16908111156114ba57634e487b7160e01b600052602160045260246000fd5b146114d75760405162461bcd60e51b815260040161057090614111565b6000828152600260209081526040808320600301548352600e90915290205460ff161561155c57600082815260026020819052604091829020015490517f8803018aaaab2fc0e84f17f46bd0333fe225d0e9d01aec2431064ad99b2baf7d9161154f91859133916001600160a01b039091169061436f565b60405180910390a1610e5d565b6000828152600260208181526040808420600481018054600160ff19918216811790925560038301548752600e8552838720805490911690911790558685529183905291015490516001600160a01b0390911691339185917fac8064fea85b95641f19e230ba9da498102d474473fe4b103466cb224daf5e0191a45050565b60015460405163e165af8760e01b81526000916001600160a01b03169063e165af879061160c903390600401613e92565b602060405180830381600087803b15801561162657600080fd5b505af115801561163a573d6000803e3d6000fd5b505050506040513d601f19601f8201168201806040525081019061165e9190613b68565b90508061167d5760405162461bcd60e51b815260040161057090614258565b6003600083815260026020526040902060049081015460ff16908111156116b457634e487b7160e01b600052602160045260246000fd5b146116d15760405162461bcd60e51b815260040161057090614188565b60008281526002602081815260408084206003810154808652600b8085528387206001808201805495909801546001600160a01b039081166001600160a01b031987168117909955888a52600588529589208054918201815589528689200183905596829052909352600e909401549193169190610100900460ff161561175b5761175b8361227d565b6000838152600b60209081526040808320600d0180546001810182559084528284200180546001600160a01b0319166001600160a01b038716179055878352600290915281206004908101805460ff191690911790556117bb8385613649565b6001600160a01b03841660009081526005602052604090205490915081106117f55760405162461bcd60e51b815260040161057090614141565b6001600160a01b0383166000908152600560205260409020805461181b90600190614494565b8154811061183957634e487b7160e01b600052603260045260246000fd5b906000526020600020015460056000856001600160a01b03166001600160a01b03168152602001908152602001600020828154811061188857634e487b7160e01b600052603260045260246000fd5b60009182526020808320909101929092556001600160a01b03851681526005909152604090208054806118cb57634e487b7160e01b600052603160045260246000fd5b600190038181906000526020600020016000905590557fa3b0b9020f88aba79dc7d52f5e1da8502bcea42c242b02d2144b71b2de7f04958484846040516119149392919061436f565b60405180910390a1505050505050565b600154604051633e02614f60e11b81526000916001600160a01b031690637c04c29e90611955903390600401613e92565b602060405180830381600087803b15801561196f57600080fd5b505af1158015611983573d6000803e3d6000fd5b505050506040513d601f19601f820116820180604052508101906119a79190613b68565b9050806119c65760405162461bcd60e51b8152600401610570906142d6565b6000828152600b60205260409020600e0154610100900460ff166119fc5760405162461bcd60e51b81526004016105709061400d565b611a068233613502565b15611a3c577f61abb16957915895ee4e253b3221ceb6b9686485981d135b9330af6aba6963ef823360405161154f929190614358565b60088054906000611a4c83614510565b90915550506040805160c0810182526008548082526000858152600b60209081528482206001908101546001600160a01b0390811683870190815233878901908152606088018b81526080890187815260a08a018890529787526002958690529890952087518155905181840180549184166001600160a01b03199283161790559451938101805494909216939094169290921790915593516003820155905160048083018054949593949293909260ff1916918490811115611b1f57634e487b7160e01b600052602160045260246000fd5b021790555060a09190910151600491820180549115156101000261ff00199092169190911790556000838152600b60208181526040808420600190810180546001600160a01b039081168752600385528387206008805482548087018455928a52878a20909201919091553380895298865284882081548154958601825590895286892090940193909355915489875260068552838720888852855283872081905589875294909352915490517f7825bbe590a72ccf4f413305c96c01a18426a6df8b5fa22a5715f07510badaf795611c0195929093169291889181906143b3565b60405180910390a15050565b33600090815260046020908152604091829020805483518184028101840190945280845260609392830182828015610ec75760200282019190600052602060002090815481526020019060010190808311610eb3575050505050905090565b60008281526006602090815260408083206001600160a01b03851684529091528120548015611c9c579050611ca2565b60009150505b92915050565b600154604051633e02614f60e11b81526000916001600160a01b031690637c04c29e90611cd9903390600401613e92565b602060405180830381600087803b158015611cf357600080fd5b505af1158015611d07573d6000803e3d6000fd5b505050506040513d601f19601f82011682018060405250810190611d2b9190613b68565b905080611d4a5760405162461bcd60e51b8152600401610570906142d6565b6000828152600b602052604090206001015482906001600160a01b03163314611d855760405162461bcd60e51b815260040161057090614080565b6000838152600b60205260409020600e015460ff1615611ddb577f263d8340510fd631457d32daa5e0f6367a2ffc16047c40084b1b75eb6f2af19e83604051611dce919061434f565b60405180910390a1611ed0565b60005b600d54811015611e6a5783600d8281548110611e0a57634e487b7160e01b600052603260045260246000fd5b90600052602060002001541415611e58577fd495a6f064735505d24d671bdc64e52e1a60a618c5561b5202950666c9f6612684604051611e4a919061434f565b60405180910390a150611ed0565b80611e6281614510565b915050611dde565b50600d80546001810182556000919091527fd7b6990105719101dabeb77144f2a3385c8033acd3af97e9423a695e81ad1eb5018390556040517f56231630fae652455d7feea7bad7233707b890b8378f59c9bd677cd1027a5f8090610e5390859061434f565b505050565b336000908152600560205260408120905b8154811015611ed05782828281548110611f1057634e487b7160e01b600052603260045260246000fd5b90600052602060002001541415611fc15781548290611f3190600190614494565b81548110611f4f57634e487b7160e01b600052603260045260246000fd5b9060005260206000200154828281548110611f7a57634e487b7160e01b600052603260045260246000fd5b906000526020600020018190555081805480611fa657634e487b7160e01b600052603160045260246000fd5b60019003818190600052602060002001600090559055611ed0565b80611fcb81614510565b915050611ee6565b33600090815260036020908152604091829020805483518184028101840190945280845260609392830182828015610ec75760200282019190600052602060002090815481526020019060010190808311610eb3575050505050905090565b6060600d805480602002602001604051908101604052809291908181526020018280548015610ec75760200282019190600052602060002090815481526020019060010190808311610eb3575050505050905090565b6000808211801561209b57506008548211155b6120b75760405162461bcd60e51b815260040161057090614323565b50600090815260026020819052604090912001546001600160a01b031690565b600f81815481106120e757600080fd5b600091825260209091200154905081565b6000600a826000015160405161210e9190613e76565b9081526020016040518091039020826020015160405161212e9190613e76565b9081526020016040518091039020826040015160405161214e9190613e76565b9081526020016040518091039020826060015160405161216e9190613e76565b9081526020016040518091039020826080015160405161218e9190613e76565b90815260408051918290036020908101832060a0860151600090815291522060c084015190916121be9190613e76565b9081526020016040518091039020549050919050565b60026020819052600091825260409091208054600182015492820154600383015460049093015491936001600160a01b039081169391169160ff8082169161010090041686565b600660209081526000928352604080842090915290825290205481565b60008281526006602090815260408083206001600160a01b03851684529091528120548015611c9c5760009081526002602052604090206004015460ff169050611ca2565b6000818152600b60205260409020600e0154610100900460ff166122b35760405162461bcd60e51b81526004016105709061403b565b6000818152600b60205260408120600e01805461ff00191690555b600c54811015610e5d5781600c82815481106122fa57634e487b7160e01b600052603260045260246000fd5b906000526020600020015414156123ab57600c805461231b90600190614494565b8154811061233957634e487b7160e01b600052603260045260246000fd5b9060005260206000200154600c828154811061236557634e487b7160e01b600052603260045260246000fd5b600091825260209091200155600c80548061239057634e487b7160e01b600052603160045260246000fd5b60019003818190600052602060002001600090559055610e5d565b806123b581614510565b9150506122ce565b6001546001600160a01b031681565b600e6020526000908152604090205460ff1681565b6000546001600160a01b031681565b6000818152600b602052604081205461241b5760405162461bcd60e51b815260040161057090614230565b506000908152600b60205260409020600101546001600160a01b031690565b600b602052600090815260409081902080546001820154835160e0810190945260028301805492946001600160a01b0390921693928290829061247c906144db565b80601f01602080910402602001604051908101604052809291908181526020018280546124a8906144db565b80156124f55780601f106124ca576101008083540402835291602001916124f5565b820191906000526020600020905b8154815290600101906020018083116124d857829003601f168201915b5050505050815260200160018201805461250e906144db565b80601f016020809104026020016040519081016040528092919081815260200182805461253a906144db565b80156125875780601f1061255c57610100808354040283529160200191612587565b820191906000526020600020905b81548152906001019060200180831161256a57829003601f168201915b505050505081526020016002820180546125a0906144db565b80601f01602080910402602001604051908101604052809291908181526020018280546125cc906144db565b80156126195780601f106125ee57610100808354040283529160200191612619565b820191906000526020600020905b8154815290600101906020018083116125fc57829003601f168201915b50505050508152602001600382018054612632906144db565b80601f016020809104026020016040519081016040528092919081815260200182805461265e906144db565b80156126ab5780601f10612680576101008083540402835291602001916126ab565b820191906000526020600020905b81548152906001019060200180831161268e57829003601f168201915b505050505081526020016004820180546126c4906144db565b80601f01602080910402602001604051908101604052809291908181526020018280546126f0906144db565b801561273d5780601f106127125761010080835404028352916020019161273d565b820191906000526020600020905b81548152906001019060200180831161272057829003601f168201915b5050505050815260200160058201548152602001600682018054612760906144db565b80601f016020809104026020016040519081016040528092919081815260200182805461278c906144db565b80156127d95780601f106127ae576101008083540402835291602001916127d9565b820191906000526020600020905b8154815290600101906020018083116127bc57829003601f168201915b505050919092525050506009820154600a830154600b840154600c850154600e90950154939492939192909160ff8082169161010090041689565b600154604051633e02614f60e11b815260009182916001600160a01b0390911690637c04c29e90612849903390600401613e92565b602060405180830381600087803b15801561286357600080fd5b505af1158015612877573d6000803e3d6000fd5b505050506040513d601f19601f8201168201806040525081019061289b9190613b68565b9050806128ba5760405162461bcd60e51b8152600401610570906142d6565b6000806128ca85604001516136c2565b915091508115612914577faaf337ed6c27044ac7adfac9210c03e982f61dd5534d00cefa9baedc9e41502881604051612903919061434f565b60405180910390a19250612c309050565b600954808652600061010087018190526101208701819052908152600b602090815260409182902087518155818801516001820180546001600160a01b0319166001600160a01b03909216919091179055918701518051805189949360028501926129859284929190910190613819565b50602082810151805161299e9260018501920190613819565b50604082015180516129ba916002840191602090910190613819565b50606082015180516129d6916003840191602090910190613819565b50608082015180516129f2916004840191602090910190613819565b5060a0820151600582015560c08201518051612a18916006840191602090910190613819565b505050606082015160098201556080820151600a82015560a0820151600b82015560c0820151600c82015560e08201518051612a5e91600d84019160209091019061389d565b5061010082810151600e9290920180546101209094015160ff199094169215159290921761ff00191692151502919091179055600954604086810151519051600a91612aa991613e76565b9081526020016040518091039020866040015160200151604051612acd9190613e76565b9081526020016040518091039020866040015160400151604051612af19190613e76565b9081526020016040518091039020866040015160600151604051612b159190613e76565b9081526020016040518091039020866040015160800151604051612b399190613e76565b90815260200160405180910390206000876040015160a001518152602001908152602001600020866040015160c00151604051612b769190613e76565b90815260405190819003602001902055600980546007805460018101825560009182527fa66cc928b5edb82af9bd49922954155ab7b0942694bea4ce44661d9a8736c6880182905590918291612bcb83614510565b909155505033600090815260056020908152604080832080546001810182559084529190922001829055517fd6ba237a8c7a642ccbcdec4a0f3d08561b3ec6045c9f144ead69305210d11b5290612c2390839061434f565b60405180910390a1935050505b50919050565b60095481565b6000818152600b6020526040902054606090612c6a5760405162461bcd60e51b815260040161057090614230565b6000828152600b6020908152604091829020600d0180548351818402810184019094528084529091830182828015612ccb57602002820191906000526020600020905b81546001600160a01b03168152600190910190602001808311612cad575b50505050509050919050565b60606000805b600c54811015612d6357336001600160a01b0316600b6000600c8481548110612d1657634e487b7160e01b600052603260045260246000fd5b600091825260208083209091015483528201929092526040019020600101546001600160a01b031614612d515781612d4d81614510565b9250505b80612d5b81614510565b915050612cdd565b5060008167ffffffffffffffff811115612d8d57634e487b7160e01b600052604160045260246000fd5b604051908082528060200260200182016040528015612dc657816020015b612db36137be565b815260200190600190039081612dab5790505b5090506000805b600c5481101561331b57336001600160a01b0316600b6000600c8481548110612e0657634e487b7160e01b600052603260045260246000fd5b600091825260208083209091015483528201929092526040019020600101546001600160a01b03161461330957600b6000600c8381548110612e5857634e487b7160e01b600052603260045260246000fd5b6000918252602080832090910154835282810193909352604091820190208151610140810183528154815260018201546001600160a01b031693810193909352815160e081018352600282018054929385019282908290612eb8906144db565b80601f0160208091040260200160405190810160405280929190818152602001828054612ee4906144db565b8015612f315780601f10612f0657610100808354040283529160200191612f31565b820191906000526020600020905b815481529060010190602001808311612f1457829003601f168201915b50505050508152602001600182018054612f4a906144db565b80601f0160208091040260200160405190810160405280929190818152602001828054612f76906144db565b8015612fc35780601f10612f9857610100808354040283529160200191612fc3565b820191906000526020600020905b815481529060010190602001808311612fa657829003601f168201915b50505050508152602001600282018054612fdc906144db565b80601f0160208091040260200160405190810160405280929190818152602001828054613008906144db565b80156130555780601f1061302a57610100808354040283529160200191613055565b820191906000526020600020905b81548152906001019060200180831161303857829003601f168201915b5050505050815260200160038201805461306e906144db565b80601f016020809104026020016040519081016040528092919081815260200182805461309a906144db565b80156130e75780601f106130bc576101008083540402835291602001916130e7565b820191906000526020600020905b8154815290600101906020018083116130ca57829003601f168201915b50505050508152602001600482018054613100906144db565b80601f016020809104026020016040519081016040528092919081815260200182805461312c906144db565b80156131795780601f1061314e57610100808354040283529160200191613179565b820191906000526020600020905b81548152906001019060200180831161315c57829003601f168201915b505050505081526020016005820154815260200160068201805461319c906144db565b80601f01602080910402602001604051908101604052809291908181526020018280546131c8906144db565b80156132155780601f106131ea57610100808354040283529160200191613215565b820191906000526020600020905b8154815290600101906020018083116131f857829003601f168201915b505050505081525050815260200160098201548152602001600a8201548152602001600b8201548152602001600c8201548152602001600d82018054806020026020016040519081016040528092919081815260200182805480156132a357602002820191906000526020600020905b81546001600160a01b03168152600190910190602001808311613285575b5050509183525050600e919091015460ff8082161515602084015261010090910416151560409091015283518490849081106132ef57634e487b7160e01b600052603260045260246000fd5b6020026020010181905250818061330590614510565b9250505b8061331381614510565b915050612dcd565b50909250505090565b60015460405163e165af8760e01b81526000916001600160a01b03169063e165af8790613355903390600401613e92565b602060405180830381600087803b15801561336f57600080fd5b505af1158015613383573d6000803e3d6000fd5b505050506040513d601f19601f820116820180604052508101906133a79190613b68565b9050806133c65760405162461bcd60e51b815260040161057090614258565b6000828152600b60205260408120600e01805460ff191660011790555b600d548110156134d25782600d828154811061340f57634e487b7160e01b600052603260045260246000fd5b906000526020600020015414156134c057600d805461343090600190614494565b8154811061344e57634e487b7160e01b600052603260045260246000fd5b9060005260206000200154600d828154811061347a57634e487b7160e01b600052603260045260246000fd5b600091825260209091200155600d8054806134a557634e487b7160e01b600052603160045260246000fd5b600190038181906000526020600020016000905590556134d2565b806134ca81614510565b9150506133e3565b507f339a5d26292b459dbd1a911e53069f56bd3610e5ca60a312043fc90189c388bf82604051611c01919061434f565b60009182526006602090815260408084206001600160a01b03939093168452919052902054151590565b815460005b81811015613619578284828154811061355a57634e487b7160e01b600052603260045260246000fd5b906000526020600020015414156136075783613577600184614494565b8154811061359557634e487b7160e01b600052603260045260246000fd5b90600052602060002001548482815481106135c057634e487b7160e01b600052603260045260246000fd5b9060005260206000200181905550838054806135ec57634e487b7160e01b600052603160045260246000fd5b60019003818190600052602060002001600090559055613619565b8061361181614510565b915050613531565b507f4123b8593921204d03aef906a5c03ba57573a7047a66d722874a923b6e0e4b7d82604051610e53919061434f565b6001600160a01b0382166000908152600560205260408120815b81548110156136b9578382828154811061368d57634e487b7160e01b600052603260045260246000fd5b906000526020600020015414156136a7579150611ca29050565b806136b181614510565b915050613663565b50549392505050565b6000806000600a84600001516040516136db9190613e76565b908152602001604051809103902084602001516040516136fb9190613e76565b9081526020016040518091039020846040015160405161371b9190613e76565b9081526020016040518091039020846060015160405161373b9190613e76565b9081526020016040518091039020846080015160405161375b9190613e76565b90815260408051918290036020908101832060a0880151600090815291522060c0860151909161378b9190613e76565b908152602001604051809103902054905080600014156137b25760008092509250506137b9565b6001925090505b915091565b6040805161014081018252600080825260208201529081016137de6138f2565b815260200160008152602001600081526020016000815260200160008152602001606081526020016000151581526020016000151581525090565b828054613825906144db565b90600052602060002090601f016020900481019282613847576000855561388d565b82601f1061386057805160ff191683800117855561388d565b8280016001018555821561388d579182015b8281111561388d578251825591602001919060010190613872565b5061389992915061392f565b5090565b82805482825590600052602060002090810192821561388d579160200282015b8281111561388d57825182546001600160a01b0319166001600160a01b039091161782556020909201916001909101906138bd565b6040518060e00160405280606081526020016060815260200160608152602001606081526020016060815260200160008152602001606081525090565b5b808211156138995760008155600101613930565b80356001600160a01b0381168114610e7457600080fd5b600082601f83011261396b578081fd5b8135602067ffffffffffffffff82111561398757613987614541565b80820261399582820161446a565b8381528281019086840183880185018910156139af578687fd5b8693505b858410156139d8576139c481613944565b8352600193909301929184019184016139b3565b50979650505050505050565b8035610e7481614557565b600082601f8301126139ff578081fd5b813567ffffffffffffffff811115613a1957613a19614541565b613a2c601f8201601f191660200161446a565b818152846020838601011115613a40578283fd5b816020850160208301379081016020019190915292915050565b600060e08284031215613a6b578081fd5b613a7560e061446a565b9050813567ffffffffffffffff80821115613a8f57600080fd5b613a9b858386016139ef565b83526020840135915080821115613ab157600080fd5b613abd858386016139ef565b60208401526040840135915080821115613ad657600080fd5b613ae2858386016139ef565b60408401526060840135915080821115613afb57600080fd5b613b07858386016139ef565b60608401526080840135915080821115613b2057600080fd5b613b2c858386016139ef565b608084015260a084013560a084015260c0840135915080821115613b4f57600080fd5b50613b5c848285016139ef565b60c08301525092915050565b600060208284031215613b79578081fd5b8151613b8481614557565b9392505050565b600060208284031215613b9c578081fd5b813567ffffffffffffffff811115613bb2578182fd5b613bbe84828501613a5a565b949350505050565b600060208284031215613bd7578081fd5b813567ffffffffffffffff80821115613bee578283fd5b8184019150610140808387031215613c04578384fd5b613c0d8161446a565b905082358152613c1f60208401613944565b6020820152604083013582811115613c35578485fd5b613c4187828601613a5a565b604083015250606083013560608201526080830135608082015260a083013560a082015260c083013560c082015260e083013582811115613c80578485fd5b613c8c8782860161395b565b60e0830152506101009150613ca28284016139e4565b828201526101209150613cb68284016139e4565b91810191909152949350505050565b600060208284031215613cd6578081fd5b5035919050565b60008060408385031215613cef578081fd5b82359150613cff60208401613944565b90509250929050565b60008060408385031215613d1a578182fd5b50508035926020909101359150565b6001600160a01b03169052565b6000815180845260208085019450808401835b83811015613d6e5781516001600160a01b031687529582019590820190600101613d49565b509495945050505050565b15159052565b60058110613d9d57634e487b7160e01b600052602160045260246000fd5b9052565b60008151808452613db98160208601602086016144ab565b601f01601f19169290920160200192915050565b6000815160e08452613de260e0850182613da1565b905060208301518482036020860152613dfb8282613da1565b91505060408301518482036040860152613e158282613da1565b91505060608301518482036060860152613e2f8282613da1565b91505060808301518482036080860152613e498282613da1565b91505060a083015160a085015260c083015184820360c0860152613e6d8282613da1565b95945050505050565b60008251613e888184602087016144ab565b9190910192915050565b6001600160a01b0391909116815260200190565b600060208252613b846020830184613d36565b60208082528251828201819052600091906040908185019080840286018301878501865b83811015613fa257603f1989840301855281516101408151855288820151613f078a870182613d29565b50878201518189870152613f1d82870182613dcd565b606084810151908801526080808501519088015260a0808501519088015260c0808501519088015260e080850151888303828a01529193509150613f618382613d36565b9250505061010080830151613f7882880182613d79565b50506101209182015191613f8e86820184613d79565b509588019593505090860190600101613edd565b509098975050505050505050565b6020808252825182820181905260009190848201906040850190845b81811015613fe857835183529284019291840191600101613fcc565b50909695505050505050565b901515815260200190565b60208101611ca28284613d7f565b6020808252601490820152734c616e64206973206e6f7420666f722073616c6560601b604082015260600190565b60208082526025908201527f4c616e64206973206e6f742063757272656e746c79206c697374656420666f726040820152642073616c6560d81b606082015260800190565b60208082526026908201527f4f6e6c79206f776e65722063616e20706572666f726d2074686973206f70657260408201526530ba34b7b71760d11b606082015260800190565b6020808252602b908201527f4f6e6c79207665726966696564206c616e64732063616e20626520707574207560408201526a38103337b91039b0b6329760a91b606082015260800190565b602080825260169082015275496e76616c696420726571756573742073746174757360501b604082015260600190565b60208082526027908201527f4c616e64206e6f7420666f756e6420696e2070726576696f7573206f776e657260408201526609dcc81b1a5cdd60ca1b606082015260800190565b60208082526010908201526f7061796d656e74206e6f7420646f6e6560801b604082015260600190565b602080825260119082015270125b9d985b1a59081c995c5d595cdd1259607a1b604082015260600190565b60208082526033908201527f43616e6e6f742063616e63656c2e2052657175657374206973206e6f7420696e6040820152722027726571756573746564272073746174757360681b606082015260800190565b6020808252600e908201526d13185b99081b9bdd08199bdd5b9960921b604082015260600190565b60208082526027908201527f4f6e6c7920696e73706563746f722063616e20706572666f726d20746869732060408201526630b1ba34b7b71760c91b606082015260800190565b6020808252601b908201527f4e6f74207468652073656c6c6572206f662074686973206c616e640000000000604082015260600190565b6020808252602d908201527f4f6e6c79207265676973746572656420757365722063616e20706572666f726d60408201526c103a3434b99030b1ba34b7b71760991b606082015260800190565b602080825260129082015271125b9d985b1a59081c995c5d595cdd08125160721b604082015260600190565b90815260200190565b9182526001600160a01b0316602082015260400190565b9283526001600160a01b03918216602084015216604082015260600190565b9384526001600160a01b03928316602085015291166040830152606082015260800190565b8681526001600160a01b038681166020830152851660408201526060810184905260c081016143e56080830185613d7f565b82151560a0830152979650505050505050565b8981526001600160a01b0389166020820152610120604082018190526000906144238382018b613dcd565b60608401999099525050608081019590955260a085019390935260c0840191909152151560e08301521515610100909101529392505050565b918252602082015260400190565b60405181810167ffffffffffffffff8111828210171561448c5761448c614541565b604052919050565b6000828210156144a6576144a661452b565b500390565b60005b838110156144c65781810151838201526020016144ae565b838111156144d5576000848401525b50505050565b6002810460018216806144ef57607f821691505b60208210811415612c3057634e487b7160e01b600052602260045260246000fd5b60006000198214156145245761452461452b565b5060010190565b634e487b7160e01b600052601160045260246000fd5b634e487b7160e01b600052604160045260246000fd5b801515811461456557600080fd5b5056fea2646970667358221220dc221f471007a2610119c5c75c04680786c64ad1a796b6331d4bce18e14bf17664736f6c63430008000033",
  "immutableReferences": {},
  "source": "// SPDX-License-Identifier: UNLICENSED\r\n\r\npragma solidity ^0.8.0;\r\n\r\nimport \"./registerAccount-contract.sol\";\r\n\r\ninterface IAccountRegistration {\r\n    function checkUserVerified(address _account) external returns (bool);\r\n    function isLandInspector(address _account) external returns (bool);\r\n}\r\n\r\ncontract LandRegistration {\r\n\r\n    //Address which deployed this smart contract\r\n    address public deployer;\r\n    //AccountRegistration Contract\r\n    address public accountRegistrationContract;\r\n\r\n    constructor(address _accountRegistrationContract) {\r\n        deployer = msg.sender;\r\n        accountRegistrationContract = _accountRegistrationContract;\r\n    }\r\n\r\n    struct LandIdentifier {\r\n        /*\r\n            Fields needed to identify the piece of land\r\n            A state has divisions.\r\n            Each division has districts.\r\n            Each district has talukas.\r\n            Each taluka has villages.\r\n            A land parcel under this hierarchy is identified using\r\n            a survey number.\r\n            Shall this land be divided at a later point, its sub-divisions\r\n            are represented using a sub-division number.\r\n            All divisions in Maharashtra can be found in the link below:\r\n            http://www.landsofmaharashtra.com/divisionsofmaharashtra.html \r\n        */\r\n        string state;\r\n        string division;\r\n        string district;\r\n        string taluka;\r\n        string village;\r\n        uint surveyNumber;\r\n        string subdivision;\r\n    }\r\n\r\n    struct LandRecord {\r\n        uint landId;\r\n        //Address of the account(person) that owns this piece of land\r\n        /* \r\n            Note: There can be multiple owners of a single piece of land.\r\n            This is being ignored for now.\r\n        */\r\n        address owner;\r\n\r\n        LandIdentifier identifier;\r\n\r\n        uint area;\r\n\r\n        //Represented as UNIX Time\r\n        uint purchaseDate;\r\n        //Price at which the land was purchased.\r\n        uint purchasePrice;\r\n        //Estimated value of land at the time of purchase\r\n        uint landValueAtPurchase;\r\n\r\n        //A list of the previous owners of this piece of land. \r\n        address[] previousOwners;\r\n\r\n        /*\r\n            If a piece of land is entering the system for the first time,\r\n            it must be verified by an inspector.\r\n        */\r\n        bool isVerified;\r\n        bool isForSale;\r\n    }\r\n\r\n    //Event to be emitted after adding a land record\r\n    event LandRecordAdded(uint landId);\r\n    //Event to be emitted if the land record already exists\r\n    event LandRecordExists(uint landId);\r\n    //Event to be emitted when land is listed for sale\r\n    event LandListedForSale(uint landId);\r\n\r\n    event LandRequests(uint requestId, address landOwner, address buyer, uint landId, reqStatus status, bool someFlag);\r\n    event LandRequestCancelled(uint requestId);\r\n    event PaymentMarkedAsDone(uint requestId, uint landId);\r\n    event LandOwnershipTransferred(uint landId, address oldOwner, address newOwner);\r\n\r\n    //Event to be emitted after land verification request has been sent\r\n    event LandVerificationRequestSubmitted (uint landId);\r\n    //Event to be emitted if land verification request already exists\r\n    event LandVerificationRequestExists (uint landId);\r\n    //Event to be emitted if land is already verified\r\n    event LandAlreadyVerified (uint landId);\r\n    //Event to be emitted when the land is verified by an inspector\r\n    event LandVerified(uint landId);\r\n\r\n     // Event to be emitted when a user tries to request to buy the same land twice\r\n    event DuplicateLandRequest(uint landId, address buyer);\r\n\r\n       // Event to be emitted when a buyer cancels their request to buy a land\r\n    event BuyerRequestCancelled(uint requestId, address seller, address buyer, uint landId);\r\n\r\n    // Event to be emitted when a buyer tries to cancel the same request more than once\r\n    event DuplicateCancellationAttempt(address buyer, uint landId);\r\n\r\n    // Declare an event for acceptance of a request\r\nevent RequestAccepted(uint indexed requestId, address indexed seller, address indexed buyer);\r\n// Declare an event for rejection of a request\r\nevent RequestRejected(uint indexed requestId, address indexed seller, address indexed buyer);\r\n\r\n//A structure that represents the Land requests made by buyer to seller along with the status of the request\r\n     struct LandRequest {\r\n        uint reqId;\r\n        address sellerId;\r\n        address buyerId;\r\n        uint landId;\r\n        reqStatus requestStatus;\r\n        bool isPaymentDone;\r\n    }\r\n\r\n    //An enumeration that shows different stages of the request\r\n    enum reqStatus {requested,accepted,rejected,paymentdone,completed}\r\n\r\n\r\n//Mapping to different lists and LandRequest\r\n    mapping(uint => LandRequest) public LandRequestMapping;\r\n    mapping(address => uint[])  MyReceivedLandRequests;\r\n    mapping(address => uint[])  MySentLandRequests;\r\n    mapping(address => uint[])  MyLands;\r\n\r\n// A mapping between land ID, buyer address, and request ID\r\n    mapping(uint => mapping(address => uint)) public landToBuyerToRequest;\r\n    \r\n    //List containing all the lands that are added\r\n    uint[] allLandList;\r\n\r\n    \r\n\r\n    uint256 requestCount;\r\n\r\n\r\n    uint public landRecordsCount = 1;\r\n\r\n    modifier onlyOwner(uint _landId) {\r\n        require(\r\n            msg.sender == landMapping[_landId].owner,\r\n            \"Only owner can perform this operation.\"\r\n        );\r\n        _;\r\n    }\r\n\r\n    modifier onlylInspector() {\r\n        //Call the isInspector function from the accountRegistration contract\r\n        bool isInspector = IAccountRegistration(\r\n            accountRegistrationContract\r\n        ).isLandInspector(msg.sender);\r\n\r\n        require(isInspector, \"Only inspector can perform this action.\");\r\n        _;\r\n    }\r\n\r\n    modifier onlyRegisteredUser() {\r\n        //Call the isVerified function from the accountRegistration contract\r\n        bool isRegisteredUser = IAccountRegistration(\r\n            accountRegistrationContract\r\n        ).checkUserVerified(msg.sender);\r\n\r\n        require(isRegisteredUser, \"Only registered user can perform this action.\");\r\n        _;\r\n    }\r\n\r\n    modifier onlyVerifiedLand(uint _landId) {\r\n        require(\r\n            landMapping[_landId].isVerified == true,\r\n            \"Only verified lands can be put up for sale.\"\r\n        );\r\n        _;\r\n    }\r\n\r\n    /*\r\n        Mapping of land records by hierarchy. Mapping is as follows:\r\n        state => {\r\n            division => {\r\n                district => {\r\n                    taluka => {\r\n                        village => {\r\n                            survery number => {\r\n                                subdivision => id\r\n                            }\r\n                        }\r\n                    }\r\n                }\r\n            }\r\n        }\r\n        This mapping will be useful for efficient retrieval of land id.\r\n     */\r\n    \r\n    mapping(\r\n        string => mapping(\r\n            string => mapping(\r\n                string => mapping(\r\n                    string => mapping(\r\n                        string => mapping(\r\n                            uint => mapping(\r\n                                string => uint\r\n                            )\r\n                        )\r\n                    )\r\n                )\r\n            )\r\n        )\r\n    )landMapToId;\r\n\r\n    //Mapping of land ids to land records.\r\n    mapping(uint => LandRecord) public landMapping;\r\n\r\n    //A list of land ids which have been marked for sale\r\n    uint[] landsForSale;\r\n\r\n    //A list of lands which are to be verified by an inspector\r\n    uint[] verificationRequired;\r\n\r\n    //Function to submit a land verification request\r\n    function landVerificationRequest(uint _landId) public onlyRegisteredUser() onlyOwner(_landId) {\r\n        //Land is already verified\r\n        if(landMapping[_landId].isVerified) {\r\n            emit LandAlreadyVerified(_landId);\r\n            return;\r\n        } \r\n        //Check if land verification request already exists.\r\n        for(uint i = 0; i < verificationRequired.length; i++) {\r\n            if(verificationRequired[i] == _landId) {\r\n                emit LandVerificationRequestExists(_landId);\r\n                return;\r\n            }\r\n        }\r\n        //Add request to the list of pending verifications\r\n        verificationRequired.push(_landId);\r\n        emit LandVerificationRequestSubmitted(_landId);\r\n    }\r\n\r\n    function getPendingLandVerificationRequests() public view returns (uint[] memory){\r\n        return verificationRequired;\r\n    }\r\n\r\n    function landRecordExists(LandIdentifier memory _record) \r\n                                private view returns (bool, uint) {\r\n        uint landId = landMapToId[_record.state][_record.division]\r\n                                [_record.district][_record.taluka]\r\n                                [_record.village][_record.surveyNumber][_record.subdivision];\r\n        if (landId == 0) {\r\n            return (false, 0);\r\n        }\r\n        return (true, landId);\r\n    }\r\n\r\n    //This function is used to add a land record\r\n    function addLandRecord  (LandRecord memory _record) public onlyRegisteredUser()\r\n                             returns (uint) {\r\n\r\n        (bool recordExists, uint landId) = landRecordExists(_record.identifier);\r\n\r\n        //If land record already exists, return the land id\r\n        if (recordExists) {\r\n            emit LandRecordExists(landId);\r\n            return landId;\r\n        }\r\n\r\n        _record.landId = landRecordsCount;\r\n        _record.isVerified = false;\r\n        _record.isForSale = false;\r\n        //If the land record doesn't already exist, add it to the mapping\r\n        //and return land id\r\n        landMapping[landRecordsCount] = _record;\r\n\r\n        //Also add it to the landMapToId mapping\r\n        landMapToId[_record.identifier.state][_record.identifier.division]\r\n        [_record.identifier.district][_record.identifier.taluka]\r\n        [_record.identifier.village][_record.identifier.surveyNumber]\r\n        [_record.identifier.subdivision] = landRecordsCount;\r\n\r\n        uint addedLandId = landRecordsCount;\r\n        allLandList.push(addedLandId);\r\n        landRecordsCount++;\r\n\r\n        //Add to the accounts list of lands\r\n        MyLands[msg.sender].push(addedLandId);\r\n        emit LandRecordAdded(addedLandId);\r\n        return addedLandId;\r\n    }\r\n\r\n    // Function to remove land by landId\r\n    function removeLand(uint256 landId) public{\r\n        uint256[] storage lands = MyLands[msg.sender];\r\n\r\n        // Search for the landId in the array\r\n        for (uint256 i = 0; i < lands.length; i++) {\r\n            if (lands[i] == landId) {\r\n                // Remove the landId from the array\r\n                lands[i] = lands[lands.length - 1];\r\n                lands.pop();\r\n\r\n\r\n                break;\r\n            }\r\n        }\r\n    }\r\n    \r\n\r\n    //Get land id\r\n    function getLandId(LandIdentifier memory _identifier) public view returns (uint){\r\n        return landMapToId[_identifier.state][_identifier.division]\r\n        [_identifier.district][_identifier.taluka][_identifier.village]\r\n        [_identifier.surveyNumber][_identifier.subdivision];\r\n    }\r\n\r\n    //Function to approve a land verification request\r\n    function verifyLand(uint _landId) public onlylInspector {\r\n        //Set the status of the land to verified\r\n        landMapping[_landId].isVerified = true;\r\n\r\n        //Remove land id from the verificationRequired list\r\n        for(uint i = 0; i < verificationRequired.length; i++) {\r\n            if(verificationRequired[i] == _landId) {\r\n                verificationRequired[i] = verificationRequired[verificationRequired.length - 1];\r\n                verificationRequired.pop();\r\n                break;\r\n            }\r\n        }\r\n        emit LandVerified(_landId);\r\n    }\r\n\r\n    //List land for sale\r\n    function listLandForSale(uint _landId) public  onlyRegisteredUser() onlyVerifiedLand(_landId) onlyOwner(_landId){\r\n        //Check if land actually exists\r\n        //Mapping in solidity always exists and maps to a zero value\r\n        //Hence, this check is needed.\r\n        require(landMapping[_landId].landId > 0);\r\n\r\n        //Mark the land for Sale\r\n        landMapping[_landId].isForSale = true;\r\n\r\n        //Add the land to the landsForSale list\r\n        landsForSale.push(_landId);\r\n\r\n        emit LandListedForSale(_landId);\r\n    }\r\n\r\n // Function where a buyer can request and show interest in buying a land\r\n    function requestForBuy(uint _landId) public onlyRegisteredUser() {\r\n        require(landMapping[_landId].isForSale, \"Land is not for sale\");\r\n\r\n        // Check if the buyer has already requested to buy this land before\r\n        if (hasBuyerAlreadyRequested(_landId, msg.sender)) {\r\n            // Emit the DuplicateLandRequest event and revert the transaction\r\n            emit DuplicateLandRequest(_landId, msg.sender);\r\n        }\r\n        else\r\n        {\r\n\r\n        requestCount++;\r\n        LandRequestMapping[requestCount] = LandRequest(requestCount, landMapping[_landId].owner, msg.sender, _landId, reqStatus.requested, false);\r\n        MyReceivedLandRequests[landMapping[_landId].owner].push(requestCount);\r\n        MySentLandRequests[msg.sender].push(requestCount);\r\n\r\n        // Update the mapping between land ID, buyer address, and request ID\r\n        landToBuyerToRequest[_landId][msg.sender] = requestCount;\r\n\r\n        emit LandRequests(requestCount, landMapping[_landId].owner, msg.sender, _landId, reqStatus.requested, false);\r\n        }\r\n    }\r\n\r\n    \r\n    // Function to check if a buyer has already requested to buy a specific land\r\n    function hasBuyerAlreadyRequested(uint _landId, address _buyer) internal view returns (bool) {\r\n        return landToBuyerToRequest[_landId][_buyer] > 0;\r\n    }\r\n\r\n    // Function to cancel a buyer's request for a land\r\nfunction cancelBuyerRequest(uint _landId) public  onlyRegisteredUser(){\r\n    require(landMapping[_landId].isForSale, \"Land is not for sale\");\r\n\r\n        // Check if the buyer has requested for this land\r\n        if (hasBuyerAlreadyRequested(_landId, msg.sender)) {\r\n            uint requestId = landToBuyerToRequest[_landId][msg.sender];\r\n\r\n            // // Check if the request is still in the 'requested' status\r\n             require(LandRequestMapping[requestId].requestStatus == reqStatus.requested, \"Cannot cancel. Request is not in 'requested' status\");\r\n\r\n\r\n            LandRequestMapping[requestId].requestStatus == reqStatus.rejected;\r\n\r\n            // Remove the request from MyReceivedLandRequests and MySentLandRequests lists\r\n            removeRequestFromList(MyReceivedLandRequests[landMapping[_landId].owner], requestId);\r\n            removeRequestFromList(MySentLandRequests[msg.sender], requestId);\r\n\r\n            // Update the mapping between land ID, buyer address, and request ID\r\n            delete landToBuyerToRequest[_landId][msg.sender];\r\n\r\n            // Emit the BuyerRequestCancelled event\r\n             emit BuyerRequestCancelled(requestId, landMapping[_landId].owner, msg.sender, _landId);\r\n            }\r\n\r\n}\r\n\r\n// Add a new function to retrieve the status of land requests for a specific land\r\nfunction getLandRequestStatus(uint _landId, address _buyer) public view returns (reqStatus) {\r\n    uint requestId = landToBuyerToRequest[_landId][_buyer];\r\n    if (requestId > 0) {\r\n        return LandRequestMapping[requestId].requestStatus;\r\n    }\r\n    return reqStatus.requested; // Default to requested if no request found\r\n}\r\n\r\n// Internal function to remove a request ID from a list\r\nfunction removeRequestFromList(uint[] storage requestList, uint requestId) internal {\r\n    uint len = requestList.length;\r\n    for (uint i = 0; i < len; i++) {\r\n        if (requestList[i] == requestId) {\r\n            requestList[i] = requestList[len - 1];\r\n            requestList.pop();\r\n            break;\r\n        }\r\n    }\r\n\r\n    // Emit the LandRequestCancelled event\r\n        emit LandRequestCancelled(requestId);\r\n}\r\n\r\n// Function that will return a list of received land requests buyers interested for a particular land\r\nfunction receivedLandRequests() public view returns (uint[] memory) {\r\n    \r\n    return MyReceivedLandRequests[msg.sender];\r\n}\r\n//Function that will return a list of buyers interested for a particular land and have sent requests\r\nfunction sentLandRequests() public view returns(uint[] memory)\r\n{\r\n    return MySentLandRequests[msg.sender];\r\n}\r\n\r\n// Add a new function to get land ID for a given request ID\r\nfunction getLandIdForRequest(uint _requestId) public view returns (uint) {\r\n    return LandRequestMapping[_requestId].landId;\r\n}\r\n\r\n\r\n// Function to get the buyer address for a given request ID\r\nfunction getBuyerAddressForRequest(uint _requestId) public view returns (address) {\r\n    require(_requestId > 0 && _requestId <= requestCount, \"Invalid request ID\");\r\n\r\n    return LandRequestMapping[_requestId].buyerId;\r\n}\r\n\r\n// Event to signal that another request for the same land has already been accepted\r\nevent DuplicateAcceptanceAttempt(uint requestId, address seller, address buyer);\r\n\r\n// Mapping to keep track of whether a request for a specific land ID has been accepted\r\nmapping(uint => bool) public isLandIdAccepted;\r\n\r\n\r\n// Function where seller accepts the request of the buyer\r\n    function acceptRequest(uint _requestId) public onlyRegisteredUser(){\r\n        require(LandRequestMapping[_requestId].sellerId == msg.sender, \"Not the seller of this land\");\r\n        require(LandRequestMapping[_requestId].requestStatus == reqStatus.requested, \"Invalid request status\");\r\n\r\n     // Check if a request for the same land ID has already been accepted\r\n    if (isLandIdAccepted[LandRequestMapping[_requestId].landId]) {\r\n        // Emit the DuplicateAcceptanceAttempt event and revert the transaction\r\n        emit DuplicateAcceptanceAttempt(_requestId, msg.sender, LandRequestMapping[_requestId].buyerId);\r\n        return;\r\n    }\r\n\r\n    // Update the request status\r\n    LandRequestMapping[_requestId].requestStatus = reqStatus.accepted;\r\n\r\n    // Mark the land ID as accepted\r\n    isLandIdAccepted[LandRequestMapping[_requestId].landId] = true;\r\n    emit RequestAccepted(_requestId, msg.sender, LandRequestMapping[_requestId].buyerId);\r\n\r\n   \r\n    }\r\n\r\n//Function where seller rejects the request of the buyer\r\n    function rejectRequest(uint _requestId) public onlyRegisteredUser()\r\n    {\r\n        require(LandRequestMapping[_requestId].sellerId == msg.sender, \"Not the seller of this land\");\r\n        require(LandRequestMapping[_requestId].requestStatus == reqStatus.requested, \"Invalid request status\");\r\n\r\n        LandRequestMapping[_requestId].requestStatus=reqStatus.rejected;\r\n\r\n\r\n    // Remove the request from MyReceivedLandRequests and MySentLandRequests lists\r\n    removeRequestFromList(MyReceivedLandRequests[LandRequestMapping[_requestId].sellerId ], _requestId);\r\n    removeRequestFromList(MySentLandRequests[LandRequestMapping[_requestId].buyerId], _requestId);\r\n\r\n       // Emit the RequestRejected event\r\n    //emit RequestRejected(_requestId, msg.sender, LandRequestMapping[_requestId].buyerId);\r\n\r\n\r\n     // Update the mapping between land ID, buyer address, and request ID\r\n        delete landToBuyerToRequest[LandRequestMapping[_requestId].landId][LandRequestMapping[_requestId].buyerId];\r\n\r\n\r\n     // Delete the request entry\r\n        delete LandRequestMapping[_requestId];\r\n    }\r\n\r\n    // Function to get the request ID for a given land ID\r\nfunction getRequestForLandId(uint _landId, address _buyer) public view returns (uint) {\r\n    uint requestId = landToBuyerToRequest[_landId][_buyer];\r\n\r\n    // Check if the request ID is greater than 0, indicating a valid request\r\n    if (requestId > 0) {\r\n        return requestId;\r\n    }\r\n\r\n    // Return 0 if no valid request exists\r\n    return 0;\r\n}\r\n\r\n// Array to store pending transfer requests\r\nuint[] public pendingTransferRequests;\r\n\r\n// Event to be emitted when a transfer request is pending\r\nevent PendingTransferRequest(uint indexed requestId, uint indexed landId, address indexed seller, address buyer);\r\n\r\n \r\n//Function to mark payment as done\r\nfunction markPaymentAsDone(uint _requestId, uint _landId) public onlyRegisteredUser() {\r\n    require(LandRequestMapping[_requestId].sellerId == msg.sender, \"Not the seller of this land\");\r\n    require(LandRequestMapping[_requestId].requestStatus == reqStatus.accepted, \"Invalid request status\");\r\n    require(landMapping[_landId].isForSale, \"Land is not for sale\");\r\n\r\n    // Ensure the provided requestId is valid\r\n    require(_requestId > 0, \"Invalid requestId\");\r\n\r\n\r\n    // Mark payment as done\r\n    LandRequestMapping[_requestId].isPaymentDone = true;\r\n    LandRequestMapping[_requestId].requestStatus=reqStatus.paymentdone;\r\n\r\n\r\n    // Add the request to the pending transfer requests array\r\n    pendingTransferRequests.push(_requestId);\r\n\r\n    // Emit an event to signal the pending transfer request\r\n    emit PendingTransferRequest(_requestId, _landId, msg.sender, LandRequestMapping[_requestId].buyerId);\r\n\r\n\r\n    // Emit the PaymentMarkedAsDone event\r\n    emit PaymentMarkedAsDone(_requestId, _landId);\r\n}\r\n//Function to check the status of payment\r\n    function requestStatus(uint requestId) public view returns(bool)\r\n    {\r\n        return LandRequestMapping[requestId].isPaymentDone;\r\n    }\r\n\r\n// Function to get the owner's address for a given land ID\r\nfunction getOwnerAddress(uint _landId) public view returns (address) {\r\n    require(landMapping[_landId].landId > 0, \"Land not found\");\r\n    return landMapping[_landId].owner;\r\n}\r\n\r\n// Function to remove a land from sale\r\nfunction removeLandFromSale(uint _landId) public {\r\n     // Check if the land is currently listed for sale\r\n    require(landMapping[_landId].isForSale, \"Land is not currently listed for sale\");\r\n\r\n    // Mark the land as not for sale\r\n    landMapping[_landId].isForSale = false;\r\n\r\n    // Remove the land ID from the landsforsale list\r\n    for (uint i = 0; i < landsForSale.length; i++) {\r\n        if (landsForSale[i] == _landId) {\r\n            // Swap with the last element and pop\r\n            landsForSale[i] = landsForSale[landsForSale.length - 1];\r\n            landsForSale.pop();\r\n            break;\r\n        }\r\n    }\r\n\r\n}\r\n\r\nfunction getPendingTransferRequests() public view returns (uint[] memory) {\r\n    return pendingTransferRequests;\r\n}\r\n\r\nfunction findLandIndex(address owner, uint landId) internal view returns (uint) {\r\n    uint[] storage lands = MyLands[owner];\r\n\r\n    for (uint i = 0; i < lands.length; i++) {\r\n        if (lands[i] == landId) {\r\n            return i;\r\n        }\r\n    }\r\n\r\n    // Return a value that indicates the land was not found (e.g., lands.length)\r\n    return lands.length;\r\n}\r\n\r\n// Function to transfer land ownership\r\nfunction transferLandOwnership(uint _requestId) public onlylInspector(){\r\n    require(LandRequestMapping[_requestId].requestStatus == reqStatus.paymentdone, \"payment not done\");\r\n    \r\n    uint landId = LandRequestMapping[_requestId].landId;\r\n    address oldOwner = landMapping[landId].owner;\r\n    address newOwner = LandRequestMapping[_requestId].buyerId;\r\n\r\n    // Update the owner of the land\r\n    landMapping[landId].owner = newOwner;\r\n\r\n    // Remove the land from landsForSale list\r\n    //landMapping[landId].isForSale = false;\r\n\r\n       //Add to the accounts list of lands\r\n        MyLands[newOwner].push(landId);\r\n\r\n      // Remove the land from landsforsale list if it was listed for sale\r\n    if (landMapping[landId].isForSale) {\r\n        removeLandFromSale(landId);\r\n    }\r\n\r\n    \r\n    // Store the previous owner's address in the array\r\n    landMapping[landId].previousOwners.push(oldOwner);\r\n\r\n    LandRequestMapping[_requestId].requestStatus= reqStatus.completed;\r\n       \r\n     // Remove the land from the previous owner's MyLands array\r\n    uint indexToRemove = findLandIndex(oldOwner, landId);\r\n    require(indexToRemove < MyLands[oldOwner].length, \"Land not found in previous owner's list\");\r\n\r\n    // Swap the land to remove with the last land in the array\r\n    MyLands[oldOwner][indexToRemove] = MyLands[oldOwner][MyLands[oldOwner].length - 1];\r\n    \r\n    // Remove the last element (duplicate) from the array\r\n    MyLands[oldOwner].pop();  \r\n\r\n\r\n    // Remove the mapping when the land ownership is transferred\r\n       // delete landToBuyerToRequest[landId][newOwner];\r\n\r\n    // Remove the request from MyReceivedLandRequests and MySentLandRequests lists\r\n    // removeRequestFromList(MyReceivedLandRequests[LandRequestMapping[_requestId].sellerId ], _requestId);\r\n    // removeRequestFromList(MySentLandRequests[LandRequestMapping[_requestId].buyerId], _requestId);\r\n\r\n      // Delete the request entry\r\n    //delete LandRequestMapping[_requestId];\r\n\r\n\r\n    // Emit the LandOwnershipTransferred event\r\n    emit LandOwnershipTransferred(landId, oldOwner, newOwner);\r\n}\r\n\r\n\r\n// Function to get the previous owners of a land\r\nfunction getPreviousOwners(uint _landId) public view returns (address[] memory) {\r\n    require(landMapping[_landId].landId > 0, \"Land not found\");\r\n    return landMapping[_landId].previousOwners;\r\n}\r\n\r\n\r\n\r\n\r\n    //Get all land ids which have been listed for sale\r\n    //except the lands listed for sale by the caller\r\n    function getLandsForSale() public view returns (LandRecord[] memory) {\r\n        uint count = 0;\r\n        for(uint i = 0; i < landsForSale.length; i++) {\r\n            if(landMapping[landsForSale[i]].owner != msg.sender) {\r\n                count++;\r\n            }\r\n        }\r\n\r\n        LandRecord[] memory result = new LandRecord[](count);\r\n\r\n        uint resultIndex = 0;\r\n\r\n        for(uint i = 0; i < landsForSale.length; i++) {\r\n            if(landMapping[landsForSale[i]].owner != msg.sender) {\r\n                result[resultIndex] = landMapping[landsForSale[i]];\r\n                resultIndex++;\r\n            }\r\n        }\r\n        return result;\r\n    }\r\n\r\n\r\n\r\n    function getMyLands() public view returns(LandRecord[] memory) {\r\n        LandRecord[] memory result = new LandRecord[](MyLands[msg.sender].length);\r\n\r\n        for(uint i = 0; i < MyLands[msg.sender].length; i++) {\r\n            result[i] = landMapping[MyLands[msg.sender][i]];\r\n        }\r\n        return result;\r\n    }\r\n\r\n//Function that returns a list of all lands\r\n    function ReturnAllLandList() public view returns(uint[] memory)\r\n    {\r\n        return allLandList;\r\n    }\r\n}\r\n\r\n\r\n",
  "sourcePath": "C:\\Users\\Aaryan\\Desktop\\FYP NEW\\Decentralizsed-Land-Registration\\contracts\\land-contract.sol",
  "compiler": {
    "name": "solc",
    "version": "0.8.0+commit.c7dfd78e.Emscripten.clang"
  },
  "schemaVersion": "3.4.16",
  "updatedAt": "2024-02-01T19:42:57.751Z",
  "networkType": "ethereum",
  "devdoc": {
    "kind": "dev",
    "methods": {},
    "version": 1
  },
  "userdoc": {
    "kind": "user",
    "methods": {},
    "version": 1
  }
}