{
  "contractName": "LandRegistration",
  "abi": [
    {
      "inputs": [
        {
          "internalType": "address",
          "name": "_accountRegistrationContract",
          "type": "address"
        }
      ],
      "stateMutability": "nonpayable",
      "type": "constructor"
    },
    {
      "anonymous": false,
      "inputs": [
        {
          "indexed": false,
          "internalType": "uint256",
          "name": "requestId",
          "type": "uint256"
        },
        {
          "indexed": false,
          "internalType": "address",
          "name": "seller",
          "type": "address"
        },
        {
          "indexed": false,
          "internalType": "address",
          "name": "buyer",
          "type": "address"
        },
        {
          "indexed": false,
          "internalType": "uint256",
          "name": "landId",
          "type": "uint256"
        }
      ],
      "name": "BuyerRequestCancelled",
      "type": "event"
    },
    {
      "anonymous": false,
      "inputs": [
        {
          "indexed": false,
          "internalType": "address",
          "name": "buyer",
          "type": "address"
        },
        {
          "indexed": false,
          "internalType": "uint256",
          "name": "landId",
          "type": "uint256"
        }
      ],
      "name": "DuplicateCancellationAttempt",
      "type": "event"
    },
    {
      "anonymous": false,
      "inputs": [
        {
          "indexed": false,
          "internalType": "uint256",
          "name": "landId",
          "type": "uint256"
        },
        {
          "indexed": false,
          "internalType": "address",
          "name": "buyer",
          "type": "address"
        }
      ],
      "name": "DuplicateLandRequest",
      "type": "event"
    },
    {
      "anonymous": false,
      "inputs": [
        {
          "indexed": false,
          "internalType": "uint256",
          "name": "landId",
          "type": "uint256"
        }
      ],
      "name": "LandAlreadyForSale",
      "type": "event"
    },
    {
      "anonymous": false,
      "inputs": [
        {
          "indexed": false,
          "internalType": "uint256",
          "name": "landId",
          "type": "uint256"
        }
      ],
      "name": "LandListedForSale",
      "type": "event"
    },
    {
      "anonymous": false,
      "inputs": [
        {
          "indexed": false,
          "internalType": "uint256",
          "name": "landId",
          "type": "uint256"
        },
        {
          "indexed": false,
          "internalType": "address",
          "name": "oldOwner",
          "type": "address"
        },
        {
          "indexed": false,
          "internalType": "address",
          "name": "newOwner",
          "type": "address"
        }
      ],
      "name": "LandOwnershipTransferred",
      "type": "event"
    },
    {
      "anonymous": false,
      "inputs": [
        {
          "indexed": false,
          "internalType": "uint256",
          "name": "landId",
          "type": "uint256"
        }
      ],
      "name": "LandRecordAdded",
      "type": "event"
    },
    {
      "anonymous": false,
      "inputs": [
        {
          "indexed": false,
          "internalType": "uint256",
          "name": "landId",
          "type": "uint256"
        }
      ],
      "name": "LandRecordExists",
      "type": "event"
    },
    {
      "anonymous": false,
      "inputs": [
        {
          "indexed": false,
          "internalType": "uint256",
          "name": "requestId",
          "type": "uint256"
        }
      ],
      "name": "LandRequestCancelled",
      "type": "event"
    },
    {
      "anonymous": false,
      "inputs": [
        {
          "indexed": false,
          "internalType": "uint256",
          "name": "requestId",
          "type": "uint256"
        },
        {
          "indexed": false,
          "internalType": "address",
          "name": "landOwner",
          "type": "address"
        },
        {
          "indexed": false,
          "internalType": "address",
          "name": "buyer",
          "type": "address"
        },
        {
          "indexed": false,
          "internalType": "uint256",
          "name": "landId",
          "type": "uint256"
        },
        {
          "indexed": false,
          "internalType": "enum LandRegistration.reqStatus",
          "name": "status",
          "type": "uint8"
        },
        {
          "indexed": false,
          "internalType": "bool",
          "name": "someFlag",
          "type": "bool"
        }
      ],
      "name": "LandRequests",
      "type": "event"
    },
    {
      "anonymous": false,
      "inputs": [
        {
          "indexed": false,
          "internalType": "uint256",
          "name": "requestId",
          "type": "uint256"
        },
        {
          "indexed": false,
          "internalType": "uint256",
          "name": "landId",
          "type": "uint256"
        }
      ],
      "name": "PaymentMarkedAsDone",
      "type": "event"
    },
    {
      "anonymous": false,
      "inputs": [
        {
          "indexed": true,
          "internalType": "uint256",
          "name": "requestId",
          "type": "uint256"
        },
        {
          "indexed": true,
          "internalType": "address",
          "name": "seller",
          "type": "address"
        },
        {
          "indexed": true,
          "internalType": "address",
          "name": "buyer",
          "type": "address"
        }
      ],
      "name": "RequestAccepted",
      "type": "event"
    },
    {
      "anonymous": false,
      "inputs": [
        {
          "indexed": true,
          "internalType": "uint256",
          "name": "requestId",
          "type": "uint256"
        },
        {
          "indexed": true,
          "internalType": "address",
          "name": "seller",
          "type": "address"
        },
        {
          "indexed": true,
          "internalType": "address",
          "name": "buyer",
          "type": "address"
        }
      ],
      "name": "RequestRejected",
      "type": "event"
    },
    {
      "inputs": [
        {
          "internalType": "uint256",
          "name": "",
          "type": "uint256"
        }
      ],
      "name": "LandRequestMapping",
      "outputs": [
        {
          "internalType": "uint256",
          "name": "reqId",
          "type": "uint256"
        },
        {
          "internalType": "address",
          "name": "sellerId",
          "type": "address"
        },
        {
          "internalType": "address",
          "name": "buyerId",
          "type": "address"
        },
        {
          "internalType": "uint256",
          "name": "landId",
          "type": "uint256"
        },
        {
          "internalType": "enum LandRegistration.reqStatus",
          "name": "requestStatus",
          "type": "uint8"
        },
        {
          "internalType": "bool",
          "name": "isPaymentDone",
          "type": "bool"
        }
      ],
      "stateMutability": "view",
      "type": "function",
      "constant": true
    },
    {
      "inputs": [],
      "name": "accountRegistrationContract",
      "outputs": [
        {
          "internalType": "address",
          "name": "",
          "type": "address"
        }
      ],
      "stateMutability": "view",
      "type": "function",
      "constant": true
    },
    {
      "inputs": [],
      "name": "deployer",
      "outputs": [
        {
          "internalType": "address",
          "name": "",
          "type": "address"
        }
      ],
      "stateMutability": "view",
      "type": "function",
      "constant": true
    },
    {
      "inputs": [
        {
          "internalType": "uint256",
          "name": "",
          "type": "uint256"
        }
      ],
      "name": "landMapping",
      "outputs": [
        {
          "internalType": "uint256",
          "name": "landId",
          "type": "uint256"
        },
        {
          "internalType": "address",
          "name": "owner",
          "type": "address"
        },
        {
          "components": [
            {
              "internalType": "string",
              "name": "state",
              "type": "string"
            },
            {
              "internalType": "string",
              "name": "division",
              "type": "string"
            },
            {
              "internalType": "string",
              "name": "district",
              "type": "string"
            },
            {
              "internalType": "string",
              "name": "taluka",
              "type": "string"
            },
            {
              "internalType": "string",
              "name": "village",
              "type": "string"
            },
            {
              "internalType": "uint256",
              "name": "surveyNumber",
              "type": "uint256"
            },
            {
              "internalType": "string",
              "name": "subdivision",
              "type": "string"
            }
          ],
          "internalType": "struct LandRegistration.LandIdentifier",
          "name": "identifier",
          "type": "tuple"
        },
        {
          "internalType": "uint256",
          "name": "area",
          "type": "uint256"
        },
        {
          "internalType": "uint256",
          "name": "purchaseDate",
          "type": "uint256"
        },
        {
          "internalType": "uint256",
          "name": "purchasePrice",
          "type": "uint256"
        },
        {
          "internalType": "uint256",
          "name": "landValueAtPurchase",
          "type": "uint256"
        },
        {
          "internalType": "bool",
          "name": "isVerified",
          "type": "bool"
        },
        {
          "internalType": "bool",
          "name": "isForSale",
          "type": "bool"
        }
      ],
      "stateMutability": "view",
      "type": "function",
      "constant": true
    },
    {
      "inputs": [],
      "name": "landRecordsCount",
      "outputs": [
        {
          "internalType": "uint256",
          "name": "",
          "type": "uint256"
        }
      ],
      "stateMutability": "view",
      "type": "function",
      "constant": true
    },
    {
      "inputs": [
        {
          "internalType": "uint256",
          "name": "",
          "type": "uint256"
        },
        {
          "internalType": "address",
          "name": "",
          "type": "address"
        }
      ],
      "name": "landToBuyerToRequest",
      "outputs": [
        {
          "internalType": "uint256",
          "name": "",
          "type": "uint256"
        }
      ],
      "stateMutability": "view",
      "type": "function",
      "constant": true
    },
    {
      "inputs": [
        {
          "internalType": "uint256",
          "name": "_landId",
          "type": "uint256"
        }
      ],
      "name": "landVerificationRequest",
      "outputs": [],
      "stateMutability": "nonpayable",
      "type": "function"
    },
    {
      "inputs": [
        {
          "components": [
            {
              "internalType": "uint256",
              "name": "landId",
              "type": "uint256"
            },
            {
              "internalType": "address",
              "name": "owner",
              "type": "address"
            },
            {
              "components": [
                {
                  "internalType": "string",
                  "name": "state",
                  "type": "string"
                },
                {
                  "internalType": "string",
                  "name": "division",
                  "type": "string"
                },
                {
                  "internalType": "string",
                  "name": "district",
                  "type": "string"
                },
                {
                  "internalType": "string",
                  "name": "taluka",
                  "type": "string"
                },
                {
                  "internalType": "string",
                  "name": "village",
                  "type": "string"
                },
                {
                  "internalType": "uint256",
                  "name": "surveyNumber",
                  "type": "uint256"
                },
                {
                  "internalType": "string",
                  "name": "subdivision",
                  "type": "string"
                }
              ],
              "internalType": "struct LandRegistration.LandIdentifier",
              "name": "identifier",
              "type": "tuple"
            },
            {
              "internalType": "uint256",
              "name": "area",
              "type": "uint256"
            },
            {
              "internalType": "uint256",
              "name": "purchaseDate",
              "type": "uint256"
            },
            {
              "internalType": "uint256",
              "name": "purchasePrice",
              "type": "uint256"
            },
            {
              "internalType": "uint256",
              "name": "landValueAtPurchase",
              "type": "uint256"
            },
            {
              "internalType": "address[]",
              "name": "previousOwners",
              "type": "address[]"
            },
            {
              "internalType": "bool",
              "name": "isVerified",
              "type": "bool"
            },
            {
              "internalType": "bool",
              "name": "isForSale",
              "type": "bool"
            }
          ],
          "internalType": "struct LandRegistration.LandRecord",
          "name": "_record",
          "type": "tuple"
        }
      ],
      "name": "addLandRecord",
      "outputs": [
        {
          "internalType": "uint256",
          "name": "",
          "type": "uint256"
        }
      ],
      "stateMutability": "nonpayable",
      "type": "function"
    },
    {
      "inputs": [
        {
          "internalType": "uint256",
          "name": "landId",
          "type": "uint256"
        }
      ],
      "name": "removeLand",
      "outputs": [],
      "stateMutability": "nonpayable",
      "type": "function"
    },
    {
      "inputs": [
        {
          "components": [
            {
              "internalType": "string",
              "name": "state",
              "type": "string"
            },
            {
              "internalType": "string",
              "name": "division",
              "type": "string"
            },
            {
              "internalType": "string",
              "name": "district",
              "type": "string"
            },
            {
              "internalType": "string",
              "name": "taluka",
              "type": "string"
            },
            {
              "internalType": "string",
              "name": "village",
              "type": "string"
            },
            {
              "internalType": "uint256",
              "name": "surveyNumber",
              "type": "uint256"
            },
            {
              "internalType": "string",
              "name": "subdivision",
              "type": "string"
            }
          ],
          "internalType": "struct LandRegistration.LandIdentifier",
          "name": "_identifier",
          "type": "tuple"
        }
      ],
      "name": "getLandId",
      "outputs": [
        {
          "internalType": "uint256",
          "name": "",
          "type": "uint256"
        }
      ],
      "stateMutability": "view",
      "type": "function",
      "constant": true
    },
    {
      "inputs": [
        {
          "internalType": "uint256",
          "name": "_landId",
          "type": "uint256"
        }
      ],
      "name": "verifyLand",
      "outputs": [],
      "stateMutability": "nonpayable",
      "type": "function"
    },
    {
      "inputs": [
        {
          "internalType": "uint256",
          "name": "_landId",
          "type": "uint256"
        }
      ],
      "name": "listLandForSale",
      "outputs": [],
      "stateMutability": "nonpayable",
      "type": "function"
    },
    {
      "inputs": [
        {
          "internalType": "uint256",
          "name": "_landId",
          "type": "uint256"
        }
      ],
      "name": "requestForBuy",
      "outputs": [],
      "stateMutability": "nonpayable",
      "type": "function"
    },
    {
      "inputs": [
        {
          "internalType": "uint256",
          "name": "_landId",
          "type": "uint256"
        }
      ],
      "name": "cancelBuyerRequest",
      "outputs": [],
      "stateMutability": "nonpayable",
      "type": "function"
    },
    {
      "inputs": [
        {
          "internalType": "uint256",
          "name": "_landId",
          "type": "uint256"
        },
        {
          "internalType": "address",
          "name": "_buyer",
          "type": "address"
        }
      ],
      "name": "getLandRequestStatus",
      "outputs": [
        {
          "internalType": "enum LandRegistration.reqStatus",
          "name": "",
          "type": "uint8"
        }
      ],
      "stateMutability": "view",
      "type": "function",
      "constant": true
    },
    {
      "inputs": [],
      "name": "receivedLandRequests",
      "outputs": [
        {
          "internalType": "uint256[]",
          "name": "",
          "type": "uint256[]"
        }
      ],
      "stateMutability": "view",
      "type": "function",
      "constant": true
    },
    {
      "inputs": [],
      "name": "sentLandRequests",
      "outputs": [
        {
          "internalType": "uint256[]",
          "name": "",
          "type": "uint256[]"
        }
      ],
      "stateMutability": "view",
      "type": "function",
      "constant": true
    },
    {
      "inputs": [
        {
          "internalType": "uint256",
          "name": "_requestId",
          "type": "uint256"
        }
      ],
      "name": "getLandIdForRequest",
      "outputs": [
        {
          "internalType": "uint256",
          "name": "",
          "type": "uint256"
        }
      ],
      "stateMutability": "view",
      "type": "function",
      "constant": true
    },
    {
      "inputs": [
        {
          "internalType": "uint256",
          "name": "_requestId",
          "type": "uint256"
        }
      ],
      "name": "getBuyerAddressForRequest",
      "outputs": [
        {
          "internalType": "address",
          "name": "",
          "type": "address"
        }
      ],
      "stateMutability": "view",
      "type": "function",
      "constant": true
    },
    {
      "inputs": [
        {
          "internalType": "uint256",
          "name": "_requestId",
          "type": "uint256"
        }
      ],
      "name": "acceptRequest",
      "outputs": [],
      "stateMutability": "nonpayable",
      "type": "function"
    },
    {
      "inputs": [
        {
          "internalType": "uint256",
          "name": "_requestId",
          "type": "uint256"
        }
      ],
      "name": "rejectRequest",
      "outputs": [],
      "stateMutability": "nonpayable",
      "type": "function"
    },
    {
      "inputs": [
        {
          "internalType": "uint256",
          "name": "_landId",
          "type": "uint256"
        },
        {
          "internalType": "address",
          "name": "_buyer",
          "type": "address"
        }
      ],
      "name": "getRequestForLandId",
      "outputs": [
        {
          "internalType": "uint256",
          "name": "",
          "type": "uint256"
        }
      ],
      "stateMutability": "view",
      "type": "function",
      "constant": true
    },
    {
      "inputs": [
        {
          "internalType": "uint256",
          "name": "_requestId",
          "type": "uint256"
        },
        {
          "internalType": "uint256",
          "name": "_landId",
          "type": "uint256"
        }
      ],
      "name": "markPaymentAsDone",
      "outputs": [],
      "stateMutability": "nonpayable",
      "type": "function"
    },
    {
      "inputs": [
        {
          "internalType": "uint256",
          "name": "requestId",
          "type": "uint256"
        }
      ],
      "name": "requestStatus",
      "outputs": [
        {
          "internalType": "bool",
          "name": "",
          "type": "bool"
        }
      ],
      "stateMutability": "view",
      "type": "function",
      "constant": true
    },
    {
      "inputs": [
        {
          "internalType": "uint256",
          "name": "_landId",
          "type": "uint256"
        }
      ],
      "name": "getOwnerAddress",
      "outputs": [
        {
          "internalType": "address",
          "name": "",
          "type": "address"
        }
      ],
      "stateMutability": "view",
      "type": "function",
      "constant": true
    },
    {
      "inputs": [
        {
          "internalType": "uint256",
          "name": "_landId",
          "type": "uint256"
        }
      ],
      "name": "removeLandFromSale",
      "outputs": [],
      "stateMutability": "nonpayable",
      "type": "function"
    },
    {
      "inputs": [
        {
          "internalType": "uint256",
          "name": "_requestId",
          "type": "uint256"
        }
      ],
      "name": "transferLandOwnership",
      "outputs": [],
      "stateMutability": "nonpayable",
      "type": "function"
    },
    {
      "inputs": [
        {
          "internalType": "uint256",
          "name": "_landId",
          "type": "uint256"
        }
      ],
      "name": "getPreviousOwners",
      "outputs": [
        {
          "internalType": "address[]",
          "name": "",
          "type": "address[]"
        }
      ],
      "stateMutability": "view",
      "type": "function",
      "constant": true
    },
    {
      "inputs": [],
      "name": "getLandsForSale",
      "outputs": [
        {
          "components": [
            {
              "internalType": "uint256",
              "name": "landId",
              "type": "uint256"
            },
            {
              "internalType": "address",
              "name": "owner",
              "type": "address"
            },
            {
              "components": [
                {
                  "internalType": "string",
                  "name": "state",
                  "type": "string"
                },
                {
                  "internalType": "string",
                  "name": "division",
                  "type": "string"
                },
                {
                  "internalType": "string",
                  "name": "district",
                  "type": "string"
                },
                {
                  "internalType": "string",
                  "name": "taluka",
                  "type": "string"
                },
                {
                  "internalType": "string",
                  "name": "village",
                  "type": "string"
                },
                {
                  "internalType": "uint256",
                  "name": "surveyNumber",
                  "type": "uint256"
                },
                {
                  "internalType": "string",
                  "name": "subdivision",
                  "type": "string"
                }
              ],
              "internalType": "struct LandRegistration.LandIdentifier",
              "name": "identifier",
              "type": "tuple"
            },
            {
              "internalType": "uint256",
              "name": "area",
              "type": "uint256"
            },
            {
              "internalType": "uint256",
              "name": "purchaseDate",
              "type": "uint256"
            },
            {
              "internalType": "uint256",
              "name": "purchasePrice",
              "type": "uint256"
            },
            {
              "internalType": "uint256",
              "name": "landValueAtPurchase",
              "type": "uint256"
            },
            {
              "internalType": "address[]",
              "name": "previousOwners",
              "type": "address[]"
            },
            {
              "internalType": "bool",
              "name": "isVerified",
              "type": "bool"
            },
            {
              "internalType": "bool",
              "name": "isForSale",
              "type": "bool"
            }
          ],
          "internalType": "struct LandRegistration.LandRecord[]",
          "name": "",
          "type": "tuple[]"
        }
      ],
      "stateMutability": "view",
      "type": "function",
      "constant": true
    },
    {
      "inputs": [],
      "name": "getMyLands",
      "outputs": [
        {
          "components": [
            {
              "internalType": "uint256",
              "name": "landId",
              "type": "uint256"
            },
            {
              "internalType": "address",
              "name": "owner",
              "type": "address"
            },
            {
              "components": [
                {
                  "internalType": "string",
                  "name": "state",
                  "type": "string"
                },
                {
                  "internalType": "string",
                  "name": "division",
                  "type": "string"
                },
                {
                  "internalType": "string",
                  "name": "district",
                  "type": "string"
                },
                {
                  "internalType": "string",
                  "name": "taluka",
                  "type": "string"
                },
                {
                  "internalType": "string",
                  "name": "village",
                  "type": "string"
                },
                {
                  "internalType": "uint256",
                  "name": "surveyNumber",
                  "type": "uint256"
                },
                {
                  "internalType": "string",
                  "name": "subdivision",
                  "type": "string"
                }
              ],
              "internalType": "struct LandRegistration.LandIdentifier",
              "name": "identifier",
              "type": "tuple"
            },
            {
              "internalType": "uint256",
              "name": "area",
              "type": "uint256"
            },
            {
              "internalType": "uint256",
              "name": "purchaseDate",
              "type": "uint256"
            },
            {
              "internalType": "uint256",
              "name": "purchasePrice",
              "type": "uint256"
            },
            {
              "internalType": "uint256",
              "name": "landValueAtPurchase",
              "type": "uint256"
            },
            {
              "internalType": "address[]",
              "name": "previousOwners",
              "type": "address[]"
            },
            {
              "internalType": "bool",
              "name": "isVerified",
              "type": "bool"
            },
            {
              "internalType": "bool",
              "name": "isForSale",
              "type": "bool"
            }
          ],
          "internalType": "struct LandRegistration.LandRecord[]",
          "name": "",
          "type": "tuple[]"
        }
      ],
      "stateMutability": "view",
      "type": "function",
      "constant": true
    },
    {
      "inputs": [],
      "name": "ReturnAllLandList",
      "outputs": [
        {
          "internalType": "uint256[]",
          "name": "",
          "type": "uint256[]"
        }
      ],
      "stateMutability": "view",
      "type": "function",
      "constant": true
    }
  ],
  "bytecode": "0x608060405260016009553480156200001657600080fd5b5060405162005d5d38038062005d5d83398181016040528101906200003c9190620000db565b336000806101000a81548173ffffffffffffffffffffffffffffffffffffffff021916908373ffffffffffffffffffffffffffffffffffffffff16021790555080600160006101000a81548173ffffffffffffffffffffffffffffffffffffffff021916908373ffffffffffffffffffffffffffffffffffffffff1602179055505062000155565b600081519050620000d5816200013b565b92915050565b600060208284031215620000ee57600080fd5b6000620000fe84828501620000c4565b91505092915050565b600062000114826200011b565b9050919050565b600073ffffffffffffffffffffffffffffffffffffffff82169050919050565b620001468162000107565b81146200015257600080fd5b50565b615bf880620001656000396000f3fe608060405234801561001057600080fd5b50600436106101e55760003560e01c80638714cfee1161010f578063d5f39488116100a2578063e88bed1a11610071578063e88bed1a146105d3578063f1a0995c146105f1578063f6c1b99214610621578063f9c43bdf1461063f576101e5565b8063d5f394881461051d578063dd5509581461053b578063e01ae68b1461056b578063e3df3cf8146105a3576101e5565b8063bd63026c116100de578063bd63026c14610483578063bf2543fb146104b3578063ce171858146104e3578063d14dfce6146104ff576101e5565b80638714cfee146103d057806395bd28d0146103ee5780639b2cfdeb1461041e578063b10a30ed1461044e576101e5565b80632d7788db1161018757806366746a711161015657806366746a711461034a5780636fff0f401461036857806373930e7e1461039857806377d90c66146103b4576101e5565b80632d7788db146102da5780634ba1f098146102f65780634f1de0e7146103125780636163f8ec1461032e576101e5565b806317194702116101c357806317194702146102405780631a313202146102705780631f7bdad6146102a057806323393d77146102bc576101e5565b806304888243146101ea5780630695b9c3146102065780630ee0ed5814610224575b600080fd5b61020460048036038101906101ff9190614ab3565b61065b565b005b61020e610823565b60405161021b9190615405565b60405180910390f35b61023e60048036038101906102399190614ab3565b610f07565b005b61025a60048036038101906102559190614ab3565b6112ce565b60405161026791906155df565b60405180910390f35b61028a60048036038101906102859190614ab3565b6112ee565b6040516102979190615449565b60405180910390f35b6102ba60048036038101906102b59190614b18565b61131b565b005b6102c461160c565b6040516102d19190615427565b60405180910390f35b6102f460048036038101906102ef9190614ab3565b611664565b005b610310600480360381019061030b9190614ab3565b611b0e565b005b61032c60048036038101906103279190614ab3565b611cf0565b005b61034860048036038101906103439190614ab3565b61210f565b005b6103526125af565b60405161035f9190615427565b60405180910390f35b610382600480360381019061037d9190614adc565b612644565b60405161038f91906155df565b60405180910390f35b6103b260048036038101906103ad9190614ab3565b6126b8565b005b6103ce60048036038101906103c99190614ab3565b61278a565b005b6103d861292c565b6040516103e59190615427565b60405180910390f35b61040860048036038101906104039190614ab3565b6129c1565b60405161041591906153c8565b60405180910390f35b61043860048036038101906104339190614a31565b612a51565b60405161044591906155df565b60405180910390f35b61046860048036038101906104639190614ab3565b612b32565b60405161047a9695949392919061569f565b60405180910390f35b61049d60048036038101906104989190614adc565b612bc8565b6040516104aa91906155df565b60405180910390f35b6104cd60048036038101906104c89190614adc565b612bed565b6040516104da9190615464565b60405180910390f35b6104fd60048036038101906104f89190614ab3565b612c84565b005b610507612e7a565b60405161051491906153c8565b60405180910390f35b610525612ea0565b60405161053291906153c8565b60405180910390f35b61055560048036038101906105509190614ab3565b612ec4565b60405161056291906153c8565b60405180910390f35b61058560048036038101906105809190614ab3565b612f5c565b60405161059a99989796959493929190615700565b60405180910390f35b6105bd60048036038101906105b89190614a72565b613364565b6040516105ca91906155df565b60405180910390f35b6105db613790565b6040516105e891906155df565b60405180910390f35b61060b60048036038101906106069190614ab3565b613796565b60405161061891906153e3565b60405180910390f35b610629613893565b6040516106369190615405565b60405180910390f35b61065960048036038101906106549190614ab3565b61405b565b005b80600b600082815260200190815260200160002060010160009054906101000a900473ffffffffffffffffffffffffffffffffffffffff1673ffffffffffffffffffffffffffffffffffffffff163373ffffffffffffffffffffffffffffffffffffffff1614610700576040517f08c379a00000000000000000000000000000000000000000000000000000000081526004016106f7906154bf565b60405180910390fd5b6000600b6000848152602001908152602001600020600001541161072357600080fd5b60011515600b6000848152602001908152602001600020600e0160019054906101000a900460ff161515141561078f577f331a1ca85581861f4007c109ddd5b44d2f218519240432bb14245f77a9fe6f578260405161078291906155df565b60405180910390a161081f565b6001600b6000848152602001908152602001600020600e0160016101000a81548160ff021916908315150217905550600c8290806001815401808255809150506001900390600052602060002001600090919091909150557fbd627619b9f2a20ce2c4498f2185c68bc4236be92480ede53e43f4da545ea9c58260405161081691906155df565b60405180910390a15b5050565b60606000600560003373ffffffffffffffffffffffffffffffffffffffff1673ffffffffffffffffffffffffffffffffffffffff1681526020019081526020016000208054905067ffffffffffffffff8111156108a9577f4e487b7100000000000000000000000000000000000000000000000000000000600052604160045260246000fd5b6040519080825280602002602001820160405280156108e257816020015b6108cf614477565b8152602001906001900390816108c75790505b50905060005b600560003373ffffffffffffffffffffffffffffffffffffffff1673ffffffffffffffffffffffffffffffffffffffff16815260200190815260200160002080549050811015610eff57600b6000600560003373ffffffffffffffffffffffffffffffffffffffff1673ffffffffffffffffffffffffffffffffffffffff16815260200190815260200160002083815481106109ad577f4e487b7100000000000000000000000000000000000000000000000000000000600052603260045260246000fd5b9060005260206000200154815260200190815260200160002060405180610140016040529081600082015481526020016001820160009054906101000a900473ffffffffffffffffffffffffffffffffffffffff1673ffffffffffffffffffffffffffffffffffffffff1673ffffffffffffffffffffffffffffffffffffffff168152602001600282016040518060e0016040529081600082018054610a5290615a21565b80601f0160208091040260200160405190810160405280929190818152602001828054610a7e90615a21565b8015610acb5780601f10610aa057610100808354040283529160200191610acb565b820191906000526020600020905b815481529060010190602001808311610aae57829003601f168201915b50505050508152602001600182018054610ae490615a21565b80601f0160208091040260200160405190810160405280929190818152602001828054610b1090615a21565b8015610b5d5780601f10610b3257610100808354040283529160200191610b5d565b820191906000526020600020905b815481529060010190602001808311610b4057829003601f168201915b50505050508152602001600282018054610b7690615a21565b80601f0160208091040260200160405190810160405280929190818152602001828054610ba290615a21565b8015610bef5780601f10610bc457610100808354040283529160200191610bef565b820191906000526020600020905b815481529060010190602001808311610bd257829003601f168201915b50505050508152602001600382018054610c0890615a21565b80601f0160208091040260200160405190810160405280929190818152602001828054610c3490615a21565b8015610c815780601f10610c5657610100808354040283529160200191610c81565b820191906000526020600020905b815481529060010190602001808311610c6457829003601f168201915b50505050508152602001600482018054610c9a90615a21565b80601f0160208091040260200160405190810160405280929190818152602001828054610cc690615a21565b8015610d135780601f10610ce857610100808354040283529160200191610d13565b820191906000526020600020905b815481529060010190602001808311610cf657829003601f168201915b5050505050815260200160058201548152602001600682018054610d3690615a21565b80601f0160208091040260200160405190810160405280929190818152602001828054610d6290615a21565b8015610daf5780601f10610d8457610100808354040283529160200191610daf565b820191906000526020600020905b815481529060010190602001808311610d9257829003601f168201915b505050505081525050815260200160098201548152602001600a8201548152602001600b8201548152602001600c8201548152602001600d8201805480602002602001604051908101604052809291908181526020018280548015610e6957602002820191906000526020600020905b8160009054906101000a900473ffffffffffffffffffffffffffffffffffffffff1673ffffffffffffffffffffffffffffffffffffffff1681526020019060010190808311610e1f575b50505050508152602001600e820160009054906101000a900460ff16151515158152602001600e820160019054906101000a900460ff161515151581525050828281518110610ee1577f4e487b7100000000000000000000000000000000000000000000000000000000600052603260045260246000fd5b60200260200101819052508080610ef790615a53565b9150506108e8565b508091505090565b600b6000828152602001908152602001600020600e0160019054906101000a900460ff16610f6a576040517f08c379a0000000000000000000000000000000000000000000000000000000008152600401610f619061547f565b60405180910390fd5b610f74813361417f565b156112cb5760006006600083815260200190815260200160002060003373ffffffffffffffffffffffffffffffffffffffff1673ffffffffffffffffffffffffffffffffffffffff16815260200190815260200160002054905060006004811115611008577f4e487b7100000000000000000000000000000000000000000000000000000000600052602160045260246000fd5b6002600083815260200190815260200160002060040160009054906101000a900460ff166004811115611064577f4e487b7100000000000000000000000000000000000000000000000000000000600052602160045260246000fd5b146110a4576040517f08c379a000000000000000000000000000000000000000000000000000000000815260040161109b9061553f565b60405180910390fd5b600260048111156110de577f4e487b7100000000000000000000000000000000000000000000000000000000600052602160045260246000fd5b6002600083815260200190815260200160002060040160009054906101000a900460ff16600481111561113a577f4e487b7100000000000000000000000000000000000000000000000000000000600052602160045260246000fd5b50506111ba60036000600b600086815260200190815260200160002060010160009054906101000a900473ffffffffffffffffffffffffffffffffffffffff1673ffffffffffffffffffffffffffffffffffffffff1673ffffffffffffffffffffffffffffffffffffffff168152602001908152602001600020826141dc565b611202600460003373ffffffffffffffffffffffffffffffffffffffff1673ffffffffffffffffffffffffffffffffffffffff168152602001908152602001600020826141dc565b6006600083815260200190815260200160002060003373ffffffffffffffffffffffffffffffffffffffff1673ffffffffffffffffffffffffffffffffffffffff168152602001908152602001600020600090557fe5a136da2c5b558a579c90c61087262e76ddf5c78d27083c096876462651a43781600b600085815260200190815260200160002060010160009054906101000a900473ffffffffffffffffffffffffffffffffffffffff1633856040516112c1949392919061565a565b60405180910390a1505b50565b600060026000838152602001908152602001600020600301549050919050565b60006002600083815260200190815260200160002060040160019054906101000a900460ff169050919050565b3373ffffffffffffffffffffffffffffffffffffffff166002600084815260200190815260200160002060010160009054906101000a900473ffffffffffffffffffffffffffffffffffffffff1673ffffffffffffffffffffffffffffffffffffffff16146113bf576040517f08c379a00000000000000000000000000000000000000000000000000000000081526004016113b69061559f565b60405180910390fd5b600160048111156113f9577f4e487b7100000000000000000000000000000000000000000000000000000000600052602160045260246000fd5b6002600084815260200190815260200160002060040160009054906101000a900460ff166004811115611455577f4e487b7100000000000000000000000000000000000000000000000000000000600052602160045260246000fd5b14611495576040517f08c379a000000000000000000000000000000000000000000000000000000000815260040161148c906154df565b60405180910390fd5b600b6000828152602001908152602001600020600e0160019054906101000a900460ff166114f8576040517f08c379a00000000000000000000000000000000000000000000000000000000081526004016114ef9061547f565b60405180910390fd5b6000821161153b576040517f08c379a00000000000000000000000000000000000000000000000000000000081526004016115329061551f565b60405180910390fd5b60016002600084815260200190815260200160002060040160016101000a81548160ff02191690831515021790555060036002600084815260200190815260200160002060040160006101000a81548160ff021916908360048111156115ca577f4e487b7100000000000000000000000000000000000000000000000000000000600052602160045260246000fd5b02179055507fd6d83468051a65604726ddfd0317813b6fce5a48a9451a78e1949c219571ec638282604051611600929190615794565b60405180910390a15050565b6060600780548060200260200160405190810160405280929190818152602001828054801561165a57602002820191906000526020600020905b815481526020019060010190808311611646575b5050505050905090565b3373ffffffffffffffffffffffffffffffffffffffff166002600083815260200190815260200160002060010160009054906101000a900473ffffffffffffffffffffffffffffffffffffffff1673ffffffffffffffffffffffffffffffffffffffff1614611708576040517f08c379a00000000000000000000000000000000000000000000000000000000081526004016116ff9061559f565b60405180910390fd5b60006004811115611742577f4e487b7100000000000000000000000000000000000000000000000000000000600052602160045260246000fd5b6002600083815260200190815260200160002060040160009054906101000a900460ff16600481111561179e577f4e487b7100000000000000000000000000000000000000000000000000000000600052602160045260246000fd5b146117de576040517f08c379a00000000000000000000000000000000000000000000000000000000081526004016117d5906154df565b60405180910390fd5b600280600083815260200190815260200160002060040160006101000a81548160ff0219169083600481111561183d577f4e487b7100000000000000000000000000000000000000000000000000000000600052602160045260246000fd5b02179055506118c0600360006002600085815260200190815260200160002060010160009054906101000a900473ffffffffffffffffffffffffffffffffffffffff1673ffffffffffffffffffffffffffffffffffffffff1673ffffffffffffffffffffffffffffffffffffffff168152602001908152602001600020826141dc565b61193e600460006002600085815260200190815260200160002060020160009054906101000a900473ffffffffffffffffffffffffffffffffffffffff1673ffffffffffffffffffffffffffffffffffffffff1673ffffffffffffffffffffffffffffffffffffffff168152602001908152602001600020826141dc565b6002600082815260200190815260200160002060020160009054906101000a900473ffffffffffffffffffffffffffffffffffffffff1673ffffffffffffffffffffffffffffffffffffffff163373ffffffffffffffffffffffffffffffffffffffff16827f0b7cdc900b8ac2bfb0d3b2139ecf8be43e21bb1c2e2380190243786c5c5bd3d360405160405180910390a4600660006002600084815260200190815260200160002060030154815260200190815260200160002060006002600084815260200190815260200160002060020160009054906101000a900473ffffffffffffffffffffffffffffffffffffffff1673ffffffffffffffffffffffffffffffffffffffff1673ffffffffffffffffffffffffffffffffffffffff16815260200190815260200160002060009055600260008281526020019081526020016000206000808201600090556001820160006101000a81549073ffffffffffffffffffffffffffffffffffffffff02191690556002820160006101000a81549073ffffffffffffffffffffffffffffffffffffffff021916905560038201600090556004820160006101000a81549060ff02191690556004820160016101000a81549060ff0219169055505050565b3373ffffffffffffffffffffffffffffffffffffffff166002600083815260200190815260200160002060010160009054906101000a900473ffffffffffffffffffffffffffffffffffffffff1673ffffffffffffffffffffffffffffffffffffffff1614611bb2576040517f08c379a0000000000000000000000000000000000000000000000000000000008152600401611ba99061559f565b60405180910390fd5b60006004811115611bec577f4e487b7100000000000000000000000000000000000000000000000000000000600052602160045260246000fd5b6002600083815260200190815260200160002060040160009054906101000a900460ff166004811115611c48577f4e487b7100000000000000000000000000000000000000000000000000000000600052602160045260246000fd5b14611c88576040517f08c379a0000000000000000000000000000000000000000000000000000000008152600401611c7f906154df565b60405180910390fd5b60016002600083815260200190815260200160002060040160006101000a81548160ff02191690836004811115611ce8577f4e487b7100000000000000000000000000000000000000000000000000000000600052602160045260246000fd5b021790555050565b3373ffffffffffffffffffffffffffffffffffffffff166002600083815260200190815260200160002060010160009054906101000a900473ffffffffffffffffffffffffffffffffffffffff1673ffffffffffffffffffffffffffffffffffffffff1614611d94576040517f08c379a0000000000000000000000000000000000000000000000000000000008152600401611d8b9061559f565b60405180910390fd5b60036004811115611dce577f4e487b7100000000000000000000000000000000000000000000000000000000600052602160045260246000fd5b6002600083815260200190815260200160002060040160009054906101000a900460ff166004811115611e2a577f4e487b7100000000000000000000000000000000000000000000000000000000600052602160045260246000fd5b14611e6a576040517f08c379a0000000000000000000000000000000000000000000000000000000008152600401611e61906154ff565b60405180910390fd5b6000600260008381526020019081526020016000206003015490506000600b600083815260200190815260200160002060010160009054906101000a900473ffffffffffffffffffffffffffffffffffffffff16905060006002600085815260200190815260200160002060020160009054906101000a900473ffffffffffffffffffffffffffffffffffffffff16905080600b600085815260200190815260200160002060010160006101000a81548173ffffffffffffffffffffffffffffffffffffffff021916908373ffffffffffffffffffffffffffffffffffffffff160217905550600560008273ffffffffffffffffffffffffffffffffffffffff1673ffffffffffffffffffffffffffffffffffffffff168152602001908152602001600020839080600181540180825580915050600190039060005260206000200160009091909190915055600b6000848152602001908152602001600020600e0160019054906101000a900460ff1615611fe957611fe883612c84565b5b600b6000848152602001908152602001600020600d01829080600181540180825580915050600190039060005260206000200160009091909190916101000a81548173ffffffffffffffffffffffffffffffffffffffff021916908373ffffffffffffffffffffffffffffffffffffffff16021790555060046002600086815260200190815260200160002060040160006101000a81548160ff021916908360048111156120c0577f4e487b7100000000000000000000000000000000000000000000000000000000600052602160045260246000fd5b02179055506120ce8361278a565b7fa3b0b9020f88aba79dc7d52f5e1da8502bcea42c242b02d2144b71b2de7f049583838360405161210193929190615623565b60405180910390a150505050565b600b6000828152602001908152602001600020600e0160019054906101000a900460ff16612172576040517f08c379a00000000000000000000000000000000000000000000000000000000081526004016121699061547f565b60405180910390fd5b61217c813361417f565b156121bf577f61abb16957915895ee4e253b3221ceb6b9686485981d135b9330af6aba6963ef81336040516121b29291906155fa565b60405180910390a16125ac565b600860008154809291906121d290615a53565b91905055506040518060c001604052806008548152602001600b600084815260200190815260200160002060010160009054906101000a900473ffffffffffffffffffffffffffffffffffffffff1673ffffffffffffffffffffffffffffffffffffffff1681526020013373ffffffffffffffffffffffffffffffffffffffff16815260200182815260200160006004811115612298577f4e487b7100000000000000000000000000000000000000000000000000000000600052602160045260246000fd5b8152602001600015158152506002600060085481526020019081526020016000206000820151816000015560208201518160010160006101000a81548173ffffffffffffffffffffffffffffffffffffffff021916908373ffffffffffffffffffffffffffffffffffffffff16021790555060408201518160020160006101000a81548173ffffffffffffffffffffffffffffffffffffffff021916908373ffffffffffffffffffffffffffffffffffffffff1602179055506060820151816003015560808201518160040160006101000a81548160ff021916908360048111156123ac577f4e487b7100000000000000000000000000000000000000000000000000000000600052602160045260246000fd5b021790555060a08201518160040160016101000a81548160ff02191690831515021790555090505060036000600b600084815260200190815260200160002060010160009054906101000a900473ffffffffffffffffffffffffffffffffffffffff1673ffffffffffffffffffffffffffffffffffffffff1673ffffffffffffffffffffffffffffffffffffffff1681526020019081526020016000206008549080600181540180825580915050600190039060005260206000200160009091909190915055600460003373ffffffffffffffffffffffffffffffffffffffff1673ffffffffffffffffffffffffffffffffffffffff16815260200190815260200160002060085490806001815401808255809150506001900390600052602060002001600090919091909150556008546006600083815260200190815260200160002060003373ffffffffffffffffffffffffffffffffffffffff1673ffffffffffffffffffffffffffffffffffffffff168152602001908152602001600020819055507f7825bbe590a72ccf4f413305c96c01a18426a6df8b5fa22a5715f07510badaf7600854600b600084815260200190815260200160002060010160009054906101000a900473ffffffffffffffffffffffffffffffffffffffff1633846000806040516125a39695949392919061569f565b60405180910390a15b50565b6060600460003373ffffffffffffffffffffffffffffffffffffffff1673ffffffffffffffffffffffffffffffffffffffff16815260200190815260200160002080548060200260200160405190810160405280929190818152602001828054801561263a57602002820191906000526020600020905b815481526020019060010190808311612626575b5050505050905090565b6000806006600085815260200190815260200160002060008473ffffffffffffffffffffffffffffffffffffffff1673ffffffffffffffffffffffffffffffffffffffff16815260200190815260200160002054905060008111156126ac57809150506126b2565b60009150505b92915050565b80600b600082815260200190815260200160002060010160009054906101000a900473ffffffffffffffffffffffffffffffffffffffff1673ffffffffffffffffffffffffffffffffffffffff163373ffffffffffffffffffffffffffffffffffffffff161461275d576040517f08c379a0000000000000000000000000000000000000000000000000000000008152600401612754906154bf565b60405180910390fd5b600d8290806001815401808255809150506001900390600052602060002001600090919091909150555050565b6000600560003373ffffffffffffffffffffffffffffffffffffffff1673ffffffffffffffffffffffffffffffffffffffff168152602001908152602001600020905060005b81805490508110156129275782828281548110612816577f4e487b7100000000000000000000000000000000000000000000000000000000600052603260045260246000fd5b90600052602060002001541415612914578160018380549050612839919061593e565b81548110612870577f4e487b7100000000000000000000000000000000000000000000000000000000600052603260045260246000fd5b90600052602060002001548282815481106128b4577f4e487b7100000000000000000000000000000000000000000000000000000000600052603260045260246000fd5b9060005260206000200181905550818054806128f9577f4e487b7100000000000000000000000000000000000000000000000000000000600052603160045260246000fd5b60019003818190600052602060002001600090559055612927565b808061291f90615a53565b9150506127d0565b505050565b6060600360003373ffffffffffffffffffffffffffffffffffffffff1673ffffffffffffffffffffffffffffffffffffffff1681526020019081526020016000208054806020026020016040519081016040528092919081815260200182805480156129b757602002820191906000526020600020905b8154815260200190600101908083116129a3575b5050505050905090565b600080821180156129d457506008548211155b612a13576040517f08c379a0000000000000000000000000000000000000000000000000000000008152600401612a0a906155bf565b60405180910390fd5b6002600083815260200190815260200160002060020160009054906101000a900473ffffffffffffffffffffffffffffffffffffffff169050919050565b6000600a8260000151604051612a6791906153b1565b90815260200160405180910390208260200151604051612a8791906153b1565b90815260200160405180910390208260400151604051612aa791906153b1565b90815260200160405180910390208260600151604051612ac791906153b1565b90815260200160405180910390208260800151604051612ae791906153b1565b908152602001604051809103902060008360a0015181526020019081526020016000208260c00151604051612b1c91906153b1565b9081526020016040518091039020549050919050565b60026020528060005260406000206000915090508060000154908060010160009054906101000a900473ffffffffffffffffffffffffffffffffffffffff16908060020160009054906101000a900473ffffffffffffffffffffffffffffffffffffffff16908060030154908060040160009054906101000a900460ff16908060040160019054906101000a900460ff16905086565b6006602052816000526040600020602052806000526040600020600091509150505481565b6000806006600085815260200190815260200160002060008473ffffffffffffffffffffffffffffffffffffffff1673ffffffffffffffffffffffffffffffffffffffff1681526020019081526020016000205490506000811115612c78576002600082815260200190815260200160002060040160009054906101000a900460ff16915050612c7e565b60009150505b92915050565b600b6000828152602001908152602001600020600e0160019054906101000a900460ff16612ce7576040517f08c379a0000000000000000000000000000000000000000000000000000000008152600401612cde9061549f565b60405180910390fd5b6000600b6000838152602001908152602001600020600e0160016101000a81548160ff02191690831515021790555060005b600c80549050811015612e765781600c8281548110612d61577f4e487b7100000000000000000000000000000000000000000000000000000000600052603260045260246000fd5b90600052602060002001541415612e6357600c6001600c80549050612d86919061593e565b81548110612dbd577f4e487b7100000000000000000000000000000000000000000000000000000000600052603260045260246000fd5b9060005260206000200154600c8281548110612e02577f4e487b7100000000000000000000000000000000000000000000000000000000600052603260045260246000fd5b9060005260206000200181905550600c805480612e48577f4e487b7100000000000000000000000000000000000000000000000000000000600052603160045260246000fd5b60019003818190600052602060002001600090559055612e76565b8080612e6e90615a53565b915050612d19565b5050565b600160009054906101000a900473ffffffffffffffffffffffffffffffffffffffff1681565b60008054906101000a900473ffffffffffffffffffffffffffffffffffffffff1681565b600080600b60008481526020019081526020016000206000015411612f1e576040517f08c379a0000000000000000000000000000000000000000000000000000000008152600401612f159061555f565b60405180910390fd5b600b600083815260200190815260200160002060010160009054906101000a900473ffffffffffffffffffffffffffffffffffffffff169050919050565b600b6020528060005260406000206000915090508060000154908060010160009054906101000a900473ffffffffffffffffffffffffffffffffffffffff1690806002016040518060e0016040529081600082018054612fbb90615a21565b80601f0160208091040260200160405190810160405280929190818152602001828054612fe790615a21565b80156130345780601f1061300957610100808354040283529160200191613034565b820191906000526020600020905b81548152906001019060200180831161301757829003601f168201915b5050505050815260200160018201805461304d90615a21565b80601f016020809104026020016040519081016040528092919081815260200182805461307990615a21565b80156130c65780601f1061309b576101008083540402835291602001916130c6565b820191906000526020600020905b8154815290600101906020018083116130a957829003601f168201915b505050505081526020016002820180546130df90615a21565b80601f016020809104026020016040519081016040528092919081815260200182805461310b90615a21565b80156131585780601f1061312d57610100808354040283529160200191613158565b820191906000526020600020905b81548152906001019060200180831161313b57829003601f168201915b5050505050815260200160038201805461317190615a21565b80601f016020809104026020016040519081016040528092919081815260200182805461319d90615a21565b80156131ea5780601f106131bf576101008083540402835291602001916131ea565b820191906000526020600020905b8154815290600101906020018083116131cd57829003601f168201915b5050505050815260200160048201805461320390615a21565b80601f016020809104026020016040519081016040528092919081815260200182805461322f90615a21565b801561327c5780601f106132515761010080835404028352916020019161327c565b820191906000526020600020905b81548152906001019060200180831161325f57829003601f168201915b505050505081526020016005820154815260200160068201805461329f90615a21565b80601f01602080910402602001604051908101604052809291908181526020018280546132cb90615a21565b80156133185780601f106132ed57610100808354040283529160200191613318565b820191906000526020600020905b8154815290600101906020018083116132fb57829003601f168201915b5050505050815250509080600901549080600a01549080600b01549080600c01549080600e0160009054906101000a900460ff169080600e0160019054906101000a900460ff16905089565b60008060006133768460400151614374565b9150915081156133c1577faaf337ed6c27044ac7adfac9210c03e982f61dd5534d00cefa9baedc9e415028816040516133af91906155df565b60405180910390a1809250505061378b565b60095484600001818152505060008461010001901515908115158152505060008461012001901515908115158152505083600b600060095481526020019081526020016000206000820151816000015560208201518160010160006101000a81548173ffffffffffffffffffffffffffffffffffffffff021916908373ffffffffffffffffffffffffffffffffffffffff160217905550604082015181600201600082015181600001908051906020019061347d9291906144ea565b50602082015181600101908051906020019061349a9291906144ea565b5060408201518160020190805190602001906134b79291906144ea565b5060608201518160030190805190602001906134d49291906144ea565b5060808201518160040190805190602001906134f19291906144ea565b5060a0820151816005015560c08201518160060190805190602001906135189291906144ea565b50505060608201518160090155608082015181600a015560a082015181600b015560c082015181600c015560e082015181600d01908051906020019061355f929190614570565b5061010082015181600e0160006101000a81548160ff02191690831515021790555061012082015181600e0160016101000a81548160ff021916908315150217905550905050600954600a8560400151600001516040516135c091906153b1565b90815260200160405180910390208560400151602001516040516135e491906153b1565b908152602001604051809103902085604001516040015160405161360891906153b1565b908152602001604051809103902085604001516060015160405161362c91906153b1565b908152602001604051809103902085604001516080015160405161365091906153b1565b90815260200160405180910390206000866040015160a001518152602001908152602001600020856040015160c0015160405161368d91906153b1565b908152602001604051809103902081905550600060095490506007819080600181540180825580915050600190039060005260206000200160009091909190915055600960008154809291906136e290615a53565b9190505550600560003373ffffffffffffffffffffffffffffffffffffffff1673ffffffffffffffffffffffffffffffffffffffff1681526020019081526020016000208190806001815401808255809150506001900390600052602060002001600090919091909150557fd6ba237a8c7a642ccbcdec4a0f3d08561b3ec6045c9f144ead69305210d11b528160405161377c91906155df565b60405180910390a18093505050505b919050565b60095481565b60606000600b600084815260200190815260200160002060000154116137f1576040517f08c379a00000000000000000000000000000000000000000000000000000000081526004016137e89061555f565b60405180910390fd5b600b6000838152602001908152602001600020600d0180548060200260200160405190810160405280929190818152602001828054801561388757602002820191906000526020600020905b8160009054906101000a900473ffffffffffffffffffffffffffffffffffffffff1673ffffffffffffffffffffffffffffffffffffffff168152602001906001019080831161383d575b50505050509050919050565b60606000805b600c80549050811015613975573373ffffffffffffffffffffffffffffffffffffffff16600b6000600c84815481106138fb577f4e487b7100000000000000000000000000000000000000000000000000000000600052603260045260246000fd5b9060005260206000200154815260200190815260200160002060010160009054906101000a900473ffffffffffffffffffffffffffffffffffffffff1673ffffffffffffffffffffffffffffffffffffffff161461396257818061395e90615a53565b9250505b808061396d90615a53565b915050613899565b5060008167ffffffffffffffff8111156139b8577f4e487b7100000000000000000000000000000000000000000000000000000000600052604160045260246000fd5b6040519080825280602002602001820160405280156139f157816020015b6139de614477565b8152602001906001900390816139d65790505b5090506000805b600c80549050811015614051573373ffffffffffffffffffffffffffffffffffffffff16600b6000600c8481548110613a5a577f4e487b7100000000000000000000000000000000000000000000000000000000600052603260045260246000fd5b9060005260206000200154815260200190815260200160002060010160009054906101000a900473ffffffffffffffffffffffffffffffffffffffff1673ffffffffffffffffffffffffffffffffffffffff161461403e57600b6000600c8381548110613af0577f4e487b7100000000000000000000000000000000000000000000000000000000600052603260045260246000fd5b9060005260206000200154815260200190815260200160002060405180610140016040529081600082015481526020016001820160009054906101000a900473ffffffffffffffffffffffffffffffffffffffff1673ffffffffffffffffffffffffffffffffffffffff1673ffffffffffffffffffffffffffffffffffffffff168152602001600282016040518060e0016040529081600082018054613b9590615a21565b80601f0160208091040260200160405190810160405280929190818152602001828054613bc190615a21565b8015613c0e5780601f10613be357610100808354040283529160200191613c0e565b820191906000526020600020905b815481529060010190602001808311613bf157829003601f168201915b50505050508152602001600182018054613c2790615a21565b80601f0160208091040260200160405190810160405280929190818152602001828054613c5390615a21565b8015613ca05780601f10613c7557610100808354040283529160200191613ca0565b820191906000526020600020905b815481529060010190602001808311613c8357829003601f168201915b50505050508152602001600282018054613cb990615a21565b80601f0160208091040260200160405190810160405280929190818152602001828054613ce590615a21565b8015613d325780601f10613d0757610100808354040283529160200191613d32565b820191906000526020600020905b815481529060010190602001808311613d1557829003601f168201915b50505050508152602001600382018054613d4b90615a21565b80601f0160208091040260200160405190810160405280929190818152602001828054613d7790615a21565b8015613dc45780601f10613d9957610100808354040283529160200191613dc4565b820191906000526020600020905b815481529060010190602001808311613da757829003601f168201915b50505050508152602001600482018054613ddd90615a21565b80601f0160208091040260200160405190810160405280929190818152602001828054613e0990615a21565b8015613e565780601f10613e2b57610100808354040283529160200191613e56565b820191906000526020600020905b815481529060010190602001808311613e3957829003601f168201915b5050505050815260200160058201548152602001600682018054613e7990615a21565b80601f0160208091040260200160405190810160405280929190818152602001828054613ea590615a21565b8015613ef25780601f10613ec757610100808354040283529160200191613ef2565b820191906000526020600020905b815481529060010190602001808311613ed557829003601f168201915b505050505081525050815260200160098201548152602001600a8201548152602001600b8201548152602001600c8201548152602001600d8201805480602002602001604051908101604052809291908181526020018280548015613fac57602002820191906000526020600020905b8160009054906101000a900473ffffffffffffffffffffffffffffffffffffffff1673ffffffffffffffffffffffffffffffffffffffff1681526020019060010190808311613f62575b50505050508152602001600e820160009054906101000a900460ff16151515158152602001600e820160019054906101000a900460ff161515151581525050838381518110614024577f4e487b7100000000000000000000000000000000000000000000000000000000600052603260045260246000fd5b6020026020010181905250818061403a90615a53565b9250505b808061404990615a53565b9150506139f8565b5081935050505090565b6000600160009054906101000a900473ffffffffffffffffffffffffffffffffffffffff1673ffffffffffffffffffffffffffffffffffffffff1663e165af87336040518263ffffffff1660e01b81526004016140b891906153c8565b602060405180830381600087803b1580156140d257600080fd5b505af11580156140e6573d6000803e3d6000fd5b505050506040513d601f19601f8201168201806040525081019061410a9190614a08565b90508061414c576040517f08c379a00000000000000000000000000000000000000000000000000000000081526004016141439061557f565b60405180910390fd5b6001600b6000848152602001908152602001600020600e0160006101000a81548160ff0219169083151502179055505050565b6000806006600085815260200190815260200160002060008473ffffffffffffffffffffffffffffffffffffffff1673ffffffffffffffffffffffffffffffffffffffff1681526020019081526020016000205411905092915050565b60008280549050905060005b81811015614337578284828154811061422a577f4e487b7100000000000000000000000000000000000000000000000000000000600052603260045260246000fd5b906000526020600020015414156143245783600183614249919061593e565b81548110614280577f4e487b7100000000000000000000000000000000000000000000000000000000600052603260045260246000fd5b90600052602060002001548482815481106142c4577f4e487b7100000000000000000000000000000000000000000000000000000000600052603260045260246000fd5b906000526020600020018190555083805480614309577f4e487b7100000000000000000000000000000000000000000000000000000000600052603160045260246000fd5b60019003818190600052602060002001600090559055614337565b808061432f90615a53565b9150506141e8565b507f4123b8593921204d03aef906a5c03ba57573a7047a66d722874a923b6e0e4b7d8260405161436791906155df565b60405180910390a1505050565b6000806000600a846000015160405161438d91906153b1565b908152602001604051809103902084602001516040516143ad91906153b1565b908152602001604051809103902084604001516040516143cd91906153b1565b908152602001604051809103902084606001516040516143ed91906153b1565b9081526020016040518091039020846080015160405161440d91906153b1565b908152602001604051809103902060008560a0015181526020019081526020016000208460c0015160405161444291906153b1565b90815260200160405180910390205490506000811415614469576000809250925050614472565b60018192509250505b915091565b60405180610140016040528060008152602001600073ffffffffffffffffffffffffffffffffffffffff1681526020016144af6145fa565b815260200160008152602001600081526020016000815260200160008152602001606081526020016000151581526020016000151581525090565b8280546144f690615a21565b90600052602060002090601f016020900481019282614518576000855561455f565b82601f1061453157805160ff191683800117855561455f565b8280016001018555821561455f579182015b8281111561455e578251825591602001919060010190614543565b5b50905061456c9190614637565b5090565b8280548282559060005260206000209081019282156145e9579160200282015b828111156145e85782518260006101000a81548173ffffffffffffffffffffffffffffffffffffffff021916908373ffffffffffffffffffffffffffffffffffffffff16021790555091602001919060010190614590565b5b5090506145f69190614637565b5090565b6040518060e00160405280606081526020016060815260200160608152602001606081526020016060815260200160008152602001606081525090565b5b80821115614650576000816000905550600101614638565b5090565b6000614667614662846157ee565b6157bd565b9050808382526020820190508285602086028201111561468657600080fd5b60005b858110156146b6578161469c88826146fe565b845260208401935060208301925050600181019050614689565b5050509392505050565b60006146d36146ce8461581a565b6157bd565b9050828152602081018484840111156146eb57600080fd5b6146f68482856159df565b509392505050565b60008135905061470d81615b7d565b92915050565b600082601f83011261472457600080fd5b8135614734848260208601614654565b91505092915050565b60008135905061474c81615b94565b92915050565b60008151905061476181615b94565b92915050565b600082601f83011261477857600080fd5b81356147888482602086016146c0565b91505092915050565b600060e082840312156147a357600080fd5b6147ad60e06157bd565b9050600082013567ffffffffffffffff8111156147c957600080fd5b6147d584828501614767565b600083015250602082013567ffffffffffffffff8111156147f557600080fd5b61480184828501614767565b602083015250604082013567ffffffffffffffff81111561482157600080fd5b61482d84828501614767565b604083015250606082013567ffffffffffffffff81111561484d57600080fd5b61485984828501614767565b606083015250608082013567ffffffffffffffff81111561487957600080fd5b61488584828501614767565b60808301525060a0614899848285016149f3565b60a08301525060c082013567ffffffffffffffff8111156148b957600080fd5b6148c584828501614767565b60c08301525092915050565b600061014082840312156148e457600080fd5b6148ef6101406157bd565b905060006148ff848285016149f3565b6000830152506020614913848285016146fe565b602083015250604082013567ffffffffffffffff81111561493357600080fd5b61493f84828501614791565b6040830152506060614953848285016149f3565b6060830152506080614967848285016149f3565b60808301525060a061497b848285016149f3565b60a08301525060c061498f848285016149f3565b60c08301525060e082013567ffffffffffffffff8111156149af57600080fd5b6149bb84828501614713565b60e0830152506101006149d08482850161473d565b610100830152506101206149e68482850161473d565b6101208301525092915050565b600081359050614a0281615bab565b92915050565b600060208284031215614a1a57600080fd5b6000614a2884828501614752565b91505092915050565b600060208284031215614a4357600080fd5b600082013567ffffffffffffffff811115614a5d57600080fd5b614a6984828501614791565b91505092915050565b600060208284031215614a8457600080fd5b600082013567ffffffffffffffff811115614a9e57600080fd5b614aaa848285016148d1565b91505092915050565b600060208284031215614ac557600080fd5b6000614ad3848285016149f3565b91505092915050565b60008060408385031215614aef57600080fd5b6000614afd858286016149f3565b9250506020614b0e858286016146fe565b9150509250929050565b60008060408385031215614b2b57600080fd5b6000614b39858286016149f3565b9250506020614b4a858286016149f3565b9150509250929050565b6000614b608383614b98565b60208301905092915050565b6000614b7883836152b2565b905092915050565b6000614b8c8383615393565b60208301905092915050565b614ba181615972565b82525050565b614bb081615972565b82525050565b6000614bc18261587a565b614bcb81856158cd565b9350614bd68361584a565b8060005b83811015614c07578151614bee8882614b54565b9750614bf9836158a6565b925050600181019050614bda565b5085935050505092915050565b6000614c1f8261587a565b614c2981856158de565b9350614c348361584a565b8060005b83811015614c65578151614c4c8882614b54565b9750614c57836158a6565b925050600181019050614c38565b5085935050505092915050565b6000614c7d82615885565b614c8781856158ef565b935083602082028501614c998561585a565b8060005b85811015614cd55784840389528151614cb68582614b6c565b9450614cc1836158b3565b925060208a01995050600181019050614c9d565b50829750879550505050505092915050565b6000614cf282615890565b614cfc8185615900565b9350614d078361586a565b8060005b83811015614d38578151614d1f8882614b80565b9750614d2a836158c0565b925050600181019050614d0b565b5085935050505092915050565b614d4e81615984565b82525050565b614d5d81615984565b82525050565b614d6c816159cd565b82525050565b6000614d7d8261589b565b614d878185615911565b9350614d978185602086016159ee565b614da081615b58565b840191505092915050565b6000614db68261589b565b614dc08185615933565b9350614dd08185602086016159ee565b80840191505092915050565b6000614de9601483615922565b91507f4c616e64206973206e6f7420666f722073616c650000000000000000000000006000830152602082019050919050565b6000614e29602583615922565b91507f4c616e64206973206e6f742063757272656e746c79206c697374656420666f7260008301527f2073616c650000000000000000000000000000000000000000000000000000006020830152604082019050919050565b6000614e8f602683615922565b91507f4f6e6c79206f776e65722063616e20706572666f726d2074686973206f70657260008301527f6174696f6e2e00000000000000000000000000000000000000000000000000006020830152604082019050919050565b6000614ef5601683615922565b91507f496e76616c6964207265717565737420737461747573000000000000000000006000830152602082019050919050565b6000614f35601083615922565b91507f7061796d656e74206e6f7420646f6e65000000000000000000000000000000006000830152602082019050919050565b6000614f75601183615922565b91507f496e76616c6964207265717565737449640000000000000000000000000000006000830152602082019050919050565b6000614fb5603383615922565b91507f43616e6e6f742063616e63656c2e2052657175657374206973206e6f7420696e60008301527f20277265717565737465642720737461747573000000000000000000000000006020830152604082019050919050565b600061501b600e83615922565b91507f4c616e64206e6f7420666f756e640000000000000000000000000000000000006000830152602082019050919050565b600061505b602783615922565b91507f4f6e6c7920696e73706563746f722063616e20706572666f726d20746869732060008301527f616374696f6e2e000000000000000000000000000000000000000000000000006020830152604082019050919050565b60006150c1601b83615922565b91507f4e6f74207468652073656c6c6572206f662074686973206c616e6400000000006000830152602082019050919050565b6000615101601283615922565b91507f496e76616c6964207265717565737420494400000000000000000000000000006000830152602082019050919050565b600060e08301600083015184820360008601526151518282614d72565b9150506020830151848203602086015261516b8282614d72565b915050604083015184820360408601526151858282614d72565b9150506060830151848203606086015261519f8282614d72565b915050608083015184820360808601526151b98282614d72565b91505060a08301516151ce60a0860182615393565b5060c083015184820360c08601526151e68282614d72565b9150508091505092915050565b600060e08301600083015184820360008601526152108282614d72565b9150506020830151848203602086015261522a8282614d72565b915050604083015184820360408601526152448282614d72565b9150506060830151848203606086015261525e8282614d72565b915050608083015184820360808601526152788282614d72565b91505060a083015161528d60a0860182615393565b5060c083015184820360c08601526152a58282614d72565b9150508091505092915050565b6000610140830160008301516152cb6000860182615393565b5060208301516152de6020860182614b98565b50604083015184820360408601526152f68282615134565b915050606083015161530b6060860182615393565b50608083015161531e6080860182615393565b5060a083015161533160a0860182615393565b5060c083015161534460c0860182615393565b5060e083015184820360e086015261535c8282614bb6565b915050610100830151615373610100860182614d45565b50610120830151615388610120860182614d45565b508091505092915050565b61539c816159c3565b82525050565b6153ab816159c3565b82525050565b60006153bd8284614dab565b915081905092915050565b60006020820190506153dd6000830184614ba7565b92915050565b600060208201905081810360008301526153fd8184614c14565b905092915050565b6000602082019050818103600083015261541f8184614c72565b905092915050565b600060208201905081810360008301526154418184614ce7565b905092915050565b600060208201905061545e6000830184614d54565b92915050565b60006020820190506154796000830184614d63565b92915050565b6000602082019050818103600083015261549881614ddc565b9050919050565b600060208201905081810360008301526154b881614e1c565b9050919050565b600060208201905081810360008301526154d881614e82565b9050919050565b600060208201905081810360008301526154f881614ee8565b9050919050565b6000602082019050818103600083015261551881614f28565b9050919050565b6000602082019050818103600083015261553881614f68565b9050919050565b6000602082019050818103600083015261555881614fa8565b9050919050565b600060208201905081810360008301526155788161500e565b9050919050565b600060208201905081810360008301526155988161504e565b9050919050565b600060208201905081810360008301526155b8816150b4565b9050919050565b600060208201905081810360008301526155d8816150f4565b9050919050565b60006020820190506155f460008301846153a2565b92915050565b600060408201905061560f60008301856153a2565b61561c6020830184614ba7565b9392505050565b600060608201905061563860008301866153a2565b6156456020830185614ba7565b6156526040830184614ba7565b949350505050565b600060808201905061566f60008301876153a2565b61567c6020830186614ba7565b6156896040830185614ba7565b61569660608301846153a2565b95945050505050565b600060c0820190506156b460008301896153a2565b6156c16020830188614ba7565b6156ce6040830187614ba7565b6156db60608301866153a2565b6156e86080830185614d63565b6156f560a0830184614d54565b979650505050505050565b600061012082019050615716600083018c6153a2565b615723602083018b614ba7565b8181036040830152615735818a6151f3565b905061574460608301896153a2565b61575160808301886153a2565b61575e60a08301876153a2565b61576b60c08301866153a2565b61577860e0830185614d54565b615786610100830184614d54565b9a9950505050505050505050565b60006040820190506157a960008301856153a2565b6157b660208301846153a2565b9392505050565b6000604051905081810181811067ffffffffffffffff821117156157e4576157e3615b29565b5b8060405250919050565b600067ffffffffffffffff82111561580957615808615b29565b5b602082029050602081019050919050565b600067ffffffffffffffff82111561583557615834615b29565b5b601f19601f8301169050602081019050919050565b6000819050602082019050919050565b6000819050602082019050919050565b6000819050602082019050919050565b600081519050919050565b600081519050919050565b600081519050919050565b600081519050919050565b6000602082019050919050565b6000602082019050919050565b6000602082019050919050565b600082825260208201905092915050565b600082825260208201905092915050565b600082825260208201905092915050565b600082825260208201905092915050565b600082825260208201905092915050565b600082825260208201905092915050565b600081905092915050565b6000615949826159c3565b9150615954836159c3565b92508282101561596757615966615a9c565b5b828203905092915050565b600061597d826159a3565b9050919050565b60008115159050919050565b600081905061599e82615b69565b919050565b600073ffffffffffffffffffffffffffffffffffffffff82169050919050565b6000819050919050565b60006159d882615990565b9050919050565b82818337600083830152505050565b60005b83811015615a0c5780820151818401526020810190506159f1565b83811115615a1b576000848401525b50505050565b60006002820490506001821680615a3957607f821691505b60208210811415615a4d57615a4c615afa565b5b50919050565b6000615a5e826159c3565b91507fffffffffffffffffffffffffffffffffffffffffffffffffffffffffffffffff821415615a9157615a90615a9c565b5b600182019050919050565b7f4e487b7100000000000000000000000000000000000000000000000000000000600052601160045260246000fd5b7f4e487b7100000000000000000000000000000000000000000000000000000000600052602160045260246000fd5b7f4e487b7100000000000000000000000000000000000000000000000000000000600052602260045260246000fd5b7f4e487b7100000000000000000000000000000000000000000000000000000000600052604160045260246000fd5b6000601f19601f8301169050919050565b60058110615b7a57615b79615acb565b5b50565b615b8681615972565b8114615b9157600080fd5b50565b615b9d81615984565b8114615ba857600080fd5b50565b615bb4816159c3565b8114615bbf57600080fd5b5056fea26469706673582212204f3741b8d2421f20d9d84069048be799b33db91a21e7f28e999417d4c90e3dc764736f6c63430008000033",
  "immutableReferences": {},
  "source": "// SPDX-License-Identifier: UNLICENSED\r\n\r\npragma solidity ^0.8.0;\r\n\r\nimport \"./registerAccount-contract.sol\";\r\n\r\ninterface IAccountRegistration {\r\n    function checkUserVerified(address _account) external returns (bool);\r\n    function isLandInspector(address _account) external returns (bool);\r\n}\r\n\r\ncontract LandRegistration {\r\n\r\n    //Address which deployed this smart contract\r\n    address public deployer;\r\n    //AccountRegistration Contract\r\n    address public accountRegistrationContract;\r\n\r\n    constructor(address _accountRegistrationContract) {\r\n        deployer = msg.sender;\r\n        accountRegistrationContract = _accountRegistrationContract;\r\n    }\r\n\r\n    struct LandIdentifier {\r\n        /*\r\n            Fields needed to identify the piece of land\r\n            A state has divisions.\r\n            Each division has districts.\r\n            Each district has talukas.\r\n            Each taluka has villages.\r\n            A land parcel under this hierarchy is identified using\r\n            a survey number.\r\n            Shall this land be divided at a later point, its sub-divisions\r\n            are represented using a sub-division number.\r\n            All divisions in Maharashtra can be found in the link below:\r\n            http://www.landsofmaharashtra.com/divisionsofmaharashtra.html \r\n        */\r\n        string state;\r\n        string division;\r\n        string district;\r\n        string taluka;\r\n        string village;\r\n        uint surveyNumber;\r\n        string subdivision;\r\n    }\r\n\r\n    struct LandRecord {\r\n        uint landId;\r\n        //Address of the account(person) that owns this piece of land\r\n        /* \r\n            Note: There can be multiple owners of a single piece of land.\r\n            This is being ignored for now.\r\n        */\r\n        address owner;\r\n\r\n        LandIdentifier identifier;\r\n\r\n        uint area;\r\n\r\n        //Represented as UNIX Time\r\n        uint purchaseDate;\r\n        //Price at which the land was purchased.\r\n        uint purchasePrice;\r\n        //Estimated value of land at the time of purchase\r\n        uint landValueAtPurchase;\r\n\r\n        //A list of the previous owners of this piece of land. \r\n        address[] previousOwners;\r\n\r\n        /*\r\n            If a piece of land is entering the system for the first time,\r\n            it must be verified by an inspector.\r\n        */\r\n        bool isVerified;\r\n        bool isForSale;\r\n    }\r\n\r\n    //Event to be emitted after adding a land record\r\n    event LandRecordAdded(uint landId);\r\n    //Event to be emitted if the land record already exists\r\n    event LandRecordExists(uint landId);\r\n    //Event to be emitted when land is listed for sale\r\n    event LandListedForSale(uint landId);\r\n    event LandAlreadyForSale(uint landId);\r\n\r\n    event LandRequests(uint requestId, address landOwner, address buyer, uint landId, reqStatus status, bool someFlag);\r\n    event LandRequestCancelled(uint requestId);\r\n    event PaymentMarkedAsDone(uint requestId, uint landId);\r\n    event LandOwnershipTransferred(uint landId, address oldOwner, address newOwner);\r\n\r\n     // Event to be emitted when a user tries to request to buy the same land twice\r\n    event DuplicateLandRequest(uint landId, address buyer);\r\n\r\n       // Event to be emitted when a buyer cancels their request to buy a land\r\n    event BuyerRequestCancelled(uint requestId, address seller, address buyer, uint landId);\r\n\r\n    // Event to be emitted when a buyer tries to cancel the same request more than once\r\n    event DuplicateCancellationAttempt(address buyer, uint landId);\r\n\r\n    // Declare an event for acceptance of a request\r\nevent RequestAccepted(uint indexed requestId, address indexed seller, address indexed buyer);\r\n// Declare an event for rejection of a request\r\nevent RequestRejected(uint indexed requestId, address indexed seller, address indexed buyer);\r\n\r\n//A structure that represents the Land requests made by buyer to seller along with the status of the request\r\n     struct LandRequest {\r\n        uint reqId;\r\n        address sellerId;\r\n        address buyerId;\r\n        uint landId;\r\n        reqStatus requestStatus;\r\n        bool isPaymentDone;\r\n    }\r\n\r\n    //An enumeration that shows different stages of the request\r\n    enum reqStatus {requested,accepted,rejected,paymentdone,completed}\r\n\r\n\r\n//Mapping to different lists and LandRequest\r\n    mapping(uint => LandRequest) public LandRequestMapping;\r\n    mapping(address => uint[])  MyReceivedLandRequests;\r\n    mapping(address => uint[])  MySentLandRequests;\r\n    mapping(address => uint[])  MyLands;\r\n\r\n// A mapping between land ID, buyer address, and request ID\r\n    mapping(uint => mapping(address => uint)) public landToBuyerToRequest;\r\n    \r\n    //List containing all the lands that are added\r\n    uint[] allLandList;\r\n\r\n    \r\n\r\n    uint256 requestCount;\r\n\r\n\r\n    uint public landRecordsCount = 1;\r\n\r\n    modifier onlyOwner(uint _landId) {\r\n        require(\r\n            msg.sender == landMapping[_landId].owner,\r\n            \"Only owner can perform this operation.\"\r\n        );\r\n        _;\r\n    }\r\n\r\n    modifier onlylInspector() {\r\n        //Call the isInspector function from the accountRegistration contract\r\n        bool isInspector = IAccountRegistration(\r\n            accountRegistrationContract\r\n        ).isLandInspector(msg.sender);\r\n\r\n        require(isInspector, \"Only inspector can perform this action.\");\r\n        _;\r\n    }\r\n\r\n    modifier onlyRegisteredUser() {\r\n        //Call the isVerified function from the accountRegistration contract\r\n        bool isRegisteredUser = IAccountRegistration(\r\n            accountRegistrationContract\r\n        ).checkUserVerified(msg.sender);\r\n\r\n        require(isRegisteredUser, \"Only registered user can perform this action.\");\r\n        _;\r\n    }\r\n\r\n    modifier onlyVerifiedLand(uint _landId) {\r\n        require(\r\n            landMapping[_landId].isVerified == true,\r\n            \"Only verified lands can be put up for sale.\"\r\n        );\r\n        _;\r\n    }\r\n\r\n    /*\r\n        Mapping of land records by hierarchy. Mapping is as follows:\r\n        state => {\r\n            division => {\r\n                district => {\r\n                    taluka => {\r\n                        village => {\r\n                            survery number => {\r\n                                subdivision => id\r\n                            }\r\n                        }\r\n                    }\r\n                }\r\n            }\r\n        }\r\n        This mapping will be useful for efficient retrieval of land id.\r\n     */\r\n    \r\n    mapping(\r\n        string => mapping(\r\n            string => mapping(\r\n                string => mapping(\r\n                    string => mapping(\r\n                        string => mapping(\r\n                            uint => mapping(\r\n                                string => uint\r\n                            )\r\n                        )\r\n                    )\r\n                )\r\n            )\r\n        )\r\n    )landMapToId;\r\n\r\n    //Mapping of land ids to land records.\r\n    mapping(uint => LandRecord) public landMapping;\r\n\r\n    //A list of land ids which have been marked for sale\r\n    uint[] landsForSale;\r\n\r\n    //A list of lands which are to be verified by an inspector\r\n    uint[] verificationRequired;\r\n\r\n    //Function to submit a land verification request\r\n    function landVerificationRequest(uint _landId) public onlyOwner(_landId) {\r\n        verificationRequired.push(_landId);\r\n    }\r\n\r\n    function landRecordExists(LandIdentifier memory _record) \r\n                                private view returns (bool, uint) {\r\n        uint landId = landMapToId[_record.state][_record.division]\r\n                                [_record.district][_record.taluka]\r\n                                [_record.village][_record.surveyNumber][_record.subdivision];\r\n        if (landId == 0) {\r\n            return (false, 0);\r\n        }\r\n        return (true, landId);\r\n    }\r\n\r\n    //This function is used to add a land record\r\n    function addLandRecord  (LandRecord memory _record) public \r\n                             returns (uint) {\r\n\r\n        (bool recordExists, uint landId) = landRecordExists(_record.identifier);\r\n\r\n        //If land record already exists, return the land id\r\n        if (recordExists) {\r\n            emit LandRecordExists(landId);\r\n            return landId;\r\n        }\r\n\r\n        _record.landId = landRecordsCount;\r\n        _record.isVerified = false;\r\n        _record.isForSale = false;\r\n        //If the land record doesn't already exist, add it to the mapping\r\n        //and return land id\r\n        landMapping[landRecordsCount] = _record;\r\n\r\n        //Also add it to the landMapToId mapping\r\n        landMapToId[_record.identifier.state][_record.identifier.division]\r\n        [_record.identifier.district][_record.identifier.taluka]\r\n        [_record.identifier.village][_record.identifier.surveyNumber]\r\n        [_record.identifier.subdivision] = landRecordsCount;\r\n\r\n        uint addedLandId = landRecordsCount;\r\n        allLandList.push(addedLandId);\r\n        landRecordsCount++;\r\n\r\n        //Add to the accounts list of lands\r\n        MyLands[msg.sender].push(addedLandId);\r\n        emit LandRecordAdded(addedLandId);\r\n        return addedLandId;\r\n    }\r\n\r\n    // Function to remove land by landId\r\n    function removeLand(uint256 landId) public{\r\n        uint256[] storage lands = MyLands[msg.sender];\r\n\r\n        // Search for the landId in the array\r\n        for (uint256 i = 0; i < lands.length; i++) {\r\n            if (lands[i] == landId) {\r\n                // Remove the landId from the array\r\n                lands[i] = lands[lands.length - 1];\r\n                lands.pop();\r\n\r\n\r\n                break;\r\n            }\r\n        }\r\n    }\r\n    \r\n\r\n    //Get land id\r\n    function getLandId(LandIdentifier memory _identifier) public view returns (uint){\r\n        return landMapToId[_identifier.state][_identifier.division]\r\n        [_identifier.district][_identifier.taluka][_identifier.village]\r\n        [_identifier.surveyNumber][_identifier.subdivision];\r\n    }\r\n\r\n    //Function to approve a land verification request\r\n    function verifyLand(uint _landId) public onlylInspector {\r\n        landMapping[_landId].isVerified = true;\r\n    }\r\n\r\n    //List land for sale\r\n    function listLandForSale(uint _landId) public onlyOwner(_landId) {\r\n        //Check if land actually exists\r\n        //Mapping in solidity always exists and maps to a zero value\r\n        //Hence, this check is needed.\r\n        require(landMapping[_landId].landId > 0);\r\n\r\n        //Mark the land for Sale\r\n        if(landMapping[_landId].isForSale == true) {\r\n            emit LandAlreadyForSale(_landId);\r\n            return;\r\n        }\r\n        landMapping[_landId].isForSale = true;\r\n\r\n        //Add the land to the landsForSale list\r\n        landsForSale.push(_landId);\r\n\r\n        emit LandListedForSale(_landId);\r\n    }\r\n\r\n // Function where a buyer can request and show interest in buying a land\r\n    function requestForBuy(uint _landId) public  {\r\n        require(landMapping[_landId].isForSale, \"Land is not for sale\");\r\n\r\n        // Check if the buyer has already requested to buy this land before\r\n        if (hasBuyerAlreadyRequested(_landId, msg.sender)) {\r\n            // Emit the DuplicateLandRequest event and revert the transaction\r\n            emit DuplicateLandRequest(_landId, msg.sender);\r\n        }\r\n        else\r\n        {\r\n\r\n        requestCount++;\r\n        LandRequestMapping[requestCount] = LandRequest(requestCount, landMapping[_landId].owner, msg.sender, _landId, reqStatus.requested, false);\r\n        MyReceivedLandRequests[landMapping[_landId].owner].push(requestCount);\r\n        MySentLandRequests[msg.sender].push(requestCount);\r\n\r\n        // Update the mapping between land ID, buyer address, and request ID\r\n        landToBuyerToRequest[_landId][msg.sender] = requestCount;\r\n\r\n        emit LandRequests(requestCount, landMapping[_landId].owner, msg.sender, _landId, reqStatus.requested, false);\r\n        }\r\n    }\r\n\r\n    \r\n    // Function to check if a buyer has already requested to buy a specific land\r\n    function hasBuyerAlreadyRequested(uint _landId, address _buyer) internal view returns (bool) {\r\n        return landToBuyerToRequest[_landId][_buyer] > 0;\r\n    }\r\n\r\n    // Function to cancel a buyer's request for a land\r\nfunction cancelBuyerRequest(uint _landId) public  {\r\n    require(landMapping[_landId].isForSale, \"Land is not for sale\");\r\n\r\n        // Check if the buyer has requested for this land\r\n        if (hasBuyerAlreadyRequested(_landId, msg.sender)) {\r\n            uint requestId = landToBuyerToRequest[_landId][msg.sender];\r\n\r\n            // // Check if the request is still in the 'requested' status\r\n             require(LandRequestMapping[requestId].requestStatus == reqStatus.requested, \"Cannot cancel. Request is not in 'requested' status\");\r\n\r\n\r\n            LandRequestMapping[requestId].requestStatus == reqStatus.rejected;\r\n\r\n            // Remove the request from MyReceivedLandRequests and MySentLandRequests lists\r\n            removeRequestFromList(MyReceivedLandRequests[landMapping[_landId].owner], requestId);\r\n            removeRequestFromList(MySentLandRequests[msg.sender], requestId);\r\n\r\n            // Update the mapping between land ID, buyer address, and request ID\r\n            delete landToBuyerToRequest[_landId][msg.sender];\r\n\r\n            // Emit the BuyerRequestCancelled event\r\n             emit BuyerRequestCancelled(requestId, landMapping[_landId].owner, msg.sender, _landId);\r\n            }\r\n\r\n}\r\n\r\n// Add a new function to retrieve the status of land requests for a specific land\r\nfunction getLandRequestStatus(uint _landId, address _buyer) public view returns (reqStatus) {\r\n    uint requestId = landToBuyerToRequest[_landId][_buyer];\r\n    if (requestId > 0) {\r\n        return LandRequestMapping[requestId].requestStatus;\r\n    }\r\n    return reqStatus.requested; // Default to requested if no request found\r\n}\r\n\r\n// Internal function to remove a request ID from a list\r\nfunction removeRequestFromList(uint[] storage requestList, uint requestId) internal {\r\n    uint len = requestList.length;\r\n    for (uint i = 0; i < len; i++) {\r\n        if (requestList[i] == requestId) {\r\n            requestList[i] = requestList[len - 1];\r\n            requestList.pop();\r\n            break;\r\n        }\r\n    }\r\n\r\n    // Emit the LandRequestCancelled event\r\n        emit LandRequestCancelled(requestId);\r\n}\r\n\r\n// Function that will return a list of received land requests buyers interested for a particular land\r\nfunction receivedLandRequests() public view returns (uint[] memory) {\r\n    \r\n    return MyReceivedLandRequests[msg.sender];\r\n}\r\n//Function that will return a list of buyers interested for a particular land and have sent requests\r\nfunction sentLandRequests() public view returns(uint[] memory)\r\n{\r\n    return MySentLandRequests[msg.sender];\r\n}\r\n\r\n// Add a new function to get land ID for a given request ID\r\nfunction getLandIdForRequest(uint _requestId) public view returns (uint) {\r\n    return LandRequestMapping[_requestId].landId;\r\n}\r\n\r\n\r\n// Function to get the buyer address for a given request ID\r\nfunction getBuyerAddressForRequest(uint _requestId) public view returns (address) {\r\n    require(_requestId > 0 && _requestId <= requestCount, \"Invalid request ID\");\r\n\r\n    return LandRequestMapping[_requestId].buyerId;\r\n}\r\n\r\n// Function where seller accepts the request of the buyer\r\n    function acceptRequest(uint _requestId) public {\r\n        require(LandRequestMapping[_requestId].sellerId == msg.sender, \"Not the seller of this land\");\r\n        require(LandRequestMapping[_requestId].requestStatus == reqStatus.requested, \"Invalid request status\");\r\n\r\n        // Update the request status\r\n        LandRequestMapping[_requestId].requestStatus = reqStatus.accepted;\r\n   \r\n    }\r\n\r\n//Function where seller rejects the request of the buyer\r\n    function rejectRequest(uint _requestId) public \r\n    {\r\n        require(LandRequestMapping[_requestId].sellerId == msg.sender, \"Not the seller of this land\");\r\n        require(LandRequestMapping[_requestId].requestStatus == reqStatus.requested, \"Invalid request status\");\r\n\r\n        LandRequestMapping[_requestId].requestStatus=reqStatus.rejected;\r\n\r\n\r\n    // Remove the request from MyReceivedLandRequests and MySentLandRequests lists\r\n    removeRequestFromList(MyReceivedLandRequests[LandRequestMapping[_requestId].sellerId ], _requestId);\r\n    removeRequestFromList(MySentLandRequests[LandRequestMapping[_requestId].buyerId], _requestId);\r\n\r\n       // Emit the RequestRejected event\r\n    emit RequestRejected(_requestId, msg.sender, LandRequestMapping[_requestId].buyerId);\r\n\r\n\r\n     // Update the mapping between land ID, buyer address, and request ID\r\n        delete landToBuyerToRequest[LandRequestMapping[_requestId].landId][LandRequestMapping[_requestId].buyerId];\r\n\r\n\r\n     // Delete the request entry\r\n        delete LandRequestMapping[_requestId];\r\n    }\r\n\r\n    // Function to get the request ID for a given land ID\r\nfunction getRequestForLandId(uint _landId, address _buyer) public view returns (uint) {\r\n    uint requestId = landToBuyerToRequest[_landId][_buyer];\r\n\r\n    // Check if the request ID is greater than 0, indicating a valid request\r\n    if (requestId > 0) {\r\n        return requestId;\r\n    }\r\n\r\n    // Return 0 if no valid request exists\r\n    return 0;\r\n}\r\n\r\n\r\n \r\n//Function to mark payment as done\r\nfunction markPaymentAsDone(uint _requestId, uint _landId) public  {\r\n    require(LandRequestMapping[_requestId].sellerId == msg.sender, \"Not the seller of this land\");\r\n    require(LandRequestMapping[_requestId].requestStatus == reqStatus.accepted, \"Invalid request status\");\r\n    require(landMapping[_landId].isForSale, \"Land is not for sale\");\r\n\r\n    // Ensure the provided requestId is valid\r\n    require(_requestId > 0, \"Invalid requestId\");\r\n\r\n\r\n    // Mark payment as done\r\n    LandRequestMapping[_requestId].isPaymentDone = true;\r\n    LandRequestMapping[_requestId].requestStatus=reqStatus.paymentdone;\r\n\r\n\r\n    // Emit the PaymentMarkedAsDone event\r\n    emit PaymentMarkedAsDone(_requestId, _landId);\r\n}\r\n//Function to check the status of payment\r\n    function requestStatus(uint requestId) public view returns(bool)\r\n    {\r\n        return LandRequestMapping[requestId].isPaymentDone;\r\n    }\r\n\r\n// Function to get the owner's address for a given land ID\r\nfunction getOwnerAddress(uint _landId) public view returns (address) {\r\n    require(landMapping[_landId].landId > 0, \"Land not found\");\r\n    return landMapping[_landId].owner;\r\n}\r\n\r\n// Function to remove a land from sale\r\nfunction removeLandFromSale(uint _landId) public {\r\n    // Check if the land is currently listed for sale\r\n    require(landMapping[_landId].isForSale, \"Land is not currently listed for sale\");\r\n\r\n    // Mark the land as not for sale\r\n    landMapping[_landId].isForSale = false;\r\n\r\n    // Remove the land ID from the landsforsale list\r\n    for (uint i = 0; i < landsForSale.length; i++) {\r\n        if (landsForSale[i] == _landId) {\r\n            // Swap with the last element and pop\r\n            landsForSale[i] = landsForSale[landsForSale.length - 1];\r\n            landsForSale.pop();\r\n            break;\r\n        }\r\n    }\r\n\r\n}\r\n\r\n\r\n// Function to transfer land ownership\r\nfunction transferLandOwnership(uint _requestId) public {\r\n       require(LandRequestMapping[_requestId].sellerId == msg.sender, \"Not the seller of this land\");\r\n    require(LandRequestMapping[_requestId].requestStatus == reqStatus.paymentdone, \"payment not done\");\r\n    \r\n    uint landId = LandRequestMapping[_requestId].landId;\r\n    address oldOwner = landMapping[landId].owner;\r\n    address newOwner = LandRequestMapping[_requestId].buyerId;\r\n\r\n    // Update the owner of the land\r\n    landMapping[landId].owner = newOwner;\r\n\r\n    // Remove the land from landsForSale list\r\n    // landMapping[landId].isForSale = false;\r\n\r\n       //Add to the accounts list of lands\r\n        MyLands[newOwner].push(landId);\r\n\r\n      // Remove the land from landsforsale list if it was listed for sale\r\n    if (landMapping[landId].isForSale) {\r\n        removeLandFromSale(landId);\r\n    }\r\n\r\n    \r\n    // Store the previous owner's address in the array\r\n    landMapping[landId].previousOwners.push(oldOwner);\r\n\r\n    LandRequestMapping[_requestId].requestStatus= reqStatus.completed;\r\n       // Remove the land from the seller's owned lands\r\n        removeLand(landId);\r\n  \r\n\r\n\r\n    // Remove the mapping when the land ownership is transferred\r\n       // delete landToBuyerToRequest[landId][newOwner];\r\n\r\n    // Remove the request from MyReceivedLandRequests and MySentLandRequests lists\r\n    // removeRequestFromList(MyReceivedLandRequests[LandRequestMapping[_requestId].sellerId ], _requestId);\r\n    // removeRequestFromList(MySentLandRequests[LandRequestMapping[_requestId].buyerId], _requestId);\r\n\r\n      // Delete the request entry\r\n    //delete LandRequestMapping[_requestId];\r\n\r\n\r\n    // Emit the LandOwnershipTransferred event\r\n    emit LandOwnershipTransferred(landId, oldOwner, newOwner);\r\n}\r\n\r\n\r\n// Function to get the previous owners of a land\r\nfunction getPreviousOwners(uint _landId) public view returns (address[] memory) {\r\n    require(landMapping[_landId].landId > 0, \"Land not found\");\r\n    return landMapping[_landId].previousOwners;\r\n}\r\n\r\n\r\n\r\n\r\n    //Get all land ids which have been listed for sale\r\n    //except the lands listed for sale by the caller\r\n    function getLandsForSale() public view returns (LandRecord[] memory) {\r\n        uint count = 0;\r\n        for(uint i = 0; i < landsForSale.length; i++) {\r\n            if(landMapping[landsForSale[i]].owner != msg.sender) {\r\n                count++;\r\n            }\r\n        }\r\n\r\n        LandRecord[] memory result = new LandRecord[](count);\r\n\r\n        uint resultIndex = 0;\r\n\r\n        for(uint i = 0; i < landsForSale.length; i++) {\r\n            if(landMapping[landsForSale[i]].owner != msg.sender) {\r\n                result[resultIndex] = landMapping[landsForSale[i]];\r\n                resultIndex++;\r\n            }\r\n        }\r\n        return result;\r\n    }\r\n\r\n\r\n\r\n    function getMyLands() public view returns(LandRecord[] memory) {\r\n        LandRecord[] memory result = new LandRecord[](MyLands[msg.sender].length);\r\n\r\n        for(uint i = 0; i < MyLands[msg.sender].length; i++) {\r\n            result[i] = landMapping[MyLands[msg.sender][i]];\r\n        }\r\n        return result;\r\n    }\r\n\r\n//Function that returns a list of all lands\r\n    function ReturnAllLandList() public view returns(uint[] memory)\r\n    {\r\n        return allLandList;\r\n    }\r\n}\r\n\r\n\r\n",
  "sourcePath": "C:\\Users\\Aaryan\\Desktop\\FYP LATEST\\Decentralizsed-Land-Registration\\contracts\\land-contract.sol",
  "compiler": {
    "name": "solc",
    "version": "0.8.0+commit.c7dfd78e.Emscripten.clang"
  },
  "schemaVersion": "3.4.16",
  "updatedAt": "2024-01-24T09:38:43.550Z",
  "networkType": "ethereum",
  "devdoc": {
    "kind": "dev",
    "methods": {},
    "version": 1
  },
  "userdoc": {
    "kind": "user",
    "methods": {},
    "version": 1
  }
}