{
  "contractName": "LandRegistration",
  "abi": [
    {
      "inputs": [
        {
          "internalType": "address",
          "name": "_accountRegistrationContract",
          "type": "address"
        }
      ],
      "stateMutability": "nonpayable",
      "type": "constructor"
    },
    {
      "anonymous": false,
      "inputs": [
        {
          "indexed": false,
          "internalType": "uint256",
          "name": "requestId",
          "type": "uint256"
        },
        {
          "indexed": false,
          "internalType": "address",
          "name": "seller",
          "type": "address"
        },
        {
          "indexed": false,
          "internalType": "address",
          "name": "buyer",
          "type": "address"
        },
        {
          "indexed": false,
          "internalType": "uint256",
          "name": "landId",
          "type": "uint256"
        }
      ],
      "name": "BuyerRequestCancelled",
      "type": "event"
    },
    {
      "anonymous": false,
      "inputs": [
        {
          "indexed": false,
          "internalType": "address",
          "name": "buyer",
          "type": "address"
        },
        {
          "indexed": false,
          "internalType": "uint256",
          "name": "landId",
          "type": "uint256"
        }
      ],
      "name": "DuplicateCancellationAttempt",
      "type": "event"
    },
    {
      "anonymous": false,
      "inputs": [
        {
          "indexed": false,
          "internalType": "uint256",
          "name": "landId",
          "type": "uint256"
        },
        {
          "indexed": false,
          "internalType": "address",
          "name": "buyer",
          "type": "address"
        }
      ],
      "name": "DuplicateLandRequest",
      "type": "event"
    },
    {
      "anonymous": false,
      "inputs": [
        {
          "indexed": false,
          "internalType": "uint256",
          "name": "landId",
          "type": "uint256"
        }
      ],
      "name": "LandListedForSale",
      "type": "event"
    },
    {
      "anonymous": false,
      "inputs": [
        {
          "indexed": false,
          "internalType": "uint256",
          "name": "landId",
          "type": "uint256"
        },
        {
          "indexed": false,
          "internalType": "address",
          "name": "oldOwner",
          "type": "address"
        },
        {
          "indexed": false,
          "internalType": "address",
          "name": "newOwner",
          "type": "address"
        }
      ],
      "name": "LandOwnershipTransferred",
      "type": "event"
    },
    {
      "anonymous": false,
      "inputs": [
        {
          "indexed": false,
          "internalType": "uint256",
          "name": "landId",
          "type": "uint256"
        }
      ],
      "name": "LandRecordAdded",
      "type": "event"
    },
    {
      "anonymous": false,
      "inputs": [
        {
          "indexed": false,
          "internalType": "uint256",
          "name": "landId",
          "type": "uint256"
        }
      ],
      "name": "LandRecordExists",
      "type": "event"
    },
    {
      "anonymous": false,
      "inputs": [
        {
          "indexed": false,
          "internalType": "uint256",
          "name": "requestId",
          "type": "uint256"
        }
      ],
      "name": "LandRequestCancelled",
      "type": "event"
    },
    {
      "anonymous": false,
      "inputs": [
        {
          "indexed": false,
          "internalType": "uint256",
          "name": "requestId",
          "type": "uint256"
        },
        {
          "indexed": false,
          "internalType": "address",
          "name": "landOwner",
          "type": "address"
        },
        {
          "indexed": false,
          "internalType": "address",
          "name": "buyer",
          "type": "address"
        },
        {
          "indexed": false,
          "internalType": "uint256",
          "name": "landId",
          "type": "uint256"
        },
        {
          "indexed": false,
          "internalType": "enum LandRegistration.reqStatus",
          "name": "status",
          "type": "uint8"
        },
        {
          "indexed": false,
          "internalType": "bool",
          "name": "someFlag",
          "type": "bool"
        }
      ],
      "name": "LandRequests",
      "type": "event"
    },
    {
      "anonymous": false,
      "inputs": [
        {
          "indexed": false,
          "internalType": "uint256",
          "name": "requestId",
          "type": "uint256"
        },
        {
          "indexed": false,
          "internalType": "uint256",
          "name": "landId",
          "type": "uint256"
        }
      ],
      "name": "PaymentMarkedAsDone",
      "type": "event"
    },
    {
      "anonymous": false,
      "inputs": [
        {
          "indexed": true,
          "internalType": "uint256",
          "name": "requestId",
          "type": "uint256"
        },
        {
          "indexed": true,
          "internalType": "address",
          "name": "seller",
          "type": "address"
        },
        {
          "indexed": true,
          "internalType": "address",
          "name": "buyer",
          "type": "address"
        }
      ],
      "name": "RequestAccepted",
      "type": "event"
    },
    {
      "anonymous": false,
      "inputs": [
        {
          "indexed": true,
          "internalType": "uint256",
          "name": "requestId",
          "type": "uint256"
        },
        {
          "indexed": true,
          "internalType": "address",
          "name": "seller",
          "type": "address"
        },
        {
          "indexed": true,
          "internalType": "address",
          "name": "buyer",
          "type": "address"
        }
      ],
      "name": "RequestRejected",
      "type": "event"
    },
    {
      "inputs": [
        {
          "internalType": "uint256",
          "name": "",
          "type": "uint256"
        }
      ],
      "name": "LandRequestMapping",
      "outputs": [
        {
          "internalType": "uint256",
          "name": "reqId",
          "type": "uint256"
        },
        {
          "internalType": "address",
          "name": "sellerId",
          "type": "address"
        },
        {
          "internalType": "address",
          "name": "buyerId",
          "type": "address"
        },
        {
          "internalType": "uint256",
          "name": "landId",
          "type": "uint256"
        },
        {
          "internalType": "enum LandRegistration.reqStatus",
          "name": "requestStatus",
          "type": "uint8"
        },
        {
          "internalType": "bool",
          "name": "isPaymentDone",
          "type": "bool"
        }
      ],
      "stateMutability": "view",
      "type": "function",
      "constant": true
    },
    {
      "inputs": [],
      "name": "accountRegistrationContract",
      "outputs": [
        {
          "internalType": "address",
          "name": "",
          "type": "address"
        }
      ],
      "stateMutability": "view",
      "type": "function",
      "constant": true
    },
    {
      "inputs": [],
      "name": "deployer",
      "outputs": [
        {
          "internalType": "address",
          "name": "",
          "type": "address"
        }
      ],
      "stateMutability": "view",
      "type": "function",
      "constant": true
    },
    {
      "inputs": [
        {
          "internalType": "uint256",
          "name": "",
          "type": "uint256"
        }
      ],
      "name": "landMapping",
      "outputs": [
        {
          "internalType": "uint256",
          "name": "landId",
          "type": "uint256"
        },
        {
          "internalType": "address",
          "name": "owner",
          "type": "address"
        },
        {
          "components": [
            {
              "internalType": "string",
              "name": "state",
              "type": "string"
            },
            {
              "internalType": "string",
              "name": "division",
              "type": "string"
            },
            {
              "internalType": "string",
              "name": "district",
              "type": "string"
            },
            {
              "internalType": "string",
              "name": "taluka",
              "type": "string"
            },
            {
              "internalType": "string",
              "name": "village",
              "type": "string"
            },
            {
              "internalType": "uint256",
              "name": "surveyNumber",
              "type": "uint256"
            },
            {
              "internalType": "string",
              "name": "subdivision",
              "type": "string"
            }
          ],
          "internalType": "struct LandRegistration.LandIdentifier",
          "name": "identifier",
          "type": "tuple"
        },
        {
          "internalType": "uint256",
          "name": "area",
          "type": "uint256"
        },
        {
          "internalType": "uint256",
          "name": "purchaseDate",
          "type": "uint256"
        },
        {
          "internalType": "uint256",
          "name": "purchasePrice",
          "type": "uint256"
        },
        {
          "internalType": "uint256",
          "name": "landValueAtPurchase",
          "type": "uint256"
        },
        {
          "internalType": "bool",
          "name": "isVerified",
          "type": "bool"
        },
        {
          "internalType": "bool",
          "name": "isForSale",
          "type": "bool"
        }
      ],
      "stateMutability": "view",
      "type": "function",
      "constant": true
    },
    {
      "inputs": [],
      "name": "landRecordsCount",
      "outputs": [
        {
          "internalType": "uint256",
          "name": "",
          "type": "uint256"
        }
      ],
      "stateMutability": "view",
      "type": "function",
      "constant": true
    },
    {
      "inputs": [
        {
          "internalType": "uint256",
          "name": "",
          "type": "uint256"
        },
        {
          "internalType": "address",
          "name": "",
          "type": "address"
        }
      ],
      "name": "landToBuyerToRequest",
      "outputs": [
        {
          "internalType": "uint256",
          "name": "",
          "type": "uint256"
        }
      ],
      "stateMutability": "view",
      "type": "function",
      "constant": true
    },
    {
      "inputs": [
        {
          "internalType": "uint256",
          "name": "_landId",
          "type": "uint256"
        }
      ],
      "name": "landVerificationRequest",
      "outputs": [],
      "stateMutability": "nonpayable",
      "type": "function"
    },
    {
      "inputs": [
        {
          "components": [
            {
              "internalType": "uint256",
              "name": "landId",
              "type": "uint256"
            },
            {
              "internalType": "address",
              "name": "owner",
              "type": "address"
            },
            {
              "components": [
                {
                  "internalType": "string",
                  "name": "state",
                  "type": "string"
                },
                {
                  "internalType": "string",
                  "name": "division",
                  "type": "string"
                },
                {
                  "internalType": "string",
                  "name": "district",
                  "type": "string"
                },
                {
                  "internalType": "string",
                  "name": "taluka",
                  "type": "string"
                },
                {
                  "internalType": "string",
                  "name": "village",
                  "type": "string"
                },
                {
                  "internalType": "uint256",
                  "name": "surveyNumber",
                  "type": "uint256"
                },
                {
                  "internalType": "string",
                  "name": "subdivision",
                  "type": "string"
                }
              ],
              "internalType": "struct LandRegistration.LandIdentifier",
              "name": "identifier",
              "type": "tuple"
            },
            {
              "internalType": "uint256",
              "name": "area",
              "type": "uint256"
            },
            {
              "internalType": "uint256",
              "name": "purchaseDate",
              "type": "uint256"
            },
            {
              "internalType": "uint256",
              "name": "purchasePrice",
              "type": "uint256"
            },
            {
              "internalType": "uint256",
              "name": "landValueAtPurchase",
              "type": "uint256"
            },
            {
              "internalType": "address[]",
              "name": "previousOwners",
              "type": "address[]"
            },
            {
              "internalType": "bool",
              "name": "isVerified",
              "type": "bool"
            },
            {
              "internalType": "bool",
              "name": "isForSale",
              "type": "bool"
            }
          ],
          "internalType": "struct LandRegistration.LandRecord",
          "name": "_record",
          "type": "tuple"
        }
      ],
      "name": "addLandRecord",
      "outputs": [
        {
          "internalType": "uint256",
          "name": "",
          "type": "uint256"
        }
      ],
      "stateMutability": "nonpayable",
      "type": "function"
    },
    {
      "inputs": [
        {
          "internalType": "uint256",
          "name": "landId",
          "type": "uint256"
        }
      ],
      "name": "removeLand",
      "outputs": [],
      "stateMutability": "nonpayable",
      "type": "function"
    },
    {
      "inputs": [
        {
          "components": [
            {
              "internalType": "string",
              "name": "state",
              "type": "string"
            },
            {
              "internalType": "string",
              "name": "division",
              "type": "string"
            },
            {
              "internalType": "string",
              "name": "district",
              "type": "string"
            },
            {
              "internalType": "string",
              "name": "taluka",
              "type": "string"
            },
            {
              "internalType": "string",
              "name": "village",
              "type": "string"
            },
            {
              "internalType": "uint256",
              "name": "surveyNumber",
              "type": "uint256"
            },
            {
              "internalType": "string",
              "name": "subdivision",
              "type": "string"
            }
          ],
          "internalType": "struct LandRegistration.LandIdentifier",
          "name": "_identifier",
          "type": "tuple"
        }
      ],
      "name": "getLandId",
      "outputs": [
        {
          "internalType": "uint256",
          "name": "",
          "type": "uint256"
        }
      ],
      "stateMutability": "view",
      "type": "function",
      "constant": true
    },
    {
      "inputs": [
        {
          "internalType": "uint256",
          "name": "_landId",
          "type": "uint256"
        }
      ],
      "name": "verifyLand",
      "outputs": [],
      "stateMutability": "nonpayable",
      "type": "function"
    },
    {
      "inputs": [
        {
          "internalType": "uint256",
          "name": "_landId",
          "type": "uint256"
        }
      ],
      "name": "listLandForSale",
      "outputs": [],
      "stateMutability": "nonpayable",
      "type": "function"
    },
    {
      "inputs": [
        {
          "internalType": "uint256",
          "name": "_landId",
          "type": "uint256"
        }
      ],
      "name": "requestForBuy",
      "outputs": [],
      "stateMutability": "nonpayable",
      "type": "function"
    },
    {
      "inputs": [
        {
          "internalType": "uint256",
          "name": "_landId",
          "type": "uint256"
        }
      ],
      "name": "cancelBuyerRequest",
      "outputs": [],
      "stateMutability": "nonpayable",
      "type": "function"
    },
    {
      "inputs": [
        {
          "internalType": "uint256",
          "name": "_landId",
          "type": "uint256"
        },
        {
          "internalType": "address",
          "name": "_buyer",
          "type": "address"
        }
      ],
      "name": "getLandRequestStatus",
      "outputs": [
        {
          "internalType": "enum LandRegistration.reqStatus",
          "name": "",
          "type": "uint8"
        }
      ],
      "stateMutability": "view",
      "type": "function",
      "constant": true
    },
    {
      "inputs": [],
      "name": "receivedLandRequests",
      "outputs": [
        {
          "internalType": "uint256[]",
          "name": "",
          "type": "uint256[]"
        }
      ],
      "stateMutability": "view",
      "type": "function",
      "constant": true
    },
    {
      "inputs": [],
      "name": "sentLandRequests",
      "outputs": [
        {
          "internalType": "uint256[]",
          "name": "",
          "type": "uint256[]"
        }
      ],
      "stateMutability": "view",
      "type": "function",
      "constant": true
    },
    {
      "inputs": [
        {
          "internalType": "uint256",
          "name": "_requestId",
          "type": "uint256"
        }
      ],
      "name": "getLandIdForRequest",
      "outputs": [
        {
          "internalType": "uint256",
          "name": "",
          "type": "uint256"
        }
      ],
      "stateMutability": "view",
      "type": "function",
      "constant": true
    },
    {
      "inputs": [
        {
          "internalType": "uint256",
          "name": "_requestId",
          "type": "uint256"
        }
      ],
      "name": "getBuyerAddressForRequest",
      "outputs": [
        {
          "internalType": "address",
          "name": "",
          "type": "address"
        }
      ],
      "stateMutability": "view",
      "type": "function",
      "constant": true
    },
    {
      "inputs": [
        {
          "internalType": "uint256",
          "name": "_requestId",
          "type": "uint256"
        }
      ],
      "name": "acceptRequest",
      "outputs": [],
      "stateMutability": "nonpayable",
      "type": "function"
    },
    {
      "inputs": [
        {
          "internalType": "uint256",
          "name": "_requestId",
          "type": "uint256"
        }
      ],
      "name": "rejectRequest",
      "outputs": [],
      "stateMutability": "nonpayable",
      "type": "function"
    },
    {
      "inputs": [
        {
          "internalType": "uint256",
          "name": "_landId",
          "type": "uint256"
        },
        {
          "internalType": "address",
          "name": "_buyer",
          "type": "address"
        }
      ],
      "name": "getRequestForLandId",
      "outputs": [
        {
          "internalType": "uint256",
          "name": "",
          "type": "uint256"
        }
      ],
      "stateMutability": "view",
      "type": "function",
      "constant": true
    },
    {
      "inputs": [
        {
          "internalType": "uint256",
          "name": "_requestId",
          "type": "uint256"
        },
        {
          "internalType": "uint256",
          "name": "_landId",
          "type": "uint256"
        }
      ],
      "name": "markPaymentAsDone",
      "outputs": [],
      "stateMutability": "nonpayable",
      "type": "function"
    },
    {
      "inputs": [
        {
          "internalType": "uint256",
          "name": "requestId",
          "type": "uint256"
        }
      ],
      "name": "requestStatus",
      "outputs": [
        {
          "internalType": "bool",
          "name": "",
          "type": "bool"
        }
      ],
      "stateMutability": "view",
      "type": "function",
      "constant": true
    },
    {
      "inputs": [
        {
          "internalType": "uint256",
          "name": "_landId",
          "type": "uint256"
        }
      ],
      "name": "getOwnerAddress",
      "outputs": [
        {
          "internalType": "address",
          "name": "",
          "type": "address"
        }
      ],
      "stateMutability": "view",
      "type": "function",
      "constant": true
    },
    {
      "inputs": [
        {
          "internalType": "uint256",
          "name": "_landId",
          "type": "uint256"
        }
      ],
      "name": "removeLandFromSale",
      "outputs": [],
      "stateMutability": "nonpayable",
      "type": "function"
    },
    {
      "inputs": [
        {
          "internalType": "uint256",
          "name": "_requestId",
          "type": "uint256"
        }
      ],
      "name": "transferLandOwnership",
      "outputs": [],
      "stateMutability": "nonpayable",
      "type": "function"
    },
    {
      "inputs": [
        {
          "internalType": "uint256",
          "name": "_landId",
          "type": "uint256"
        }
      ],
      "name": "getPreviousOwners",
      "outputs": [
        {
          "internalType": "address[]",
          "name": "",
          "type": "address[]"
        }
      ],
      "stateMutability": "view",
      "type": "function",
      "constant": true
    },
    {
      "inputs": [],
      "name": "getLandsForSale",
      "outputs": [
        {
          "components": [
            {
              "internalType": "uint256",
              "name": "landId",
              "type": "uint256"
            },
            {
              "internalType": "address",
              "name": "owner",
              "type": "address"
            },
            {
              "components": [
                {
                  "internalType": "string",
                  "name": "state",
                  "type": "string"
                },
                {
                  "internalType": "string",
                  "name": "division",
                  "type": "string"
                },
                {
                  "internalType": "string",
                  "name": "district",
                  "type": "string"
                },
                {
                  "internalType": "string",
                  "name": "taluka",
                  "type": "string"
                },
                {
                  "internalType": "string",
                  "name": "village",
                  "type": "string"
                },
                {
                  "internalType": "uint256",
                  "name": "surveyNumber",
                  "type": "uint256"
                },
                {
                  "internalType": "string",
                  "name": "subdivision",
                  "type": "string"
                }
              ],
              "internalType": "struct LandRegistration.LandIdentifier",
              "name": "identifier",
              "type": "tuple"
            },
            {
              "internalType": "uint256",
              "name": "area",
              "type": "uint256"
            },
            {
              "internalType": "uint256",
              "name": "purchaseDate",
              "type": "uint256"
            },
            {
              "internalType": "uint256",
              "name": "purchasePrice",
              "type": "uint256"
            },
            {
              "internalType": "uint256",
              "name": "landValueAtPurchase",
              "type": "uint256"
            },
            {
              "internalType": "address[]",
              "name": "previousOwners",
              "type": "address[]"
            },
            {
              "internalType": "bool",
              "name": "isVerified",
              "type": "bool"
            },
            {
              "internalType": "bool",
              "name": "isForSale",
              "type": "bool"
            }
          ],
          "internalType": "struct LandRegistration.LandRecord[]",
          "name": "",
          "type": "tuple[]"
        }
      ],
      "stateMutability": "view",
      "type": "function",
      "constant": true
    },
    {
      "inputs": [],
      "name": "getMyLands",
      "outputs": [
        {
          "components": [
            {
              "internalType": "uint256",
              "name": "landId",
              "type": "uint256"
            },
            {
              "internalType": "address",
              "name": "owner",
              "type": "address"
            },
            {
              "components": [
                {
                  "internalType": "string",
                  "name": "state",
                  "type": "string"
                },
                {
                  "internalType": "string",
                  "name": "division",
                  "type": "string"
                },
                {
                  "internalType": "string",
                  "name": "district",
                  "type": "string"
                },
                {
                  "internalType": "string",
                  "name": "taluka",
                  "type": "string"
                },
                {
                  "internalType": "string",
                  "name": "village",
                  "type": "string"
                },
                {
                  "internalType": "uint256",
                  "name": "surveyNumber",
                  "type": "uint256"
                },
                {
                  "internalType": "string",
                  "name": "subdivision",
                  "type": "string"
                }
              ],
              "internalType": "struct LandRegistration.LandIdentifier",
              "name": "identifier",
              "type": "tuple"
            },
            {
              "internalType": "uint256",
              "name": "area",
              "type": "uint256"
            },
            {
              "internalType": "uint256",
              "name": "purchaseDate",
              "type": "uint256"
            },
            {
              "internalType": "uint256",
              "name": "purchasePrice",
              "type": "uint256"
            },
            {
              "internalType": "uint256",
              "name": "landValueAtPurchase",
              "type": "uint256"
            },
            {
              "internalType": "address[]",
              "name": "previousOwners",
              "type": "address[]"
            },
            {
              "internalType": "bool",
              "name": "isVerified",
              "type": "bool"
            },
            {
              "internalType": "bool",
              "name": "isForSale",
              "type": "bool"
            }
          ],
          "internalType": "struct LandRegistration.LandRecord[]",
          "name": "",
          "type": "tuple[]"
        }
      ],
      "stateMutability": "view",
      "type": "function",
      "constant": true
    },
    {
      "inputs": [],
      "name": "ReturnAllLandList",
      "outputs": [
        {
          "internalType": "uint256[]",
          "name": "",
          "type": "uint256[]"
        }
      ],
      "stateMutability": "view",
      "type": "function",
      "constant": true
    }
  ],
  "bytecode": "0x608060405260016009553480156200001657600080fd5b5060405162005d1f38038062005d1f83398181016040528101906200003c9190620000db565b336000806101000a81548173ffffffffffffffffffffffffffffffffffffffff021916908373ffffffffffffffffffffffffffffffffffffffff16021790555080600160006101000a81548173ffffffffffffffffffffffffffffffffffffffff021916908373ffffffffffffffffffffffffffffffffffffffff1602179055505062000155565b600081519050620000d5816200013b565b92915050565b600060208284031215620000ee57600080fd5b6000620000fe84828501620000c4565b91505092915050565b600062000114826200011b565b9050919050565b600073ffffffffffffffffffffffffffffffffffffffff82169050919050565b620001468162000107565b81146200015257600080fd5b50565b615bba80620001656000396000f3fe608060405234801561001057600080fd5b50600436106101e55760003560e01c80638714cfee1161010f578063d5f39488116100a2578063e88bed1a11610071578063e88bed1a146105d3578063f1a0995c146105f1578063f6c1b99214610621578063f9c43bdf1461063f576101e5565b8063d5f394881461051d578063dd5509581461053b578063e01ae68b1461056b578063e3df3cf8146105a3576101e5565b8063bd63026c116100de578063bd63026c14610483578063bf2543fb146104b3578063ce171858146104e3578063d14dfce6146104ff576101e5565b80638714cfee146103d057806395bd28d0146103ee5780639b2cfdeb1461041e578063b10a30ed1461044e576101e5565b80632d7788db1161018757806366746a711161015657806366746a711461034a5780636fff0f401461036857806373930e7e1461039857806377d90c66146103b4576101e5565b80632d7788db146102da5780634ba1f098146102f65780634f1de0e7146103125780636163f8ec1461032e576101e5565b806317194702116101c357806317194702146102405780631a313202146102705780631f7bdad6146102a057806323393d77146102bc576101e5565b806304888243146101ea5780630695b9c3146102065780630ee0ed5814610224575b600080fd5b61020460048036038101906101ff9190614a75565b61065b565b005b61020e6107b6565b60405161021b91906153c7565b60405180910390f35b61023e60048036038101906102399190614a75565b610e9a565b005b61025a60048036038101906102559190614a75565b611261565b60405161026791906155a1565b60405180910390f35b61028a60048036038101906102859190614a75565b611281565b604051610297919061540b565b60405180910390f35b6102ba60048036038101906102b59190614ada565b6112ae565b005b6102c461159f565b6040516102d191906153e9565b60405180910390f35b6102f460048036038101906102ef9190614a75565b6115f7565b005b610310600480360381019061030b9190614a75565b611aa1565b005b61032c60048036038101906103279190614a75565b611c83565b005b61034860048036038101906103439190614a75565b6120d1565b005b610352612571565b60405161035f91906153e9565b60405180910390f35b610382600480360381019061037d9190614a9e565b612606565b60405161038f91906155a1565b60405180910390f35b6103b260048036038101906103ad9190614a75565b61267a565b005b6103ce60048036038101906103c99190614a75565b61274c565b005b6103d86128ee565b6040516103e591906153e9565b60405180910390f35b61040860048036038101906104039190614a75565b612983565b604051610415919061538a565b60405180910390f35b610438600480360381019061043391906149f3565b612a13565b60405161044591906155a1565b60405180910390f35b61046860048036038101906104639190614a75565b612af4565b60405161047a96959493929190615661565b60405180910390f35b61049d60048036038101906104989190614a9e565b612b8a565b6040516104aa91906155a1565b60405180910390f35b6104cd60048036038101906104c89190614a9e565b612baf565b6040516104da9190615426565b60405180910390f35b6104fd60048036038101906104f89190614a75565b612c46565b005b610507612e3c565b604051610514919061538a565b60405180910390f35b610525612e62565b604051610532919061538a565b60405180910390f35b61055560048036038101906105509190614a75565b612e86565b604051610562919061538a565b60405180910390f35b61058560048036038101906105809190614a75565b612f1e565b60405161059a999897969594939291906156c2565b60405180910390f35b6105bd60048036038101906105b89190614a34565b613326565b6040516105ca91906155a1565b60405180910390f35b6105db613752565b6040516105e891906155a1565b60405180910390f35b61060b60048036038101906106069190614a75565b613758565b60405161061891906153a5565b60405180910390f35b610629613855565b60405161063691906153c7565b60405180910390f35b61065960048036038101906106549190614a75565b61401d565b005b80600b600082815260200190815260200160002060010160009054906101000a900473ffffffffffffffffffffffffffffffffffffffff1673ffffffffffffffffffffffffffffffffffffffff163373ffffffffffffffffffffffffffffffffffffffff1614610700576040517f08c379a00000000000000000000000000000000000000000000000000000000081526004016106f790615481565b60405180910390fd5b6000600b6000848152602001908152602001600020600001541161072357600080fd5b6001600b6000848152602001908152602001600020600e0160016101000a81548160ff021916908315150217905550600c8290806001815401808255809150506001900390600052602060002001600090919091909150557fbd627619b9f2a20ce2c4498f2185c68bc4236be92480ede53e43f4da545ea9c5826040516107aa91906155a1565b60405180910390a15050565b60606000600560003373ffffffffffffffffffffffffffffffffffffffff1673ffffffffffffffffffffffffffffffffffffffff1681526020019081526020016000208054905067ffffffffffffffff81111561083c577f4e487b7100000000000000000000000000000000000000000000000000000000600052604160045260246000fd5b60405190808252806020026020018201604052801561087557816020015b610862614439565b81526020019060019003908161085a5790505b50905060005b600560003373ffffffffffffffffffffffffffffffffffffffff1673ffffffffffffffffffffffffffffffffffffffff16815260200190815260200160002080549050811015610e9257600b6000600560003373ffffffffffffffffffffffffffffffffffffffff1673ffffffffffffffffffffffffffffffffffffffff1681526020019081526020016000208381548110610940577f4e487b7100000000000000000000000000000000000000000000000000000000600052603260045260246000fd5b9060005260206000200154815260200190815260200160002060405180610140016040529081600082015481526020016001820160009054906101000a900473ffffffffffffffffffffffffffffffffffffffff1673ffffffffffffffffffffffffffffffffffffffff1673ffffffffffffffffffffffffffffffffffffffff168152602001600282016040518060e00160405290816000820180546109e5906159e3565b80601f0160208091040260200160405190810160405280929190818152602001828054610a11906159e3565b8015610a5e5780601f10610a3357610100808354040283529160200191610a5e565b820191906000526020600020905b815481529060010190602001808311610a4157829003601f168201915b50505050508152602001600182018054610a77906159e3565b80601f0160208091040260200160405190810160405280929190818152602001828054610aa3906159e3565b8015610af05780601f10610ac557610100808354040283529160200191610af0565b820191906000526020600020905b815481529060010190602001808311610ad357829003601f168201915b50505050508152602001600282018054610b09906159e3565b80601f0160208091040260200160405190810160405280929190818152602001828054610b35906159e3565b8015610b825780601f10610b5757610100808354040283529160200191610b82565b820191906000526020600020905b815481529060010190602001808311610b6557829003601f168201915b50505050508152602001600382018054610b9b906159e3565b80601f0160208091040260200160405190810160405280929190818152602001828054610bc7906159e3565b8015610c145780601f10610be957610100808354040283529160200191610c14565b820191906000526020600020905b815481529060010190602001808311610bf757829003601f168201915b50505050508152602001600482018054610c2d906159e3565b80601f0160208091040260200160405190810160405280929190818152602001828054610c59906159e3565b8015610ca65780601f10610c7b57610100808354040283529160200191610ca6565b820191906000526020600020905b815481529060010190602001808311610c8957829003601f168201915b5050505050815260200160058201548152602001600682018054610cc9906159e3565b80601f0160208091040260200160405190810160405280929190818152602001828054610cf5906159e3565b8015610d425780601f10610d1757610100808354040283529160200191610d42565b820191906000526020600020905b815481529060010190602001808311610d2557829003601f168201915b505050505081525050815260200160098201548152602001600a8201548152602001600b8201548152602001600c8201548152602001600d8201805480602002602001604051908101604052809291908181526020018280548015610dfc57602002820191906000526020600020905b8160009054906101000a900473ffffffffffffffffffffffffffffffffffffffff1673ffffffffffffffffffffffffffffffffffffffff1681526020019060010190808311610db2575b50505050508152602001600e820160009054906101000a900460ff16151515158152602001600e820160019054906101000a900460ff161515151581525050828281518110610e74577f4e487b7100000000000000000000000000000000000000000000000000000000600052603260045260246000fd5b60200260200101819052508080610e8a90615a15565b91505061087b565b508091505090565b600b6000828152602001908152602001600020600e0160019054906101000a900460ff16610efd576040517f08c379a0000000000000000000000000000000000000000000000000000000008152600401610ef490615441565b60405180910390fd5b610f078133614141565b1561125e5760006006600083815260200190815260200160002060003373ffffffffffffffffffffffffffffffffffffffff1673ffffffffffffffffffffffffffffffffffffffff16815260200190815260200160002054905060006004811115610f9b577f4e487b7100000000000000000000000000000000000000000000000000000000600052602160045260246000fd5b6002600083815260200190815260200160002060040160009054906101000a900460ff166004811115610ff7577f4e487b7100000000000000000000000000000000000000000000000000000000600052602160045260246000fd5b14611037576040517f08c379a000000000000000000000000000000000000000000000000000000000815260040161102e90615501565b60405180910390fd5b60026004811115611071577f4e487b7100000000000000000000000000000000000000000000000000000000600052602160045260246000fd5b6002600083815260200190815260200160002060040160009054906101000a900460ff1660048111156110cd577f4e487b7100000000000000000000000000000000000000000000000000000000600052602160045260246000fd5b505061114d60036000600b600086815260200190815260200160002060010160009054906101000a900473ffffffffffffffffffffffffffffffffffffffff1673ffffffffffffffffffffffffffffffffffffffff1673ffffffffffffffffffffffffffffffffffffffff1681526020019081526020016000208261419e565b611195600460003373ffffffffffffffffffffffffffffffffffffffff1673ffffffffffffffffffffffffffffffffffffffff1681526020019081526020016000208261419e565b6006600083815260200190815260200160002060003373ffffffffffffffffffffffffffffffffffffffff1673ffffffffffffffffffffffffffffffffffffffff168152602001908152602001600020600090557fe5a136da2c5b558a579c90c61087262e76ddf5c78d27083c096876462651a43781600b600085815260200190815260200160002060010160009054906101000a900473ffffffffffffffffffffffffffffffffffffffff163385604051611254949392919061561c565b60405180910390a1505b50565b600060026000838152602001908152602001600020600301549050919050565b60006002600083815260200190815260200160002060040160019054906101000a900460ff169050919050565b3373ffffffffffffffffffffffffffffffffffffffff166002600084815260200190815260200160002060010160009054906101000a900473ffffffffffffffffffffffffffffffffffffffff1673ffffffffffffffffffffffffffffffffffffffff1614611352576040517f08c379a000000000000000000000000000000000000000000000000000000000815260040161134990615561565b60405180910390fd5b6001600481111561138c577f4e487b7100000000000000000000000000000000000000000000000000000000600052602160045260246000fd5b6002600084815260200190815260200160002060040160009054906101000a900460ff1660048111156113e8577f4e487b7100000000000000000000000000000000000000000000000000000000600052602160045260246000fd5b14611428576040517f08c379a000000000000000000000000000000000000000000000000000000000815260040161141f906154a1565b60405180910390fd5b600b6000828152602001908152602001600020600e0160019054906101000a900460ff1661148b576040517f08c379a000000000000000000000000000000000000000000000000000000000815260040161148290615441565b60405180910390fd5b600082116114ce576040517f08c379a00000000000000000000000000000000000000000000000000000000081526004016114c5906154e1565b60405180910390fd5b60016002600084815260200190815260200160002060040160016101000a81548160ff02191690831515021790555060036002600084815260200190815260200160002060040160006101000a81548160ff0219169083600481111561155d577f4e487b7100000000000000000000000000000000000000000000000000000000600052602160045260246000fd5b02179055507fd6d83468051a65604726ddfd0317813b6fce5a48a9451a78e1949c219571ec638282604051611593929190615756565b60405180910390a15050565b606060078054806020026020016040519081016040528092919081815260200182805480156115ed57602002820191906000526020600020905b8154815260200190600101908083116115d9575b5050505050905090565b3373ffffffffffffffffffffffffffffffffffffffff166002600083815260200190815260200160002060010160009054906101000a900473ffffffffffffffffffffffffffffffffffffffff1673ffffffffffffffffffffffffffffffffffffffff161461169b576040517f08c379a000000000000000000000000000000000000000000000000000000000815260040161169290615561565b60405180910390fd5b600060048111156116d5577f4e487b7100000000000000000000000000000000000000000000000000000000600052602160045260246000fd5b6002600083815260200190815260200160002060040160009054906101000a900460ff166004811115611731577f4e487b7100000000000000000000000000000000000000000000000000000000600052602160045260246000fd5b14611771576040517f08c379a0000000000000000000000000000000000000000000000000000000008152600401611768906154a1565b60405180910390fd5b600280600083815260200190815260200160002060040160006101000a81548160ff021916908360048111156117d0577f4e487b7100000000000000000000000000000000000000000000000000000000600052602160045260246000fd5b0217905550611853600360006002600085815260200190815260200160002060010160009054906101000a900473ffffffffffffffffffffffffffffffffffffffff1673ffffffffffffffffffffffffffffffffffffffff1673ffffffffffffffffffffffffffffffffffffffff1681526020019081526020016000208261419e565b6118d1600460006002600085815260200190815260200160002060020160009054906101000a900473ffffffffffffffffffffffffffffffffffffffff1673ffffffffffffffffffffffffffffffffffffffff1673ffffffffffffffffffffffffffffffffffffffff1681526020019081526020016000208261419e565b6002600082815260200190815260200160002060020160009054906101000a900473ffffffffffffffffffffffffffffffffffffffff1673ffffffffffffffffffffffffffffffffffffffff163373ffffffffffffffffffffffffffffffffffffffff16827f0b7cdc900b8ac2bfb0d3b2139ecf8be43e21bb1c2e2380190243786c5c5bd3d360405160405180910390a4600660006002600084815260200190815260200160002060030154815260200190815260200160002060006002600084815260200190815260200160002060020160009054906101000a900473ffffffffffffffffffffffffffffffffffffffff1673ffffffffffffffffffffffffffffffffffffffff1673ffffffffffffffffffffffffffffffffffffffff16815260200190815260200160002060009055600260008281526020019081526020016000206000808201600090556001820160006101000a81549073ffffffffffffffffffffffffffffffffffffffff02191690556002820160006101000a81549073ffffffffffffffffffffffffffffffffffffffff021916905560038201600090556004820160006101000a81549060ff02191690556004820160016101000a81549060ff0219169055505050565b3373ffffffffffffffffffffffffffffffffffffffff166002600083815260200190815260200160002060010160009054906101000a900473ffffffffffffffffffffffffffffffffffffffff1673ffffffffffffffffffffffffffffffffffffffff1614611b45576040517f08c379a0000000000000000000000000000000000000000000000000000000008152600401611b3c90615561565b60405180910390fd5b60006004811115611b7f577f4e487b7100000000000000000000000000000000000000000000000000000000600052602160045260246000fd5b6002600083815260200190815260200160002060040160009054906101000a900460ff166004811115611bdb577f4e487b7100000000000000000000000000000000000000000000000000000000600052602160045260246000fd5b14611c1b576040517f08c379a0000000000000000000000000000000000000000000000000000000008152600401611c12906154a1565b60405180910390fd5b60016002600083815260200190815260200160002060040160006101000a81548160ff02191690836004811115611c7b577f4e487b7100000000000000000000000000000000000000000000000000000000600052602160045260246000fd5b021790555050565b3373ffffffffffffffffffffffffffffffffffffffff166002600083815260200190815260200160002060010160009054906101000a900473ffffffffffffffffffffffffffffffffffffffff1673ffffffffffffffffffffffffffffffffffffffff1614611d27576040517f08c379a0000000000000000000000000000000000000000000000000000000008152600401611d1e90615561565b60405180910390fd5b60036004811115611d61577f4e487b7100000000000000000000000000000000000000000000000000000000600052602160045260246000fd5b6002600083815260200190815260200160002060040160009054906101000a900460ff166004811115611dbd577f4e487b7100000000000000000000000000000000000000000000000000000000600052602160045260246000fd5b14611dfd576040517f08c379a0000000000000000000000000000000000000000000000000000000008152600401611df4906154c1565b60405180910390fd5b6000600260008381526020019081526020016000206003015490506000600b600083815260200190815260200160002060010160009054906101000a900473ffffffffffffffffffffffffffffffffffffffff16905060006002600085815260200190815260200160002060020160009054906101000a900473ffffffffffffffffffffffffffffffffffffffff16905080600b600085815260200190815260200160002060010160006101000a81548173ffffffffffffffffffffffffffffffffffffffff021916908373ffffffffffffffffffffffffffffffffffffffff1602179055506000600b6000858152602001908152602001600020600e0160016101000a81548160ff021916908315150217905550600560008273ffffffffffffffffffffffffffffffffffffffff1673ffffffffffffffffffffffffffffffffffffffff168152602001908152602001600020839080600181540180825580915050600190039060005260206000200160009091909190915055600b6000848152602001908152602001600020600e0160019054906101000a900460ff1615611fab57611faa83612c46565b5b600b6000848152602001908152602001600020600d01829080600181540180825580915050600190039060005260206000200160009091909190916101000a81548173ffffffffffffffffffffffffffffffffffffffff021916908373ffffffffffffffffffffffffffffffffffffffff16021790555060046002600086815260200190815260200160002060040160006101000a81548160ff02191690836004811115612082577f4e487b7100000000000000000000000000000000000000000000000000000000600052602160045260246000fd5b02179055506120908361274c565b7fa3b0b9020f88aba79dc7d52f5e1da8502bcea42c242b02d2144b71b2de7f04958383836040516120c3939291906155e5565b60405180910390a150505050565b600b6000828152602001908152602001600020600e0160019054906101000a900460ff16612134576040517f08c379a000000000000000000000000000000000000000000000000000000000815260040161212b90615441565b60405180910390fd5b61213e8133614141565b15612181577f61abb16957915895ee4e253b3221ceb6b9686485981d135b9330af6aba6963ef81336040516121749291906155bc565b60405180910390a161256e565b6008600081548092919061219490615a15565b91905055506040518060c001604052806008548152602001600b600084815260200190815260200160002060010160009054906101000a900473ffffffffffffffffffffffffffffffffffffffff1673ffffffffffffffffffffffffffffffffffffffff1681526020013373ffffffffffffffffffffffffffffffffffffffff1681526020018281526020016000600481111561225a577f4e487b7100000000000000000000000000000000000000000000000000000000600052602160045260246000fd5b8152602001600015158152506002600060085481526020019081526020016000206000820151816000015560208201518160010160006101000a81548173ffffffffffffffffffffffffffffffffffffffff021916908373ffffffffffffffffffffffffffffffffffffffff16021790555060408201518160020160006101000a81548173ffffffffffffffffffffffffffffffffffffffff021916908373ffffffffffffffffffffffffffffffffffffffff1602179055506060820151816003015560808201518160040160006101000a81548160ff0219169083600481111561236e577f4e487b7100000000000000000000000000000000000000000000000000000000600052602160045260246000fd5b021790555060a08201518160040160016101000a81548160ff02191690831515021790555090505060036000600b600084815260200190815260200160002060010160009054906101000a900473ffffffffffffffffffffffffffffffffffffffff1673ffffffffffffffffffffffffffffffffffffffff1673ffffffffffffffffffffffffffffffffffffffff1681526020019081526020016000206008549080600181540180825580915050600190039060005260206000200160009091909190915055600460003373ffffffffffffffffffffffffffffffffffffffff1673ffffffffffffffffffffffffffffffffffffffff16815260200190815260200160002060085490806001815401808255809150506001900390600052602060002001600090919091909150556008546006600083815260200190815260200160002060003373ffffffffffffffffffffffffffffffffffffffff1673ffffffffffffffffffffffffffffffffffffffff168152602001908152602001600020819055507f7825bbe590a72ccf4f413305c96c01a18426a6df8b5fa22a5715f07510badaf7600854600b600084815260200190815260200160002060010160009054906101000a900473ffffffffffffffffffffffffffffffffffffffff16338460008060405161256596959493929190615661565b60405180910390a15b50565b6060600460003373ffffffffffffffffffffffffffffffffffffffff1673ffffffffffffffffffffffffffffffffffffffff1681526020019081526020016000208054806020026020016040519081016040528092919081815260200182805480156125fc57602002820191906000526020600020905b8154815260200190600101908083116125e8575b5050505050905090565b6000806006600085815260200190815260200160002060008473ffffffffffffffffffffffffffffffffffffffff1673ffffffffffffffffffffffffffffffffffffffff168152602001908152602001600020549050600081111561266e5780915050612674565b60009150505b92915050565b80600b600082815260200190815260200160002060010160009054906101000a900473ffffffffffffffffffffffffffffffffffffffff1673ffffffffffffffffffffffffffffffffffffffff163373ffffffffffffffffffffffffffffffffffffffff161461271f576040517f08c379a000000000000000000000000000000000000000000000000000000000815260040161271690615481565b60405180910390fd5b600d8290806001815401808255809150506001900390600052602060002001600090919091909150555050565b6000600560003373ffffffffffffffffffffffffffffffffffffffff1673ffffffffffffffffffffffffffffffffffffffff168152602001908152602001600020905060005b81805490508110156128e957828282815481106127d8577f4e487b7100000000000000000000000000000000000000000000000000000000600052603260045260246000fd5b906000526020600020015414156128d65781600183805490506127fb9190615900565b81548110612832577f4e487b7100000000000000000000000000000000000000000000000000000000600052603260045260246000fd5b9060005260206000200154828281548110612876577f4e487b7100000000000000000000000000000000000000000000000000000000600052603260045260246000fd5b9060005260206000200181905550818054806128bb577f4e487b7100000000000000000000000000000000000000000000000000000000600052603160045260246000fd5b600190038181906000526020600020016000905590556128e9565b80806128e190615a15565b915050612792565b505050565b6060600360003373ffffffffffffffffffffffffffffffffffffffff1673ffffffffffffffffffffffffffffffffffffffff16815260200190815260200160002080548060200260200160405190810160405280929190818152602001828054801561297957602002820191906000526020600020905b815481526020019060010190808311612965575b5050505050905090565b6000808211801561299657506008548211155b6129d5576040517f08c379a00000000000000000000000000000000000000000000000000000000081526004016129cc90615581565b60405180910390fd5b6002600083815260200190815260200160002060020160009054906101000a900473ffffffffffffffffffffffffffffffffffffffff169050919050565b6000600a8260000151604051612a299190615373565b90815260200160405180910390208260200151604051612a499190615373565b90815260200160405180910390208260400151604051612a699190615373565b90815260200160405180910390208260600151604051612a899190615373565b90815260200160405180910390208260800151604051612aa99190615373565b908152602001604051809103902060008360a0015181526020019081526020016000208260c00151604051612ade9190615373565b9081526020016040518091039020549050919050565b60026020528060005260406000206000915090508060000154908060010160009054906101000a900473ffffffffffffffffffffffffffffffffffffffff16908060020160009054906101000a900473ffffffffffffffffffffffffffffffffffffffff16908060030154908060040160009054906101000a900460ff16908060040160019054906101000a900460ff16905086565b6006602052816000526040600020602052806000526040600020600091509150505481565b6000806006600085815260200190815260200160002060008473ffffffffffffffffffffffffffffffffffffffff1673ffffffffffffffffffffffffffffffffffffffff1681526020019081526020016000205490506000811115612c3a576002600082815260200190815260200160002060040160009054906101000a900460ff16915050612c40565b60009150505b92915050565b600b6000828152602001908152602001600020600e0160019054906101000a900460ff16612ca9576040517f08c379a0000000000000000000000000000000000000000000000000000000008152600401612ca090615461565b60405180910390fd5b6000600b6000838152602001908152602001600020600e0160016101000a81548160ff02191690831515021790555060005b600c80549050811015612e385781600c8281548110612d23577f4e487b7100000000000000000000000000000000000000000000000000000000600052603260045260246000fd5b90600052602060002001541415612e2557600c6001600c80549050612d489190615900565b81548110612d7f577f4e487b7100000000000000000000000000000000000000000000000000000000600052603260045260246000fd5b9060005260206000200154600c8281548110612dc4577f4e487b7100000000000000000000000000000000000000000000000000000000600052603260045260246000fd5b9060005260206000200181905550600c805480612e0a577f4e487b7100000000000000000000000000000000000000000000000000000000600052603160045260246000fd5b60019003818190600052602060002001600090559055612e38565b8080612e3090615a15565b915050612cdb565b5050565b600160009054906101000a900473ffffffffffffffffffffffffffffffffffffffff1681565b60008054906101000a900473ffffffffffffffffffffffffffffffffffffffff1681565b600080600b60008481526020019081526020016000206000015411612ee0576040517f08c379a0000000000000000000000000000000000000000000000000000000008152600401612ed790615521565b60405180910390fd5b600b600083815260200190815260200160002060010160009054906101000a900473ffffffffffffffffffffffffffffffffffffffff169050919050565b600b6020528060005260406000206000915090508060000154908060010160009054906101000a900473ffffffffffffffffffffffffffffffffffffffff1690806002016040518060e0016040529081600082018054612f7d906159e3565b80601f0160208091040260200160405190810160405280929190818152602001828054612fa9906159e3565b8015612ff65780601f10612fcb57610100808354040283529160200191612ff6565b820191906000526020600020905b815481529060010190602001808311612fd957829003601f168201915b5050505050815260200160018201805461300f906159e3565b80601f016020809104026020016040519081016040528092919081815260200182805461303b906159e3565b80156130885780601f1061305d57610100808354040283529160200191613088565b820191906000526020600020905b81548152906001019060200180831161306b57829003601f168201915b505050505081526020016002820180546130a1906159e3565b80601f01602080910402602001604051908101604052809291908181526020018280546130cd906159e3565b801561311a5780601f106130ef5761010080835404028352916020019161311a565b820191906000526020600020905b8154815290600101906020018083116130fd57829003601f168201915b50505050508152602001600382018054613133906159e3565b80601f016020809104026020016040519081016040528092919081815260200182805461315f906159e3565b80156131ac5780601f10613181576101008083540402835291602001916131ac565b820191906000526020600020905b81548152906001019060200180831161318f57829003601f168201915b505050505081526020016004820180546131c5906159e3565b80601f01602080910402602001604051908101604052809291908181526020018280546131f1906159e3565b801561323e5780601f106132135761010080835404028352916020019161323e565b820191906000526020600020905b81548152906001019060200180831161322157829003601f168201915b5050505050815260200160058201548152602001600682018054613261906159e3565b80601f016020809104026020016040519081016040528092919081815260200182805461328d906159e3565b80156132da5780601f106132af576101008083540402835291602001916132da565b820191906000526020600020905b8154815290600101906020018083116132bd57829003601f168201915b5050505050815250509080600901549080600a01549080600b01549080600c01549080600e0160009054906101000a900460ff169080600e0160019054906101000a900460ff16905089565b60008060006133388460400151614336565b915091508115613383577faaf337ed6c27044ac7adfac9210c03e982f61dd5534d00cefa9baedc9e4150288160405161337191906155a1565b60405180910390a1809250505061374d565b60095484600001818152505060008461010001901515908115158152505060008461012001901515908115158152505083600b600060095481526020019081526020016000206000820151816000015560208201518160010160006101000a81548173ffffffffffffffffffffffffffffffffffffffff021916908373ffffffffffffffffffffffffffffffffffffffff160217905550604082015181600201600082015181600001908051906020019061343f9291906144ac565b50602082015181600101908051906020019061345c9291906144ac565b5060408201518160020190805190602001906134799291906144ac565b5060608201518160030190805190602001906134969291906144ac565b5060808201518160040190805190602001906134b39291906144ac565b5060a0820151816005015560c08201518160060190805190602001906134da9291906144ac565b50505060608201518160090155608082015181600a015560a082015181600b015560c082015181600c015560e082015181600d019080519060200190613521929190614532565b5061010082015181600e0160006101000a81548160ff02191690831515021790555061012082015181600e0160016101000a81548160ff021916908315150217905550905050600954600a8560400151600001516040516135829190615373565b90815260200160405180910390208560400151602001516040516135a69190615373565b90815260200160405180910390208560400151604001516040516135ca9190615373565b90815260200160405180910390208560400151606001516040516135ee9190615373565b90815260200160405180910390208560400151608001516040516136129190615373565b90815260200160405180910390206000866040015160a001518152602001908152602001600020856040015160c0015160405161364f9190615373565b908152602001604051809103902081905550600060095490506007819080600181540180825580915050600190039060005260206000200160009091909190915055600960008154809291906136a490615a15565b9190505550600560003373ffffffffffffffffffffffffffffffffffffffff1673ffffffffffffffffffffffffffffffffffffffff1681526020019081526020016000208190806001815401808255809150506001900390600052602060002001600090919091909150557fd6ba237a8c7a642ccbcdec4a0f3d08561b3ec6045c9f144ead69305210d11b528160405161373e91906155a1565b60405180910390a18093505050505b919050565b60095481565b60606000600b600084815260200190815260200160002060000154116137b3576040517f08c379a00000000000000000000000000000000000000000000000000000000081526004016137aa90615521565b60405180910390fd5b600b6000838152602001908152602001600020600d0180548060200260200160405190810160405280929190818152602001828054801561384957602002820191906000526020600020905b8160009054906101000a900473ffffffffffffffffffffffffffffffffffffffff1673ffffffffffffffffffffffffffffffffffffffff16815260200190600101908083116137ff575b50505050509050919050565b60606000805b600c80549050811015613937573373ffffffffffffffffffffffffffffffffffffffff16600b6000600c84815481106138bd577f4e487b7100000000000000000000000000000000000000000000000000000000600052603260045260246000fd5b9060005260206000200154815260200190815260200160002060010160009054906101000a900473ffffffffffffffffffffffffffffffffffffffff1673ffffffffffffffffffffffffffffffffffffffff161461392457818061392090615a15565b9250505b808061392f90615a15565b91505061385b565b5060008167ffffffffffffffff81111561397a577f4e487b7100000000000000000000000000000000000000000000000000000000600052604160045260246000fd5b6040519080825280602002602001820160405280156139b357816020015b6139a0614439565b8152602001906001900390816139985790505b5090506000805b600c80549050811015614013573373ffffffffffffffffffffffffffffffffffffffff16600b6000600c8481548110613a1c577f4e487b7100000000000000000000000000000000000000000000000000000000600052603260045260246000fd5b9060005260206000200154815260200190815260200160002060010160009054906101000a900473ffffffffffffffffffffffffffffffffffffffff1673ffffffffffffffffffffffffffffffffffffffff161461400057600b6000600c8381548110613ab2577f4e487b7100000000000000000000000000000000000000000000000000000000600052603260045260246000fd5b9060005260206000200154815260200190815260200160002060405180610140016040529081600082015481526020016001820160009054906101000a900473ffffffffffffffffffffffffffffffffffffffff1673ffffffffffffffffffffffffffffffffffffffff1673ffffffffffffffffffffffffffffffffffffffff168152602001600282016040518060e0016040529081600082018054613b57906159e3565b80601f0160208091040260200160405190810160405280929190818152602001828054613b83906159e3565b8015613bd05780601f10613ba557610100808354040283529160200191613bd0565b820191906000526020600020905b815481529060010190602001808311613bb357829003601f168201915b50505050508152602001600182018054613be9906159e3565b80601f0160208091040260200160405190810160405280929190818152602001828054613c15906159e3565b8015613c625780601f10613c3757610100808354040283529160200191613c62565b820191906000526020600020905b815481529060010190602001808311613c4557829003601f168201915b50505050508152602001600282018054613c7b906159e3565b80601f0160208091040260200160405190810160405280929190818152602001828054613ca7906159e3565b8015613cf45780601f10613cc957610100808354040283529160200191613cf4565b820191906000526020600020905b815481529060010190602001808311613cd757829003601f168201915b50505050508152602001600382018054613d0d906159e3565b80601f0160208091040260200160405190810160405280929190818152602001828054613d39906159e3565b8015613d865780601f10613d5b57610100808354040283529160200191613d86565b820191906000526020600020905b815481529060010190602001808311613d6957829003601f168201915b50505050508152602001600482018054613d9f906159e3565b80601f0160208091040260200160405190810160405280929190818152602001828054613dcb906159e3565b8015613e185780601f10613ded57610100808354040283529160200191613e18565b820191906000526020600020905b815481529060010190602001808311613dfb57829003601f168201915b5050505050815260200160058201548152602001600682018054613e3b906159e3565b80601f0160208091040260200160405190810160405280929190818152602001828054613e67906159e3565b8015613eb45780601f10613e8957610100808354040283529160200191613eb4565b820191906000526020600020905b815481529060010190602001808311613e9757829003601f168201915b505050505081525050815260200160098201548152602001600a8201548152602001600b8201548152602001600c8201548152602001600d8201805480602002602001604051908101604052809291908181526020018280548015613f6e57602002820191906000526020600020905b8160009054906101000a900473ffffffffffffffffffffffffffffffffffffffff1673ffffffffffffffffffffffffffffffffffffffff1681526020019060010190808311613f24575b50505050508152602001600e820160009054906101000a900460ff16151515158152602001600e820160019054906101000a900460ff161515151581525050838381518110613fe6577f4e487b7100000000000000000000000000000000000000000000000000000000600052603260045260246000fd5b60200260200101819052508180613ffc90615a15565b9250505b808061400b90615a15565b9150506139ba565b5081935050505090565b6000600160009054906101000a900473ffffffffffffffffffffffffffffffffffffffff1673ffffffffffffffffffffffffffffffffffffffff1663e165af87336040518263ffffffff1660e01b815260040161407a919061538a565b602060405180830381600087803b15801561409457600080fd5b505af11580156140a8573d6000803e3d6000fd5b505050506040513d601f19601f820116820180604052508101906140cc91906149ca565b90508061410e576040517f08c379a000000000000000000000000000000000000000000000000000000000815260040161410590615541565b60405180910390fd5b6001600b6000848152602001908152602001600020600e0160006101000a81548160ff0219169083151502179055505050565b6000806006600085815260200190815260200160002060008473ffffffffffffffffffffffffffffffffffffffff1673ffffffffffffffffffffffffffffffffffffffff1681526020019081526020016000205411905092915050565b60008280549050905060005b818110156142f957828482815481106141ec577f4e487b7100000000000000000000000000000000000000000000000000000000600052603260045260246000fd5b906000526020600020015414156142e6578360018361420b9190615900565b81548110614242577f4e487b7100000000000000000000000000000000000000000000000000000000600052603260045260246000fd5b9060005260206000200154848281548110614286577f4e487b7100000000000000000000000000000000000000000000000000000000600052603260045260246000fd5b9060005260206000200181905550838054806142cb577f4e487b7100000000000000000000000000000000000000000000000000000000600052603160045260246000fd5b600190038181906000526020600020016000905590556142f9565b80806142f190615a15565b9150506141aa565b507f4123b8593921204d03aef906a5c03ba57573a7047a66d722874a923b6e0e4b7d8260405161432991906155a1565b60405180910390a1505050565b6000806000600a846000015160405161434f9190615373565b9081526020016040518091039020846020015160405161436f9190615373565b9081526020016040518091039020846040015160405161438f9190615373565b908152602001604051809103902084606001516040516143af9190615373565b908152602001604051809103902084608001516040516143cf9190615373565b908152602001604051809103902060008560a0015181526020019081526020016000208460c001516040516144049190615373565b9081526020016040518091039020549050600081141561442b576000809250925050614434565b60018192509250505b915091565b60405180610140016040528060008152602001600073ffffffffffffffffffffffffffffffffffffffff1681526020016144716145bc565b815260200160008152602001600081526020016000815260200160008152602001606081526020016000151581526020016000151581525090565b8280546144b8906159e3565b90600052602060002090601f0160209004810192826144da5760008555614521565b82601f106144f357805160ff1916838001178555614521565b82800160010185558215614521579182015b82811115614520578251825591602001919060010190614505565b5b50905061452e91906145f9565b5090565b8280548282559060005260206000209081019282156145ab579160200282015b828111156145aa5782518260006101000a81548173ffffffffffffffffffffffffffffffffffffffff021916908373ffffffffffffffffffffffffffffffffffffffff16021790555091602001919060010190614552565b5b5090506145b891906145f9565b5090565b6040518060e00160405280606081526020016060815260200160608152602001606081526020016060815260200160008152602001606081525090565b5b808211156146125760008160009055506001016145fa565b5090565b6000614629614624846157b0565b61577f565b9050808382526020820190508285602086028201111561464857600080fd5b60005b85811015614678578161465e88826146c0565b84526020840193506020830192505060018101905061464b565b5050509392505050565b6000614695614690846157dc565b61577f565b9050828152602081018484840111156146ad57600080fd5b6146b88482856159a1565b509392505050565b6000813590506146cf81615b3f565b92915050565b600082601f8301126146e657600080fd5b81356146f6848260208601614616565b91505092915050565b60008135905061470e81615b56565b92915050565b60008151905061472381615b56565b92915050565b600082601f83011261473a57600080fd5b813561474a848260208601614682565b91505092915050565b600060e0828403121561476557600080fd5b61476f60e061577f565b9050600082013567ffffffffffffffff81111561478b57600080fd5b61479784828501614729565b600083015250602082013567ffffffffffffffff8111156147b757600080fd5b6147c384828501614729565b602083015250604082013567ffffffffffffffff8111156147e357600080fd5b6147ef84828501614729565b604083015250606082013567ffffffffffffffff81111561480f57600080fd5b61481b84828501614729565b606083015250608082013567ffffffffffffffff81111561483b57600080fd5b61484784828501614729565b60808301525060a061485b848285016149b5565b60a08301525060c082013567ffffffffffffffff81111561487b57600080fd5b61488784828501614729565b60c08301525092915050565b600061014082840312156148a657600080fd5b6148b161014061577f565b905060006148c1848285016149b5565b60008301525060206148d5848285016146c0565b602083015250604082013567ffffffffffffffff8111156148f557600080fd5b61490184828501614753565b6040830152506060614915848285016149b5565b6060830152506080614929848285016149b5565b60808301525060a061493d848285016149b5565b60a08301525060c0614951848285016149b5565b60c08301525060e082013567ffffffffffffffff81111561497157600080fd5b61497d848285016146d5565b60e083015250610100614992848285016146ff565b610100830152506101206149a8848285016146ff565b6101208301525092915050565b6000813590506149c481615b6d565b92915050565b6000602082840312156149dc57600080fd5b60006149ea84828501614714565b91505092915050565b600060208284031215614a0557600080fd5b600082013567ffffffffffffffff811115614a1f57600080fd5b614a2b84828501614753565b91505092915050565b600060208284031215614a4657600080fd5b600082013567ffffffffffffffff811115614a6057600080fd5b614a6c84828501614893565b91505092915050565b600060208284031215614a8757600080fd5b6000614a95848285016149b5565b91505092915050565b60008060408385031215614ab157600080fd5b6000614abf858286016149b5565b9250506020614ad0858286016146c0565b9150509250929050565b60008060408385031215614aed57600080fd5b6000614afb858286016149b5565b9250506020614b0c858286016149b5565b9150509250929050565b6000614b228383614b5a565b60208301905092915050565b6000614b3a8383615274565b905092915050565b6000614b4e8383615355565b60208301905092915050565b614b6381615934565b82525050565b614b7281615934565b82525050565b6000614b838261583c565b614b8d818561588f565b9350614b988361580c565b8060005b83811015614bc9578151614bb08882614b16565b9750614bbb83615868565b925050600181019050614b9c565b5085935050505092915050565b6000614be18261583c565b614beb81856158a0565b9350614bf68361580c565b8060005b83811015614c27578151614c0e8882614b16565b9750614c1983615868565b925050600181019050614bfa565b5085935050505092915050565b6000614c3f82615847565b614c4981856158b1565b935083602082028501614c5b8561581c565b8060005b85811015614c975784840389528151614c788582614b2e565b9450614c8383615875565b925060208a01995050600181019050614c5f565b50829750879550505050505092915050565b6000614cb482615852565b614cbe81856158c2565b9350614cc98361582c565b8060005b83811015614cfa578151614ce18882614b42565b9750614cec83615882565b925050600181019050614ccd565b5085935050505092915050565b614d1081615946565b82525050565b614d1f81615946565b82525050565b614d2e8161598f565b82525050565b6000614d3f8261585d565b614d4981856158d3565b9350614d598185602086016159b0565b614d6281615b1a565b840191505092915050565b6000614d788261585d565b614d8281856158f5565b9350614d928185602086016159b0565b80840191505092915050565b6000614dab6014836158e4565b91507f4c616e64206973206e6f7420666f722073616c650000000000000000000000006000830152602082019050919050565b6000614deb6025836158e4565b91507f4c616e64206973206e6f742063757272656e746c79206c697374656420666f7260008301527f2073616c650000000000000000000000000000000000000000000000000000006020830152604082019050919050565b6000614e516026836158e4565b91507f4f6e6c79206f776e65722063616e20706572666f726d2074686973206f70657260008301527f6174696f6e2e00000000000000000000000000000000000000000000000000006020830152604082019050919050565b6000614eb76016836158e4565b91507f496e76616c6964207265717565737420737461747573000000000000000000006000830152602082019050919050565b6000614ef76010836158e4565b91507f7061796d656e74206e6f7420646f6e65000000000000000000000000000000006000830152602082019050919050565b6000614f376011836158e4565b91507f496e76616c6964207265717565737449640000000000000000000000000000006000830152602082019050919050565b6000614f776033836158e4565b91507f43616e6e6f742063616e63656c2e2052657175657374206973206e6f7420696e60008301527f20277265717565737465642720737461747573000000000000000000000000006020830152604082019050919050565b6000614fdd600e836158e4565b91507f4c616e64206e6f7420666f756e640000000000000000000000000000000000006000830152602082019050919050565b600061501d6027836158e4565b91507f4f6e6c7920696e73706563746f722063616e20706572666f726d20746869732060008301527f616374696f6e2e000000000000000000000000000000000000000000000000006020830152604082019050919050565b6000615083601b836158e4565b91507f4e6f74207468652073656c6c6572206f662074686973206c616e6400000000006000830152602082019050919050565b60006150c36012836158e4565b91507f496e76616c6964207265717565737420494400000000000000000000000000006000830152602082019050919050565b600060e08301600083015184820360008601526151138282614d34565b9150506020830151848203602086015261512d8282614d34565b915050604083015184820360408601526151478282614d34565b915050606083015184820360608601526151618282614d34565b9150506080830151848203608086015261517b8282614d34565b91505060a083015161519060a0860182615355565b5060c083015184820360c08601526151a88282614d34565b9150508091505092915050565b600060e08301600083015184820360008601526151d28282614d34565b915050602083015184820360208601526151ec8282614d34565b915050604083015184820360408601526152068282614d34565b915050606083015184820360608601526152208282614d34565b9150506080830151848203608086015261523a8282614d34565b91505060a083015161524f60a0860182615355565b5060c083015184820360c08601526152678282614d34565b9150508091505092915050565b60006101408301600083015161528d6000860182615355565b5060208301516152a06020860182614b5a565b50604083015184820360408601526152b882826150f6565b91505060608301516152cd6060860182615355565b5060808301516152e06080860182615355565b5060a08301516152f360a0860182615355565b5060c083015161530660c0860182615355565b5060e083015184820360e086015261531e8282614b78565b915050610100830151615335610100860182614d07565b5061012083015161534a610120860182614d07565b508091505092915050565b61535e81615985565b82525050565b61536d81615985565b82525050565b600061537f8284614d6d565b915081905092915050565b600060208201905061539f6000830184614b69565b92915050565b600060208201905081810360008301526153bf8184614bd6565b905092915050565b600060208201905081810360008301526153e18184614c34565b905092915050565b600060208201905081810360008301526154038184614ca9565b905092915050565b60006020820190506154206000830184614d16565b92915050565b600060208201905061543b6000830184614d25565b92915050565b6000602082019050818103600083015261545a81614d9e565b9050919050565b6000602082019050818103600083015261547a81614dde565b9050919050565b6000602082019050818103600083015261549a81614e44565b9050919050565b600060208201905081810360008301526154ba81614eaa565b9050919050565b600060208201905081810360008301526154da81614eea565b9050919050565b600060208201905081810360008301526154fa81614f2a565b9050919050565b6000602082019050818103600083015261551a81614f6a565b9050919050565b6000602082019050818103600083015261553a81614fd0565b9050919050565b6000602082019050818103600083015261555a81615010565b9050919050565b6000602082019050818103600083015261557a81615076565b9050919050565b6000602082019050818103600083015261559a816150b6565b9050919050565b60006020820190506155b66000830184615364565b92915050565b60006040820190506155d16000830185615364565b6155de6020830184614b69565b9392505050565b60006060820190506155fa6000830186615364565b6156076020830185614b69565b6156146040830184614b69565b949350505050565b60006080820190506156316000830187615364565b61563e6020830186614b69565b61564b6040830185614b69565b6156586060830184615364565b95945050505050565b600060c0820190506156766000830189615364565b6156836020830188614b69565b6156906040830187614b69565b61569d6060830186615364565b6156aa6080830185614d25565b6156b760a0830184614d16565b979650505050505050565b6000610120820190506156d8600083018c615364565b6156e5602083018b614b69565b81810360408301526156f7818a6151b5565b90506157066060830189615364565b6157136080830188615364565b61572060a0830187615364565b61572d60c0830186615364565b61573a60e0830185614d16565b615748610100830184614d16565b9a9950505050505050505050565b600060408201905061576b6000830185615364565b6157786020830184615364565b9392505050565b6000604051905081810181811067ffffffffffffffff821117156157a6576157a5615aeb565b5b8060405250919050565b600067ffffffffffffffff8211156157cb576157ca615aeb565b5b602082029050602081019050919050565b600067ffffffffffffffff8211156157f7576157f6615aeb565b5b601f19601f8301169050602081019050919050565b6000819050602082019050919050565b6000819050602082019050919050565b6000819050602082019050919050565b600081519050919050565b600081519050919050565b600081519050919050565b600081519050919050565b6000602082019050919050565b6000602082019050919050565b6000602082019050919050565b600082825260208201905092915050565b600082825260208201905092915050565b600082825260208201905092915050565b600082825260208201905092915050565b600082825260208201905092915050565b600082825260208201905092915050565b600081905092915050565b600061590b82615985565b915061591683615985565b92508282101561592957615928615a5e565b5b828203905092915050565b600061593f82615965565b9050919050565b60008115159050919050565b600081905061596082615b2b565b919050565b600073ffffffffffffffffffffffffffffffffffffffff82169050919050565b6000819050919050565b600061599a82615952565b9050919050565b82818337600083830152505050565b60005b838110156159ce5780820151818401526020810190506159b3565b838111156159dd576000848401525b50505050565b600060028204905060018216806159fb57607f821691505b60208210811415615a0f57615a0e615abc565b5b50919050565b6000615a2082615985565b91507fffffffffffffffffffffffffffffffffffffffffffffffffffffffffffffffff821415615a5357615a52615a5e565b5b600182019050919050565b7f4e487b7100000000000000000000000000000000000000000000000000000000600052601160045260246000fd5b7f4e487b7100000000000000000000000000000000000000000000000000000000600052602160045260246000fd5b7f4e487b7100000000000000000000000000000000000000000000000000000000600052602260045260246000fd5b7f4e487b7100000000000000000000000000000000000000000000000000000000600052604160045260246000fd5b6000601f19601f8301169050919050565b60058110615b3c57615b3b615a8d565b5b50565b615b4881615934565b8114615b5357600080fd5b50565b615b5f81615946565b8114615b6a57600080fd5b50565b615b7681615985565b8114615b8157600080fd5b5056fea26469706673582212200dc1263553151ffa2fd6a1c78283f0c106ac300fd8f235f5d864e6580d1480a864736f6c63430008000033",
  "immutableReferences": {},
  "source": "// SPDX-License-Identifier: UNLICENSED\r\n\r\npragma solidity ^0.8.0;\r\n\r\nimport \"./registerAccount-contract.sol\";\r\n\r\ninterface IAccountRegistration {\r\n    function checkUserVerified(address _account) external returns (bool);\r\n    function isLandInspector(address _account) external returns (bool);\r\n}\r\n\r\ncontract LandRegistration {\r\n\r\n    //Address which deployed this smart contract\r\n    address public deployer;\r\n    //AccountRegistration Contract\r\n    address public accountRegistrationContract;\r\n\r\n    constructor(address _accountRegistrationContract) {\r\n        deployer = msg.sender;\r\n        accountRegistrationContract = _accountRegistrationContract;\r\n    }\r\n\r\n    struct LandIdentifier {\r\n        /*\r\n            Fields needed to identify the piece of land\r\n            A state has divisions.\r\n            Each division has districts.\r\n            Each district has talukas.\r\n            Each taluka has villages.\r\n            A land parcel under this hierarchy is identified using\r\n            a survey number.\r\n            Shall this land be divided at a later point, its sub-divisions\r\n            are represented using a sub-division number.\r\n            All divisions in Maharashtra can be found in the link below:\r\n            http://www.landsofmaharashtra.com/divisionsofmaharashtra.html \r\n        */\r\n        string state;\r\n        string division;\r\n        string district;\r\n        string taluka;\r\n        string village;\r\n        uint surveyNumber;\r\n        string subdivision;\r\n    }\r\n\r\n    struct LandRecord {\r\n        uint landId;\r\n        //Address of the account(person) that owns this piece of land\r\n        /* \r\n            Note: There can be multiple owners of a single piece of land.\r\n            This is being ignored for now.\r\n        */\r\n        address owner;\r\n\r\n        LandIdentifier identifier;\r\n\r\n        uint area;\r\n\r\n        //Represented as UNIX Time\r\n        uint purchaseDate;\r\n        //Price at which the land was purchased.\r\n        uint purchasePrice;\r\n        //Estimated value of land at the time of purchase\r\n        uint landValueAtPurchase;\r\n\r\n        //A list of the previous owners of this piece of land. \r\n        address[] previousOwners;\r\n\r\n        /*\r\n            If a piece of land is entering the system for the first time,\r\n            it must be verified by an inspector.\r\n        */\r\n        bool isVerified;\r\n        bool isForSale;\r\n    }\r\n\r\n    //Event to be emitted after adding a land record\r\n    event LandRecordAdded(uint landId);\r\n    //Event to be emitted if the land record already exists\r\n    event LandRecordExists(uint landId);\r\n    //Event to be emitted when land is listed for sale\r\n    event LandListedForSale(uint landId);\r\n\r\n    event LandRequests(uint requestId, address landOwner, address buyer, uint landId, reqStatus status, bool someFlag);\r\n    event LandRequestCancelled(uint requestId);\r\n    event PaymentMarkedAsDone(uint requestId, uint landId);\r\n    event LandOwnershipTransferred(uint landId, address oldOwner, address newOwner);\r\n\r\n     // Event to be emitted when a user tries to request to buy the same land twice\r\n    event DuplicateLandRequest(uint landId, address buyer);\r\n\r\n       // Event to be emitted when a buyer cancels their request to buy a land\r\n    event BuyerRequestCancelled(uint requestId, address seller, address buyer, uint landId);\r\n\r\n    // Event to be emitted when a buyer tries to cancel the same request more than once\r\n    event DuplicateCancellationAttempt(address buyer, uint landId);\r\n\r\n    // Declare an event for acceptance of a request\r\nevent RequestAccepted(uint indexed requestId, address indexed seller, address indexed buyer);\r\n// Declare an event for rejection of a request\r\nevent RequestRejected(uint indexed requestId, address indexed seller, address indexed buyer);\r\n\r\n//A structure that represents the Land requests made by buyer to seller along with the status of the request\r\n     struct LandRequest {\r\n        uint reqId;\r\n        address sellerId;\r\n        address buyerId;\r\n        uint landId;\r\n        reqStatus requestStatus;\r\n        bool isPaymentDone;\r\n    }\r\n\r\n    //An enumeration that shows different stages of the request\r\n    enum reqStatus {requested,accepted,rejected,paymentdone,completed}\r\n\r\n\r\n//Mapping to different lists and LandRequest\r\n    mapping(uint => LandRequest) public LandRequestMapping;\r\n    mapping(address => uint[])  MyReceivedLandRequests;\r\n    mapping(address => uint[])  MySentLandRequests;\r\n    mapping(address => uint[])  MyLands;\r\n\r\n// A mapping between land ID, buyer address, and request ID\r\n    mapping(uint => mapping(address => uint)) public landToBuyerToRequest;\r\n    \r\n    //List containing all the lands that are added\r\n    uint[] allLandList;\r\n\r\n    \r\n\r\n    uint256 requestCount;\r\n\r\n\r\n    uint public landRecordsCount = 1;\r\n\r\n    modifier onlyOwner(uint _landId) {\r\n        require(\r\n            msg.sender == landMapping[_landId].owner,\r\n            \"Only owner can perform this operation.\"\r\n        );\r\n        _;\r\n    }\r\n\r\n    modifier onlylInspector() {\r\n        //Call the isInspector function from the accountRegistration contract\r\n        bool isInspector = IAccountRegistration(\r\n            accountRegistrationContract\r\n        ).isLandInspector(msg.sender);\r\n\r\n        require(isInspector, \"Only inspector can perform this action.\");\r\n        _;\r\n    }\r\n\r\n    modifier onlyRegisteredUser() {\r\n        //Call the isVerified function from the accountRegistration contract\r\n        bool isRegisteredUser = IAccountRegistration(\r\n            accountRegistrationContract\r\n        ).checkUserVerified(msg.sender);\r\n\r\n        require(isRegisteredUser, \"Only registered user can perform this action.\");\r\n        _;\r\n    }\r\n\r\n    modifier onlyVerifiedLand(uint _landId) {\r\n        require(\r\n            landMapping[_landId].isVerified == true,\r\n            \"Only verified lands can be put up for sale.\"\r\n        );\r\n        _;\r\n    }\r\n\r\n    /*\r\n        Mapping of land records by hierarchy. Mapping is as follows:\r\n        state => {\r\n            division => {\r\n                district => {\r\n                    taluka => {\r\n                        village => {\r\n                            survery number => {\r\n                                subdivision => id\r\n                            }\r\n                        }\r\n                    }\r\n                }\r\n            }\r\n        }\r\n        This mapping will be useful for efficient retrieval of land id.\r\n     */\r\n    \r\n    mapping(\r\n        string => mapping(\r\n            string => mapping(\r\n                string => mapping(\r\n                    string => mapping(\r\n                        string => mapping(\r\n                            uint => mapping(\r\n                                string => uint\r\n                            )\r\n                        )\r\n                    )\r\n                )\r\n            )\r\n        )\r\n    )landMapToId;\r\n\r\n    //Mapping of land ids to land records.\r\n    mapping(uint => LandRecord) public landMapping;\r\n\r\n    //A list of land ids which have been marked for sale\r\n    uint[] landsForSale;\r\n\r\n    //A list of lands which are to be verified by an inspector\r\n    uint[] verificationRequired;\r\n\r\n    //Function to submit a land verification request\r\n    function landVerificationRequest(uint _landId) public onlyOwner(_landId) {\r\n        verificationRequired.push(_landId);\r\n    }\r\n\r\n    function landRecordExists(LandIdentifier memory _record) \r\n                                private view returns (bool, uint) {\r\n        uint landId = landMapToId[_record.state][_record.division]\r\n                                [_record.district][_record.taluka]\r\n                                [_record.village][_record.surveyNumber][_record.subdivision];\r\n        if (landId == 0) {\r\n            return (false, 0);\r\n        }\r\n        return (true, landId);\r\n    }\r\n\r\n    //This function is used to add a land record\r\n    function addLandRecord  (LandRecord memory _record) public \r\n                             returns (uint) {\r\n\r\n        (bool recordExists, uint landId) = landRecordExists(_record.identifier);\r\n\r\n        //If land record already exists, return the land id\r\n        if (recordExists) {\r\n            emit LandRecordExists(landId);\r\n            return landId;\r\n        }\r\n\r\n        _record.landId = landRecordsCount;\r\n        _record.isVerified = false;\r\n        _record.isForSale = false;\r\n        //If the land record doesn't already exist, add it to the mapping\r\n        //and return land id\r\n        landMapping[landRecordsCount] = _record;\r\n\r\n        //Also add it to the landMapToId mapping\r\n        landMapToId[_record.identifier.state][_record.identifier.division]\r\n        [_record.identifier.district][_record.identifier.taluka]\r\n        [_record.identifier.village][_record.identifier.surveyNumber]\r\n        [_record.identifier.subdivision] = landRecordsCount;\r\n\r\n        uint addedLandId = landRecordsCount;\r\n        allLandList.push(addedLandId);\r\n        landRecordsCount++;\r\n\r\n        //Add to the accounts list of lands\r\n        MyLands[msg.sender].push(addedLandId);\r\n        emit LandRecordAdded(addedLandId);\r\n        return addedLandId;\r\n    }\r\n\r\n    // Function to remove land by landId\r\n    function removeLand(uint256 landId) public{\r\n        uint256[] storage lands = MyLands[msg.sender];\r\n\r\n        // Search for the landId in the array\r\n        for (uint256 i = 0; i < lands.length; i++) {\r\n            if (lands[i] == landId) {\r\n                // Remove the landId from the array\r\n                lands[i] = lands[lands.length - 1];\r\n                lands.pop();\r\n\r\n\r\n                break;\r\n            }\r\n        }\r\n    }\r\n    \r\n\r\n    //Get land id\r\n    function getLandId(LandIdentifier memory _identifier) public view returns (uint){\r\n        return landMapToId[_identifier.state][_identifier.division]\r\n        [_identifier.district][_identifier.taluka][_identifier.village]\r\n        [_identifier.surveyNumber][_identifier.subdivision];\r\n    }\r\n\r\n    //Function to approve a land verification request\r\n    function verifyLand(uint _landId) public onlylInspector {\r\n        landMapping[_landId].isVerified = true;\r\n    }\r\n\r\n    //List land for sale\r\n    function listLandForSale(uint _landId) public onlyOwner(_landId) {\r\n        //Check if land actually exists\r\n        //Mapping in solidity always exists and maps to a zero value\r\n        //Hence, this check is needed.\r\n        require(landMapping[_landId].landId > 0);\r\n\r\n        //Mark the land for Sale\r\n        landMapping[_landId].isForSale = true;\r\n\r\n        //Add the land to the landsForSale list\r\n        landsForSale.push(_landId);\r\n\r\n        emit LandListedForSale(_landId);\r\n    }\r\n\r\n // Function where a buyer can request and show interest in buying a land\r\n    function requestForBuy(uint _landId) public  {\r\n        require(landMapping[_landId].isForSale, \"Land is not for sale\");\r\n\r\n        // Check if the buyer has already requested to buy this land before\r\n        if (hasBuyerAlreadyRequested(_landId, msg.sender)) {\r\n            // Emit the DuplicateLandRequest event and revert the transaction\r\n            emit DuplicateLandRequest(_landId, msg.sender);\r\n        }\r\n        else\r\n        {\r\n\r\n        requestCount++;\r\n        LandRequestMapping[requestCount] = LandRequest(requestCount, landMapping[_landId].owner, msg.sender, _landId, reqStatus.requested, false);\r\n        MyReceivedLandRequests[landMapping[_landId].owner].push(requestCount);\r\n        MySentLandRequests[msg.sender].push(requestCount);\r\n\r\n        // Update the mapping between land ID, buyer address, and request ID\r\n        landToBuyerToRequest[_landId][msg.sender] = requestCount;\r\n\r\n        emit LandRequests(requestCount, landMapping[_landId].owner, msg.sender, _landId, reqStatus.requested, false);\r\n        }\r\n    }\r\n\r\n    \r\n    // Function to check if a buyer has already requested to buy a specific land\r\n    function hasBuyerAlreadyRequested(uint _landId, address _buyer) internal view returns (bool) {\r\n        return landToBuyerToRequest[_landId][_buyer] > 0;\r\n    }\r\n\r\n    // Function to cancel a buyer's request for a land\r\nfunction cancelBuyerRequest(uint _landId) public  {\r\n    require(landMapping[_landId].isForSale, \"Land is not for sale\");\r\n\r\n        // Check if the buyer has requested for this land\r\n        if (hasBuyerAlreadyRequested(_landId, msg.sender)) {\r\n            uint requestId = landToBuyerToRequest[_landId][msg.sender];\r\n\r\n            // // Check if the request is still in the 'requested' status\r\n             require(LandRequestMapping[requestId].requestStatus == reqStatus.requested, \"Cannot cancel. Request is not in 'requested' status\");\r\n\r\n\r\n            LandRequestMapping[requestId].requestStatus == reqStatus.rejected;\r\n\r\n            // Remove the request from MyReceivedLandRequests and MySentLandRequests lists\r\n            removeRequestFromList(MyReceivedLandRequests[landMapping[_landId].owner], requestId);\r\n            removeRequestFromList(MySentLandRequests[msg.sender], requestId);\r\n\r\n            // Update the mapping between land ID, buyer address, and request ID\r\n            delete landToBuyerToRequest[_landId][msg.sender];\r\n\r\n            // Emit the BuyerRequestCancelled event\r\n             emit BuyerRequestCancelled(requestId, landMapping[_landId].owner, msg.sender, _landId);\r\n            }\r\n\r\n}\r\n\r\n// Add a new function to retrieve the status of land requests for a specific land\r\nfunction getLandRequestStatus(uint _landId, address _buyer) public view returns (reqStatus) {\r\n    uint requestId = landToBuyerToRequest[_landId][_buyer];\r\n    if (requestId > 0) {\r\n        return LandRequestMapping[requestId].requestStatus;\r\n    }\r\n    return reqStatus.requested; // Default to requested if no request found\r\n}\r\n\r\n// Internal function to remove a request ID from a list\r\nfunction removeRequestFromList(uint[] storage requestList, uint requestId) internal {\r\n    uint len = requestList.length;\r\n    for (uint i = 0; i < len; i++) {\r\n        if (requestList[i] == requestId) {\r\n            requestList[i] = requestList[len - 1];\r\n            requestList.pop();\r\n            break;\r\n        }\r\n    }\r\n\r\n    // Emit the LandRequestCancelled event\r\n        emit LandRequestCancelled(requestId);\r\n}\r\n\r\n// Function that will return a list of received land requests buyers interested for a particular land\r\nfunction receivedLandRequests() public view returns (uint[] memory) {\r\n    \r\n    return MyReceivedLandRequests[msg.sender];\r\n}\r\n//Function that will return a list of buyers interested for a particular land and have sent requests\r\nfunction sentLandRequests() public view returns(uint[] memory)\r\n{\r\n    return MySentLandRequests[msg.sender];\r\n}\r\n\r\n// Add a new function to get land ID for a given request ID\r\nfunction getLandIdForRequest(uint _requestId) public view returns (uint) {\r\n    return LandRequestMapping[_requestId].landId;\r\n}\r\n\r\n\r\n// Function to get the buyer address for a given request ID\r\nfunction getBuyerAddressForRequest(uint _requestId) public view returns (address) {\r\n    require(_requestId > 0 && _requestId <= requestCount, \"Invalid request ID\");\r\n\r\n    return LandRequestMapping[_requestId].buyerId;\r\n}\r\n\r\n// Function where seller accepts the request of the buyer\r\n    function acceptRequest(uint _requestId) public {\r\n        require(LandRequestMapping[_requestId].sellerId == msg.sender, \"Not the seller of this land\");\r\n        require(LandRequestMapping[_requestId].requestStatus == reqStatus.requested, \"Invalid request status\");\r\n\r\n        // Update the request status\r\n        LandRequestMapping[_requestId].requestStatus = reqStatus.accepted;\r\n   \r\n    }\r\n\r\n//Function where seller rejects the request of the buyer\r\n    function rejectRequest(uint _requestId) public \r\n    {\r\n        require(LandRequestMapping[_requestId].sellerId == msg.sender, \"Not the seller of this land\");\r\n        require(LandRequestMapping[_requestId].requestStatus == reqStatus.requested, \"Invalid request status\");\r\n\r\n        LandRequestMapping[_requestId].requestStatus=reqStatus.rejected;\r\n\r\n\r\n    // Remove the request from MyReceivedLandRequests and MySentLandRequests lists\r\n    removeRequestFromList(MyReceivedLandRequests[LandRequestMapping[_requestId].sellerId ], _requestId);\r\n    removeRequestFromList(MySentLandRequests[LandRequestMapping[_requestId].buyerId], _requestId);\r\n\r\n       // Emit the RequestRejected event\r\n    emit RequestRejected(_requestId, msg.sender, LandRequestMapping[_requestId].buyerId);\r\n\r\n\r\n     // Update the mapping between land ID, buyer address, and request ID\r\n        delete landToBuyerToRequest[LandRequestMapping[_requestId].landId][LandRequestMapping[_requestId].buyerId];\r\n\r\n\r\n     // Delete the request entry\r\n        delete LandRequestMapping[_requestId];\r\n    }\r\n\r\n    // Function to get the request ID for a given land ID\r\nfunction getRequestForLandId(uint _landId, address _buyer) public view returns (uint) {\r\n    uint requestId = landToBuyerToRequest[_landId][_buyer];\r\n\r\n    // Check if the request ID is greater than 0, indicating a valid request\r\n    if (requestId > 0) {\r\n        return requestId;\r\n    }\r\n\r\n    // Return 0 if no valid request exists\r\n    return 0;\r\n}\r\n\r\n\r\n \r\n//Function to mark payment as done\r\nfunction markPaymentAsDone(uint _requestId, uint _landId) public  {\r\n    require(LandRequestMapping[_requestId].sellerId == msg.sender, \"Not the seller of this land\");\r\n    require(LandRequestMapping[_requestId].requestStatus == reqStatus.accepted, \"Invalid request status\");\r\n    require(landMapping[_landId].isForSale, \"Land is not for sale\");\r\n\r\n    // Ensure the provided requestId is valid\r\n    require(_requestId > 0, \"Invalid requestId\");\r\n\r\n\r\n    // Mark payment as done\r\n    LandRequestMapping[_requestId].isPaymentDone = true;\r\n    LandRequestMapping[_requestId].requestStatus=reqStatus.paymentdone;\r\n\r\n\r\n    // Emit the PaymentMarkedAsDone event\r\n    emit PaymentMarkedAsDone(_requestId, _landId);\r\n}\r\n//Function to check the status of payment\r\n    function requestStatus(uint requestId) public view returns(bool)\r\n    {\r\n        return LandRequestMapping[requestId].isPaymentDone;\r\n    }\r\n\r\n// Function to get the owner's address for a given land ID\r\nfunction getOwnerAddress(uint _landId) public view returns (address) {\r\n    require(landMapping[_landId].landId > 0, \"Land not found\");\r\n    return landMapping[_landId].owner;\r\n}\r\n\r\n// Function to remove a land from sale\r\nfunction removeLandFromSale(uint _landId) public {\r\n    // Check if the land is currently listed for sale\r\n    require(landMapping[_landId].isForSale, \"Land is not currently listed for sale\");\r\n\r\n    // Mark the land as not for sale\r\n    landMapping[_landId].isForSale = false;\r\n\r\n    // Remove the land ID from the landsforsale list\r\n    for (uint i = 0; i < landsForSale.length; i++) {\r\n        if (landsForSale[i] == _landId) {\r\n            // Swap with the last element and pop\r\n            landsForSale[i] = landsForSale[landsForSale.length - 1];\r\n            landsForSale.pop();\r\n            break;\r\n        }\r\n    }\r\n\r\n}\r\n\r\n\r\n// Function to transfer land ownership\r\nfunction transferLandOwnership(uint _requestId) public {\r\n       require(LandRequestMapping[_requestId].sellerId == msg.sender, \"Not the seller of this land\");\r\n    require(LandRequestMapping[_requestId].requestStatus == reqStatus.paymentdone, \"payment not done\");\r\n    \r\n    uint landId = LandRequestMapping[_requestId].landId;\r\n    address oldOwner = landMapping[landId].owner;\r\n    address newOwner = LandRequestMapping[_requestId].buyerId;\r\n\r\n    // Update the owner of the land\r\n    landMapping[landId].owner = newOwner;\r\n\r\n    // Remove the land from landsForSale list\r\n    landMapping[landId].isForSale = false;\r\n\r\n       //Add to the accounts list of lands\r\n        MyLands[newOwner].push(landId);\r\n\r\n      // Remove the land from landsforsale list if it was listed for sale\r\n    if (landMapping[landId].isForSale) {\r\n        removeLandFromSale(landId);\r\n    }\r\n\r\n    \r\n    // Store the previous owner's address in the array\r\n    landMapping[landId].previousOwners.push(oldOwner);\r\n\r\n    LandRequestMapping[_requestId].requestStatus= reqStatus.completed;\r\n       // Remove the land from the seller's owned lands\r\n        removeLand(landId);\r\n  \r\n\r\n\r\n    // Remove the mapping when the land ownership is transferred\r\n       // delete landToBuyerToRequest[landId][newOwner];\r\n\r\n    // Remove the request from MyReceivedLandRequests and MySentLandRequests lists\r\n    // removeRequestFromList(MyReceivedLandRequests[LandRequestMapping[_requestId].sellerId ], _requestId);\r\n    // removeRequestFromList(MySentLandRequests[LandRequestMapping[_requestId].buyerId], _requestId);\r\n\r\n      // Delete the request entry\r\n    //delete LandRequestMapping[_requestId];\r\n\r\n\r\n    // Emit the LandOwnershipTransferred event\r\n    emit LandOwnershipTransferred(landId, oldOwner, newOwner);\r\n}\r\n\r\n\r\n// Function to get the previous owners of a land\r\nfunction getPreviousOwners(uint _landId) public view returns (address[] memory) {\r\n    require(landMapping[_landId].landId > 0, \"Land not found\");\r\n    return landMapping[_landId].previousOwners;\r\n}\r\n\r\n\r\n\r\n\r\n    //Get all land ids which have been listed for sale\r\n    //except the lands listed for sale by the caller\r\n    function getLandsForSale() public view returns (LandRecord[] memory) {\r\n        uint count = 0;\r\n        for(uint i = 0; i < landsForSale.length; i++) {\r\n            if(landMapping[landsForSale[i]].owner != msg.sender) {\r\n                count++;\r\n            }\r\n        }\r\n\r\n        LandRecord[] memory result = new LandRecord[](count);\r\n\r\n        uint resultIndex = 0;\r\n\r\n        for(uint i = 0; i < landsForSale.length; i++) {\r\n            if(landMapping[landsForSale[i]].owner != msg.sender) {\r\n                result[resultIndex] = landMapping[landsForSale[i]];\r\n                resultIndex++;\r\n            }\r\n        }\r\n        return result;\r\n    }\r\n\r\n\r\n\r\n    function getMyLands() public view returns(LandRecord[] memory) {\r\n        LandRecord[] memory result = new LandRecord[](MyLands[msg.sender].length);\r\n\r\n        for(uint i = 0; i < MyLands[msg.sender].length; i++) {\r\n            result[i] = landMapping[MyLands[msg.sender][i]];\r\n        }\r\n        return result;\r\n    }\r\n\r\n//Function that returns a list of all lands\r\n    function ReturnAllLandList() public view returns(uint[] memory)\r\n    {\r\n        return allLandList;\r\n    }\r\n}\r\n\r\n\r\n",
  "sourcePath": "C:\\Users\\Aaryan\\Desktop\\FYP LATEST\\Decentralizsed-Land-Registration\\contracts\\land-contract.sol",
  "compiler": {
    "name": "solc",
    "version": "0.8.0+commit.c7dfd78e.Emscripten.clang"
  },
  "schemaVersion": "3.4.16",
  "updatedAt": "2024-01-23T17:54:20.924Z",
  "networkType": "ethereum",
  "devdoc": {
    "kind": "dev",
    "methods": {},
    "version": 1
  },
  "userdoc": {
    "kind": "user",
    "methods": {},
    "version": 1
  }
}