{
  "contractName": "LandRegistration",
  "abi": [
    {
      "inputs": [
        {
          "internalType": "address",
          "name": "_accountRegistrationContract",
          "type": "address"
        }
      ],
      "stateMutability": "nonpayable",
      "type": "constructor"
    },
    {
      "anonymous": false,
      "inputs": [
        {
          "indexed": false,
          "internalType": "uint256",
          "name": "requestId",
          "type": "uint256"
        },
        {
          "indexed": false,
          "internalType": "address",
          "name": "seller",
          "type": "address"
        },
        {
          "indexed": false,
          "internalType": "address",
          "name": "buyer",
          "type": "address"
        },
        {
          "indexed": false,
          "internalType": "uint256",
          "name": "landId",
          "type": "uint256"
        }
      ],
      "name": "BuyerRequestCancelled",
      "type": "event"
    },
    {
      "anonymous": false,
      "inputs": [
        {
          "indexed": false,
          "internalType": "address",
          "name": "buyer",
          "type": "address"
        },
        {
          "indexed": false,
          "internalType": "uint256",
          "name": "landId",
          "type": "uint256"
        }
      ],
      "name": "DuplicateCancellationAttempt",
      "type": "event"
    },
    {
      "anonymous": false,
      "inputs": [
        {
          "indexed": false,
          "internalType": "uint256",
          "name": "landId",
          "type": "uint256"
        },
        {
          "indexed": false,
          "internalType": "address",
          "name": "buyer",
          "type": "address"
        }
      ],
      "name": "DuplicateLandRequest",
      "type": "event"
    },
    {
      "anonymous": false,
      "inputs": [
        {
          "indexed": false,
          "internalType": "uint256",
          "name": "landId",
          "type": "uint256"
        }
      ],
      "name": "LandAlreadyVerified",
      "type": "event"
    },
    {
      "anonymous": false,
      "inputs": [
        {
          "indexed": false,
          "internalType": "uint256",
          "name": "landId",
          "type": "uint256"
        }
      ],
      "name": "LandListedForSale",
      "type": "event"
    },
    {
      "anonymous": false,
      "inputs": [
        {
          "indexed": false,
          "internalType": "uint256",
          "name": "landId",
          "type": "uint256"
        },
        {
          "indexed": false,
          "internalType": "address",
          "name": "oldOwner",
          "type": "address"
        },
        {
          "indexed": false,
          "internalType": "address",
          "name": "newOwner",
          "type": "address"
        }
      ],
      "name": "LandOwnershipTransferred",
      "type": "event"
    },
    {
      "anonymous": false,
      "inputs": [
        {
          "indexed": false,
          "internalType": "uint256",
          "name": "landId",
          "type": "uint256"
        }
      ],
      "name": "LandRecordAdded",
      "type": "event"
    },
    {
      "anonymous": false,
      "inputs": [
        {
          "indexed": false,
          "internalType": "uint256",
          "name": "landId",
          "type": "uint256"
        }
      ],
      "name": "LandRecordExists",
      "type": "event"
    },
    {
      "anonymous": false,
      "inputs": [
        {
          "indexed": false,
          "internalType": "uint256",
          "name": "requestId",
          "type": "uint256"
        }
      ],
      "name": "LandRequestCancelled",
      "type": "event"
    },
    {
      "anonymous": false,
      "inputs": [
        {
          "indexed": false,
          "internalType": "uint256",
          "name": "requestId",
          "type": "uint256"
        },
        {
          "indexed": false,
          "internalType": "address",
          "name": "landOwner",
          "type": "address"
        },
        {
          "indexed": false,
          "internalType": "address",
          "name": "buyer",
          "type": "address"
        },
        {
          "indexed": false,
          "internalType": "uint256",
          "name": "landId",
          "type": "uint256"
        },
        {
          "indexed": false,
          "internalType": "enum LandRegistration.reqStatus",
          "name": "status",
          "type": "uint8"
        },
        {
          "indexed": false,
          "internalType": "bool",
          "name": "someFlag",
          "type": "bool"
        }
      ],
      "name": "LandRequests",
      "type": "event"
    },
    {
      "anonymous": false,
      "inputs": [
        {
          "indexed": false,
          "internalType": "uint256",
          "name": "landId",
          "type": "uint256"
        }
      ],
      "name": "LandVerificationRequestExists",
      "type": "event"
    },
    {
      "anonymous": false,
      "inputs": [
        {
          "indexed": false,
          "internalType": "uint256",
          "name": "landId",
          "type": "uint256"
        }
      ],
      "name": "LandVerificationRequestSubmitted",
      "type": "event"
    },
    {
      "anonymous": false,
      "inputs": [
        {
          "indexed": false,
          "internalType": "uint256",
          "name": "landId",
          "type": "uint256"
        }
      ],
      "name": "LandVerified",
      "type": "event"
    },
    {
      "anonymous": false,
      "inputs": [
        {
          "indexed": false,
          "internalType": "uint256",
          "name": "requestId",
          "type": "uint256"
        },
        {
          "indexed": false,
          "internalType": "uint256",
          "name": "landId",
          "type": "uint256"
        }
      ],
      "name": "PaymentMarkedAsDone",
      "type": "event"
    },
    {
      "anonymous": false,
      "inputs": [
        {
          "indexed": true,
          "internalType": "uint256",
          "name": "requestId",
          "type": "uint256"
        },
        {
          "indexed": true,
          "internalType": "address",
          "name": "seller",
          "type": "address"
        },
        {
          "indexed": true,
          "internalType": "address",
          "name": "buyer",
          "type": "address"
        }
      ],
      "name": "RequestAccepted",
      "type": "event"
    },
    {
      "anonymous": false,
      "inputs": [
        {
          "indexed": true,
          "internalType": "uint256",
          "name": "requestId",
          "type": "uint256"
        },
        {
          "indexed": true,
          "internalType": "address",
          "name": "seller",
          "type": "address"
        },
        {
          "indexed": true,
          "internalType": "address",
          "name": "buyer",
          "type": "address"
        }
      ],
      "name": "RequestRejected",
      "type": "event"
    },
    {
      "inputs": [
        {
          "internalType": "uint256",
          "name": "",
          "type": "uint256"
        }
      ],
      "name": "LandRequestMapping",
      "outputs": [
        {
          "internalType": "uint256",
          "name": "reqId",
          "type": "uint256"
        },
        {
          "internalType": "address",
          "name": "sellerId",
          "type": "address"
        },
        {
          "internalType": "address",
          "name": "buyerId",
          "type": "address"
        },
        {
          "internalType": "uint256",
          "name": "landId",
          "type": "uint256"
        },
        {
          "internalType": "enum LandRegistration.reqStatus",
          "name": "requestStatus",
          "type": "uint8"
        },
        {
          "internalType": "bool",
          "name": "isPaymentDone",
          "type": "bool"
        }
      ],
      "stateMutability": "view",
      "type": "function",
      "constant": true
    },
    {
      "inputs": [],
      "name": "accountRegistrationContract",
      "outputs": [
        {
          "internalType": "address",
          "name": "",
          "type": "address"
        }
      ],
      "stateMutability": "view",
      "type": "function",
      "constant": true
    },
    {
      "inputs": [],
      "name": "deployer",
      "outputs": [
        {
          "internalType": "address",
          "name": "",
          "type": "address"
        }
      ],
      "stateMutability": "view",
      "type": "function",
      "constant": true
    },
    {
      "inputs": [
        {
          "internalType": "uint256",
          "name": "",
          "type": "uint256"
        }
      ],
      "name": "landMapping",
      "outputs": [
        {
          "internalType": "uint256",
          "name": "landId",
          "type": "uint256"
        },
        {
          "internalType": "address",
          "name": "owner",
          "type": "address"
        },
        {
          "components": [
            {
              "internalType": "string",
              "name": "state",
              "type": "string"
            },
            {
              "internalType": "string",
              "name": "division",
              "type": "string"
            },
            {
              "internalType": "string",
              "name": "district",
              "type": "string"
            },
            {
              "internalType": "string",
              "name": "taluka",
              "type": "string"
            },
            {
              "internalType": "string",
              "name": "village",
              "type": "string"
            },
            {
              "internalType": "uint256",
              "name": "surveyNumber",
              "type": "uint256"
            },
            {
              "internalType": "string",
              "name": "subdivision",
              "type": "string"
            }
          ],
          "internalType": "struct LandRegistration.LandIdentifier",
          "name": "identifier",
          "type": "tuple"
        },
        {
          "internalType": "uint256",
          "name": "area",
          "type": "uint256"
        },
        {
          "internalType": "uint256",
          "name": "purchaseDate",
          "type": "uint256"
        },
        {
          "internalType": "uint256",
          "name": "purchasePrice",
          "type": "uint256"
        },
        {
          "internalType": "uint256",
          "name": "landValueAtPurchase",
          "type": "uint256"
        },
        {
          "internalType": "bool",
          "name": "isVerified",
          "type": "bool"
        },
        {
          "internalType": "bool",
          "name": "isForSale",
          "type": "bool"
        }
      ],
      "stateMutability": "view",
      "type": "function",
      "constant": true
    },
    {
      "inputs": [],
      "name": "landRecordsCount",
      "outputs": [
        {
          "internalType": "uint256",
          "name": "",
          "type": "uint256"
        }
      ],
      "stateMutability": "view",
      "type": "function",
      "constant": true
    },
    {
      "inputs": [
        {
          "internalType": "uint256",
          "name": "",
          "type": "uint256"
        },
        {
          "internalType": "address",
          "name": "",
          "type": "address"
        }
      ],
      "name": "landToBuyerToRequest",
      "outputs": [
        {
          "internalType": "uint256",
          "name": "",
          "type": "uint256"
        }
      ],
      "stateMutability": "view",
      "type": "function",
      "constant": true
    },
    {
      "inputs": [
        {
          "internalType": "uint256",
          "name": "_landId",
          "type": "uint256"
        }
      ],
      "name": "landVerificationRequest",
      "outputs": [],
      "stateMutability": "nonpayable",
      "type": "function"
    },
    {
      "inputs": [],
      "name": "getPendingLandVerificationRequests",
      "outputs": [
        {
          "internalType": "uint256[]",
          "name": "",
          "type": "uint256[]"
        }
      ],
      "stateMutability": "view",
      "type": "function",
      "constant": true
    },
    {
      "inputs": [
        {
          "components": [
            {
              "internalType": "uint256",
              "name": "landId",
              "type": "uint256"
            },
            {
              "internalType": "address",
              "name": "owner",
              "type": "address"
            },
            {
              "components": [
                {
                  "internalType": "string",
                  "name": "state",
                  "type": "string"
                },
                {
                  "internalType": "string",
                  "name": "division",
                  "type": "string"
                },
                {
                  "internalType": "string",
                  "name": "district",
                  "type": "string"
                },
                {
                  "internalType": "string",
                  "name": "taluka",
                  "type": "string"
                },
                {
                  "internalType": "string",
                  "name": "village",
                  "type": "string"
                },
                {
                  "internalType": "uint256",
                  "name": "surveyNumber",
                  "type": "uint256"
                },
                {
                  "internalType": "string",
                  "name": "subdivision",
                  "type": "string"
                }
              ],
              "internalType": "struct LandRegistration.LandIdentifier",
              "name": "identifier",
              "type": "tuple"
            },
            {
              "internalType": "uint256",
              "name": "area",
              "type": "uint256"
            },
            {
              "internalType": "uint256",
              "name": "purchaseDate",
              "type": "uint256"
            },
            {
              "internalType": "uint256",
              "name": "purchasePrice",
              "type": "uint256"
            },
            {
              "internalType": "uint256",
              "name": "landValueAtPurchase",
              "type": "uint256"
            },
            {
              "internalType": "address[]",
              "name": "previousOwners",
              "type": "address[]"
            },
            {
              "internalType": "bool",
              "name": "isVerified",
              "type": "bool"
            },
            {
              "internalType": "bool",
              "name": "isForSale",
              "type": "bool"
            }
          ],
          "internalType": "struct LandRegistration.LandRecord",
          "name": "_record",
          "type": "tuple"
        }
      ],
      "name": "addLandRecord",
      "outputs": [
        {
          "internalType": "uint256",
          "name": "",
          "type": "uint256"
        }
      ],
      "stateMutability": "nonpayable",
      "type": "function"
    },
    {
      "inputs": [
        {
          "internalType": "uint256",
          "name": "landId",
          "type": "uint256"
        }
      ],
      "name": "removeLand",
      "outputs": [],
      "stateMutability": "nonpayable",
      "type": "function"
    },
    {
      "inputs": [
        {
          "components": [
            {
              "internalType": "string",
              "name": "state",
              "type": "string"
            },
            {
              "internalType": "string",
              "name": "division",
              "type": "string"
            },
            {
              "internalType": "string",
              "name": "district",
              "type": "string"
            },
            {
              "internalType": "string",
              "name": "taluka",
              "type": "string"
            },
            {
              "internalType": "string",
              "name": "village",
              "type": "string"
            },
            {
              "internalType": "uint256",
              "name": "surveyNumber",
              "type": "uint256"
            },
            {
              "internalType": "string",
              "name": "subdivision",
              "type": "string"
            }
          ],
          "internalType": "struct LandRegistration.LandIdentifier",
          "name": "_identifier",
          "type": "tuple"
        }
      ],
      "name": "getLandId",
      "outputs": [
        {
          "internalType": "uint256",
          "name": "",
          "type": "uint256"
        }
      ],
      "stateMutability": "view",
      "type": "function",
      "constant": true
    },
    {
      "inputs": [
        {
          "internalType": "uint256",
          "name": "_landId",
          "type": "uint256"
        }
      ],
      "name": "verifyLand",
      "outputs": [],
      "stateMutability": "nonpayable",
      "type": "function"
    },
    {
      "inputs": [
        {
          "internalType": "uint256",
          "name": "_landId",
          "type": "uint256"
        }
      ],
      "name": "listLandForSale",
      "outputs": [],
      "stateMutability": "nonpayable",
      "type": "function"
    },
    {
      "inputs": [
        {
          "internalType": "uint256",
          "name": "_landId",
          "type": "uint256"
        }
      ],
      "name": "requestForBuy",
      "outputs": [],
      "stateMutability": "nonpayable",
      "type": "function"
    },
    {
      "inputs": [
        {
          "internalType": "uint256",
          "name": "_landId",
          "type": "uint256"
        }
      ],
      "name": "cancelBuyerRequest",
      "outputs": [],
      "stateMutability": "nonpayable",
      "type": "function"
    },
    {
      "inputs": [
        {
          "internalType": "uint256",
          "name": "_landId",
          "type": "uint256"
        },
        {
          "internalType": "address",
          "name": "_buyer",
          "type": "address"
        }
      ],
      "name": "getLandRequestStatus",
      "outputs": [
        {
          "internalType": "enum LandRegistration.reqStatus",
          "name": "",
          "type": "uint8"
        }
      ],
      "stateMutability": "view",
      "type": "function",
      "constant": true
    },
    {
      "inputs": [],
      "name": "receivedLandRequests",
      "outputs": [
        {
          "internalType": "uint256[]",
          "name": "",
          "type": "uint256[]"
        }
      ],
      "stateMutability": "view",
      "type": "function",
      "constant": true
    },
    {
      "inputs": [],
      "name": "sentLandRequests",
      "outputs": [
        {
          "internalType": "uint256[]",
          "name": "",
          "type": "uint256[]"
        }
      ],
      "stateMutability": "view",
      "type": "function",
      "constant": true
    },
    {
      "inputs": [
        {
          "internalType": "uint256",
          "name": "_requestId",
          "type": "uint256"
        }
      ],
      "name": "getLandIdForRequest",
      "outputs": [
        {
          "internalType": "uint256",
          "name": "",
          "type": "uint256"
        }
      ],
      "stateMutability": "view",
      "type": "function",
      "constant": true
    },
    {
      "inputs": [
        {
          "internalType": "uint256",
          "name": "_requestId",
          "type": "uint256"
        }
      ],
      "name": "getBuyerAddressForRequest",
      "outputs": [
        {
          "internalType": "address",
          "name": "",
          "type": "address"
        }
      ],
      "stateMutability": "view",
      "type": "function",
      "constant": true
    },
    {
      "inputs": [
        {
          "internalType": "uint256",
          "name": "_requestId",
          "type": "uint256"
        }
      ],
      "name": "acceptRequest",
      "outputs": [],
      "stateMutability": "nonpayable",
      "type": "function"
    },
    {
      "inputs": [
        {
          "internalType": "uint256",
          "name": "_requestId",
          "type": "uint256"
        }
      ],
      "name": "rejectRequest",
      "outputs": [],
      "stateMutability": "nonpayable",
      "type": "function"
    },
    {
      "inputs": [
        {
          "internalType": "uint256",
          "name": "_landId",
          "type": "uint256"
        },
        {
          "internalType": "address",
          "name": "_buyer",
          "type": "address"
        }
      ],
      "name": "getRequestForLandId",
      "outputs": [
        {
          "internalType": "uint256",
          "name": "",
          "type": "uint256"
        }
      ],
      "stateMutability": "view",
      "type": "function",
      "constant": true
    },
    {
      "inputs": [
        {
          "internalType": "uint256",
          "name": "_requestId",
          "type": "uint256"
        },
        {
          "internalType": "uint256",
          "name": "_landId",
          "type": "uint256"
        }
      ],
      "name": "markPaymentAsDone",
      "outputs": [],
      "stateMutability": "nonpayable",
      "type": "function"
    },
    {
      "inputs": [
        {
          "internalType": "uint256",
          "name": "requestId",
          "type": "uint256"
        }
      ],
      "name": "requestStatus",
      "outputs": [
        {
          "internalType": "bool",
          "name": "",
          "type": "bool"
        }
      ],
      "stateMutability": "view",
      "type": "function",
      "constant": true
    },
    {
      "inputs": [
        {
          "internalType": "uint256",
          "name": "_landId",
          "type": "uint256"
        }
      ],
      "name": "getOwnerAddress",
      "outputs": [
        {
          "internalType": "address",
          "name": "",
          "type": "address"
        }
      ],
      "stateMutability": "view",
      "type": "function",
      "constant": true
    },
    {
      "inputs": [
        {
          "internalType": "uint256",
          "name": "_landId",
          "type": "uint256"
        }
      ],
      "name": "removeLandFromSale",
      "outputs": [],
      "stateMutability": "nonpayable",
      "type": "function"
    },
    {
      "inputs": [
        {
          "internalType": "uint256",
          "name": "_requestId",
          "type": "uint256"
        }
      ],
      "name": "transferLandOwnership",
      "outputs": [],
      "stateMutability": "nonpayable",
      "type": "function"
    },
    {
      "inputs": [
        {
          "internalType": "uint256",
          "name": "_landId",
          "type": "uint256"
        }
      ],
      "name": "getPreviousOwners",
      "outputs": [
        {
          "internalType": "address[]",
          "name": "",
          "type": "address[]"
        }
      ],
      "stateMutability": "view",
      "type": "function",
      "constant": true
    },
    {
      "inputs": [],
      "name": "getLandsForSale",
      "outputs": [
        {
          "components": [
            {
              "internalType": "uint256",
              "name": "landId",
              "type": "uint256"
            },
            {
              "internalType": "address",
              "name": "owner",
              "type": "address"
            },
            {
              "components": [
                {
                  "internalType": "string",
                  "name": "state",
                  "type": "string"
                },
                {
                  "internalType": "string",
                  "name": "division",
                  "type": "string"
                },
                {
                  "internalType": "string",
                  "name": "district",
                  "type": "string"
                },
                {
                  "internalType": "string",
                  "name": "taluka",
                  "type": "string"
                },
                {
                  "internalType": "string",
                  "name": "village",
                  "type": "string"
                },
                {
                  "internalType": "uint256",
                  "name": "surveyNumber",
                  "type": "uint256"
                },
                {
                  "internalType": "string",
                  "name": "subdivision",
                  "type": "string"
                }
              ],
              "internalType": "struct LandRegistration.LandIdentifier",
              "name": "identifier",
              "type": "tuple"
            },
            {
              "internalType": "uint256",
              "name": "area",
              "type": "uint256"
            },
            {
              "internalType": "uint256",
              "name": "purchaseDate",
              "type": "uint256"
            },
            {
              "internalType": "uint256",
              "name": "purchasePrice",
              "type": "uint256"
            },
            {
              "internalType": "uint256",
              "name": "landValueAtPurchase",
              "type": "uint256"
            },
            {
              "internalType": "address[]",
              "name": "previousOwners",
              "type": "address[]"
            },
            {
              "internalType": "bool",
              "name": "isVerified",
              "type": "bool"
            },
            {
              "internalType": "bool",
              "name": "isForSale",
              "type": "bool"
            }
          ],
          "internalType": "struct LandRegistration.LandRecord[]",
          "name": "",
          "type": "tuple[]"
        }
      ],
      "stateMutability": "view",
      "type": "function",
      "constant": true
    },
    {
      "inputs": [],
      "name": "getMyLands",
      "outputs": [
        {
          "components": [
            {
              "internalType": "uint256",
              "name": "landId",
              "type": "uint256"
            },
            {
              "internalType": "address",
              "name": "owner",
              "type": "address"
            },
            {
              "components": [
                {
                  "internalType": "string",
                  "name": "state",
                  "type": "string"
                },
                {
                  "internalType": "string",
                  "name": "division",
                  "type": "string"
                },
                {
                  "internalType": "string",
                  "name": "district",
                  "type": "string"
                },
                {
                  "internalType": "string",
                  "name": "taluka",
                  "type": "string"
                },
                {
                  "internalType": "string",
                  "name": "village",
                  "type": "string"
                },
                {
                  "internalType": "uint256",
                  "name": "surveyNumber",
                  "type": "uint256"
                },
                {
                  "internalType": "string",
                  "name": "subdivision",
                  "type": "string"
                }
              ],
              "internalType": "struct LandRegistration.LandIdentifier",
              "name": "identifier",
              "type": "tuple"
            },
            {
              "internalType": "uint256",
              "name": "area",
              "type": "uint256"
            },
            {
              "internalType": "uint256",
              "name": "purchaseDate",
              "type": "uint256"
            },
            {
              "internalType": "uint256",
              "name": "purchasePrice",
              "type": "uint256"
            },
            {
              "internalType": "uint256",
              "name": "landValueAtPurchase",
              "type": "uint256"
            },
            {
              "internalType": "address[]",
              "name": "previousOwners",
              "type": "address[]"
            },
            {
              "internalType": "bool",
              "name": "isVerified",
              "type": "bool"
            },
            {
              "internalType": "bool",
              "name": "isForSale",
              "type": "bool"
            }
          ],
          "internalType": "struct LandRegistration.LandRecord[]",
          "name": "",
          "type": "tuple[]"
        }
      ],
      "stateMutability": "view",
      "type": "function",
      "constant": true
    },
    {
      "inputs": [],
      "name": "ReturnAllLandList",
      "outputs": [
        {
          "internalType": "uint256[]",
          "name": "",
          "type": "uint256[]"
        }
      ],
      "stateMutability": "view",
      "type": "function",
      "constant": true
    }
  ],
  "bytecode": "0x608060405260016009553480156200001657600080fd5b5060405162003c3f38038062003c3f83398101604081905262000039916200006d565b60008054336001600160a01b031991821617909155600180549091166001600160a01b03929092169190911790556200009d565b6000602082840312156200007f578081fd5b81516001600160a01b038116811462000096578182fd5b9392505050565b613b9280620000ad6000396000f3fe608060405234801561001057600080fd5b50600436106101f05760003560e01c806390f136d61161010f578063d5f39488116100a2578063e88bed1a11610071578063e88bed1a1461043c578063f1a0995c14610444578063f6c1b99214610464578063f9c43bdf1461046c576101f0565b8063d5f39488146103e6578063dd550958146103ee578063e01ae68b14610401578063e3df3cf814610429576101f0565b8063bd63026c116100de578063bd63026c14610398578063bf2543fb146103ab578063ce171858146103cb578063d14dfce6146103de576101f0565b806390f136d61461033857806395bd28d0146103405780639b2cfdeb14610360578063b10a30ed14610373576101f0565b80634ba1f098116101875780636fff0f40116101565780636fff0f40146102f757806373930e7e1461030a57806377d90c661461031d5780638714cfee14610330576101f0565b80634ba1f098146102b65780634f1de0e7146102c95780636163f8ec146102dc57806366746a71146102ef576101f0565b80631a313202116101c35780631a3132021461025b5780631f7bdad61461027b57806323393d771461028e5780632d7788db146102a3576101f0565b806304888243146101f55780630695b9c31461020a5780630ee0ed5814610228578063171947021461023b575b600080fd5b610208610203366004613395565b61047f565b005b610212610567565b60405161021f9190613589565b60405180910390f35b610208610236366004613395565b610ae6565b61024e610249366004613395565b610c89565b60405161021f9190613940565b61026e610269366004613395565b610ca1565b60405161021f91906136c4565b6102086102893660046133d8565b610cbe565b610296610dfa565b60405161021f9190613680565b6102086102b1366004613395565b610e52565b6102086102c4366004613395565b611006565b6102086102d7366004613395565b6110af565b6102086102ea366004613395565b611271565b6102966114c4565b61024e6103053660046133ad565b611523565b610208610318366004613395565b61155f565b61020861032b366004613395565b6116e9565b6102966117ec565b61029661184b565b61035361034e366004613395565b6118a1565b60405161021f9190613562565b61024e61036e36600461325b565b6118f0565b610386610381366004613395565b6119cc565b60405161021f969594939291906139a4565b61024e6103a63660046133ad565b611a13565b6103be6103b93660046133ad565b611a30565b60405161021f91906136cf565b6102086103d9366004613395565b611a75565b610353611bb5565b610353611bc4565b6103536103fc366004613395565b611bd3565b61041461040f366004613395565b611c1d565b60405161021f999897969594939291906139e9565b61024e610437366004613296565b611ff7565b61024e612372565b610457610452366004613395565b612378565b60405161021f9190613576565b610212612413565b61020861047a366004613395565b612a60565b6000818152600b602052604090206001015481906001600160a01b031633146104c35760405162461bcd60e51b81526004016104ba90613750565b60405180910390fd5b6000828152600b60205260409020546104db57600080fd5b6000828152600b6020526040808220600e01805461ff001916610100179055600c805460018101825592527fdf6966c971051c3d54ec59162606531493a51404a002842f56009d7e5cf4a8c7909101839055517fbd627619b9f2a20ce2c4498f2185c68bc4236be92480ede53e43f4da545ea9c59061055b908490613940565b60405180910390a15050565b336000908152600560205260408120546060919067ffffffffffffffff8111156105a157634e487b7160e01b600052604160045260246000fd5b6040519080825280602002602001820160405280156105da57816020015b6105c7612e8e565b8152602001906001900390816105bf5790505b50905060005b33600090815260056020526040902054811015610ae0573360009081526005602052604081208054600b9291908490811061062b57634e487b7160e01b600052603260045260246000fd5b6000918252602080832090910154835282810193909352604091820190208151610140810183528154815260018201546001600160a01b031693810193909352815160e08101835260028201805492938501928290829061068b90613acc565b80601f01602080910402602001604051908101604052809291908181526020018280546106b790613acc565b80156107045780601f106106d957610100808354040283529160200191610704565b820191906000526020600020905b8154815290600101906020018083116106e757829003601f168201915b5050505050815260200160018201805461071d90613acc565b80601f016020809104026020016040519081016040528092919081815260200182805461074990613acc565b80156107965780601f1061076b57610100808354040283529160200191610796565b820191906000526020600020905b81548152906001019060200180831161077957829003601f168201915b505050505081526020016002820180546107af90613acc565b80601f01602080910402602001604051908101604052809291908181526020018280546107db90613acc565b80156108285780601f106107fd57610100808354040283529160200191610828565b820191906000526020600020905b81548152906001019060200180831161080b57829003601f168201915b5050505050815260200160038201805461084190613acc565b80601f016020809104026020016040519081016040528092919081815260200182805461086d90613acc565b80156108ba5780601f1061088f576101008083540402835291602001916108ba565b820191906000526020600020905b81548152906001019060200180831161089d57829003601f168201915b505050505081526020016004820180546108d390613acc565b80601f01602080910402602001604051908101604052809291908181526020018280546108ff90613acc565b801561094c5780601f106109215761010080835404028352916020019161094c565b820191906000526020600020905b81548152906001019060200180831161092f57829003601f168201915b505050505081526020016005820154815260200160068201805461096f90613acc565b80601f016020809104026020016040519081016040528092919081815260200182805461099b90613acc565b80156109e85780601f106109bd576101008083540402835291602001916109e8565b820191906000526020600020905b8154815290600101906020018083116109cb57829003601f168201915b505050505081525050815260200160098201548152602001600a8201548152602001600b8201548152602001600c8201548152602001600d8201805480602002602001604051908101604052809291908181526020018280548015610a7657602002820191906000526020600020905b81546001600160a01b03168152600190910190602001808311610a58575b5050509183525050600e919091015460ff808216151560208401526101009091041615156040909101528251839083908110610ac257634e487b7160e01b600052603260045260246000fd5b60200260200101819052508080610ad890613b07565b9150506105e0565b50905090565b6000818152600b60205260409020600e0154610100900460ff16610b1c5760405162461bcd60e51b81526004016104ba906136dd565b610b268133612c3e565b15610c8657600081815260066020908152604080832033845290915281205490600082815260026020526040902060049081015460ff1690811115610b7b57634e487b7160e01b600052602160045260246000fd5b14610b985760405162461bcd60e51b81526004016104ba9061381b565b6002600082815260026020526040902060049081015460ff1690811115610bcf57634e487b7160e01b600052602160045260246000fd5b50506000828152600b60209081526040808320600101546001600160a01b0316835260039091529020610c029082612c68565b336000908152600460205260409020610c1b9082612c68565b600082815260066020908152604080832033808552908352818420849055858452600b909252918290206001015491517fe5a136da2c5b558a579c90c61087262e76ddf5c78d27083c096876462651a4379261055b9285926001600160a01b0390921691879061397f565b50565b6000818152600260205260409020600301545b919050565b600090815260026020526040902060040154610100900460ff1690565b6000828152600260205260409020600101546001600160a01b03163314610cf75760405162461bcd60e51b81526004016104ba906138dd565b6001600083815260026020526040902060049081015460ff1690811115610d2e57634e487b7160e01b600052602160045260246000fd5b14610d4b5760405162461bcd60e51b81526004016104ba90613796565b6000818152600b60205260409020600e0154610100900460ff16610d815760405162461bcd60e51b81526004016104ba906136dd565b60008211610da15760405162461bcd60e51b81526004016104ba906137f0565b600082815260026020526040908190206004018054600361ff00199091166101001760ff1916179055517fd6d83468051a65604726ddfd0317813b6fce5a48a9451a78e1949c219571ec639061055b9084908490613a4d565b60606007805480602002602001604051908101604052809291908181526020018280548015610e4857602002820191906000526020600020905b815481526020019060010190808311610e34575b5050505050905090565b6000818152600260205260409020600101546001600160a01b03163314610e8b5760405162461bcd60e51b81526004016104ba906138dd565b600081815260026020526040812060049081015460ff1690811115610ec057634e487b7160e01b600052602160045260246000fd5b14610edd5760405162461bcd60e51b81526004016104ba90613796565b600081815260026020818152604080842060048101805460ff19169094179093556001909201546001600160a01b03168352600390529020610f1f9082612c68565b6000818152600260208181526040808420909201546001600160a01b03168352600490529020610f4f9082612c68565b60008181526002602081905260408083209091015490516001600160a01b0390911691339184917f0b7cdc900b8ac2bfb0d3b2139ecf8be43e21bb1c2e2380190243786c5c5bd3d391a4600081815260026020818152604080842060038101805486526006845282862082860180546001600160a01b03168852908552928620869055958552929091528282556001820180546001600160a01b031990811690915581541690559155600401805461ffff19169055565b6000818152600260205260409020600101546001600160a01b0316331461103f5760405162461bcd60e51b81526004016104ba906138dd565b600081815260026020526040812060049081015460ff169081111561107457634e487b7160e01b600052602160045260246000fd5b146110915760405162461bcd60e51b81526004016104ba90613796565b6000908152600260205260409020600401805460ff19166001179055565b6000818152600260205260409020600101546001600160a01b031633146110e85760405162461bcd60e51b81526004016104ba906138dd565b6003600082815260026020526040902060049081015460ff169081111561111f57634e487b7160e01b600052602160045260246000fd5b1461113c5760405162461bcd60e51b81526004016104ba906137c6565b60008181526002602081815260408084206003810154808652600b8085528387206001808201805495909801546001600160a01b031986166001600160a01b03918216908117909955600e909201805461ff0019168155888a5260058852958920805491820181558952868920018390559682905290935290549193169190610100900460ff16156111d1576111d183611a75565b6000838152600b60209081526040808320600d0180546001810182559084528284200180546001600160a01b0319166001600160a01b038716179055868352600290915290206004908101805460ff19169091179055611230836116e9565b7fa3b0b9020f88aba79dc7d52f5e1da8502bcea42c242b02d2144b71b2de7f049583838360405161126393929190613960565b60405180910390a150505050565b6000818152600b60205260409020600e0154610100900460ff166112a75760405162461bcd60e51b81526004016104ba906136dd565b6112b18133612c3e565b156112f4577f61abb16957915895ee4e253b3221ceb6b9686485981d135b9330af6aba6963ef81336040516112e7929190613949565b60405180910390a1610c86565b6008805490600061130483613b07565b90915550506040805160c0810182526008548082526000848152600b60209081528482206001908101546001600160a01b0390811683870190815233878901908152606088018a81526080890187815260a08a018890529787526002958690529890952087518155905181840180549184166001600160a01b03199283161790559451938101805494909216939094169290921790915593516003820155905160048083018054949593949293909260ff19169184908111156113d757634e487b7160e01b600052602160045260246000fd5b021790555060a09190910151600491820180549115156101000261ff00199092169190911790556000828152600b60208181526040808420600190810180546001600160a01b039081168752600385528387206008805482548087018455928a52878a20909201919091553380895298865284882081548154958601825590895286892090940193909355915488875260068552838720888852855283872081905588875294909352915490517f7825bbe590a72ccf4f413305c96c01a18426a6df8b5fa22a5715f07510badaf7956114b995929093169291879181906139a4565b60405180910390a150565b33600090815260046020908152604091829020805483518184028101840190945280845260609392830182828015610e485760200282019190600052602060002090815481526020019060010190808311610e34575050505050905090565b60008281526006602090815260408083206001600160a01b03851684529091528120548015611553579050611559565b60009150505b92915050565b6000818152600b602052604090206001015481906001600160a01b0316331461159a5760405162461bcd60e51b81526004016104ba90613750565b6000828152600b60205260409020600e015460ff16156115f0577f263d8340510fd631457d32daa5e0f6367a2ffc16047c40084b1b75eb6f2af19e826040516115e39190613940565b60405180910390a16116e5565b60005b600d5481101561167f5782600d828154811061161f57634e487b7160e01b600052603260045260246000fd5b9060005260206000200154141561166d577fd495a6f064735505d24d671bdc64e52e1a60a618c5561b5202950666c9f661268360405161165f9190613940565b60405180910390a1506116e5565b8061167781613b07565b9150506115f3565b50600d80546001810182556000919091527fd7b6990105719101dabeb77144f2a3385c8033acd3af97e9423a695e81ad1eb5018290556040517f56231630fae652455d7feea7bad7233707b890b8378f59c9bd677cd1027a5f809061055b908490613940565b5050565b336000908152600560205260408120905b81548110156117e7578282828154811061172457634e487b7160e01b600052603260045260246000fd5b906000526020600020015414156117d5578154829061174590600190613a85565b8154811061176357634e487b7160e01b600052603260045260246000fd5b906000526020600020015482828154811061178e57634e487b7160e01b600052603260045260246000fd5b9060005260206000200181905550818054806117ba57634e487b7160e01b600052603160045260246000fd5b600190038181906000526020600020016000905590556117e7565b806117df81613b07565b9150506116fa565b505050565b33600090815260036020908152604091829020805483518184028101840190945280845260609392830182828015610e485760200282019190600052602060002090815481526020019060010190808311610e34575050505050905090565b6060600d805480602002602001604051908101604052809291908181526020018280548015610e485760200282019190600052602060002090815481526020019060010190808311610e34575050505050905090565b600080821180156118b457506008548211155b6118d05760405162461bcd60e51b81526004016104ba90613914565b50600090815260026020819052604090912001546001600160a01b031690565b6000600a82600001516040516119069190613546565b908152602001604051809103902082602001516040516119269190613546565b908152602001604051809103902082604001516040516119469190613546565b908152602001604051809103902082606001516040516119669190613546565b908152602001604051809103902082608001516040516119869190613546565b90815260408051918290036020908101832060a0860151600090815291522060c084015190916119b69190613546565b9081526020016040518091039020549050919050565b60026020819052600091825260409091208054600182015492820154600383015460049093015491936001600160a01b039081169391169160ff8082169161010090041686565b600660209081526000928352604080842090915290825290205481565b60008281526006602090815260408083206001600160a01b038516845290915281205480156115535760009081526002602052604090206004015460ff169050611559565b6000818152600b60205260409020600e0154610100900460ff16611aab5760405162461bcd60e51b81526004016104ba9061370b565b6000818152600b60205260408120600e01805461ff00191690555b600c548110156116e55781600c8281548110611af257634e487b7160e01b600052603260045260246000fd5b90600052602060002001541415611ba357600c8054611b1390600190613a85565b81548110611b3157634e487b7160e01b600052603260045260246000fd5b9060005260206000200154600c8281548110611b5d57634e487b7160e01b600052603260045260246000fd5b600091825260209091200155600c805480611b8857634e487b7160e01b600052603160045260246000fd5b600190038181906000526020600020016000905590556116e5565b80611bad81613b07565b915050611ac6565b6001546001600160a01b031681565b6000546001600160a01b031681565b6000818152600b6020526040812054611bfe5760405162461bcd60e51b81526004016104ba9061386e565b506000908152600b60205260409020600101546001600160a01b031690565b600b602052600090815260409081902080546001820154835160e0810190945260028301805492946001600160a01b03909216939282908290611c5f90613acc565b80601f0160208091040260200160405190810160405280929190818152602001828054611c8b90613acc565b8015611cd85780601f10611cad57610100808354040283529160200191611cd8565b820191906000526020600020905b815481529060010190602001808311611cbb57829003601f168201915b50505050508152602001600182018054611cf190613acc565b80601f0160208091040260200160405190810160405280929190818152602001828054611d1d90613acc565b8015611d6a5780601f10611d3f57610100808354040283529160200191611d6a565b820191906000526020600020905b815481529060010190602001808311611d4d57829003601f168201915b50505050508152602001600282018054611d8390613acc565b80601f0160208091040260200160405190810160405280929190818152602001828054611daf90613acc565b8015611dfc5780601f10611dd157610100808354040283529160200191611dfc565b820191906000526020600020905b815481529060010190602001808311611ddf57829003601f168201915b50505050508152602001600382018054611e1590613acc565b80601f0160208091040260200160405190810160405280929190818152602001828054611e4190613acc565b8015611e8e5780601f10611e6357610100808354040283529160200191611e8e565b820191906000526020600020905b815481529060010190602001808311611e7157829003601f168201915b50505050508152602001600482018054611ea790613acc565b80601f0160208091040260200160405190810160405280929190818152602001828054611ed390613acc565b8015611f205780601f10611ef557610100808354040283529160200191611f20565b820191906000526020600020905b815481529060010190602001808311611f0357829003601f168201915b5050505050815260200160058201548152602001600682018054611f4390613acc565b80601f0160208091040260200160405190810160405280929190818152602001828054611f6f90613acc565b8015611fbc5780601f10611f9157610100808354040283529160200191611fbc565b820191906000526020600020905b815481529060010190602001808311611f9f57829003601f168201915b505050919092525050506009820154600a830154600b840154600c850154600e90950154939492939192909160ff8082169161010090041689565b60008060006120098460400151612d92565b915091508115612053577faaf337ed6c27044ac7adfac9210c03e982f61dd5534d00cefa9baedc9e415028816040516120429190613940565b60405180910390a19150610c9c9050565b600954808552600061010086018190526101208601819052908152600b602090815260409182902086518155818701516001820180546001600160a01b0319166001600160a01b03909216919091179055918601518051805188949360028501926120c49284929190910190612ee9565b5060208281015180516120dd9260018501920190612ee9565b50604082015180516120f9916002840191602090910190612ee9565b5060608201518051612115916003840191602090910190612ee9565b5060808201518051612131916004840191602090910190612ee9565b5060a0820151600582015560c08201518051612157916006840191602090910190612ee9565b505050606082015160098201556080820151600a82015560a0820151600b82015560c0820151600c82015560e0820151805161219d91600d840191602090910190612f6d565b5061010082810151600e9290920180546101209094015160ff199094169215159290921761ff00191692151502919091179055600954604085810151519051600a916121e891613546565b908152602001604051809103902085604001516020015160405161220c9190613546565b90815260200160405180910390208560400151604001516040516122309190613546565b90815260200160405180910390208560400151606001516040516122549190613546565b90815260200160405180910390208560400151608001516040516122789190613546565b90815260200160405180910390206000866040015160a001518152602001908152602001600020856040015160c001516040516122b59190613546565b90815260405190819003602001902055600980546007805460018101825560009182527fa66cc928b5edb82af9bd49922954155ab7b0942694bea4ce44661d9a8736c688018290559091829161230a83613b07565b909155505033600090815260056020908152604080832080546001810182559084529190922001829055517fd6ba237a8c7a642ccbcdec4a0f3d08561b3ec6045c9f144ead69305210d11b5290612362908390613940565b60405180910390a1949350505050565b60095481565b6000818152600b60205260409020546060906123a65760405162461bcd60e51b81526004016104ba9061386e565b6000828152600b6020908152604091829020600d018054835181840281018401909452808452909183018282801561240757602002820191906000526020600020905b81546001600160a01b031681526001909101906020018083116123e9575b50505050509050919050565b60606000805b600c5481101561249f57336001600160a01b0316600b6000600c848154811061245257634e487b7160e01b600052603260045260246000fd5b600091825260208083209091015483528201929092526040019020600101546001600160a01b03161461248d578161248981613b07565b9250505b8061249781613b07565b915050612419565b5060008167ffffffffffffffff8111156124c957634e487b7160e01b600052604160045260246000fd5b60405190808252806020026020018201604052801561250257816020015b6124ef612e8e565b8152602001906001900390816124e75790505b5090506000805b600c54811015612a5757336001600160a01b0316600b6000600c848154811061254257634e487b7160e01b600052603260045260246000fd5b600091825260208083209091015483528201929092526040019020600101546001600160a01b031614612a4557600b6000600c838154811061259457634e487b7160e01b600052603260045260246000fd5b6000918252602080832090910154835282810193909352604091820190208151610140810183528154815260018201546001600160a01b031693810193909352815160e0810183526002820180549293850192829082906125f490613acc565b80601f016020809104026020016040519081016040528092919081815260200182805461262090613acc565b801561266d5780601f106126425761010080835404028352916020019161266d565b820191906000526020600020905b81548152906001019060200180831161265057829003601f168201915b5050505050815260200160018201805461268690613acc565b80601f01602080910402602001604051908101604052809291908181526020018280546126b290613acc565b80156126ff5780601f106126d4576101008083540402835291602001916126ff565b820191906000526020600020905b8154815290600101906020018083116126e257829003601f168201915b5050505050815260200160028201805461271890613acc565b80601f016020809104026020016040519081016040528092919081815260200182805461274490613acc565b80156127915780601f1061276657610100808354040283529160200191612791565b820191906000526020600020905b81548152906001019060200180831161277457829003601f168201915b505050505081526020016003820180546127aa90613acc565b80601f01602080910402602001604051908101604052809291908181526020018280546127d690613acc565b80156128235780601f106127f857610100808354040283529160200191612823565b820191906000526020600020905b81548152906001019060200180831161280657829003601f168201915b5050505050815260200160048201805461283c90613acc565b80601f016020809104026020016040519081016040528092919081815260200182805461286890613acc565b80156128b55780601f1061288a576101008083540402835291602001916128b5565b820191906000526020600020905b81548152906001019060200180831161289857829003601f168201915b50505050508152602001600582015481526020016006820180546128d890613acc565b80601f016020809104026020016040519081016040528092919081815260200182805461290490613acc565b80156129515780601f1061292657610100808354040283529160200191612951565b820191906000526020600020905b81548152906001019060200180831161293457829003601f168201915b505050505081525050815260200160098201548152602001600a8201548152602001600b8201548152602001600c8201548152602001600d82018054806020026020016040519081016040528092919081815260200182805480156129df57602002820191906000526020600020905b81546001600160a01b031681526001909101906020018083116129c1575b5050509183525050600e919091015460ff808216151560208401526101009091041615156040909101528351849084908110612a2b57634e487b7160e01b600052603260045260246000fd5b60200260200101819052508180612a4190613b07565b9250505b80612a4f81613b07565b915050612509565b50909250505090565b60015460405163e165af8760e01b81526000916001600160a01b03169063e165af8790612a91903390600401613562565b602060405180830381600087803b158015612aab57600080fd5b505af1158015612abf573d6000803e3d6000fd5b505050506040513d601f19601f82011682018060405250810190612ae39190613238565b905080612b025760405162461bcd60e51b81526004016104ba90613896565b6000828152600b60205260408120600e01805460ff191660011790555b600d54811015612c0e5782600d8281548110612b4b57634e487b7160e01b600052603260045260246000fd5b90600052602060002001541415612bfc57600d8054612b6c90600190613a85565b81548110612b8a57634e487b7160e01b600052603260045260246000fd5b9060005260206000200154600d8281548110612bb657634e487b7160e01b600052603260045260246000fd5b600091825260209091200155600d805480612be157634e487b7160e01b600052603160045260246000fd5b60019003818190600052602060002001600090559055612c0e565b80612c0681613b07565b915050612b1f565b507f339a5d26292b459dbd1a911e53069f56bd3610e5ca60a312043fc90189c388bf8260405161055b9190613940565b60009182526006602090815260408084206001600160a01b03939093168452919052902054151590565b815460005b81811015612d555782848281548110612c9657634e487b7160e01b600052603260045260246000fd5b90600052602060002001541415612d435783612cb3600184613a85565b81548110612cd157634e487b7160e01b600052603260045260246000fd5b9060005260206000200154848281548110612cfc57634e487b7160e01b600052603260045260246000fd5b906000526020600020018190555083805480612d2857634e487b7160e01b600052603160045260246000fd5b60019003818190600052602060002001600090559055612d55565b80612d4d81613b07565b915050612c6d565b507f4123b8593921204d03aef906a5c03ba57573a7047a66d722874a923b6e0e4b7d82604051612d859190613940565b60405180910390a1505050565b6000806000600a8460000151604051612dab9190613546565b90815260200160405180910390208460200151604051612dcb9190613546565b90815260200160405180910390208460400151604051612deb9190613546565b90815260200160405180910390208460600151604051612e0b9190613546565b90815260200160405180910390208460800151604051612e2b9190613546565b90815260408051918290036020908101832060a0880151600090815291522060c08601519091612e5b9190613546565b90815260200160405180910390205490508060001415612e82576000809250925050612e89565b6001925090505b915091565b604080516101408101825260008082526020820152908101612eae612fc2565b815260200160008152602001600081526020016000815260200160008152602001606081526020016000151581526020016000151581525090565b828054612ef590613acc565b90600052602060002090601f016020900481019282612f175760008555612f5d565b82601f10612f3057805160ff1916838001178555612f5d565b82800160010185558215612f5d579182015b82811115612f5d578251825591602001919060010190612f42565b50612f69929150612fff565b5090565b828054828255906000526020600020908101928215612f5d579160200282015b82811115612f5d57825182546001600160a01b0319166001600160a01b03909116178255602090920191600190910190612f8d565b6040518060e00160405280606081526020016060815260200160608152602001606081526020016060815260200160008152602001606081525090565b5b80821115612f695760008155600101613000565b80356001600160a01b0381168114610c9c57600080fd5b600082601f83011261303b578081fd5b8135602067ffffffffffffffff82111561305757613057613b38565b808202613065828201613a5b565b83815282810190868401838801850189101561307f578687fd5b8693505b858410156130a85761309481613014565b835260019390930192918401918401613083565b50979650505050505050565b8035610c9c81613b4e565b600082601f8301126130cf578081fd5b813567ffffffffffffffff8111156130e9576130e9613b38565b6130fc601f8201601f1916602001613a5b565b818152846020838601011115613110578283fd5b816020850160208301379081016020019190915292915050565b600060e0828403121561313b578081fd5b61314560e0613a5b565b9050813567ffffffffffffffff8082111561315f57600080fd5b61316b858386016130bf565b8352602084013591508082111561318157600080fd5b61318d858386016130bf565b602084015260408401359150808211156131a657600080fd5b6131b2858386016130bf565b604084015260608401359150808211156131cb57600080fd5b6131d7858386016130bf565b606084015260808401359150808211156131f057600080fd5b6131fc858386016130bf565b608084015260a084013560a084015260c084013591508082111561321f57600080fd5b5061322c848285016130bf565b60c08301525092915050565b600060208284031215613249578081fd5b815161325481613b4e565b9392505050565b60006020828403121561326c578081fd5b813567ffffffffffffffff811115613282578182fd5b61328e8482850161312a565b949350505050565b6000602082840312156132a7578081fd5b813567ffffffffffffffff808211156132be578283fd5b81840191506101408083870312156132d4578384fd5b6132dd81613a5b565b9050823581526132ef60208401613014565b6020820152604083013582811115613305578485fd5b6133118782860161312a565b604083015250606083013560608201526080830135608082015260a083013560a082015260c083013560c082015260e083013582811115613350578485fd5b61335c8782860161302b565b60e08301525061010091506133728284016130b4565b8282015261012091506133868284016130b4565b91810191909152949350505050565b6000602082840312156133a6578081fd5b5035919050565b600080604083850312156133bf578081fd5b823591506133cf60208401613014565b90509250929050565b600080604083850312156133ea578182fd5b50508035926020909101359150565b6001600160a01b03169052565b6000815180845260208085019450808401835b8381101561343e5781516001600160a01b031687529582019590820190600101613419565b509495945050505050565b15159052565b6005811061346d57634e487b7160e01b600052602160045260246000fd5b9052565b60008151808452613489816020860160208601613a9c565b601f01601f19169290920160200192915050565b6000815160e084526134b260e0850182613471565b9050602083015184820360208601526134cb8282613471565b915050604083015184820360408601526134e58282613471565b915050606083015184820360608601526134ff8282613471565b915050608083015184820360808601526135198282613471565b91505060a083015160a085015260c083015184820360c086015261353d8282613471565b95945050505050565b60008251613558818460208701613a9c565b9190910192915050565b6001600160a01b0391909116815260200190565b6000602082526132546020830184613406565b60208082528251828201819052600091906040908185019080840286018301878501865b8381101561367257603f19898403018552815161014081518552888201516135d78a8701826133f9565b508782015181898701526135ed8287018261349d565b606084810151908801526080808501519088015260a0808501519088015260c0808501519088015260e080850151888303828a015291935091506136318382613406565b925050506101008083015161364882880182613449565b5050610120918201519161365e86820184613449565b5095880195935050908601906001016135ad565b509098975050505050505050565b6020808252825182820181905260009190848201906040850190845b818110156136b85783518352928401929184019160010161369c565b50909695505050505050565b901515815260200190565b60208101611559828461344f565b6020808252601490820152734c616e64206973206e6f7420666f722073616c6560601b604082015260600190565b60208082526025908201527f4c616e64206973206e6f742063757272656e746c79206c697374656420666f726040820152642073616c6560d81b606082015260800190565b60208082526026908201527f4f6e6c79206f776e65722063616e20706572666f726d2074686973206f70657260408201526530ba34b7b71760d11b606082015260800190565b602080825260169082015275496e76616c696420726571756573742073746174757360501b604082015260600190565b60208082526010908201526f7061796d656e74206e6f7420646f6e6560801b604082015260600190565b602080825260119082015270125b9d985b1a59081c995c5d595cdd1259607a1b604082015260600190565b60208082526033908201527f43616e6e6f742063616e63656c2e2052657175657374206973206e6f7420696e6040820152722027726571756573746564272073746174757360681b606082015260800190565b6020808252600e908201526d13185b99081b9bdd08199bdd5b9960921b604082015260600190565b60208082526027908201527f4f6e6c7920696e73706563746f722063616e20706572666f726d20746869732060408201526630b1ba34b7b71760c91b606082015260800190565b6020808252601b908201527f4e6f74207468652073656c6c6572206f662074686973206c616e640000000000604082015260600190565b602080825260129082015271125b9d985b1a59081c995c5d595cdd08125160721b604082015260600190565b90815260200190565b9182526001600160a01b0316602082015260400190565b9283526001600160a01b03918216602084015216604082015260600190565b9384526001600160a01b03928316602085015291166040830152606082015260800190565b8681526001600160a01b038681166020830152851660408201526060810184905260c081016139d6608083018561344f565b82151560a0830152979650505050505050565b8981526001600160a01b038916602082015261012060408201819052600090613a148382018b61349d565b60608401999099525050608081019590955260a085019390935260c0840191909152151560e08301521515610100909101529392505050565b918252602082015260400190565b60405181810167ffffffffffffffff81118282101715613a7d57613a7d613b38565b604052919050565b600082821015613a9757613a97613b22565b500390565b60005b83811015613ab7578181015183820152602001613a9f565b83811115613ac6576000848401525b50505050565b600281046001821680613ae057607f821691505b60208210811415613b0157634e487b7160e01b600052602260045260246000fd5b50919050565b6000600019821415613b1b57613b1b613b22565b5060010190565b634e487b7160e01b600052601160045260246000fd5b634e487b7160e01b600052604160045260246000fd5b8015158114610c8657600080fdfea26469706673582212204b5b4bda2e3c646b4117e1501b7d711a645bc8582990f1712cad43cd0e46cc2b64736f6c63430008000033",
  "immutableReferences": {},
  "source": "// SPDX-License-Identifier: UNLICENSED\r\n\r\npragma solidity ^0.8.0;\r\n\r\nimport \"./registerAccount-contract.sol\";\r\n\r\ninterface IAccountRegistration {\r\n    function checkUserVerified(address _account) external returns (bool);\r\n    function isLandInspector(address _account) external returns (bool);\r\n}\r\n\r\ncontract LandRegistration {\r\n\r\n    //Address which deployed this smart contract\r\n    address public deployer;\r\n    //AccountRegistration Contract\r\n    address public accountRegistrationContract;\r\n\r\n    constructor(address _accountRegistrationContract) {\r\n        deployer = msg.sender;\r\n        accountRegistrationContract = _accountRegistrationContract;\r\n    }\r\n\r\n    struct LandIdentifier {\r\n        /*\r\n            Fields needed to identify the piece of land\r\n            A state has divisions.\r\n            Each division has districts.\r\n            Each district has talukas.\r\n            Each taluka has villages.\r\n            A land parcel under this hierarchy is identified using\r\n            a survey number.\r\n            Shall this land be divided at a later point, its sub-divisions\r\n            are represented using a sub-division number.\r\n            All divisions in Maharashtra can be found in the link below:\r\n            http://www.landsofmaharashtra.com/divisionsofmaharashtra.html \r\n        */\r\n        string state;\r\n        string division;\r\n        string district;\r\n        string taluka;\r\n        string village;\r\n        uint surveyNumber;\r\n        string subdivision;\r\n    }\r\n\r\n    struct LandRecord {\r\n        uint landId;\r\n        //Address of the account(person) that owns this piece of land\r\n        /* \r\n            Note: There can be multiple owners of a single piece of land.\r\n            This is being ignored for now.\r\n        */\r\n        address owner;\r\n\r\n        LandIdentifier identifier;\r\n\r\n        uint area;\r\n\r\n        //Represented as UNIX Time\r\n        uint purchaseDate;\r\n        //Price at which the land was purchased.\r\n        uint purchasePrice;\r\n        //Estimated value of land at the time of purchase\r\n        uint landValueAtPurchase;\r\n\r\n        //A list of the previous owners of this piece of land. \r\n        address[] previousOwners;\r\n\r\n        /*\r\n            If a piece of land is entering the system for the first time,\r\n            it must be verified by an inspector.\r\n        */\r\n        bool isVerified;\r\n        bool isForSale;\r\n    }\r\n\r\n    //Event to be emitted after adding a land record\r\n    event LandRecordAdded(uint landId);\r\n    //Event to be emitted if the land record already exists\r\n    event LandRecordExists(uint landId);\r\n    //Event to be emitted when land is listed for sale\r\n    event LandListedForSale(uint landId);\r\n\r\n    event LandRequests(uint requestId, address landOwner, address buyer, uint landId, reqStatus status, bool someFlag);\r\n    event LandRequestCancelled(uint requestId);\r\n    event PaymentMarkedAsDone(uint requestId, uint landId);\r\n    event LandOwnershipTransferred(uint landId, address oldOwner, address newOwner);\r\n\r\n    //Event to be emitted after land verification request has been sent\r\n    event LandVerificationRequestSubmitted (uint landId);\r\n    //Event to be emitted if land verification request already exists\r\n    event LandVerificationRequestExists (uint landId);\r\n    //Event to be emitted if land is already verified\r\n    event LandAlreadyVerified (uint landId);\r\n    //Event to be emitted when the land is verified by an inspector\r\n    event LandVerified(uint landId);\r\n\r\n     // Event to be emitted when a user tries to request to buy the same land twice\r\n    event DuplicateLandRequest(uint landId, address buyer);\r\n\r\n       // Event to be emitted when a buyer cancels their request to buy a land\r\n    event BuyerRequestCancelled(uint requestId, address seller, address buyer, uint landId);\r\n\r\n    // Event to be emitted when a buyer tries to cancel the same request more than once\r\n    event DuplicateCancellationAttempt(address buyer, uint landId);\r\n\r\n    // Declare an event for acceptance of a request\r\nevent RequestAccepted(uint indexed requestId, address indexed seller, address indexed buyer);\r\n// Declare an event for rejection of a request\r\nevent RequestRejected(uint indexed requestId, address indexed seller, address indexed buyer);\r\n\r\n//A structure that represents the Land requests made by buyer to seller along with the status of the request\r\n     struct LandRequest {\r\n        uint reqId;\r\n        address sellerId;\r\n        address buyerId;\r\n        uint landId;\r\n        reqStatus requestStatus;\r\n        bool isPaymentDone;\r\n    }\r\n\r\n    //An enumeration that shows different stages of the request\r\n    enum reqStatus {requested,accepted,rejected,paymentdone,completed}\r\n\r\n\r\n//Mapping to different lists and LandRequest\r\n    mapping(uint => LandRequest) public LandRequestMapping;\r\n    mapping(address => uint[])  MyReceivedLandRequests;\r\n    mapping(address => uint[])  MySentLandRequests;\r\n    mapping(address => uint[])  MyLands;\r\n\r\n// A mapping between land ID, buyer address, and request ID\r\n    mapping(uint => mapping(address => uint)) public landToBuyerToRequest;\r\n    \r\n    //List containing all the lands that are added\r\n    uint[] allLandList;\r\n\r\n    \r\n\r\n    uint256 requestCount;\r\n\r\n\r\n    uint public landRecordsCount = 1;\r\n\r\n    modifier onlyOwner(uint _landId) {\r\n        require(\r\n            msg.sender == landMapping[_landId].owner,\r\n            \"Only owner can perform this operation.\"\r\n        );\r\n        _;\r\n    }\r\n\r\n    modifier onlylInspector() {\r\n        //Call the isInspector function from the accountRegistration contract\r\n        bool isInspector = IAccountRegistration(\r\n            accountRegistrationContract\r\n        ).isLandInspector(msg.sender);\r\n\r\n        require(isInspector, \"Only inspector can perform this action.\");\r\n        _;\r\n    }\r\n\r\n    modifier onlyRegisteredUser() {\r\n        //Call the isVerified function from the accountRegistration contract\r\n        bool isRegisteredUser = IAccountRegistration(\r\n            accountRegistrationContract\r\n        ).checkUserVerified(msg.sender);\r\n\r\n        require(isRegisteredUser, \"Only registered user can perform this action.\");\r\n        _;\r\n    }\r\n\r\n    modifier onlyVerifiedLand(uint _landId) {\r\n        require(\r\n            landMapping[_landId].isVerified == true,\r\n            \"Only verified lands can be put up for sale.\"\r\n        );\r\n        _;\r\n    }\r\n\r\n    /*\r\n        Mapping of land records by hierarchy. Mapping is as follows:\r\n        state => {\r\n            division => {\r\n                district => {\r\n                    taluka => {\r\n                        village => {\r\n                            survery number => {\r\n                                subdivision => id\r\n                            }\r\n                        }\r\n                    }\r\n                }\r\n            }\r\n        }\r\n        This mapping will be useful for efficient retrieval of land id.\r\n     */\r\n    \r\n    mapping(\r\n        string => mapping(\r\n            string => mapping(\r\n                string => mapping(\r\n                    string => mapping(\r\n                        string => mapping(\r\n                            uint => mapping(\r\n                                string => uint\r\n                            )\r\n                        )\r\n                    )\r\n                )\r\n            )\r\n        )\r\n    )landMapToId;\r\n\r\n    //Mapping of land ids to land records.\r\n    mapping(uint => LandRecord) public landMapping;\r\n\r\n    //A list of land ids which have been marked for sale\r\n    uint[] landsForSale;\r\n\r\n    //A list of lands which are to be verified by an inspector\r\n    uint[] verificationRequired;\r\n\r\n    //Function to submit a land verification request\r\n    function landVerificationRequest(uint _landId) public onlyOwner(_landId) {\r\n        //Land is already verified\r\n        if(landMapping[_landId].isVerified) {\r\n            emit LandAlreadyVerified(_landId);\r\n            return;\r\n        } \r\n        //Check if land verification request already exists.\r\n        for(uint i = 0; i < verificationRequired.length; i++) {\r\n            if(verificationRequired[i] == _landId) {\r\n                emit LandVerificationRequestExists(_landId);\r\n                return;\r\n            }\r\n        }\r\n        //Add request to the list of pending verifications\r\n        verificationRequired.push(_landId);\r\n        emit LandVerificationRequestSubmitted(_landId);\r\n    }\r\n\r\n    function getPendingLandVerificationRequests() public view returns (uint[] memory){\r\n        return verificationRequired;\r\n    }\r\n\r\n    function landRecordExists(LandIdentifier memory _record) \r\n                                private view returns (bool, uint) {\r\n        uint landId = landMapToId[_record.state][_record.division]\r\n                                [_record.district][_record.taluka]\r\n                                [_record.village][_record.surveyNumber][_record.subdivision];\r\n        if (landId == 0) {\r\n            return (false, 0);\r\n        }\r\n        return (true, landId);\r\n    }\r\n\r\n    //This function is used to add a land record\r\n    function addLandRecord  (LandRecord memory _record) public \r\n                             returns (uint) {\r\n\r\n        (bool recordExists, uint landId) = landRecordExists(_record.identifier);\r\n\r\n        //If land record already exists, return the land id\r\n        if (recordExists) {\r\n            emit LandRecordExists(landId);\r\n            return landId;\r\n        }\r\n\r\n        _record.landId = landRecordsCount;\r\n        _record.isVerified = false;\r\n        _record.isForSale = false;\r\n        //If the land record doesn't already exist, add it to the mapping\r\n        //and return land id\r\n        landMapping[landRecordsCount] = _record;\r\n\r\n        //Also add it to the landMapToId mapping\r\n        landMapToId[_record.identifier.state][_record.identifier.division]\r\n        [_record.identifier.district][_record.identifier.taluka]\r\n        [_record.identifier.village][_record.identifier.surveyNumber]\r\n        [_record.identifier.subdivision] = landRecordsCount;\r\n\r\n        uint addedLandId = landRecordsCount;\r\n        allLandList.push(addedLandId);\r\n        landRecordsCount++;\r\n\r\n        //Add to the accounts list of lands\r\n        MyLands[msg.sender].push(addedLandId);\r\n        emit LandRecordAdded(addedLandId);\r\n        return addedLandId;\r\n    }\r\n\r\n    // Function to remove land by landId\r\n    function removeLand(uint256 landId) public{\r\n        uint256[] storage lands = MyLands[msg.sender];\r\n\r\n        // Search for the landId in the array\r\n        for (uint256 i = 0; i < lands.length; i++) {\r\n            if (lands[i] == landId) {\r\n                // Remove the landId from the array\r\n                lands[i] = lands[lands.length - 1];\r\n                lands.pop();\r\n\r\n\r\n                break;\r\n            }\r\n        }\r\n    }\r\n    \r\n\r\n    //Get land id\r\n    function getLandId(LandIdentifier memory _identifier) public view returns (uint){\r\n        return landMapToId[_identifier.state][_identifier.division]\r\n        [_identifier.district][_identifier.taluka][_identifier.village]\r\n        [_identifier.surveyNumber][_identifier.subdivision];\r\n    }\r\n\r\n    //Function to approve a land verification request\r\n    function verifyLand(uint _landId) public onlylInspector {\r\n        //Set the status of the land to verified\r\n        landMapping[_landId].isVerified = true;\r\n\r\n        //Remove land id from the verificationRequired list\r\n        for(uint i = 0; i < verificationRequired.length; i++) {\r\n            if(verificationRequired[i] == _landId) {\r\n                verificationRequired[i] = verificationRequired[verificationRequired.length - 1];\r\n                verificationRequired.pop();\r\n                break;\r\n            }\r\n        }\r\n        emit LandVerified(_landId);\r\n    }\r\n\r\n    //List land for sale\r\n    function listLandForSale(uint _landId) public onlyOwner(_landId) {\r\n        //Check if land actually exists\r\n        //Mapping in solidity always exists and maps to a zero value\r\n        //Hence, this check is needed.\r\n        require(landMapping[_landId].landId > 0);\r\n\r\n        //Mark the land for Sale\r\n        landMapping[_landId].isForSale = true;\r\n\r\n        //Add the land to the landsForSale list\r\n        landsForSale.push(_landId);\r\n\r\n        emit LandListedForSale(_landId);\r\n    }\r\n\r\n // Function where a buyer can request and show interest in buying a land\r\n    function requestForBuy(uint _landId) public  {\r\n        require(landMapping[_landId].isForSale, \"Land is not for sale\");\r\n\r\n        // Check if the buyer has already requested to buy this land before\r\n        if (hasBuyerAlreadyRequested(_landId, msg.sender)) {\r\n            // Emit the DuplicateLandRequest event and revert the transaction\r\n            emit DuplicateLandRequest(_landId, msg.sender);\r\n        }\r\n        else\r\n        {\r\n\r\n        requestCount++;\r\n        LandRequestMapping[requestCount] = LandRequest(requestCount, landMapping[_landId].owner, msg.sender, _landId, reqStatus.requested, false);\r\n        MyReceivedLandRequests[landMapping[_landId].owner].push(requestCount);\r\n        MySentLandRequests[msg.sender].push(requestCount);\r\n\r\n        // Update the mapping between land ID, buyer address, and request ID\r\n        landToBuyerToRequest[_landId][msg.sender] = requestCount;\r\n\r\n        emit LandRequests(requestCount, landMapping[_landId].owner, msg.sender, _landId, reqStatus.requested, false);\r\n        }\r\n    }\r\n\r\n    \r\n    // Function to check if a buyer has already requested to buy a specific land\r\n    function hasBuyerAlreadyRequested(uint _landId, address _buyer) internal view returns (bool) {\r\n        return landToBuyerToRequest[_landId][_buyer] > 0;\r\n    }\r\n\r\n    // Function to cancel a buyer's request for a land\r\nfunction cancelBuyerRequest(uint _landId) public  {\r\n    require(landMapping[_landId].isForSale, \"Land is not for sale\");\r\n\r\n        // Check if the buyer has requested for this land\r\n        if (hasBuyerAlreadyRequested(_landId, msg.sender)) {\r\n            uint requestId = landToBuyerToRequest[_landId][msg.sender];\r\n\r\n            // // Check if the request is still in the 'requested' status\r\n             require(LandRequestMapping[requestId].requestStatus == reqStatus.requested, \"Cannot cancel. Request is not in 'requested' status\");\r\n\r\n\r\n            LandRequestMapping[requestId].requestStatus == reqStatus.rejected;\r\n\r\n            // Remove the request from MyReceivedLandRequests and MySentLandRequests lists\r\n            removeRequestFromList(MyReceivedLandRequests[landMapping[_landId].owner], requestId);\r\n            removeRequestFromList(MySentLandRequests[msg.sender], requestId);\r\n\r\n            // Update the mapping between land ID, buyer address, and request ID\r\n            delete landToBuyerToRequest[_landId][msg.sender];\r\n\r\n            // Emit the BuyerRequestCancelled event\r\n             emit BuyerRequestCancelled(requestId, landMapping[_landId].owner, msg.sender, _landId);\r\n            }\r\n\r\n}\r\n\r\n// Add a new function to retrieve the status of land requests for a specific land\r\nfunction getLandRequestStatus(uint _landId, address _buyer) public view returns (reqStatus) {\r\n    uint requestId = landToBuyerToRequest[_landId][_buyer];\r\n    if (requestId > 0) {\r\n        return LandRequestMapping[requestId].requestStatus;\r\n    }\r\n    return reqStatus.requested; // Default to requested if no request found\r\n}\r\n\r\n// Internal function to remove a request ID from a list\r\nfunction removeRequestFromList(uint[] storage requestList, uint requestId) internal {\r\n    uint len = requestList.length;\r\n    for (uint i = 0; i < len; i++) {\r\n        if (requestList[i] == requestId) {\r\n            requestList[i] = requestList[len - 1];\r\n            requestList.pop();\r\n            break;\r\n        }\r\n    }\r\n\r\n    // Emit the LandRequestCancelled event\r\n        emit LandRequestCancelled(requestId);\r\n}\r\n\r\n// Function that will return a list of received land requests buyers interested for a particular land\r\nfunction receivedLandRequests() public view returns (uint[] memory) {\r\n    \r\n    return MyReceivedLandRequests[msg.sender];\r\n}\r\n//Function that will return a list of buyers interested for a particular land and have sent requests\r\nfunction sentLandRequests() public view returns(uint[] memory)\r\n{\r\n    return MySentLandRequests[msg.sender];\r\n}\r\n\r\n// Add a new function to get land ID for a given request ID\r\nfunction getLandIdForRequest(uint _requestId) public view returns (uint) {\r\n    return LandRequestMapping[_requestId].landId;\r\n}\r\n\r\n\r\n// Function to get the buyer address for a given request ID\r\nfunction getBuyerAddressForRequest(uint _requestId) public view returns (address) {\r\n    require(_requestId > 0 && _requestId <= requestCount, \"Invalid request ID\");\r\n\r\n    return LandRequestMapping[_requestId].buyerId;\r\n}\r\n\r\n// Function where seller accepts the request of the buyer\r\n    function acceptRequest(uint _requestId) public {\r\n        require(LandRequestMapping[_requestId].sellerId == msg.sender, \"Not the seller of this land\");\r\n        require(LandRequestMapping[_requestId].requestStatus == reqStatus.requested, \"Invalid request status\");\r\n\r\n        // Update the request status\r\n        LandRequestMapping[_requestId].requestStatus = reqStatus.accepted;\r\n   \r\n    }\r\n\r\n//Function where seller rejects the request of the buyer\r\n    function rejectRequest(uint _requestId) public \r\n    {\r\n        require(LandRequestMapping[_requestId].sellerId == msg.sender, \"Not the seller of this land\");\r\n        require(LandRequestMapping[_requestId].requestStatus == reqStatus.requested, \"Invalid request status\");\r\n\r\n        LandRequestMapping[_requestId].requestStatus=reqStatus.rejected;\r\n\r\n\r\n    // Remove the request from MyReceivedLandRequests and MySentLandRequests lists\r\n    removeRequestFromList(MyReceivedLandRequests[LandRequestMapping[_requestId].sellerId ], _requestId);\r\n    removeRequestFromList(MySentLandRequests[LandRequestMapping[_requestId].buyerId], _requestId);\r\n\r\n       // Emit the RequestRejected event\r\n    emit RequestRejected(_requestId, msg.sender, LandRequestMapping[_requestId].buyerId);\r\n\r\n\r\n     // Update the mapping between land ID, buyer address, and request ID\r\n        delete landToBuyerToRequest[LandRequestMapping[_requestId].landId][LandRequestMapping[_requestId].buyerId];\r\n\r\n\r\n     // Delete the request entry\r\n        delete LandRequestMapping[_requestId];\r\n    }\r\n\r\n    // Function to get the request ID for a given land ID\r\nfunction getRequestForLandId(uint _landId, address _buyer) public view returns (uint) {\r\n    uint requestId = landToBuyerToRequest[_landId][_buyer];\r\n\r\n    // Check if the request ID is greater than 0, indicating a valid request\r\n    if (requestId > 0) {\r\n        return requestId;\r\n    }\r\n\r\n    // Return 0 if no valid request exists\r\n    return 0;\r\n}\r\n\r\n\r\n \r\n//Function to mark payment as done\r\nfunction markPaymentAsDone(uint _requestId, uint _landId) public  {\r\n    require(LandRequestMapping[_requestId].sellerId == msg.sender, \"Not the seller of this land\");\r\n    require(LandRequestMapping[_requestId].requestStatus == reqStatus.accepted, \"Invalid request status\");\r\n    require(landMapping[_landId].isForSale, \"Land is not for sale\");\r\n\r\n    // Ensure the provided requestId is valid\r\n    require(_requestId > 0, \"Invalid requestId\");\r\n\r\n\r\n    // Mark payment as done\r\n    LandRequestMapping[_requestId].isPaymentDone = true;\r\n    LandRequestMapping[_requestId].requestStatus=reqStatus.paymentdone;\r\n\r\n\r\n    // Emit the PaymentMarkedAsDone event\r\n    emit PaymentMarkedAsDone(_requestId, _landId);\r\n}\r\n//Function to check the status of payment\r\n    function requestStatus(uint requestId) public view returns(bool)\r\n    {\r\n        return LandRequestMapping[requestId].isPaymentDone;\r\n    }\r\n\r\n// Function to get the owner's address for a given land ID\r\nfunction getOwnerAddress(uint _landId) public view returns (address) {\r\n    require(landMapping[_landId].landId > 0, \"Land not found\");\r\n    return landMapping[_landId].owner;\r\n}\r\n\r\n// Function to remove a land from sale\r\nfunction removeLandFromSale(uint _landId) public {\r\n    // Check if the land is currently listed for sale\r\n    require(landMapping[_landId].isForSale, \"Land is not currently listed for sale\");\r\n\r\n    // Mark the land as not for sale\r\n    landMapping[_landId].isForSale = false;\r\n\r\n    // Remove the land ID from the landsforsale list\r\n    for (uint i = 0; i < landsForSale.length; i++) {\r\n        if (landsForSale[i] == _landId) {\r\n            // Swap with the last element and pop\r\n            landsForSale[i] = landsForSale[landsForSale.length - 1];\r\n            landsForSale.pop();\r\n            break;\r\n        }\r\n    }\r\n\r\n}\r\n\r\n\r\n// Function to transfer land ownership\r\nfunction transferLandOwnership(uint _requestId) public {\r\n       require(LandRequestMapping[_requestId].sellerId == msg.sender, \"Not the seller of this land\");\r\n    require(LandRequestMapping[_requestId].requestStatus == reqStatus.paymentdone, \"payment not done\");\r\n    \r\n    uint landId = LandRequestMapping[_requestId].landId;\r\n    address oldOwner = landMapping[landId].owner;\r\n    address newOwner = LandRequestMapping[_requestId].buyerId;\r\n\r\n    // Update the owner of the land\r\n    landMapping[landId].owner = newOwner;\r\n\r\n    // Remove the land from landsForSale list\r\n    landMapping[landId].isForSale = false;\r\n\r\n       //Add to the accounts list of lands\r\n        MyLands[newOwner].push(landId);\r\n\r\n      // Remove the land from landsforsale list if it was listed for sale\r\n    if (landMapping[landId].isForSale) {\r\n        removeLandFromSale(landId);\r\n    }\r\n\r\n    \r\n    // Store the previous owner's address in the array\r\n    landMapping[landId].previousOwners.push(oldOwner);\r\n\r\n    LandRequestMapping[_requestId].requestStatus= reqStatus.completed;\r\n       // Remove the land from the seller's owned lands\r\n        removeLand(landId);\r\n  \r\n\r\n\r\n    // Remove the mapping when the land ownership is transferred\r\n       // delete landToBuyerToRequest[landId][newOwner];\r\n\r\n    // Remove the request from MyReceivedLandRequests and MySentLandRequests lists\r\n    // removeRequestFromList(MyReceivedLandRequests[LandRequestMapping[_requestId].sellerId ], _requestId);\r\n    // removeRequestFromList(MySentLandRequests[LandRequestMapping[_requestId].buyerId], _requestId);\r\n\r\n      // Delete the request entry\r\n    //delete LandRequestMapping[_requestId];\r\n\r\n\r\n    // Emit the LandOwnershipTransferred event\r\n    emit LandOwnershipTransferred(landId, oldOwner, newOwner);\r\n}\r\n\r\n\r\n// Function to get the previous owners of a land\r\nfunction getPreviousOwners(uint _landId) public view returns (address[] memory) {\r\n    require(landMapping[_landId].landId > 0, \"Land not found\");\r\n    return landMapping[_landId].previousOwners;\r\n}\r\n\r\n\r\n\r\n\r\n    //Get all land ids which have been listed for sale\r\n    //except the lands listed for sale by the caller\r\n    function getLandsForSale() public view returns (LandRecord[] memory) {\r\n        uint count = 0;\r\n        for(uint i = 0; i < landsForSale.length; i++) {\r\n            if(landMapping[landsForSale[i]].owner != msg.sender) {\r\n                count++;\r\n            }\r\n        }\r\n\r\n        LandRecord[] memory result = new LandRecord[](count);\r\n\r\n        uint resultIndex = 0;\r\n\r\n        for(uint i = 0; i < landsForSale.length; i++) {\r\n            if(landMapping[landsForSale[i]].owner != msg.sender) {\r\n                result[resultIndex] = landMapping[landsForSale[i]];\r\n                resultIndex++;\r\n            }\r\n        }\r\n        return result;\r\n    }\r\n\r\n\r\n\r\n    function getMyLands() public view returns(LandRecord[] memory) {\r\n        LandRecord[] memory result = new LandRecord[](MyLands[msg.sender].length);\r\n\r\n        for(uint i = 0; i < MyLands[msg.sender].length; i++) {\r\n            result[i] = landMapping[MyLands[msg.sender][i]];\r\n        }\r\n        return result;\r\n    }\r\n\r\n//Function that returns a list of all lands\r\n    function ReturnAllLandList() public view returns(uint[] memory)\r\n    {\r\n        return allLandList;\r\n    }\r\n}\r\n\r\n\r\n",
  "sourcePath": "C:\\Users\\DELL\\OneDrive\\Documents\\FYP\\Decentralizsed-Land-Registration\\contracts\\land-contract.sol",
  "compiler": {
    "name": "solc",
    "version": "0.8.0+commit.c7dfd78e.Emscripten.clang"
  },
  "schemaVersion": "3.4.16",
  "updatedAt": "2024-01-27T16:32:03.133Z",
  "networkType": "ethereum",
  "devdoc": {
    "kind": "dev",
    "methods": {},
    "version": 1
  },
  "userdoc": {
    "kind": "user",
    "methods": {},
    "version": 1
  }
}