{
  "contractName": "AccountRegistration",
  "abi": [
    {
      "inputs": [],
      "stateMutability": "nonpayable",
      "type": "constructor"
    },
    {
      "inputs": [
        {
          "internalType": "uint256",
          "name": "",
          "type": "uint256"
        }
      ],
      "name": "aadharToUser",
      "outputs": [
        {
          "internalType": "address",
          "name": "",
          "type": "address"
        }
      ],
      "stateMutability": "view",
      "type": "function",
      "constant": true
    },
    {
      "inputs": [],
      "name": "deployer",
      "outputs": [
        {
          "internalType": "address",
          "name": "",
          "type": "address"
        }
      ],
      "stateMutability": "view",
      "type": "function",
      "constant": true
    },
    {
      "inputs": [
        {
          "internalType": "uint256",
          "name": "",
          "type": "uint256"
        }
      ],
      "name": "pendingVerifications",
      "outputs": [
        {
          "internalType": "address",
          "name": "user",
          "type": "address"
        },
        {
          "internalType": "uint256",
          "name": "aadharNumber",
          "type": "uint256"
        }
      ],
      "stateMutability": "view",
      "type": "function",
      "constant": true
    },
    {
      "inputs": [
        {
          "internalType": "uint256",
          "name": "",
          "type": "uint256"
        }
      ],
      "name": "userAccounts",
      "outputs": [
        {
          "internalType": "string",
          "name": "username",
          "type": "string"
        },
        {
          "internalType": "bool",
          "name": "isUserVerified",
          "type": "bool"
        },
        {
          "internalType": "uint8",
          "name": "designation",
          "type": "uint8"
        },
        {
          "internalType": "uint256",
          "name": "registrationDate",
          "type": "uint256"
        },
        {
          "internalType": "uint256",
          "name": "aadharNumber",
          "type": "uint256"
        }
      ],
      "stateMutability": "view",
      "type": "function",
      "constant": true
    },
    {
      "inputs": [
        {
          "internalType": "uint256",
          "name": "",
          "type": "uint256"
        }
      ],
      "name": "userAccountsByAadharNumber",
      "outputs": [
        {
          "internalType": "string",
          "name": "username",
          "type": "string"
        },
        {
          "internalType": "bool",
          "name": "isUserVerified",
          "type": "bool"
        },
        {
          "internalType": "uint8",
          "name": "designation",
          "type": "uint8"
        },
        {
          "internalType": "uint256",
          "name": "registrationDate",
          "type": "uint256"
        },
        {
          "internalType": "uint256",
          "name": "aadharNumber",
          "type": "uint256"
        }
      ],
      "stateMutability": "view",
      "type": "function",
      "constant": true
    },
    {
      "inputs": [
        {
          "internalType": "address",
          "name": "",
          "type": "address"
        }
      ],
      "name": "userAccountsMap",
      "outputs": [
        {
          "internalType": "string",
          "name": "username",
          "type": "string"
        },
        {
          "internalType": "bool",
          "name": "isUserVerified",
          "type": "bool"
        },
        {
          "internalType": "uint8",
          "name": "designation",
          "type": "uint8"
        },
        {
          "internalType": "uint256",
          "name": "registrationDate",
          "type": "uint256"
        },
        {
          "internalType": "uint256",
          "name": "aadharNumber",
          "type": "uint256"
        }
      ],
      "stateMutability": "view",
      "type": "function",
      "constant": true
    },
    {
      "inputs": [],
      "name": "getPendingVerifications",
      "outputs": [
        {
          "components": [
            {
              "internalType": "address",
              "name": "user",
              "type": "address"
            },
            {
              "internalType": "uint256",
              "name": "aadharNumber",
              "type": "uint256"
            }
          ],
          "internalType": "struct AccountRegistration.PendingVerification[]",
          "name": "",
          "type": "tuple[]"
        }
      ],
      "stateMutability": "view",
      "type": "function",
      "constant": true
    },
    {
      "inputs": [
        {
          "internalType": "uint256",
          "name": "_aadharNumber",
          "type": "uint256"
        }
      ],
      "name": "requestVerification",
      "outputs": [],
      "stateMutability": "nonpayable",
      "type": "function"
    },
    {
      "inputs": [
        {
          "internalType": "uint256",
          "name": "_aadharNumber",
          "type": "uint256"
        }
      ],
      "name": "validateAadhar",
      "outputs": [
        {
          "internalType": "bool",
          "name": "",
          "type": "bool"
        }
      ],
      "stateMutability": "pure",
      "type": "function",
      "constant": true
    },
    {
      "inputs": [
        {
          "internalType": "uint256",
          "name": "_aadharNumber",
          "type": "uint256"
        }
      ],
      "name": "verifyAccount",
      "outputs": [],
      "stateMutability": "nonpayable",
      "type": "function"
    },
    {
      "inputs": [
        {
          "internalType": "string",
          "name": "_username",
          "type": "string"
        },
        {
          "internalType": "uint8",
          "name": "_designation",
          "type": "uint8"
        },
        {
          "internalType": "uint256",
          "name": "_aadharNumber",
          "type": "uint256"
        }
      ],
      "name": "setUserDetails",
      "outputs": [],
      "stateMutability": "nonpayable",
      "type": "function"
    },
    {
      "inputs": [
        {
          "internalType": "uint256",
          "name": "_aadharNumber",
          "type": "uint256"
        }
      ],
      "name": "getUserDetails",
      "outputs": [
        {
          "internalType": "string",
          "name": "",
          "type": "string"
        },
        {
          "internalType": "bool",
          "name": "",
          "type": "bool"
        },
        {
          "internalType": "uint8",
          "name": "",
          "type": "uint8"
        },
        {
          "internalType": "uint256",
          "name": "",
          "type": "uint256"
        },
        {
          "internalType": "uint256",
          "name": "",
          "type": "uint256"
        }
      ],
      "stateMutability": "view",
      "type": "function",
      "constant": true
    },
    {
      "inputs": [
        {
          "internalType": "address",
          "name": "_inspector",
          "type": "address"
        },
        {
          "internalType": "string",
          "name": "_username",
          "type": "string"
        },
        {
          "internalType": "uint256",
          "name": "_aadhar",
          "type": "uint256"
        }
      ],
      "name": "addLandInspector",
      "outputs": [],
      "stateMutability": "nonpayable",
      "type": "function"
    },
    {
      "inputs": [
        {
          "internalType": "address",
          "name": "_authority",
          "type": "address"
        },
        {
          "internalType": "string",
          "name": "_username",
          "type": "string"
        },
        {
          "internalType": "uint256",
          "name": "_aadhar",
          "type": "uint256"
        }
      ],
      "name": "addSecondLevelAuthority",
      "outputs": [],
      "stateMutability": "nonpayable",
      "type": "function"
    },
    {
      "inputs": [
        {
          "internalType": "address",
          "name": "_authority",
          "type": "address"
        }
      ],
      "name": "removeSecondLevelAuthority",
      "outputs": [],
      "stateMutability": "nonpayable",
      "type": "function"
    },
    {
      "inputs": [
        {
          "internalType": "address",
          "name": "_inspector",
          "type": "address"
        }
      ],
      "name": "removeLandInspector",
      "outputs": [],
      "stateMutability": "nonpayable",
      "type": "function"
    },
    {
      "inputs": [
        {
          "internalType": "address",
          "name": "_account",
          "type": "address"
        }
      ],
      "name": "isUserVerified",
      "outputs": [
        {
          "internalType": "bool",
          "name": "",
          "type": "bool"
        }
      ],
      "stateMutability": "view",
      "type": "function",
      "constant": true
    },
    {
      "inputs": [
        {
          "internalType": "address",
          "name": "_account",
          "type": "address"
        }
      ],
      "name": "isLandInspector",
      "outputs": [
        {
          "internalType": "bool",
          "name": "",
          "type": "bool"
        }
      ],
      "stateMutability": "view",
      "type": "function",
      "constant": true
    },
    {
      "inputs": [
        {
          "internalType": "address",
          "name": "_account",
          "type": "address"
        }
      ],
      "name": "isSecondLevelAuthority",
      "outputs": [
        {
          "internalType": "bool",
          "name": "",
          "type": "bool"
        }
      ],
      "stateMutability": "view",
      "type": "function",
      "constant": true
    },
    {
      "inputs": [
        {
          "internalType": "address",
          "name": "_account",
          "type": "address"
        }
      ],
      "name": "isDeployer",
      "outputs": [
        {
          "internalType": "bool",
          "name": "",
          "type": "bool"
        }
      ],
      "stateMutability": "view",
      "type": "function",
      "constant": true
    },
    {
      "inputs": [
        {
          "internalType": "address",
          "name": "_account",
          "type": "address"
        }
      ],
      "name": "grantLandInspectorStatus",
      "outputs": [],
      "stateMutability": "nonpayable",
      "type": "function"
    },
    {
      "inputs": [
        {
          "internalType": "address",
          "name": "_account",
          "type": "address"
        }
      ],
      "name": "grantSecondLevelAuthorityStatus",
      "outputs": [],
      "stateMutability": "nonpayable",
      "type": "function"
    }
  ],
  "bytecode": "0x60806040523480156200001157600080fd5b50336000806101000a81548173ffffffffffffffffffffffffffffffffffffffff021916908373ffffffffffffffffffffffffffffffffffffffff16021790555060016040518060a001604052806040518060400160405280600881526020017f4465706c6f7965720000000000000000000000000000000000000000000000008152508152602001600115158152602001600360ff168152602001428152602001600081525090806001815401808255809150506001900390600052602060002090600402016000909190919091506000820151816000019080519060200190620000ff929190620002ce565b5060208201518160010160006101000a81548160ff02191690831515021790555060408201518160010160016101000a81548160ff021916908360ff16021790555060608201518160020155608082015181600301555050600160008154811062000193577f4e487b7100000000000000000000000000000000000000000000000000000000600052603260045260246000fd5b9060005260206000209060040201600360003373ffffffffffffffffffffffffffffffffffffffff1673ffffffffffffffffffffffffffffffffffffffff1681526020019081526020016000206000820181600001908054620001f69062000416565b620002039291906200035f565b506001820160009054906101000a900460ff168160010160006101000a81548160ff0219169083151502179055506001820160019054906101000a900460ff168160010160016101000a81548160ff021916908360ff1602179055506002820154816002015560038201548160030155905050336004600080815260200190815260200160002060006101000a81548173ffffffffffffffffffffffffffffffffffffffff021916908373ffffffffffffffffffffffffffffffffffffffff1602179055506200047b565b828054620002dc9062000416565b90600052602060002090601f0160209004810192826200030057600085556200034c565b82601f106200031b57805160ff19168380011785556200034c565b828001600101855582156200034c579182015b828111156200034b5782518255916020019190600101906200032e565b5b5090506200035b9190620003f7565b5090565b8280546200036d9062000416565b90600052602060002090601f016020900481019282620003915760008555620003e4565b82601f10620003a45780548555620003e4565b82800160010185558215620003e457600052602060002091601f016020900482015b82811115620003e3578254825591600101919060010190620003c6565b5b509050620003f39190620003f7565b5090565b5b8082111562000412576000816000905550600101620003f8565b5090565b600060028204905060018216806200042f57607f821691505b602082108114156200044657620004456200044c565b5b50919050565b7f4e487b7100000000000000000000000000000000000000000000000000000000600052602260045260246000fd5b612f67806200048b6000396000f3fe608060405234801561001057600080fd5b50600436106101415760003560e01c806397f471f6116100b8578063d5f394881161007c578063d5f39488146103b5578063dfdcd54c146103d3578063e165af8714610403578063efa828da14610433578063f601385314610467578063f869d90d1461048357610141565b806397f471f614610315578063a2d01ded14610331578063a731374d1461034d578063a784cbbb14610369578063ace417e01461038557610141565b806344935afa1161010a57806344935afa1461021857806350c358a41461023457806355e9537614610264578063616d5058146102955780637517e00f146102c957806385cfd38c146102e557610141565b8062de2fab146101465780630c020f081461017a5780631c1a9f7b1461019657806329b1b274146101ca5780633e64f39b146101fa575b600080fd5b610160600480360381019061015b9190612466565b61049f565b604051610171959493929190612a38565b60405180910390f35b610194600480360381019061018f9190612466565b610577565b005b6101b060048036038101906101ab9190612466565b61067f565b6040516101c1959493929190612a38565b60405180910390f35b6101e460048036038101906101df9190612466565b610770565b6040516101f19190612a1d565b60405180910390f35b6102026107d0565b60405161020f91906129fb565b60405180910390f35b610232600480360381019061022d91906123ff565b61088f565b005b61024e6004803603810190610249919061236f565b610b76565b60405161025b9190612a1d565b60405180910390f35b61027e60048036038101906102799190612466565b610bd4565b60405161028c9291906129d2565b60405180910390f35b6102af60048036038101906102aa9190612466565b610c28565b6040516102c0959493929190612a38565b60405180910390f35b6102e360048036038101906102de919061236f565b610d10565b005b6102ff60048036038101906102fa9190612466565b610f57565b60405161030c91906129b7565b60405180910390f35b61032f600480360381019061032a9190612398565b610f8a565b005b61034b60048036038101906103469190612398565b61130e565b005b61036760048036038101906103629190612466565b611690565b005b610383600480360381019061037e919061236f565b611b18565b005b61039f600480360381019061039a919061236f565b611d5d565b6040516103ac9190612a1d565b60405180910390f35b6103bd611db6565b6040516103ca91906129b7565b60405180910390f35b6103ed60048036038101906103e8919061236f565b611dda565b6040516103fa9190612a1d565b60405180910390f35b61041d6004803603810190610418919061236f565b611e39565b60405161042a9190612a1d565b60405180910390f35b61044d6004803603810190610448919061236f565b611e98565b60405161045e959493929190612a38565b60405180910390f35b610481600480360381019061047c919061236f565b611f70565b005b61049d6004803603810190610498919061236f565b612063565b005b60056020528060005260406000206000915090508060000180546104c290612da4565b80601f01602080910402602001604051908101604052809291908181526020018280546104ee90612da4565b801561053b5780601f106105105761010080835404028352916020019161053b565b820191906000526020600020905b81548152906001019060200180831161051e57829003601f168201915b5050505050908060010160009054906101000a900460ff16908060010160019054906101000a900460ff16908060020154908060030154905085565b60006105828261067f565b90919293509091509050508091505080156105d2576040517f08c379a00000000000000000000000000000000000000000000000000000000081526004016105c990612af2565b60405180910390fd5b600260405180604001604052803373ffffffffffffffffffffffffffffffffffffffff16815260200184815250908060018154018082558091505060019003906000526020600020906002020160009091909190915060008201518160000160006101000a81548173ffffffffffffffffffffffffffffffffffffffff021916908373ffffffffffffffffffffffffffffffffffffffff1602179055506020820151816001015550505050565b60606000806000806000600560008881526020019081526020016000209050806000018160010160009054906101000a900460ff168260010160019054906101000a900460ff16836002015484600301548480546106dc90612da4565b80601f016020809104026020016040519081016040528092919081815260200182805461070890612da4565b80156107555780601f1061072a57610100808354040283529160200191610755565b820191906000526020600020905b81548152906001019060200180831161073857829003601f168201915b50505050509450955095509550955095505091939590929450565b6000806000905060008390505b600081146107a757600a816107929190612ca8565b9050818061079f90612dd6565b92505061077d565b600c821480156107b75750606584115b80156107c7575064e8d4a5100084105b92505050919050565b60606002805480602002602001604051908101604052809291908181526020016000905b8282101561088657838290600052602060002090600202016040518060400160405290816000820160009054906101000a900473ffffffffffffffffffffffffffffffffffffffff1673ffffffffffffffffffffffffffffffffffffffff1673ffffffffffffffffffffffffffffffffffffffff168152602001600182015481525050815260200190600101906107f4565b50505050905090565b60008260ff16101580156108a7575060028260ff1611155b6108e6576040517f08c379a00000000000000000000000000000000000000000000000000000000081526004016108dd90612ab2565b60405180910390fd5b6108ef81610770565b61092e576040517f08c379a000000000000000000000000000000000000000000000000000000000815260040161092590612a92565b60405180910390fd5b600073ffffffffffffffffffffffffffffffffffffffff166004600083815260200190815260200160002060009054906101000a900473ffffffffffffffffffffffffffffffffffffffff1673ffffffffffffffffffffffffffffffffffffffff16146109d0576040517f08c379a00000000000000000000000000000000000000000000000000000000081526004016109c790612b92565b60405180910390fd5b6000600560008381526020019081526020016000209050838160000190805190602001906109ff929190612158565b5060008160010160006101000a81548160ff021916908315150217905550828160010160016101000a81548160ff021916908360ff16021790555042816002018190555081816003018190555080600360003373ffffffffffffffffffffffffffffffffffffffff1673ffffffffffffffffffffffffffffffffffffffff1681526020019081526020016000206000820181600001908054610aa090612da4565b610aab9291906121de565b506001820160009054906101000a900460ff168160010160006101000a81548160ff0219169083151502179055506001820160019054906101000a900460ff168160010160016101000a81548160ff021916908360ff1602179055506002820154816002015560038201548160030155905050336004600084815260200190815260200160002060006101000a81548173ffffffffffffffffffffffffffffffffffffffff021916908373ffffffffffffffffffffffffffffffffffffffff16021790555050505050565b600060038060008473ffffffffffffffffffffffffffffffffffffffff1673ffffffffffffffffffffffffffffffffffffffff16815260200190815260200160002060010160019054906101000a900460ff1660ff16149050919050565b60028181548110610be457600080fd5b90600052602060002090600202016000915090508060000160009054906101000a900473ffffffffffffffffffffffffffffffffffffffff16908060010154905082565b60018181548110610c3857600080fd5b9060005260206000209060040201600091509050806000018054610c5b90612da4565b80601f0160208091040260200160405190810160405280929190818152602001828054610c8790612da4565b8015610cd45780601f10610ca957610100808354040283529160200191610cd4565b820191906000526020600020905b815481529060010190602001808311610cb757829003601f168201915b5050505050908060010160009054906101000a900460ff16908060010160019054906101000a900460ff16908060020154908060030154905085565b6002600360003373ffffffffffffffffffffffffffffffffffffffff1673ffffffffffffffffffffffffffffffffffffffff16815260200190815260200160002060010160019054906101000a900460ff1660ff161015610da6576040517f08c379a0000000000000000000000000000000000000000000000000000000008152600401610d9d90612bb2565b60405180910390fd5b60008054906101000a900473ffffffffffffffffffffffffffffffffffffffff1673ffffffffffffffffffffffffffffffffffffffff168173ffffffffffffffffffffffffffffffffffffffff161415610e35576040517f08c379a0000000000000000000000000000000000000000000000000000000008152600401610e2c90612b12565b60405180910390fd5b600060046000600360008573ffffffffffffffffffffffffffffffffffffffff1673ffffffffffffffffffffffffffffffffffffffff16815260200190815260200160002060030154815260200190815260200160002060006101000a81548173ffffffffffffffffffffffffffffffffffffffff021916908373ffffffffffffffffffffffffffffffffffffffff160217905550600360008273ffffffffffffffffffffffffffffffffffffffff1673ffffffffffffffffffffffffffffffffffffffff16815260200190815260200160002060008082016000610f1a919061226b565b6001820160006101000a81549060ff02191690556001820160016101000a81549060ff021916905560028201600090556003820160009055505050565b60046020528060005260406000206000915054906101000a900473ffffffffffffffffffffffffffffffffffffffff1681565b6002600360003373ffffffffffffffffffffffffffffffffffffffff1673ffffffffffffffffffffffffffffffffffffffff16815260200190815260200160002060010160019054906101000a900460ff1660ff161015611020576040517f08c379a000000000000000000000000000000000000000000000000000000000815260040161101790612bb2565b60405180910390fd5b600073ffffffffffffffffffffffffffffffffffffffff166004600083815260200190815260200160002060009054906101000a900473ffffffffffffffffffffffffffffffffffffffff1673ffffffffffffffffffffffffffffffffffffffff16146110c2576040517f08c379a00000000000000000000000000000000000000000000000000000000081526004016110b990612b92565b60405180910390fd5b60016040518060a00160405280848152602001600015158152602001600160ff1681526020014281526020018381525090806001815401808255809150506001900390600052602060002090600402016000909190919091506000820151816000019080519060200190611137929190612158565b5060208201518160010160006101000a81548160ff02191690831515021790555060408201518160010160016101000a81548160ff021916908360ff1602179055506060820151816002015560808201518160030155505060018080805490506111a19190612cd9565b815481106111d8577f4e487b7100000000000000000000000000000000000000000000000000000000600052603260045260246000fd5b9060005260206000209060040201600360008573ffffffffffffffffffffffffffffffffffffffff1673ffffffffffffffffffffffffffffffffffffffff168152602001908152602001600020600082018160000190805461123990612da4565b6112449291906121de565b506001820160009054906101000a900460ff168160010160006101000a81548160ff0219169083151502179055506001820160019054906101000a900460ff168160010160016101000a81548160ff021916908360ff1602179055506002820154816002015560038201548160030155905050826004600083815260200190815260200160002060006101000a81548173ffffffffffffffffffffffffffffffffffffffff021916908373ffffffffffffffffffffffffffffffffffffffff160217905550505050565b60038060003373ffffffffffffffffffffffffffffffffffffffff1673ffffffffffffffffffffffffffffffffffffffff16815260200190815260200160002060010160019054906101000a900460ff1660ff16146113a2576040517f08c379a000000000000000000000000000000000000000000000000000000000815260040161139990612b52565b60405180910390fd5b600073ffffffffffffffffffffffffffffffffffffffff166004600083815260200190815260200160002060009054906101000a900473ffffffffffffffffffffffffffffffffffffffff1673ffffffffffffffffffffffffffffffffffffffff1614611444576040517f08c379a000000000000000000000000000000000000000000000000000000000815260040161143b90612b92565b60405180910390fd5b60016040518060a00160405280848152602001600015158152602001600260ff16815260200142815260200183815250908060018154018082558091505060019003906000526020600020906004020160009091909190915060008201518160000190805190602001906114b9929190612158565b5060208201518160010160006101000a81548160ff02191690831515021790555060408201518160010160016101000a81548160ff021916908360ff1602179055506060820151816002015560808201518160030155505060018080805490506115239190612cd9565b8154811061155a577f4e487b7100000000000000000000000000000000000000000000000000000000600052603260045260246000fd5b9060005260206000209060040201600360008573ffffffffffffffffffffffffffffffffffffffff1673ffffffffffffffffffffffffffffffffffffffff16815260200190815260200160002060008201816000019080546115bb90612da4565b6115c69291906121de565b506001820160009054906101000a900460ff168160010160006101000a81548160ff0219169083151502179055506001820160019054906101000a900460ff168160010160016101000a81548160ff021916908360ff1602179055506002820154816002015560038201548160030155905050826004600083815260200190815260200160002060006101000a81548173ffffffffffffffffffffffffffffffffffffffff021916908373ffffffffffffffffffffffffffffffffffffffff160217905550505050565b6001600360003373ffffffffffffffffffffffffffffffffffffffff1673ffffffffffffffffffffffffffffffffffffffff16815260200190815260200160002060010160019054906101000a900460ff1660ff161015611726576040517f08c379a000000000000000000000000000000000000000000000000000000000815260040161171d90612ad2565b60405180910390fd5b61172f81610770565b61176e576040517f08c379a000000000000000000000000000000000000000000000000000000000815260040161176590612b32565b60405180910390fd5b600073ffffffffffffffffffffffffffffffffffffffff166004600083815260200190815260200160002060009054906101000a900473ffffffffffffffffffffffffffffffffffffffff1673ffffffffffffffffffffffffffffffffffffffff1614611810576040517f08c379a000000000000000000000000000000000000000000000000000000000815260040161180790612b72565b60405180910390fd5b80600360003373ffffffffffffffffffffffffffffffffffffffff1673ffffffffffffffffffffffffffffffffffffffff168152602001908152602001600020600301819055506001600360003373ffffffffffffffffffffffffffffffffffffffff1673ffffffffffffffffffffffffffffffffffffffff16815260200190815260200160002060010160006101000a81548160ff021916908315150217905550336004600083815260200190815260200160002060006101000a81548173ffffffffffffffffffffffffffffffffffffffff021916908373ffffffffffffffffffffffffffffffffffffffff16021790555060005b600280549050811015611b1457816002828154811061194f577f4e487b7100000000000000000000000000000000000000000000000000000000600052603260045260246000fd5b9060005260206000209060020201600101541415611b01576002600160028054905061197b9190612cd9565b815481106119b2577f4e487b7100000000000000000000000000000000000000000000000000000000600052603260045260246000fd5b9060005260206000209060020201600282815481106119fa577f4e487b7100000000000000000000000000000000000000000000000000000000600052603260045260246000fd5b90600052602060002090600202016000820160009054906101000a900473ffffffffffffffffffffffffffffffffffffffff168160000160006101000a81548173ffffffffffffffffffffffffffffffffffffffff021916908373ffffffffffffffffffffffffffffffffffffffff160217905550600182015481600101559050506002805480611ab4577f4e487b7100000000000000000000000000000000000000000000000000000000600052603160045260246000fd5b6001900381819060005260206000209060020201600080820160006101000a81549073ffffffffffffffffffffffffffffffffffffffff0219169055600182016000905550509055611b14565b8080611b0c90612dd6565b915050611907565b5050565b60038060003373ffffffffffffffffffffffffffffffffffffffff1673ffffffffffffffffffffffffffffffffffffffff16815260200190815260200160002060010160019054906101000a900460ff1660ff1614611bac576040517f08c379a0000000000000000000000000000000000000000000000000000000008152600401611ba390612b52565b60405180910390fd5b60008054906101000a900473ffffffffffffffffffffffffffffffffffffffff1673ffffffffffffffffffffffffffffffffffffffff168173ffffffffffffffffffffffffffffffffffffffff161415611c3b576040517f08c379a0000000000000000000000000000000000000000000000000000000008152600401611c3290612bd2565b60405180910390fd5b600060046000600360008573ffffffffffffffffffffffffffffffffffffffff1673ffffffffffffffffffffffffffffffffffffffff16815260200190815260200160002060030154815260200190815260200160002060006101000a81548173ffffffffffffffffffffffffffffffffffffffff021916908373ffffffffffffffffffffffffffffffffffffffff160217905550600360008273ffffffffffffffffffffffffffffffffffffffff1673ffffffffffffffffffffffffffffffffffffffff16815260200190815260200160002060008082016000611d20919061226b565b6001820160006101000a81549060ff02191690556001820160016101000a81549060ff021916905560028201600090556003820160009055505050565b6000600360008373ffffffffffffffffffffffffffffffffffffffff1673ffffffffffffffffffffffffffffffffffffffff16815260200190815260200160002060010160009054906101000a900460ff169050919050565b60008054906101000a900473ffffffffffffffffffffffffffffffffffffffff1681565b60006002600360008473ffffffffffffffffffffffffffffffffffffffff1673ffffffffffffffffffffffffffffffffffffffff16815260200190815260200160002060010160019054906101000a900460ff1660ff16149050919050565b60006001600360008473ffffffffffffffffffffffffffffffffffffffff1673ffffffffffffffffffffffffffffffffffffffff16815260200190815260200160002060010160019054906101000a900460ff1660ff16149050919050565b6003602052806000526040600020600091509050806000018054611ebb90612da4565b80601f0160208091040260200160405190810160405280929190818152602001828054611ee790612da4565b8015611f345780601f10611f0957610100808354040283529160200191611f34565b820191906000526020600020905b815481529060010190602001808311611f1757829003601f168201915b5050505050908060010160009054906101000a900460ff16908060010160019054906101000a900460ff16908060020154908060030154905085565b60038060003373ffffffffffffffffffffffffffffffffffffffff1673ffffffffffffffffffffffffffffffffffffffff16815260200190815260200160002060010160019054906101000a900460ff1660ff1614612004576040517f08c379a0000000000000000000000000000000000000000000000000000000008152600401611ffb90612b52565b60405180910390fd5b6002600360008373ffffffffffffffffffffffffffffffffffffffff1673ffffffffffffffffffffffffffffffffffffffff16815260200190815260200160002060010160016101000a81548160ff021916908360ff16021790555050565b6002600360003373ffffffffffffffffffffffffffffffffffffffff1673ffffffffffffffffffffffffffffffffffffffff16815260200190815260200160002060010160019054906101000a900460ff1660ff1610156120f9576040517f08c379a00000000000000000000000000000000000000000000000000000000081526004016120f090612bb2565b60405180910390fd5b6001600360008373ffffffffffffffffffffffffffffffffffffffff1673ffffffffffffffffffffffffffffffffffffffff16815260200190815260200160002060010160016101000a81548160ff021916908360ff16021790555050565b82805461216490612da4565b90600052602060002090601f01602090048101928261218657600085556121cd565b82601f1061219f57805160ff19168380011785556121cd565b828001600101855582156121cd579182015b828111156121cc5782518255916020019190600101906121b1565b5b5090506121da91906122ab565b5090565b8280546121ea90612da4565b90600052602060002090601f01602090048101928261220c576000855561225a565b82601f1061221d578054855561225a565b8280016001018555821561225a57600052602060002091601f016020900482015b8281111561225957825482559160010191906001019061223e565b5b50905061226791906122ab565b5090565b50805461227790612da4565b6000825580601f1061228957506122a8565b601f0160209004906000526020600020908101906122a791906122ab565b5b50565b5b808211156122c45760008160009055506001016122ac565b5090565b60006122db6122d684612c23565b612bf2565b9050828152602081018484840111156122f357600080fd5b6122fe848285612d62565b509392505050565b60008135905061231581612eec565b92915050565b600082601f83011261232c57600080fd5b813561233c8482602086016122c8565b91505092915050565b60008135905061235481612f03565b92915050565b60008135905061236981612f1a565b92915050565b60006020828403121561238157600080fd5b600061238f84828501612306565b91505092915050565b6000806000606084860312156123ad57600080fd5b60006123bb86828701612306565b935050602084013567ffffffffffffffff8111156123d857600080fd5b6123e48682870161231b565b92505060406123f586828701612345565b9150509250925092565b60008060006060848603121561241457600080fd5b600084013567ffffffffffffffff81111561242e57600080fd5b61243a8682870161231b565b935050602061244b8682870161235a565b925050604061245c86828701612345565b9150509250925092565b60006020828403121561247857600080fd5b600061248684828501612345565b91505092915050565b600061249b838361295b565b60408301905092915050565b6124b081612d0d565b82525050565b6124bf81612d0d565b82525050565b60006124d082612c63565b6124da8185612c86565b93506124e583612c53565b8060005b838110156125165781516124fd888261248f565b975061250883612c79565b9250506001810190506124e9565b5085935050505092915050565b61252c81612d1f565b82525050565b600061253d82612c6e565b6125478185612c97565b9350612557818560208601612d71565b61256081612edb565b840191505092915050565b6000612578601583612c97565b91507f496e76616c696420416164686172206e756d62657200000000000000000000006000830152602082019050919050565b60006125b8601483612c97565b91507f496e76616c69642064657369676e6174696f6e2e0000000000000000000000006000830152602082019050919050565b60006125f8605483612c97565b91507f4f6e6c7920746865206465706c6f7965722c207365636f6e642d6c6576656c2060008301527f617574686f726974792c206f72206c616e6420696e73706563746f722063616e60208301527f20706572666f726d207468697320616374696f6e0000000000000000000000006040830152606082019050919050565b6000612684601983612c97565b91507f5573657220697320616c72656164792076657269666965642e000000000000006000830152602082019050919050565b60006126c4602383612c97565b91507f43616e6e6f742072656d6f7665206465706c6f79657227732070726976696c6560008301527f67657300000000000000000000000000000000000000000000000000000000006020830152604082019050919050565b600061272a601683612c97565b91507f496e76616c69642041616468616172206e756d626572000000000000000000006000830152602082019050919050565b600061276a602983612c97565b91507f4f6e6c7920746865206465706c6f7965722063616e20706572666f726d20746860008301527f697320616374696f6e00000000000000000000000000000000000000000000006020830152604082019050919050565b60006127d0602183612c97565b91507f416164686172206e756d62657220616c7265616479207265676973746572656460008301527f2e000000000000000000000000000000000000000000000000000000000000006020830152604082019050919050565b6000612836602083612c97565b91507f416164686172206e756d62657220616c726561647920726567697374657265646000830152602082019050919050565b6000612876604383612c97565b91507f4f6e6c7920746865206465706c6f796572206f72207365636f6e642d6c65766560008301527f6c20617574686f726974792063616e20706572666f726d20746869732061637460208301527f696f6e00000000000000000000000000000000000000000000000000000000006040830152606082019050919050565b6000612902603a83612c97565b91507f43616e6e6f742072656d6f7665206465706c6f7965722773205365636f6e642d60008301527f6c6576656c20417574686f726974792070726976696c656765730000000000006020830152604082019050919050565b60408201600082015161297160008501826124a7565b506020820151612984602085018261298a565b50505050565b61299381612d4b565b82525050565b6129a281612d4b565b82525050565b6129b181612d55565b82525050565b60006020820190506129cc60008301846124b6565b92915050565b60006040820190506129e760008301856124b6565b6129f46020830184612999565b9392505050565b60006020820190508181036000830152612a1581846124c5565b905092915050565b6000602082019050612a326000830184612523565b92915050565b600060a0820190508181036000830152612a528188612532565b9050612a616020830187612523565b612a6e60408301866129a8565b612a7b6060830185612999565b612a886080830184612999565b9695505050505050565b60006020820190508181036000830152612aab8161256b565b9050919050565b60006020820190508181036000830152612acb816125ab565b9050919050565b60006020820190508181036000830152612aeb816125eb565b9050919050565b60006020820190508181036000830152612b0b81612677565b9050919050565b60006020820190508181036000830152612b2b816126b7565b9050919050565b60006020820190508181036000830152612b4b8161271d565b9050919050565b60006020820190508181036000830152612b6b8161275d565b9050919050565b60006020820190508181036000830152612b8b816127c3565b9050919050565b60006020820190508181036000830152612bab81612829565b9050919050565b60006020820190508181036000830152612bcb81612869565b9050919050565b60006020820190508181036000830152612beb816128f5565b9050919050565b6000604051905081810181811067ffffffffffffffff82111715612c1957612c18612eac565b5b8060405250919050565b600067ffffffffffffffff821115612c3e57612c3d612eac565b5b601f19601f8301169050602081019050919050565b6000819050602082019050919050565b600081519050919050565b600081519050919050565b6000602082019050919050565b600082825260208201905092915050565b600082825260208201905092915050565b6000612cb382612d4b565b9150612cbe83612d4b565b925082612cce57612ccd612e4e565b5b828204905092915050565b6000612ce482612d4b565b9150612cef83612d4b565b925082821015612d0257612d01612e1f565b5b828203905092915050565b6000612d1882612d2b565b9050919050565b60008115159050919050565b600073ffffffffffffffffffffffffffffffffffffffff82169050919050565b6000819050919050565b600060ff82169050919050565b82818337600083830152505050565b60005b83811015612d8f578082015181840152602081019050612d74565b83811115612d9e576000848401525b50505050565b60006002820490506001821680612dbc57607f821691505b60208210811415612dd057612dcf612e7d565b5b50919050565b6000612de182612d4b565b91507fffffffffffffffffffffffffffffffffffffffffffffffffffffffffffffffff821415612e1457612e13612e1f565b5b600182019050919050565b7f4e487b7100000000000000000000000000000000000000000000000000000000600052601160045260246000fd5b7f4e487b7100000000000000000000000000000000000000000000000000000000600052601260045260246000fd5b7f4e487b7100000000000000000000000000000000000000000000000000000000600052602260045260246000fd5b7f4e487b7100000000000000000000000000000000000000000000000000000000600052604160045260246000fd5b6000601f19601f8301169050919050565b612ef581612d0d565b8114612f0057600080fd5b50565b612f0c81612d4b565b8114612f1757600080fd5b50565b612f2381612d55565b8114612f2e57600080fd5b5056fea26469706673582212205e4db41ab06405c83a009ddeef873efc5cde3ab8c4d5524f71d5d15cb61e8ca964736f6c63430008000033",
  "immutableReferences": {},
  "source": "// SPDX-License-Identifier: UNLICENSED\r\npragma solidity ^0.8.0;\r\n\r\ncontract AccountRegistration {\r\n    address public deployer;\r\n\r\n    struct UserAccount {\r\n        string username;\r\n        bool isUserVerified;\r\n        uint8 designation; // 0: no authority, 1: land inspector, 2: second-level authority, 3: deployer\r\n        uint registrationDate; // Registration date as a Unix timestamp\r\n        uint256 aadharNumber;\r\n    }\r\n\r\n    struct PendingVerification {\r\n        address user;\r\n        uint256 aadharNumber;\r\n    }\r\n\r\n    UserAccount[] public userAccounts;\r\n    PendingVerification[] public pendingVerifications;\r\n\r\n    // Mapping to store user accounts using their Ethereum addresses as keys\r\n    mapping(address => UserAccount) public userAccountsMap;\r\n\r\n    // Mapping to link Aadhar numbers to Ethereum addresses\r\n    mapping(uint256 => address) public aadharToUser;\r\n\r\n    mapping(uint256 => UserAccount) public userAccountsByAadharNumber;\r\n\r\n    // Constructor to initialize the contract and set the deployer's account\r\n    constructor() {\r\n        deployer = msg.sender;\r\n        userAccounts.push(UserAccount(\"Deployer\", true, 3, block.timestamp, 0));\r\n        userAccountsMap[msg.sender] = userAccounts[0];\r\n        aadharToUser[0] = msg.sender;\r\n    }\r\n\r\n    // Function to view the list of pending verifications\r\n    function getPendingVerifications()\r\n        public\r\n        view\r\n        returns (PendingVerification[] memory)\r\n    {\r\n        return pendingVerifications;\r\n    }\r\n\r\n    function requestVerification(uint256 _aadharNumber) public {\r\n        bool isVerified;\r\n\r\n        // Retrieve user details and isUserVerified in a single call\r\n        (, isVerified, , , ) = getUserDetails(_aadharNumber);\r\n\r\n        // Check if the user is not already verified\r\n        require(!isVerified, \"User is already verified.\");\r\n\r\n        // Add the request to pending verifications\r\n        pendingVerifications.push(\r\n            PendingVerification(msg.sender, _aadharNumber)\r\n        );\r\n    }\r\n\r\n    /* For Aadhaar validation\r\n    It should have 12 digits.\r\n    It should not start with 0 and 1.\r\n    It should not contain any alphabet and special characters */\r\n    function validateAadhar(uint256 _aadharNumber) public pure returns (bool) {\r\n        uint aadharLength = 0;\r\n        uint aadharCopy = _aadharNumber;\r\n\r\n        while (aadharCopy != 0) {\r\n            aadharCopy /= 10;\r\n            aadharLength++;\r\n        }\r\n\r\n        return\r\n            aadharLength == 12 &&\r\n            _aadharNumber > 101 &&\r\n            _aadharNumber < 1000000000000;\r\n    }\r\n\r\n    // Function to verify an account with an Aadhar number\r\n    function verifyAccount(\r\n        uint256 _aadharNumber\r\n    ) public onlyDeployerOrSecondLevelAuthorityOrLandInspector {\r\n        require(validateAadhar(_aadharNumber), \"Invalid Aadhaar number\");\r\n        require(\r\n            aadharToUser[_aadharNumber] == address(0),\r\n            \"Aadhar number already registered.\"\r\n        );\r\n\r\n        userAccountsMap[msg.sender].aadharNumber = _aadharNumber;\r\n        userAccountsMap[msg.sender].isUserVerified = true;\r\n        aadharToUser[_aadharNumber] = msg.sender;\r\n\r\n        // Remove from pending verifications if Land Inspector verified the account\r\n        for (uint i = 0; i < pendingVerifications.length; i++) {\r\n            if (pendingVerifications[i].aadharNumber == _aadharNumber) {\r\n                // Remove the pending verification entry\r\n                pendingVerifications[i] = pendingVerifications[\r\n                    pendingVerifications.length - 1\r\n                ];\r\n                pendingVerifications.pop();\r\n                break;\r\n            }\r\n        }\r\n    }\r\n\r\n    function setUserDetails(\r\n        string memory _username,\r\n        uint8 _designation,\r\n        uint256 _aadharNumber\r\n    ) public {\r\n        // require(userAccountsMap[msg.sender].designation == 0, \"User details can only be set once.\");\r\n        require(_designation >= 0 && _designation <= 2, \"Invalid designation.\");\r\n        require(validateAadhar(_aadharNumber), \"Invalid Aadhar number\");\r\n        require(\r\n            aadharToUser[_aadharNumber] == address(0),\r\n            \"Aadhar number already registered\"\r\n        );\r\n\r\n        // Assuming you have a mapping where you store user details based on Aadhar number\r\n        UserAccount storage user = userAccountsByAadharNumber[_aadharNumber];\r\n\r\n        user.username = _username;\r\n        user.isUserVerified = false; // Set to false as per your logic\r\n        user.designation = _designation;\r\n        user.registrationDate = block.timestamp;\r\n        user.aadharNumber = _aadharNumber;\r\n\r\n        userAccountsMap[msg.sender] = user;\r\n        aadharToUser[_aadharNumber] = msg.sender;\r\n    }\r\n\r\n    function getUserDetails(\r\n        uint256 _aadharNumber\r\n    ) public view returns (string memory, bool, uint8, uint, uint256) {\r\n        // Assuming you have a mapping where you store user details based on Aadhar number\r\n        UserAccount storage user = userAccountsByAadharNumber[_aadharNumber];\r\n\r\n        // Perform any additional checks or validations as needed\r\n\r\n        return (\r\n            user.username,\r\n            user.isUserVerified,\r\n            user.designation,\r\n            user.registrationDate,\r\n            user.aadharNumber\r\n        );\r\n    }\r\n\r\n    // Modifier to restrict access to functions for the deployer only\r\n    modifier onlyDeployer() {\r\n        require(\r\n            userAccountsMap[msg.sender].designation == 3,\r\n            \"Only the deployer can perform this action\"\r\n        );\r\n        _;\r\n    }\r\n\r\n    // Modifier to restrict access to functions for the deployer and second-level authorities\r\n    modifier onlyDeployerOrSecondLevelAuthority() {\r\n        require(\r\n            userAccountsMap[msg.sender].designation >= 2,\r\n            \"Only the deployer or second-level authority can perform this action\"\r\n        );\r\n        _;\r\n    }\r\n\r\n    // Modifier to restrict access to functions for the deployer, second-level authorities, and land inspectors\r\n    modifier onlyDeployerOrSecondLevelAuthorityOrLandInspector() {\r\n        require(\r\n            userAccountsMap[msg.sender].designation >= 1,\r\n            \"Only the deployer, second-level authority, or land inspector can perform this action\"\r\n        );\r\n        _;\r\n    }\r\n\r\n    // Function to add a Land Inspector\r\n    function addLandInspector(\r\n        address _inspector,\r\n        string memory _username,\r\n        uint256 _aadhar\r\n    ) public onlyDeployerOrSecondLevelAuthority {\r\n        require(\r\n            aadharToUser[_aadhar] == address(0),\r\n            \"Aadhar number already registered\"\r\n        );\r\n\r\n        userAccounts.push(\r\n            UserAccount(_username, false, 1, block.timestamp, _aadhar)\r\n        );\r\n        userAccountsMap[_inspector] = userAccounts[userAccounts.length - 1];\r\n        aadharToUser[_aadhar] = _inspector;\r\n    }\r\n\r\n    // Function to add a Second-Level Authority\r\n    function addSecondLevelAuthority(\r\n        address _authority,\r\n        string memory _username,\r\n        uint256 _aadhar\r\n    ) public onlyDeployer {\r\n        require(\r\n            aadharToUser[_aadhar] == address(0),\r\n            \"Aadhar number already registered\"\r\n        );\r\n\r\n        userAccounts.push(\r\n            UserAccount(_username, false, 2, block.timestamp, _aadhar)\r\n        );\r\n        userAccountsMap[_authority] = userAccounts[userAccounts.length - 1];\r\n        aadharToUser[_aadhar] = _authority;\r\n    }\r\n\r\n    // Function to remove a Second-Level Authority\r\n    function removeSecondLevelAuthority(\r\n        address _authority\r\n    ) public onlyDeployer {\r\n        require(\r\n            _authority != deployer,\r\n            \"Cannot remove deployer's Second-level Authority privileges\"\r\n        );\r\n\r\n        aadharToUser[userAccountsMap[_authority].aadharNumber] = address(0);\r\n        delete userAccountsMap[_authority];\r\n    }\r\n\r\n    // Function to remove a Land Inspector\r\n    function removeLandInspector(\r\n        address _inspector\r\n    ) public onlyDeployerOrSecondLevelAuthority {\r\n        require(_inspector != deployer, \"Cannot remove deployer's privileges\");\r\n\r\n        aadharToUser[userAccountsMap[_inspector].aadharNumber] = address(0);\r\n        delete userAccountsMap[_inspector];\r\n    }\r\n\r\n    // Function to check if a user is verified\r\n    function isUserVerified(address _account) public view returns (bool) {\r\n        return userAccountsMap[_account].isUserVerified;\r\n    }\r\n\r\n    // Function to check if a user is a Land Inspector\r\n    function isLandInspector(address _account) public view returns (bool) {\r\n        return userAccountsMap[_account].designation == 1;\r\n    }\r\n\r\n    // Function to check if a user is a Second-Level Authority\r\n    function isSecondLevelAuthority(\r\n        address _account\r\n    ) public view returns (bool) {\r\n        return userAccountsMap[_account].designation == 2;\r\n    }\r\n\r\n    // Function to check if a user is a Sdeployer\r\n    function isDeployer(address _account) public view returns (bool) {\r\n        return userAccountsMap[_account].designation == 3;\r\n    }\r\n\r\n    // Function to grant Land Inspector status\r\n    function grantLandInspectorStatus(\r\n        address _account\r\n    ) public onlyDeployerOrSecondLevelAuthority {\r\n        userAccountsMap[_account].designation = 1;\r\n    }\r\n\r\n    // Function to grant Second-Level Authority status\r\n    function grantSecondLevelAuthorityStatus(\r\n        address _account\r\n    ) public onlyDeployer {\r\n        userAccountsMap[_account].designation = 2;\r\n    }\r\n}\r\n",
  "sourcePath": "C:\\Users\\Aaryan\\Desktop\\FYP\\Decentralizsed-Land-Registration\\contracts\\registerAccount-contract.sol",
  "compiler": {
    "name": "solc",
    "version": "0.8.0+commit.c7dfd78e.Emscripten.clang"
  },
  "schemaVersion": "3.4.16",
  "updatedAt": "2023-12-03T07:46:03.520Z",
  "networkType": "ethereum",
  "devdoc": {
    "kind": "dev",
    "methods": {},
    "version": 1
  },
  "userdoc": {
    "kind": "user",
    "methods": {},
    "version": 1
  }
}