{
  "contractName": "LandRegistration",
  "abi": [
    {
      "inputs": [
        {
          "internalType": "address",
          "name": "_accountRegistrationContract",
          "type": "address"
        }
      ],
      "stateMutability": "nonpayable",
      "type": "constructor"
    },
    {
      "anonymous": false,
      "inputs": [
        {
          "indexed": false,
          "internalType": "uint256",
          "name": "landId",
          "type": "uint256"
        }
      ],
      "name": "LandRecordAdded",
      "type": "event"
    },
    {
      "anonymous": false,
      "inputs": [
        {
          "indexed": false,
          "internalType": "uint256",
          "name": "landId",
          "type": "uint256"
        }
      ],
      "name": "LandRecordExists",
      "type": "event"
    },
    {
      "inputs": [
        {
          "internalType": "uint256",
          "name": "",
          "type": "uint256"
        }
      ],
      "name": "LandRequestMapping",
      "outputs": [
        {
          "internalType": "uint256",
          "name": "reqId",
          "type": "uint256"
        },
        {
          "internalType": "address",
          "name": "sellerId",
          "type": "address"
        },
        {
          "internalType": "address",
          "name": "buyerId",
          "type": "address"
        },
        {
          "internalType": "uint256",
          "name": "landId",
          "type": "uint256"
        },
        {
          "internalType": "enum LandRegistration.reqStatus",
          "name": "requestStatus",
          "type": "uint8"
        },
        {
          "internalType": "bool",
          "name": "isPaymentDone",
          "type": "bool"
        }
      ],
      "stateMutability": "view",
      "type": "function",
      "constant": true
    },
    {
      "inputs": [],
      "name": "accountRegistrationContract",
      "outputs": [
        {
          "internalType": "address",
          "name": "",
          "type": "address"
        }
      ],
      "stateMutability": "view",
      "type": "function",
      "constant": true
    },
    {
      "inputs": [],
      "name": "deployer",
      "outputs": [
        {
          "internalType": "address",
          "name": "",
          "type": "address"
        }
      ],
      "stateMutability": "view",
      "type": "function",
      "constant": true
    },
    {
      "inputs": [
        {
          "internalType": "uint256",
          "name": "",
          "type": "uint256"
        }
      ],
      "name": "landMapping",
      "outputs": [
        {
          "internalType": "uint256",
          "name": "landId",
          "type": "uint256"
        },
        {
          "internalType": "address",
          "name": "owner",
          "type": "address"
        },
        {
          "components": [
            {
              "internalType": "string",
              "name": "state",
              "type": "string"
            },
            {
              "internalType": "string",
              "name": "divison",
              "type": "string"
            },
            {
              "internalType": "string",
              "name": "district",
              "type": "string"
            },
            {
              "internalType": "string",
              "name": "taluka",
              "type": "string"
            },
            {
              "internalType": "string",
              "name": "village",
              "type": "string"
            },
            {
              "internalType": "uint256",
              "name": "surveyNumber",
              "type": "uint256"
            },
            {
              "internalType": "string",
              "name": "subdivision",
              "type": "string"
            }
          ],
          "internalType": "struct LandRegistration.LandIdentifier",
          "name": "identifier",
          "type": "tuple"
        },
        {
          "internalType": "uint256",
          "name": "area",
          "type": "uint256"
        },
        {
          "internalType": "uint256",
          "name": "purchaseDate",
          "type": "uint256"
        },
        {
          "internalType": "uint256",
          "name": "purchasePrice",
          "type": "uint256"
        },
        {
          "internalType": "uint256",
          "name": "landValueAtPurchase",
          "type": "uint256"
        },
        {
          "internalType": "bool",
          "name": "isVerified",
          "type": "bool"
        },
        {
          "internalType": "bool",
          "name": "isForSale",
          "type": "bool"
        }
      ],
      "stateMutability": "view",
      "type": "function",
      "constant": true
    },
    {
      "inputs": [],
      "name": "landRecordsCount",
      "outputs": [
        {
          "internalType": "uint256",
          "name": "",
          "type": "uint256"
        }
      ],
      "stateMutability": "view",
      "type": "function",
      "constant": true
    },
    {
      "inputs": [
        {
          "internalType": "uint256",
          "name": "",
          "type": "uint256"
        },
        {
          "internalType": "address",
          "name": "",
          "type": "address"
        }
      ],
      "name": "landToBuyerToRequest",
      "outputs": [
        {
          "internalType": "uint256",
          "name": "",
          "type": "uint256"
        }
      ],
      "stateMutability": "view",
      "type": "function",
      "constant": true
    },
    {
      "inputs": [
        {
          "internalType": "uint256",
          "name": "_landId",
          "type": "uint256"
        }
      ],
      "name": "landVerificationRequest",
      "outputs": [],
      "stateMutability": "nonpayable",
      "type": "function"
    },
    {
      "inputs": [
        {
          "components": [
            {
              "internalType": "uint256",
              "name": "landId",
              "type": "uint256"
            },
            {
              "internalType": "address",
              "name": "owner",
              "type": "address"
            },
            {
              "components": [
                {
                  "internalType": "string",
                  "name": "state",
                  "type": "string"
                },
                {
                  "internalType": "string",
                  "name": "divison",
                  "type": "string"
                },
                {
                  "internalType": "string",
                  "name": "district",
                  "type": "string"
                },
                {
                  "internalType": "string",
                  "name": "taluka",
                  "type": "string"
                },
                {
                  "internalType": "string",
                  "name": "village",
                  "type": "string"
                },
                {
                  "internalType": "uint256",
                  "name": "surveyNumber",
                  "type": "uint256"
                },
                {
                  "internalType": "string",
                  "name": "subdivision",
                  "type": "string"
                }
              ],
              "internalType": "struct LandRegistration.LandIdentifier",
              "name": "identifier",
              "type": "tuple"
            },
            {
              "internalType": "uint256",
              "name": "area",
              "type": "uint256"
            },
            {
              "internalType": "uint256",
              "name": "purchaseDate",
              "type": "uint256"
            },
            {
              "internalType": "uint256",
              "name": "purchasePrice",
              "type": "uint256"
            },
            {
              "internalType": "uint256",
              "name": "landValueAtPurchase",
              "type": "uint256"
            },
            {
              "internalType": "address[]",
              "name": "previousOwners",
              "type": "address[]"
            },
            {
              "internalType": "bool",
              "name": "isVerified",
              "type": "bool"
            },
            {
              "internalType": "bool",
              "name": "isForSale",
              "type": "bool"
            }
          ],
          "internalType": "struct LandRegistration.LandRecord",
          "name": "_record",
          "type": "tuple"
        }
      ],
      "name": "addLandRecord",
      "outputs": [
        {
          "internalType": "uint256",
          "name": "",
          "type": "uint256"
        }
      ],
      "stateMutability": "nonpayable",
      "type": "function"
    },
    {
      "inputs": [
        {
          "components": [
            {
              "internalType": "string",
              "name": "state",
              "type": "string"
            },
            {
              "internalType": "string",
              "name": "divison",
              "type": "string"
            },
            {
              "internalType": "string",
              "name": "district",
              "type": "string"
            },
            {
              "internalType": "string",
              "name": "taluka",
              "type": "string"
            },
            {
              "internalType": "string",
              "name": "village",
              "type": "string"
            },
            {
              "internalType": "uint256",
              "name": "surveyNumber",
              "type": "uint256"
            },
            {
              "internalType": "string",
              "name": "subdivision",
              "type": "string"
            }
          ],
          "internalType": "struct LandRegistration.LandIdentifier",
          "name": "_identifier",
          "type": "tuple"
        }
      ],
      "name": "getLandId",
      "outputs": [
        {
          "internalType": "uint256",
          "name": "",
          "type": "uint256"
        }
      ],
      "stateMutability": "view",
      "type": "function",
      "constant": true
    },
    {
      "inputs": [
        {
          "internalType": "uint256",
          "name": "_landId",
          "type": "uint256"
        }
      ],
      "name": "verifyLand",
      "outputs": [],
      "stateMutability": "nonpayable",
      "type": "function"
    },
    {
      "inputs": [
        {
          "internalType": "uint256",
          "name": "_landId",
          "type": "uint256"
        }
      ],
      "name": "listLandForSale",
      "outputs": [],
      "stateMutability": "nonpayable",
      "type": "function"
    },
    {
      "inputs": [
        {
          "internalType": "uint256",
          "name": "_landId",
          "type": "uint256"
        }
      ],
      "name": "requestForBuy",
      "outputs": [],
      "stateMutability": "nonpayable",
      "type": "function"
    },
    {
      "inputs": [],
      "name": "receivedLandRequests",
      "outputs": [
        {
          "internalType": "uint256[]",
          "name": "",
          "type": "uint256[]"
        }
      ],
      "stateMutability": "view",
      "type": "function",
      "constant": true
    },
    {
      "inputs": [],
      "name": "sentLandRequests",
      "outputs": [
        {
          "internalType": "uint256[]",
          "name": "",
          "type": "uint256[]"
        }
      ],
      "stateMutability": "view",
      "type": "function",
      "constant": true
    },
    {
      "inputs": [
        {
          "internalType": "uint256",
          "name": "_requestId",
          "type": "uint256"
        }
      ],
      "name": "acceptRequest",
      "outputs": [],
      "stateMutability": "nonpayable",
      "type": "function"
    },
    {
      "inputs": [
        {
          "internalType": "uint256",
          "name": "_requestId",
          "type": "uint256"
        }
      ],
      "name": "rejectRequest",
      "outputs": [],
      "stateMutability": "nonpayable",
      "type": "function"
    },
    {
      "inputs": [
        {
          "internalType": "uint256",
          "name": "id",
          "type": "uint256"
        }
      ],
      "name": "requestStatus",
      "outputs": [
        {
          "internalType": "bool",
          "name": "",
          "type": "bool"
        }
      ],
      "stateMutability": "view",
      "type": "function",
      "constant": true
    },
    {
      "inputs": [
        {
          "internalType": "uint256",
          "name": "_requestId",
          "type": "uint256"
        },
        {
          "components": [
            {
              "internalType": "string",
              "name": "state",
              "type": "string"
            },
            {
              "internalType": "string",
              "name": "divison",
              "type": "string"
            },
            {
              "internalType": "string",
              "name": "district",
              "type": "string"
            },
            {
              "internalType": "string",
              "name": "taluka",
              "type": "string"
            },
            {
              "internalType": "string",
              "name": "village",
              "type": "string"
            },
            {
              "internalType": "uint256",
              "name": "surveyNumber",
              "type": "uint256"
            },
            {
              "internalType": "string",
              "name": "subdivision",
              "type": "string"
            }
          ],
          "internalType": "struct LandRegistration.LandIdentifier",
          "name": "documentUrl",
          "type": "tuple"
        }
      ],
      "name": "transferLandOwnership",
      "outputs": [
        {
          "internalType": "bool",
          "name": "",
          "type": "bool"
        }
      ],
      "stateMutability": "nonpayable",
      "type": "function"
    },
    {
      "inputs": [],
      "name": "getLandsForSale",
      "outputs": [
        {
          "internalType": "uint256[]",
          "name": "",
          "type": "uint256[]"
        }
      ],
      "stateMutability": "view",
      "type": "function",
      "constant": true
    },
    {
      "inputs": [
        {
          "internalType": "address",
          "name": "owner",
          "type": "address"
        }
      ],
      "name": "myLandsList",
      "outputs": [
        {
          "internalType": "uint256[]",
          "name": "",
          "type": "uint256[]"
        }
      ],
      "stateMutability": "view",
      "type": "function",
      "constant": true
    },
    {
      "inputs": [],
      "name": "ReturnAllLandList",
      "outputs": [
        {
          "internalType": "uint256[]",
          "name": "",
          "type": "uint256[]"
        }
      ],
      "stateMutability": "view",
      "type": "function",
      "constant": true
    }
  ],
  "bytecode": "0x608060405260016009553480156200001657600080fd5b5060405162003ae638038062003ae683398181016040528101906200003c9190620000db565b336000806101000a81548173ffffffffffffffffffffffffffffffffffffffff021916908373ffffffffffffffffffffffffffffffffffffffff16021790555080600160006101000a81548173ffffffffffffffffffffffffffffffffffffffff021916908373ffffffffffffffffffffffffffffffffffffffff1602179055505062000155565b600081519050620000d5816200013b565b92915050565b600060208284031215620000ee57600080fd5b6000620000fe84828501620000c4565b91505092915050565b600062000114826200011b565b9050919050565b600073ffffffffffffffffffffffffffffffffffffffff82169050919050565b620001468162000107565b81146200015257600080fd5b50565b61398180620001656000396000f3fe608060405234801561001057600080fd5b50600436106101375760003560e01c80639b2cfdeb116100b8578063d5f394881161007c578063d5f3948814610365578063e01ae68b14610383578063e3df3cf8146103bb578063e88bed1a146103eb578063f6c1b99214610409578063f9c43bdf1461042757610137565b80639b2cfdeb14610282578063a79c286c146102b2578063b10a30ed146102e2578063bd63026c14610317578063d14dfce61461034757610137565b80635112824f116100ff5780635112824f146101de5780636163f8ec1461020e57806366746a711461022a57806373930e7e146102485780638714cfee1461026457610137565b8063048882431461013c5780631a3132021461015857806323393d77146101885780632d7788db146101a65780634ba1f098146101c2575b600080fd5b61015660048036038101906101519190612d4f565b610443565b005b610172600480360381019061016d9190612d4f565b6105d3565b60405161017f919061335e565b60405180910390f35b610190610600565b60405161019d919061333c565b60405180910390f35b6101c060048036038101906101bb9190612d4f565b610658565b005b6101dc60048036038101906101d79190612d4f565b610839565b005b6101f860048036038101906101f39190612c7b565b610a1b565b604051610205919061333c565b60405180910390f35b61022860048036038101906102239190612d4f565b610ab2565b005b61023261100f565b60405161023f919061333c565b60405180910390f35b610262600480360381019061025d9190612d4f565b6110a4565b005b61026c611176565b604051610279919061333c565b60405180910390f35b61029c60048036038101906102979190612ccd565b61120b565b6040516102a991906134b9565b60405180910390f35b6102cc60048036038101906102c79190612db4565b6112ec565b6040516102d9919061335e565b60405180910390f35b6102fc60048036038101906102f79190612d4f565b611b4f565b60405161030e969594939291906134d4565b60405180910390f35b610331600480360381019061032c9190612d78565b611be5565b60405161033e91906134b9565b60405180910390f35b61034f611c0a565b60405161035c9190613321565b60405180910390f35b61036d611c30565b60405161037a9190613321565b60405180910390f35b61039d60048036038101906103989190612d4f565b611c54565b6040516103b299989796959493929190613535565b60405180910390f35b6103d560048036038101906103d09190612d0e565b61205c565b6040516103e291906134b9565b60405180910390f35b6103f3612515565b60405161040091906134b9565b60405180910390f35b61041161251b565b60405161041e919061333c565b60405180910390f35b610441600480360381019061043c9190612d4f565b612573565b005b80600b600082815260200190815260200160002060010160009054906101000a900473ffffffffffffffffffffffffffffffffffffffff1673ffffffffffffffffffffffffffffffffffffffff163373ffffffffffffffffffffffffffffffffffffffff16146104e8576040517f08c379a00000000000000000000000000000000000000000000000000000000081526004016104df906133b9565b60405180910390fd5b8160011515600b6000838152602001908152602001600020600e0160009054906101000a900460ff16151514610553576040517f08c379a000000000000000000000000000000000000000000000000000000000815260040161054a906133d9565b60405180910390fd5b6000600b6000858152602001908152602001600020600001541161057657600080fd5b6001600b6000858152602001908152602001600020600e0160016101000a81548160ff021916908315150217905550600c839080600181540180825580915050600190039060005260206000200160009091909190915055505050565b60006002600083815260200190815260200160002060040160019054906101000a900460ff169050919050565b6060600780548060200260200160405190810160405280929190818152602001828054801561064e57602002820191906000526020600020905b81548152602001906001019080831161063a575b5050505050905090565b3373ffffffffffffffffffffffffffffffffffffffff166002600083815260200190815260200160002060010160009054906101000a900473ffffffffffffffffffffffffffffffffffffffff1673ffffffffffffffffffffffffffffffffffffffff16146106fc576040517f08c379a00000000000000000000000000000000000000000000000000000000081526004016106f390613479565b60405180910390fd5b60006004811115610736577f4e487b7100000000000000000000000000000000000000000000000000000000600052602160045260246000fd5b6002600083815260200190815260200160002060040160009054906101000a900460ff166004811115610792577f4e487b7100000000000000000000000000000000000000000000000000000000600052602160045260246000fd5b146107d2576040517f08c379a00000000000000000000000000000000000000000000000000000000081526004016107c9906133f9565b60405180910390fd5b600280600083815260200190815260200160002060040160006101000a81548160ff02191690836004811115610831577f4e487b7100000000000000000000000000000000000000000000000000000000600052602160045260246000fd5b021790555050565b3373ffffffffffffffffffffffffffffffffffffffff166002600083815260200190815260200160002060010160009054906101000a900473ffffffffffffffffffffffffffffffffffffffff1673ffffffffffffffffffffffffffffffffffffffff16146108dd576040517f08c379a00000000000000000000000000000000000000000000000000000000081526004016108d490613479565b60405180910390fd5b60006004811115610917577f4e487b7100000000000000000000000000000000000000000000000000000000600052602160045260246000fd5b6002600083815260200190815260200160002060040160009054906101000a900460ff166004811115610973577f4e487b7100000000000000000000000000000000000000000000000000000000600052602160045260246000fd5b146109b3576040517f08c379a00000000000000000000000000000000000000000000000000000000081526004016109aa906133f9565b60405180910390fd5b60016002600083815260200190815260200160002060040160006101000a81548160ff02191690836004811115610a13577f4e487b7100000000000000000000000000000000000000000000000000000000600052602160045260246000fd5b021790555050565b6060600560008373ffffffffffffffffffffffffffffffffffffffff1673ffffffffffffffffffffffffffffffffffffffff168152602001908152602001600020805480602002602001604051908101604052809291908181526020018280548015610aa657602002820191906000526020600020905b815481526020019060010190808311610a92575b50505050509050919050565b6000600160009054906101000a900473ffffffffffffffffffffffffffffffffffffffff1673ffffffffffffffffffffffffffffffffffffffff1663ace417e0336040518263ffffffff1660e01b8152600401610b0f9190613321565b602060405180830381600087803b158015610b2957600080fd5b505af1158015610b3d573d6000803e3d6000fd5b505050506040513d601f19601f82011682018060405250810190610b619190612ca4565b905080610ba3576040517f08c379a0000000000000000000000000000000000000000000000000000000008152600401610b9a90613499565b60405180910390fd5b600b6000838152602001908152602001600020600e0160019054906101000a900460ff16610c06576040517f08c379a0000000000000000000000000000000000000000000000000000000008152600401610bfd90613379565b60405180910390fd5b60006006600084815260200190815260200160002060003373ffffffffffffffffffffffffffffffffffffffff1673ffffffffffffffffffffffffffffffffffffffff1681526020019081526020016000205414610c99576040517f08c379a0000000000000000000000000000000000000000000000000000000008152600401610c9090613419565b60405180910390fd5b60086000815480929190610cac906137dc565b91905055506040518060c001604052806008548152602001600b600085815260200190815260200160002060010160009054906101000a900473ffffffffffffffffffffffffffffffffffffffff1673ffffffffffffffffffffffffffffffffffffffff1681526020013373ffffffffffffffffffffffffffffffffffffffff16815260200183815260200160006004811115610d72577f4e487b7100000000000000000000000000000000000000000000000000000000600052602160045260246000fd5b8152602001600015158152506002600060085481526020019081526020016000206000820151816000015560208201518160010160006101000a81548173ffffffffffffffffffffffffffffffffffffffff021916908373ffffffffffffffffffffffffffffffffffffffff16021790555060408201518160020160006101000a81548173ffffffffffffffffffffffffffffffffffffffff021916908373ffffffffffffffffffffffffffffffffffffffff1602179055506060820151816003015560808201518160040160006101000a81548160ff02191690836004811115610e86577f4e487b7100000000000000000000000000000000000000000000000000000000600052602160045260246000fd5b021790555060a08201518160040160016101000a81548160ff02191690831515021790555090505060036000600b600085815260200190815260200160002060010160009054906101000a900473ffffffffffffffffffffffffffffffffffffffff1673ffffffffffffffffffffffffffffffffffffffff1673ffffffffffffffffffffffffffffffffffffffff1681526020019081526020016000206008549080600181540180825580915050600190039060005260206000200160009091909190915055600460003373ffffffffffffffffffffffffffffffffffffffff1673ffffffffffffffffffffffffffffffffffffffff16815260200190815260200160002060085490806001815401808255809150506001900390600052602060002001600090919091909150556008546006600084815260200190815260200160002060003373ffffffffffffffffffffffffffffffffffffffff1673ffffffffffffffffffffffffffffffffffffffff168152602001908152602001600020819055505050565b6060600460003373ffffffffffffffffffffffffffffffffffffffff1673ffffffffffffffffffffffffffffffffffffffff16815260200190815260200160002080548060200260200160405190810160405280929190818152602001828054801561109a57602002820191906000526020600020905b815481526020019060010190808311611086575b5050505050905090565b80600b600082815260200190815260200160002060010160009054906101000a900473ffffffffffffffffffffffffffffffffffffffff1673ffffffffffffffffffffffffffffffffffffffff163373ffffffffffffffffffffffffffffffffffffffff1614611149576040517f08c379a0000000000000000000000000000000000000000000000000000000008152600401611140906133b9565b60405180910390fd5b600d8290806001815401808255809150506001900390600052602060002001600090919091909150555050565b6060600360003373ffffffffffffffffffffffffffffffffffffffff1673ffffffffffffffffffffffffffffffffffffffff16815260200190815260200160002080548060200260200160405190810160405280929190818152602001828054801561120157602002820191906000526020600020905b8154815260200190600101908083116111ed575b5050505050905090565b6000600a8260000151604051611221919061330a565b90815260200160405180910390208260200151604051611241919061330a565b90815260200160405180910390208260400151604051611261919061330a565b90815260200160405180910390208260600151604051611281919061330a565b908152602001604051809103902082608001516040516112a1919061330a565b908152602001604051809103902060008360a0015181526020019081526020016000208260c001516040516112d6919061330a565b9081526020016040518091039020549050919050565b600080600160009054906101000a900473ffffffffffffffffffffffffffffffffffffffff1673ffffffffffffffffffffffffffffffffffffffff1663e165af87336040518263ffffffff1660e01b815260040161134a9190613321565b602060405180830381600087803b15801561136457600080fd5b505af1158015611378573d6000803e3d6000fd5b505050506040513d601f19601f8201168201806040525081019061139c9190612ca4565b9050806113de576040517f08c379a00000000000000000000000000000000000000000000000000000000081526004016113d590613439565b60405180910390fd5b60016004811115611418577f4e487b7100000000000000000000000000000000000000000000000000000000600052602160045260246000fd5b6002600086815260200190815260200160002060040160009054906101000a900460ff166004811115611474577f4e487b7100000000000000000000000000000000000000000000000000000000600052602160045260246000fd5b146114b4576040517f08c379a00000000000000000000000000000000000000000000000000000000081526004016114ab90613399565b60405180910390fd5b6002600085815260200190815260200160002060040160019054906101000a900460ff16611517576040517f08c379a000000000000000000000000000000000000000000000000000000000815260040161150e90613459565b60405180910390fd5b60006002600086815260200190815260200160002060030154905060006002600087815260200190815260200160002060020160009054906101000a900473ffffffffffffffffffffffffffffffffffffffff16905060006002600088815260200190815260200160002060010160009054906101000a900473ffffffffffffffffffffffffffffffffffffffff169050600b6000848152602001908152602001600020600e0160019054906101000a900460ff1680156116275750866006600085815260200190815260200160002060008473ffffffffffffffffffffffffffffffffffffffff1673ffffffffffffffffffffffffffffffffffffffff16815260200190815260200160002054145b15611b405760046002600089815260200190815260200160002060040160006101000a81548160ff0219169083600481111561168c577f4e487b7100000000000000000000000000000000000000000000000000000000600052602160045260246000fd5b021790555085600b600085815260200190815260200160002060020160008201518160000190805190602001906116c492919061279a565b5060208201518160010190805190602001906116e192919061279a565b5060408201518160020190805190602001906116fe92919061279a565b50606082015181600301908051906020019061171b92919061279a565b50608082015181600401908051906020019061173892919061279a565b5060a0820151816005015560c082015181600601908051906020019061175f92919061279a565b509050506000600b6000858152602001908152602001600020600e0160016101000a81548160ff02191690831515021790555081600b600085815260200190815260200160002060010160006101000a81548173ffffffffffffffffffffffffffffffffffffffff021916908373ffffffffffffffffffffffffffffffffffffffff160217905550600560008373ffffffffffffffffffffffffffffffffffffffff1673ffffffffffffffffffffffffffffffffffffffff1681526020019081526020016000208390806001815401808255809150506001900390600052602060002001600090919091909150556000600560008373ffffffffffffffffffffffffffffffffffffffff1673ffffffffffffffffffffffffffffffffffffffff16815260200190815260200160002080549050905060005b81811015611ade5784600560008573ffffffffffffffffffffffffffffffffffffffff1673ffffffffffffffffffffffffffffffffffffffff1681526020019081526020016000208281548110611917577f4e487b7100000000000000000000000000000000000000000000000000000000600052603260045260246000fd5b90600052602060002001541415611acb57600560008473ffffffffffffffffffffffffffffffffffffffff1673ffffffffffffffffffffffffffffffffffffffff16815260200190815260200160002060018361197491906136c7565b815481106119ab577f4e487b7100000000000000000000000000000000000000000000000000000000600052603260045260246000fd5b9060005260206000200154600560008573ffffffffffffffffffffffffffffffffffffffff1673ffffffffffffffffffffffffffffffffffffffff1681526020019081526020016000208281548110611a2d577f4e487b7100000000000000000000000000000000000000000000000000000000600052603260045260246000fd5b9060005260206000200181905550600560008473ffffffffffffffffffffffffffffffffffffffff1673ffffffffffffffffffffffffffffffffffffffff168152602001908152602001600020805480611ab0577f4e487b7100000000000000000000000000000000000000000000000000000000600052603160045260246000fd5b60019003818190600052602060002001600090559055611ade565b8080611ad6906137dc565b915050611897565b506006600085815260200190815260200160002060008473ffffffffffffffffffffffffffffffffffffffff1673ffffffffffffffffffffffffffffffffffffffff168152602001908152602001600020600090556001955050505050611b48565b600094505050505b5092915050565b60026020528060005260406000206000915090508060000154908060010160009054906101000a900473ffffffffffffffffffffffffffffffffffffffff16908060020160009054906101000a900473ffffffffffffffffffffffffffffffffffffffff16908060030154908060040160009054906101000a900460ff16908060040160019054906101000a900460ff16905086565b6006602052816000526040600020602052806000526040600020600091509150505481565b600160009054906101000a900473ffffffffffffffffffffffffffffffffffffffff1681565b60008054906101000a900473ffffffffffffffffffffffffffffffffffffffff1681565b600b6020528060005260406000206000915090508060000154908060010160009054906101000a900473ffffffffffffffffffffffffffffffffffffffff1690806002016040518060e0016040529081600082018054611cb3906137aa565b80601f0160208091040260200160405190810160405280929190818152602001828054611cdf906137aa565b8015611d2c5780601f10611d0157610100808354040283529160200191611d2c565b820191906000526020600020905b815481529060010190602001808311611d0f57829003601f168201915b50505050508152602001600182018054611d45906137aa565b80601f0160208091040260200160405190810160405280929190818152602001828054611d71906137aa565b8015611dbe5780601f10611d9357610100808354040283529160200191611dbe565b820191906000526020600020905b815481529060010190602001808311611da157829003601f168201915b50505050508152602001600282018054611dd7906137aa565b80601f0160208091040260200160405190810160405280929190818152602001828054611e03906137aa565b8015611e505780601f10611e2557610100808354040283529160200191611e50565b820191906000526020600020905b815481529060010190602001808311611e3357829003601f168201915b50505050508152602001600382018054611e69906137aa565b80601f0160208091040260200160405190810160405280929190818152602001828054611e95906137aa565b8015611ee25780601f10611eb757610100808354040283529160200191611ee2565b820191906000526020600020905b815481529060010190602001808311611ec557829003601f168201915b50505050508152602001600482018054611efb906137aa565b80601f0160208091040260200160405190810160405280929190818152602001828054611f27906137aa565b8015611f745780601f10611f4957610100808354040283529160200191611f74565b820191906000526020600020905b815481529060010190602001808311611f5757829003601f168201915b5050505050815260200160058201548152602001600682018054611f97906137aa565b80601f0160208091040260200160405190810160405280929190818152602001828054611fc3906137aa565b80156120105780601f10611fe557610100808354040283529160200191612010565b820191906000526020600020905b815481529060010190602001808311611ff357829003601f168201915b5050505050815250509080600901549080600a01549080600b01549080600c01549080600e0160009054906101000a900460ff169080600e0160019054906101000a900460ff16905089565b600080600160009054906101000a900473ffffffffffffffffffffffffffffffffffffffff1673ffffffffffffffffffffffffffffffffffffffff1663ace417e0336040518263ffffffff1660e01b81526004016120ba9190613321565b602060405180830381600087803b1580156120d457600080fd5b505af11580156120e8573d6000803e3d6000fd5b505050506040513d601f19601f8201168201806040525081019061210c9190612ca4565b90508061214e576040517f08c379a000000000000000000000000000000000000000000000000000000000815260040161214590613499565b60405180910390fd5b60008061215e8560400151612697565b9150915081156121a9577faaf337ed6c27044ac7adfac9210c03e982f61dd5534d00cefa9baedc9e4150288160405161219791906134b9565b60405180910390a1809350505061250f565b60095485600001818152505060008561010001901515908115158152505060008561012001901515908115158152505084600b600060095481526020019081526020016000206000820151816000015560208201518160010160006101000a81548173ffffffffffffffffffffffffffffffffffffffff021916908373ffffffffffffffffffffffffffffffffffffffff160217905550604082015181600201600082015181600001908051906020019061226592919061279a565b50602082015181600101908051906020019061228292919061279a565b50604082015181600201908051906020019061229f92919061279a565b5060608201518160030190805190602001906122bc92919061279a565b5060808201518160040190805190602001906122d992919061279a565b5060a0820151816005015560c082015181600601908051906020019061230092919061279a565b50505060608201518160090155608082015181600a015560a082015181600b015560c082015181600c015560e082015181600d019080519060200190612347929190612820565b5061010082015181600e0160006101000a81548160ff02191690831515021790555061012082015181600e0160016101000a81548160ff021916908315150217905550905050600954600a8660400151600001516040516123a8919061330a565b90815260200160405180910390208660400151602001516040516123cc919061330a565b90815260200160405180910390208660400151604001516040516123f0919061330a565b9081526020016040518091039020866040015160600151604051612414919061330a565b9081526020016040518091039020866040015160800151604051612438919061330a565b90815260200160405180910390206000876040015160a001518152602001908152602001600020866040015160c00151604051612475919061330a565b9081526020016040518091039020819055506000600954905060076009549080600181540180825580915050600190039060005260206000200160009091909190915055600960008154809291906124cc906137dc565b91905055507fd6ba237a8c7a642ccbcdec4a0f3d08561b3ec6045c9f144ead69305210d11b528160405161250091906134b9565b60405180910390a18094505050505b50919050565b60095481565b6060600c80548060200260200160405190810160405280929190818152602001828054801561256957602002820191906000526020600020905b815481526020019060010190808311612555575b5050505050905090565b6000600160009054906101000a900473ffffffffffffffffffffffffffffffffffffffff1673ffffffffffffffffffffffffffffffffffffffff1663e165af87336040518263ffffffff1660e01b81526004016125d09190613321565b602060405180830381600087803b1580156125ea57600080fd5b505af11580156125fe573d6000803e3d6000fd5b505050506040513d601f19601f820116820180604052508101906126229190612ca4565b905080612664576040517f08c379a000000000000000000000000000000000000000000000000000000000815260040161265b90613439565b60405180910390fd5b6001600b6000848152602001908152602001600020600e0160006101000a81548160ff0219169083151502179055505050565b6000806000600a84600001516040516126b0919061330a565b908152602001604051809103902084602001516040516126d0919061330a565b908152602001604051809103902084604001516040516126f0919061330a565b90815260200160405180910390208460600151604051612710919061330a565b90815260200160405180910390208460800151604051612730919061330a565b908152602001604051809103902060008560a0015181526020019081526020016000208460c00151604051612765919061330a565b9081526020016040518091039020549050600081141561278c576000809250925050612795565b60018192509250505b915091565b8280546127a6906137aa565b90600052602060002090601f0160209004810192826127c8576000855561280f565b82601f106127e157805160ff191683800117855561280f565b8280016001018555821561280f579182015b8281111561280e5782518255916020019190600101906127f3565b5b50905061281c91906128aa565b5090565b828054828255906000526020600020908101928215612899579160200282015b828111156128985782518260006101000a81548173ffffffffffffffffffffffffffffffffffffffff021916908373ffffffffffffffffffffffffffffffffffffffff16021790555091602001919060010190612840565b5b5090506128a691906128aa565b5090565b5b808211156128c35760008160009055506001016128ab565b5090565b60006128da6128d5846135fa565b6135c9565b905080838252602082019050828560208602820111156128f957600080fd5b60005b85811015612929578161290f8882612971565b8452602084019350602083019250506001810190506128fc565b5050509392505050565b600061294661294184613626565b6135c9565b90508281526020810184848401111561295e57600080fd5b612969848285613768565b509392505050565b60008135905061298081613906565b92915050565b600082601f83011261299757600080fd5b81356129a78482602086016128c7565b91505092915050565b6000813590506129bf8161391d565b92915050565b6000815190506129d48161391d565b92915050565b600082601f8301126129eb57600080fd5b81356129fb848260208601612933565b91505092915050565b600060e08284031215612a1657600080fd5b612a2060e06135c9565b9050600082013567ffffffffffffffff811115612a3c57600080fd5b612a48848285016129da565b600083015250602082013567ffffffffffffffff811115612a6857600080fd5b612a74848285016129da565b602083015250604082013567ffffffffffffffff811115612a9457600080fd5b612aa0848285016129da565b604083015250606082013567ffffffffffffffff811115612ac057600080fd5b612acc848285016129da565b606083015250608082013567ffffffffffffffff811115612aec57600080fd5b612af8848285016129da565b60808301525060a0612b0c84828501612c66565b60a08301525060c082013567ffffffffffffffff811115612b2c57600080fd5b612b38848285016129da565b60c08301525092915050565b60006101408284031215612b5757600080fd5b612b626101406135c9565b90506000612b7284828501612c66565b6000830152506020612b8684828501612971565b602083015250604082013567ffffffffffffffff811115612ba657600080fd5b612bb284828501612a04565b6040830152506060612bc684828501612c66565b6060830152506080612bda84828501612c66565b60808301525060a0612bee84828501612c66565b60a08301525060c0612c0284828501612c66565b60c08301525060e082013567ffffffffffffffff811115612c2257600080fd5b612c2e84828501612986565b60e083015250610100612c43848285016129b0565b61010083015250610120612c59848285016129b0565b6101208301525092915050565b600081359050612c7581613934565b92915050565b600060208284031215612c8d57600080fd5b6000612c9b84828501612971565b91505092915050565b600060208284031215612cb657600080fd5b6000612cc4848285016129c5565b91505092915050565b600060208284031215612cdf57600080fd5b600082013567ffffffffffffffff811115612cf957600080fd5b612d0584828501612a04565b91505092915050565b600060208284031215612d2057600080fd5b600082013567ffffffffffffffff811115612d3a57600080fd5b612d4684828501612b44565b91505092915050565b600060208284031215612d6157600080fd5b6000612d6f84828501612c66565b91505092915050565b60008060408385031215612d8b57600080fd5b6000612d9985828601612c66565b9250506020612daa85828601612971565b9150509250929050565b60008060408385031215612dc757600080fd5b6000612dd585828601612c66565b925050602083013567ffffffffffffffff811115612df257600080fd5b612dfe85828601612a04565b9150509250929050565b6000612e1483836132ec565b60208301905092915050565b612e29816136fb565b82525050565b6000612e3a82613666565b612e448185613689565b9350612e4f83613656565b8060005b83811015612e80578151612e678882612e08565b9750612e728361367c565b925050600181019050612e53565b5085935050505092915050565b612e968161370d565b82525050565b612ea581613756565b82525050565b6000612eb682613671565b612ec0818561369a565b9350612ed0818560208601613777565b612ed9816138e1565b840191505092915050565b6000612eef82613671565b612ef981856136bc565b9350612f09818560208601613777565b80840191505092915050565b6000612f226014836136ab565b91507f4c616e64206973206e6f7420666f722073616c650000000000000000000000006000830152602082019050919050565b6000612f626014836136ab565b91507f52657175657374206e6f742061636365707465640000000000000000000000006000830152602082019050919050565b6000612fa26026836136ab565b91507f4f6e6c79206f776e65722063616e20706572666f726d2074686973206f70657260008301527f6174696f6e2e00000000000000000000000000000000000000000000000000006020830152604082019050919050565b6000613008602b836136ab565b91507f4f6e6c79207665726966696564206c616e64732063616e20626520707574207560008301527f7020666f722073616c652e0000000000000000000000000000000000000000006020830152604082019050919050565b600061306e6016836136ab565b91507f496e76616c6964207265717565737420737461747573000000000000000000006000830152602082019050919050565b60006130ae601f836136ab565b91507f416c72656164792072657175657374656420666f722074686973206c616e64006000830152602082019050919050565b60006130ee6027836136ab565b91507f4f6e6c7920696e73706563746f722063616e20706572666f726d20746869732060008301527f616374696f6e2e000000000000000000000000000000000000000000000000006020830152604082019050919050565b60006131546010836136ab565b91507f5061796d656e74206e6f7420646f6e65000000000000000000000000000000006000830152602082019050919050565b6000613194601b836136ab565b91507f4e6f74207468652073656c6c6572206f662074686973206c616e6400000000006000830152602082019050919050565b60006131d4602d836136ab565b91507f4f6e6c79207265676973746572656420757365722063616e20706572666f726d60008301527f207468697320616374696f6e2e000000000000000000000000000000000000006020830152604082019050919050565b600060e083016000830151848203600086015261324a8282612eab565b915050602083015184820360208601526132648282612eab565b9150506040830151848203604086015261327e8282612eab565b915050606083015184820360608601526132988282612eab565b915050608083015184820360808601526132b28282612eab565b91505060a08301516132c760a08601826132ec565b5060c083015184820360c08601526132df8282612eab565b9150508091505092915050565b6132f58161374c565b82525050565b6133048161374c565b82525050565b60006133168284612ee4565b915081905092915050565b60006020820190506133366000830184612e20565b92915050565b600060208201905081810360008301526133568184612e2f565b905092915050565b60006020820190506133736000830184612e8d565b92915050565b6000602082019050818103600083015261339281612f15565b9050919050565b600060208201905081810360008301526133b281612f55565b9050919050565b600060208201905081810360008301526133d281612f95565b9050919050565b600060208201905081810360008301526133f281612ffb565b9050919050565b6000602082019050818103600083015261341281613061565b9050919050565b60006020820190508181036000830152613432816130a1565b9050919050565b60006020820190508181036000830152613452816130e1565b9050919050565b6000602082019050818103600083015261347281613147565b9050919050565b6000602082019050818103600083015261349281613187565b9050919050565b600060208201905081810360008301526134b2816131c7565b9050919050565b60006020820190506134ce60008301846132fb565b92915050565b600060c0820190506134e960008301896132fb565b6134f66020830188612e20565b6135036040830187612e20565b61351060608301866132fb565b61351d6080830185612e9c565b61352a60a0830184612e8d565b979650505050505050565b60006101208201905061354b600083018c6132fb565b613558602083018b612e20565b818103604083015261356a818a61322d565b905061357960608301896132fb565b61358660808301886132fb565b61359360a08301876132fb565b6135a060c08301866132fb565b6135ad60e0830185612e8d565b6135bb610100830184612e8d565b9a9950505050505050505050565b6000604051905081810181811067ffffffffffffffff821117156135f0576135ef6138b2565b5b8060405250919050565b600067ffffffffffffffff821115613615576136146138b2565b5b602082029050602081019050919050565b600067ffffffffffffffff821115613641576136406138b2565b5b601f19601f8301169050602081019050919050565b6000819050602082019050919050565b600081519050919050565b600081519050919050565b6000602082019050919050565b600082825260208201905092915050565b600082825260208201905092915050565b600082825260208201905092915050565b600081905092915050565b60006136d28261374c565b91506136dd8361374c565b9250828210156136f0576136ef613825565b5b828203905092915050565b60006137068261372c565b9050919050565b60008115159050919050565b6000819050613727826138f2565b919050565b600073ffffffffffffffffffffffffffffffffffffffff82169050919050565b6000819050919050565b600061376182613719565b9050919050565b82818337600083830152505050565b60005b8381101561379557808201518184015260208101905061377a565b838111156137a4576000848401525b50505050565b600060028204905060018216806137c257607f821691505b602082108114156137d6576137d5613883565b5b50919050565b60006137e78261374c565b91507fffffffffffffffffffffffffffffffffffffffffffffffffffffffffffffffff82141561381a57613819613825565b5b600182019050919050565b7f4e487b7100000000000000000000000000000000000000000000000000000000600052601160045260246000fd5b7f4e487b7100000000000000000000000000000000000000000000000000000000600052602160045260246000fd5b7f4e487b7100000000000000000000000000000000000000000000000000000000600052602260045260246000fd5b7f4e487b7100000000000000000000000000000000000000000000000000000000600052604160045260246000fd5b6000601f19601f8301169050919050565b6005811061390357613902613854565b5b50565b61390f816136fb565b811461391a57600080fd5b50565b6139268161370d565b811461393157600080fd5b50565b61393d8161374c565b811461394857600080fd5b5056fea26469706673582212204c917c192316a2a660fe432b37d16a6d88db00ddf62299acd2c62e294d544c7e64736f6c63430008000033",
  "immutableReferences": {},
  "source": "// SPDX-License-Identifier: UNLICENSED\r\n\r\npragma solidity ^0.8.0;\r\n\r\nimport \"./registerAccount-contract.sol\";\r\n\r\ninterface IAccountRegistration {\r\n    function isUserVerified(address _account) external returns (bool);\r\n    function isLandInspector(address _account) external returns (bool);\r\n}\r\n\r\ncontract LandRegistration {\r\n\r\n    //Address which deployed this smart contract\r\n    address public deployer;\r\n    //AccountRegistration Contract\r\n    address public accountRegistrationContract;\r\n\r\n    constructor(address _accountRegistrationContract) {\r\n        deployer = msg.sender;\r\n        accountRegistrationContract = _accountRegistrationContract;\r\n    }\r\n\r\n    struct LandIdentifier {\r\n        /*\r\n            Fields needed to identify the piece of land\r\n            A state has divisions.\r\n            Each division has districts.\r\n            Each district has talukas.\r\n            Each taluka has villages.\r\n            A land parcel under this hierarchy is identified using\r\n            a survey number.\r\n            Shall this land be divided at a later point, its sub-divisions\r\n            are represented using a sub-division number.\r\n            All divisions in Maharashtra can be found in the link below:\r\n            http://www.landsofmaharashtra.com/divisionsofmaharashtra.html \r\n        */\r\n        string state;\r\n        string divison;\r\n        string district;\r\n        string taluka;\r\n        string village;\r\n        uint surveyNumber;\r\n        string subdivision;\r\n    }\r\n\r\n    struct LandRecord {\r\n        uint landId;\r\n        //Address of the account(person) that owns this piece of land\r\n        /* \r\n            Note: There can be multiple owners of a single piece of land.\r\n            This is being ignored for now.\r\n        */\r\n        address owner;\r\n\r\n        LandIdentifier identifier;\r\n\r\n        uint area;\r\n\r\n        //Represented as UNIX Time\r\n        uint purchaseDate;\r\n        //Price at which the land was purchased.\r\n        uint purchasePrice;\r\n        //Estimated value of land at the time of purchase\r\n        uint landValueAtPurchase;\r\n\r\n        //A list of the previous owners of this piece of land. \r\n        address[] previousOwners;\r\n\r\n        /*\r\n            If a piece of land is entering the system for the first time,\r\n            it must be verified by an inspector.\r\n        */\r\n        bool isVerified;\r\n        bool isForSale;\r\n    }\r\n\r\n    //Event to be emitted after adding a land record\r\n    event LandRecordAdded(uint landId);\r\n    //Event to be emitted if the land record already exists\r\n    event LandRecordExists(uint landId);\r\n\r\n//A structure that represents the Land requests made by buyer to seller along with the status of the request\r\n     struct LandRequest {\r\n        uint reqId;\r\n        address sellerId;\r\n        address buyerId;\r\n        uint landId;\r\n        reqStatus requestStatus;\r\n        bool isPaymentDone;\r\n    }\r\n\r\n    //An enumeration that shows different stages of the request\r\n    enum reqStatus {requested,accepted,rejected,paymentdone,completed}\r\n\r\n\r\n//Mapping to different lists and LandRequest\r\n    mapping(uint => LandRequest) public LandRequestMapping;\r\n    mapping(address => uint[])  MyReceivedLandRequests;\r\n    mapping(address => uint[])  MySentLandRequests;\r\n    mapping(address => uint[])  MyLands;\r\n\r\n// A mapping between land ID, buyer address, and request ID\r\n    mapping(uint => mapping(address => uint)) public landToBuyerToRequest;\r\n    \r\n    //List containing all the lands that are added\r\n    uint[] allLandList;\r\n\r\n    \r\n\r\n    uint requestCount;\r\n\r\n\r\n    uint public landRecordsCount = 1;\r\n\r\n    modifier onlyOwner(uint _landId) {\r\n        require(\r\n            msg.sender == landMapping[_landId].owner,\r\n            \"Only owner can perform this operation.\"\r\n        );\r\n        _;\r\n    }\r\n\r\n    modifier onlylInspector() {\r\n        //Call the isInspector function from the accountRegistration contract\r\n        bool isInspector = IAccountRegistration(\r\n            accountRegistrationContract\r\n        ).isLandInspector(msg.sender);\r\n\r\n        require(isInspector, \"Only inspector can perform this action.\");\r\n        _;\r\n    }\r\n\r\n    modifier onlyRegisteredUser() {\r\n        //Call the isVerified function from the accountRegistration contract\r\n        bool isRegisteredUser = IAccountRegistration(\r\n            accountRegistrationContract\r\n        ).isUserVerified(msg.sender);\r\n\r\n        require(isRegisteredUser, \"Only registered user can perform this action.\");\r\n        _;\r\n    }\r\n\r\n    modifier onlyVerifiedLand(uint _landId) {\r\n        require(\r\n            landMapping[_landId].isVerified == true,\r\n            \"Only verified lands can be put up for sale.\"\r\n        );\r\n        _;\r\n    }\r\n\r\n    /*\r\n        Mapping of land records by hierarchy. Mapping is as follows:\r\n        state => {\r\n            division => {\r\n                district => {\r\n                    taluka => {\r\n                        village => {\r\n                            survery number => {\r\n                                subdivision => id\r\n                            }\r\n                        }\r\n                    }\r\n                }\r\n            }\r\n        }\r\n        This mapping will be useful for efficient retrieval of land id.\r\n     */\r\n    \r\n    mapping(\r\n        string => mapping(\r\n            string => mapping(\r\n                string => mapping(\r\n                    string => mapping(\r\n                        string => mapping(\r\n                            uint => mapping(\r\n                                string => uint\r\n                            )\r\n                        )\r\n                    )\r\n                )\r\n            )\r\n        )\r\n    )landMapToId;\r\n\r\n    //Mapping of land ids to land records.\r\n    mapping(uint => LandRecord) public landMapping;\r\n\r\n    //A list of land ids which have been marked for sale\r\n    uint[] landsForSale;\r\n\r\n    //A list of lands which are to be verified by an inspector\r\n    uint[] verificationRequired;\r\n\r\n    //Function to submit a land verification request\r\n    function landVerificationRequest(uint _landId) public onlyOwner(_landId) {\r\n        verificationRequired.push(_landId);\r\n    }\r\n\r\n    function landRecordExists(LandIdentifier memory _record) \r\n                                private view returns (bool, uint) {\r\n        uint landId = landMapToId[_record.state][_record.divison]\r\n                                [_record.district][_record.taluka]\r\n                                [_record.village][_record.surveyNumber][_record.subdivision];\r\n        if (landId == 0) {\r\n            return (false, 0);\r\n        }\r\n        return (true, landId);\r\n    }\r\n\r\n    //This function is used to add a land record\r\n    function addLandRecord  (LandRecord memory _record) public \r\n                            onlyRegisteredUser returns (uint) {\r\n\r\n        (bool recordExists, uint landId) = landRecordExists(_record.identifier);\r\n\r\n        //If land record already exists, return the land id\r\n        if (recordExists) {\r\n            emit LandRecordExists(landId);\r\n            return landId;\r\n        }\r\n\r\n        _record.landId = landRecordsCount;\r\n        _record.isVerified = false;\r\n        _record.isForSale = false;\r\n        //If the land record doesn't already exist, add it to the mapping\r\n        //and return land id\r\n        landMapping[landRecordsCount] = _record;\r\n\r\n        //Also add it to the landMapToId mapping\r\n        landMapToId[_record.identifier.state][_record.identifier.divison]\r\n        [_record.identifier.district][_record.identifier.taluka]\r\n        [_record.identifier.village][_record.identifier.surveyNumber]\r\n        [_record.identifier.subdivision] = landRecordsCount;\r\n\r\n        uint addedLandId = landRecordsCount;\r\n        allLandList.push(landRecordsCount);\r\n        landRecordsCount++;\r\n        emit LandRecordAdded(addedLandId);\r\n        return addedLandId;\r\n    }\r\n\r\n    //Get land id\r\n    function getLandId(LandIdentifier memory _identifier) public view returns (uint){\r\n        return landMapToId[_identifier.state][_identifier.divison]\r\n        [_identifier.district][_identifier.taluka][_identifier.village]\r\n        [_identifier.surveyNumber][_identifier.subdivision];\r\n    }\r\n\r\n    //Function to approve a land verification request\r\n    function verifyLand(uint _landId) public onlylInspector {\r\n        landMapping[_landId].isVerified = true;\r\n    }\r\n\r\n    //List land for sale\r\n    function listLandForSale(uint _landId) public onlyOwner(_landId) \r\n    onlyVerifiedLand (_landId) {\r\n        //Check if land actually exists\r\n        //Mapping in solidity always exists and maps to a zero value\r\n        //Hence, this check is needed.\r\n        require(landMapping[_landId].landId > 0);\r\n\r\n        //Mark the land for Sale\r\n        landMapping[_landId].isForSale = true;\r\n\r\n        //Add the land to the landsForSale list\r\n        landsForSale.push(_landId);\r\n    }\r\n\r\n // Function where a buyer can request and show interest in buying a land\r\n    function requestForBuy(uint _landId) public onlyRegisteredUser {\r\n        require(landMapping[_landId].isForSale, \"Land is not for sale\");\r\n\r\n        // Check if the buyer has not already requested for this land\r\n        require(landToBuyerToRequest[_landId][msg.sender] == 0, \"Already requested for this land\");\r\n\r\n        requestCount++;\r\n        LandRequestMapping[requestCount] = LandRequest(requestCount, landMapping[_landId].owner, msg.sender, _landId, reqStatus.requested, false);\r\n        MyReceivedLandRequests[landMapping[_landId].owner].push(requestCount);\r\n        MySentLandRequests[msg.sender].push(requestCount);\r\n\r\n        // Update the mapping between land ID, buyer address, and request ID\r\n        landToBuyerToRequest[_landId][msg.sender] = requestCount;\r\n    }\r\n//Function that will return a list of received land requests buyers interested for a particular land\r\n    function receivedLandRequests() public view returns(uint[] memory)\r\n    {\r\n        return MyReceivedLandRequests[msg.sender];\r\n    }\r\n\r\n//Function that will return a list of buyers interested for a particular land and have sent requests\r\n    function sentLandRequests() public view returns(uint[] memory)\r\n    {\r\n        return MySentLandRequests[msg.sender];\r\n    }\r\n\r\n// Function where seller accepts the request of the buyer\r\n    function acceptRequest(uint _requestId) public {\r\n        require(LandRequestMapping[_requestId].sellerId == msg.sender, \"Not the seller of this land\");\r\n        require(LandRequestMapping[_requestId].requestStatus == reqStatus.requested, \"Invalid request status\");\r\n\r\n        // Update the request status\r\n        LandRequestMapping[_requestId].requestStatus = reqStatus.accepted;\r\n    }\r\n\r\n//Function where seller rejects the request of the buyer\r\n    function rejectRequest(uint _requestId) public \r\n    {\r\n        require(LandRequestMapping[_requestId].sellerId == msg.sender, \"Not the seller of this land\");\r\n        require(LandRequestMapping[_requestId].requestStatus == reqStatus.requested, \"Invalid request status\");\r\n\r\n        LandRequestMapping[_requestId].requestStatus=reqStatus.rejected;\r\n    }\r\n\r\n//Function to check the status of payment\r\n    function requestStatus(uint id) public view returns(bool)\r\n    {\r\n        return LandRequestMapping[id].isPaymentDone;\r\n    }\r\n\r\n\r\n // Function for transferring ownership of land between two parties\r\n    function transferLandOwnership(uint _requestId, LandIdentifier memory documentUrl) onlylInspector public returns(bool) {\r\n        require(LandRequestMapping[_requestId].requestStatus == reqStatus.accepted, \"Request not accepted\");\r\n        require(LandRequestMapping[_requestId].isPaymentDone, \"Payment not done\");\r\n\r\n        uint landId = LandRequestMapping[_requestId].landId;\r\n        address buyer = LandRequestMapping[_requestId].buyerId;\r\n        address seller = LandRequestMapping[_requestId].sellerId;\r\n\r\n        // Transfer ownership only if the land is still for sale and the buyer is valid\r\n        if (landMapping[landId].isForSale && landToBuyerToRequest[landId][buyer] == _requestId) {\r\n            LandRequestMapping[_requestId].requestStatus = reqStatus.completed;\r\n\r\n            // Update land details\r\n            landMapping[landId].identifier = documentUrl;\r\n            landMapping[landId].isForSale = false;\r\n            landMapping[landId].owner = buyer;\r\n\r\n            // Update the buyer's land list\r\n            MyLands[buyer].push(landId);\r\n\r\n            // Remove the land from the seller's land list\r\n            uint len = MyLands[seller].length;\r\n            for (uint i = 0; i < len; i++) {\r\n                if (MyLands[seller][i] == landId) {\r\n                    MyLands[seller][i] = MyLands[seller][len - 1];\r\n                    MyLands[seller].pop();\r\n                    break;\r\n                }\r\n            }\r\n\r\n            // Remove the mapping when the land ownership is transferred\r\n            delete landToBuyerToRequest[landId][buyer];\r\n\r\n            return true;\r\n        } else {\r\n            return false;\r\n        }\r\n    }\r\n\r\n    //Get all land ids which have been listed for sale\r\n    function getLandsForSale() public view returns (uint[] memory) {\r\n        return landsForSale;\r\n    }\r\n\r\n//Function to view the list of lands of a particular owner\r\n    function myLandsList(address owner) public view returns( uint[] memory){\r\n        return MyLands[owner];\r\n    }\r\n\r\n\r\n//Function that returns a list of all lands\r\n    function ReturnAllLandList() public view returns(uint[] memory)\r\n    {\r\n        return allLandList;\r\n    }\r\n}\r\n",
  "sourcePath": "C:\\Users\\Aaryan\\Desktop\\FYP\\Decentralizsed-Land-Registration\\contracts\\land-contract.sol",
  "compiler": {
    "name": "solc",
    "version": "0.8.0+commit.c7dfd78e.Emscripten.clang"
  },
  "schemaVersion": "3.4.16",
  "updatedAt": "2023-12-03T07:46:03.552Z",
  "networkType": "ethereum",
  "devdoc": {
    "kind": "dev",
    "methods": {},
    "version": 1
  },
  "userdoc": {
    "kind": "user",
    "methods": {},
    "version": 1
  }
}